:020000040800F2
:10000000B0CD012075030008CD710108CF71010842
:10001000D3710108D7710108DB71010800000000ED
:100020000000000000000000000000009D0100082A
:10003000DF71010800000000F1010008E171010812
:100040008F0300088F0300088F0300088F03000848
:100050008F0300088F0300088F0300088F03000838
:100060008F0300088F0300088F0300088F03000828
:100070008F0300088F0300088F0300088F03000818
:100080008F0300088F0300088F0300088F03000808
:10009000037201088F0300080D7201083572010810
:1000A0008F0300088F0300088F0300088F030008E8
:1000B0008F030008F97101082B7201088F030008F3
:1000C0008F0300088F0300088F0300088F030008C8
:1000D0008F0300088F0300088F0300088F030008B8
:1000E0008F0300088F0300088F0300088F030008A8
:1000F0008F0300088F0300088F0300088F03000898
:100100008F0300088F0300088F0300088F03000887
:100110008F0300088F0300088F0300088F03000877
:100120008F0300088F0300088F0300088F03000867
:100130008F0300088F0300088F0300088F03000857
:10014000177201088F030008217201088F0300084D
:100150008F0300088F0300088F0300088F03000837
:100160008F0300088F0300088F0300088F03000827
:100170008F0300088F0300088F03000800000000B1
:100180008F0300088F030008DFF80CD01DF004FD7A
:10019000004800472D6D0108B0CD01202A4B196899
:1001A0000868B0E8F04F80F30988BFF36F8F4FF015
:1001B000000080F3118870470000000006480068C6
:1001C000006880F3088862B661B6BFF34F8FBFF353
:1001D0006F8F00DF00BF00BF08ED00E0DFF80C000C
:1001E000016841F470010160704700BF88ED00E0D4
:1001F000EFF30980BFF36F8F134B1A681EF0100FD7
:1002000008BF20ED108A20E9F04F106008B44FF0CD
:10021000300080F31188BFF34F8FBFF36F8F0DF065
:100220006DFF4FF0000080F3118808BC1968086862
:10023000B0E8F04F1EF0100F08BFB0EC108A80F34A
:100240000988BFF36F8F704720000020EFF305800F
:10025000704700003F48006840F470003D49086066
:100260003D48006840F001003B49086000203A49E1
:100270000831086038480068384908403649086045
:100280003748091D0860081F006820F48020091FF6
:100290000860002030490C3108604FF000602D49A3
:1002A00080390860704770B50020002202230024C6
:1002B0000221294D08352D6805F00C0020B10428D5
:1002C00006D0082834D107E0264D274E356033E0AC
:1002D000264D254E35602FE01F4D2D1D2D68C5F391
:1002E00080541D4D2D1D2D6805F03F0154B11F4D4B
:1002F000B5FBF1F5184E361D3668C6F3881605FBBA
:1003000006F209E0174DB5FBF1F5134E361D3668C0
:10031000C6F3881605FB06F20F4D2D1D2D68C5F39B
:1003200001456D1C6B00B2FBF3F50F4E356003E029
:100330000C4D0D4E356000BF00BF074D08352D68D0
:10034000C5F303150A4E705D074D2D68C540064E76
:10035000356070BD88ED00E000380240FFFFF6FE1A
:10036000103000240024F4000000002000127A0065
:100370003CE501080648804706480047FEE7FEE7DF
:10038000FEE7FEE7FEE7FEE7FEE7FEE7FEE7FEE745
:100390005502000889010008F948006800F400705F
:1003A000B0B1F748006820F40070F549086000BF5C
:1003B0000846006840F4006008600846006820F4C1
:1003C0000060086000BF0846006840F400700860E4
:1003D000EB48006800F48060B0B1E948006820F4A0
:1003E0008060E749086000BF0846006840F480501C
:1003F00008600846006820F48050086000BF084686
:10040000006840F480600860704770B504460D468F
:100410000026ACB1012C13D0022C11D0032C0FD02C
:10042000042C0DD0052C0BD0062C09D0072C07D09E
:10043000082C05D0092C03D00A2C01D00B2C00D19C
:1004400004E040F2DB31CFA016F08FFC2DB1012D7E
:1004500003D0022D01D0032D00D104E04FF47771B9
:10046000C8A016F082FC0DB9002609E0012D01D1CB
:100470002E0205E0022D01D12E0201E04FF440765C
:10048000BF481030006820F44070BD49103108604A
:1004900008460068304308600846006820F0F8000D
:1004A000086008460068022141EAC4010843B449D3
:1004B000103108600846006840F48030086070BD64
:1004C00070B504460D462CB1012C03D0022C01D08E
:1004D000032C00D104E04FF46F71AAA016F045FC84
:1004E000012D00D104E040F2BD31A6A016F03DFC84
:1004F000A3481030006820F44070A1491031086012
:100500000846006840F004000860084600684FF4A0
:10051000803141EA0421084399491031086070BDD7
:100520002DE9F04104460E460127002500BFA548ED
:10053000007E012802D10220BDE8F0810120A149FE
:10054000087600BF206810B12068012800D103E0C0
:10055000AB218CA016F009FC4CF2503002F09BFC51
:100560000746002F43D1401E30602068012811D17A
:10057000207C6168FFF7A4FF4CF2503002F08BFC46
:1005800007467F481030006820F004007C49103195
:1005900008602AE0D4E90210084428B1D4E9021026
:1005A00008440C2800D803E0C32176A016F0DDFB38
:1005B000A56814E0217C2846FFF727FF4CF2503055
:1005C00002F069FC07466E481030006820F0FA001F
:1005D0006B49103108600FB1356005E06D1CD4E93E
:1005E00002100844A842E5D800BFFFF7D5FE00BFBF
:1005F00000207449087600BF38469DE770B5044670
:10060000002500BF6F48007E012801D1022070BD87
:1006100001206C49087600BF206810B120680128CD
:1006200000D103E0F12157A016F09FFB5448103091
:10063000006840F080705249103108600846006838
:1006400040F000700860F320091F0860206801284E
:1006500009D102205B49087060680861207C6168EC
:10066000FFF72EFF1BE0D4E90210084428B1D4E9BB
:10067000021008440C2800D804E040F2091141A0FF
:1006800016F073FB01204F490870E0684860A068CD
:10069000C860207C0872217CA068FFF7B6FE28465F
:1006A000B5E710B50446082C04D0042C02D00CB1D8
:1006B0000C2C00D104E040F2D24132A016F055FBE0
:1006C0002F481430007820F00C002D4914310870A8
:1006D0000846007820430870002010BD2DE9F04145
:1006E00004460D4616464FF0FF080027202C00D088
:1006F00004B904E040F2B24122A016F036FB402DCE
:1007000000D005B904E040F2B3411EA016F02DFB65
:10071000802E00D006B904E040F2B44119A016F0D2
:1007200024FB4CF2503002F0B6FB07465FB9144888
:100730001430007800F01F0845EA080030432043D9
:100740000F49143108703846BDE8F08170B5044691
:100750000025AA2C03D0552C01D0CC2C00D104E0CC
:1007600040F28F4107A016F000FB4CF2503002F02F
:1007700092FB054615B9024815300470284670BD35
:10078000003C02402E2E5C4C696272617269657396
:100790005C53544D3332463478785F48414C5F4463
:1007A00072697665725C5372635C73746D33326622
:1007B0003478785F68616C5F666C6173685F6578D8
:1007C0002E6300009415002070B504460D460026E7
:1007D000200B000308B904B105E040F23141AFF24B
:1007E0005C0016F0C2FA012D00D105E040F2324162
:1007F000AFF2700016F0B9FA4CF2503002F04BFB39
:1008000006462EB95D480088A1B208435B490880BE
:10081000304670BD70B504460D460026200B00031F
:1008200008B904B105E040F20D41AFF2A80016F09E
:100830009CFA012D00D105E040F20E41AFF2BC0060
:1008400016F093FA4CF2503002F025FB064626B91A
:100850004A480088A04349490880304670BD70B5B9
:100860000446012500BF4648007E012801D1022030
:1008700070BD01204249087600BF20680F2800D8CB
:1008800005E04FF49371AFF2041016F06EFA207881
:1008900000F00100C8B1606810B16068012800D1A3
:1008A00005E040F22B11AFF2241016F05EFA6068FA
:1008B000012805D1D4E90201FFF7ACFF054604E0A9
:1008C000D4E90201FFF780FF0546207800F002001E
:1008D000022803D1207CFFF739FF0546207800F07D
:1008E0000400042809D1237E03F0800203F04001B4
:1008F00003F02000FFF7F2FE0546207800F0080024
:10090000082803D1207DFFF7CCFE054600BF00205C
:100910001B49087600BF2846AAE71848801E0078C1
:1009200000F00C0070471548801E006800F0E000E1
:100930007047AA201149491E0978CC2901D1CC2041
:1009400007E00E49491E0978AA2901D1AA2000E032
:100950005520704709480088704710B504460F209D
:100960002060FFF7F7FFA060FFF7E3FF2061FFF7CC
:10097000DAFF2076FFF7D1FF606110BD163C024020
:1009800094150020704770B50446794800784FF4FC
:100990007A71B1FBF0F077490968B1FBF0F52846B0
:1009A00001F0A5F908B1012070BD102C07D200227A
:1009B0002146501E01F0F1F86F48046001E001206B
:1009C000F2E70020F0E710B56C48006840F40070D2
:1009D0006A4908600846006840F48060086008467C
:1009E000006840F480700860032001F0B3F80F2025
:1009F000FFF7C9FF16F004FA002010BD704710B5CC
:100A00004FF0FF305E49086000200860401E091D5D
:100A1000086000200860401E594910390860002015
:100A20000860401E091D086000200860401E091D66
:100A300008600020086016F0E4F9002010BD51485D
:100A400000684B49097808444E49086070474D4892
:100A50000068704748480068704770B50446002534
:100A6000642C03D00A2C01D0012C00D104E04FF4F7
:100A7000AC7145A016F079F93D480078A04206D047
:100A80003B4804703C480068FFF77DFF0546284658
:100A900070BD37480078704770B50446FFF7D7FF40
:100AA00006462546681C10B131480078054400BF51
:100AB000FFF7CDFF801BA842FAD370BD4FF0E020B6
:100AC000006920F002004FF0E021086170474FF00C
:100AD000E020006940F002004FF0E021086170471B
:100AE0003748704737480068000C70473548006841
:100AF000C0F30B0070473348406840F001003149B3
:100B0000486070472F48406820F001002D49486038
:100B100070472C48406840F002002A4948607047FE
:100B20002848406820F00200264948607047254860
:100B3000406840F0040023494860704721484068FD
:100B400020F004001F494860704701201E490860DA
:100B5000704700201C49086070471C4800687047B7
:100B60001A48001D00687047184808300068704730
:100B70000C0000200000002008000020003C024083
:100B800020380240040000202E2E5C4C6962726105
:100B9000726965735C53544D3332463478785F48DC
:100BA000414C5F4472697665725C5372635C737426
:100BB0006D3332663478785F68616C2E63000000B4
:100BC00000060701002004E000042742107AFF1FFE
:100BD000704770B504460CB9012070BDFD4920680E
:100BE000884203D0FC492068884200D104E040F2EA
:100BF0001D11FAA016F0B9F8207E10B1207E012850
:100C000000D104E04FF48F71F4A016F0AEF8607ECE
:100C100010B1607E012800D104E040F21F11EFA066
:100C200016F0A3F8A07E10B1A07E012800D104E048
:100C30004FF49071E9A016F098F8E07E10B1E07ED4
:100C4000012800D104E040F22111E4A016F08DF853
:100C5000207F10B1207F012800D104E04FF4917172
:100C6000DEA016F082F8607F10B1607F012800D10D
:100C700004E040F22311D9A016F077F8A06858B12B
:100C8000A068B0F1804F07D0A068B0F1004F03D04A
:100C9000A068B0F1404F00D104E04FF49271CFA0B2
:100CA00016F063F8E06858B1E068B0F1807F07D0D3
:100CB000E068B0F1007F03D0E068B0F1407F00D180
:100CC00004E040F22511C5A016F04FF82069D8B312
:100CD0002069B0F5803F37D02069B0F5003F33D0B0
:100CE0002069B0F5403F2FD02069B0F5802F2BD080
:100CF0002069B0F5A02F27D02069B0F5C02F23D0F0
:100D00002069B0F5E02F1FD02069B0F5002F1BD06F
:100D10002069B0F5102F17D02069B0F5202F13D01F
:100D20002069B0F5302F0FD02069B0F5402F0BD0DF
:100D30002069B0F5502F07D02069B0F5602F03D09F
:100D40002069B0F5702F00D104E04FF49371A3A097
:100D500016F00BF86069D8B16069B0F5801F17D044
:100D60006069B0F5001F13D06069B0F5401F0FD067
:100D70006069B0F5800F0BD06069B0F5A00F07D0A7
:100D80006069B0F5C00F03D06069B0F5E00F00D125
:100D900004E040F2271191A015F0E7FF606820B150
:100DA0006068B0F5806F00D804E04FF494718BA0B8
:100DB00015F0DBFF94F8200010B9204616F0B7F8C4
:100DC0002068006820F0020021680860FFF73FFEFD
:100DD00005460DE0FFF73BFE401B0A2808D9606A74
:100DE00040F400306062052084F820000120F4E621
:100DF0002068406800F002000028EBD120680068FD
:100E000040F0010021680860FFF721FE05460DE073
:100E1000FFF71DFE401B0A2808D9606A40F4003025
:100E20006062052084F820000120D6E62068406832
:100E300000F001000028EBD0207E012806D12068B8
:100E4000006840F080002168086005E020680068C4
:100E500020F0800021680860607E012806D12068AB
:100E6000006840F040002168086005E020680068E4
:100E700020F0400021680860A07E012806D120688B
:100E8000006840F020002168086005E020680068E4
:100E900020F0200021680860E07E012806D120684B
:100EA000006820F010002168086005E020680068F4
:100EB00040F0100021680860207F012806D12068DA
:100EC000006840F008002168086005E020680068BC
:100ED00020F0080021680860607F012806D12068A2
:100EE000006840F004002168086005E020680068A0
:100EF00020F0040021680860D4E902010843216958
:100F00000843616908436168491E08432168C86154
:100F100000206062012084F8200000205DE6704718
:100F200070B5044694F82000022828D12068006893
:100F300040F0010021680860FFF789FD05460DE0DB
:100F4000FFF785FD401B0A2808D9606A40F400308D
:100F50006062052084F82000012070BD2068406890
:100F600000F001000028EBD02068006820F00200AB
:100F700021680860012084F820000020EDE7606A05
:100F800040F4801060620120E7E710B504460CB918
:100F9000012010BD0F492068884203D00E49206807
:100FA000884200D104E04FF4EA710CA015F0DDFE98
:100FB0002046FFF7B5FF204616F075F82068006858
:100FC00040F40040216808600020606284F820003E
:100FD00000BFDEE700640040006800402E2E5C4C3D
:100FE00069627261726965735C53544D3332463481
:100FF00078785F48414C5F4472697665725C5372E1
:10100000635C73746D3332663478785F68616C5FEB
:1010100063616E2E630000002DE9F04107460C4627
:101020003D6897F82080B8F1010F02D0B8F1020FA7
:101030007DD12068B0F5803F00D205E04FF45471B7
:10104000AFF2680015F091FE6068B0F5803F00D205
:1010500005E040F25131AFF27C0015F086FEA06849
:10106000B0F5803F00D205E040F25231AFF294007B
:1010700015F07BFEE068B0F5803F00D205E040F25D
:101080005331AFF2A80015F070FEA06910B1A0694D
:10109000012800D105E04FF45571AFF2C00015F002
:1010A00064FEE06910B1E069012800D105E040F27A
:1010B0005531AFF2D80015F058FE206910B1206903
:1010C000012800D105E040F25631AFF2F00015F0F2
:1010D0004CFE206A10B1206A012800D105E040F2E0
:1010E0005731AFF2081015F040FEF54D60691B282E
:1010F00000D805E040F27231AFF2201015F035FE55
:10110000606A1B2800D805E040F27331AFF234105A
:1011100015F02BFE05F50075286840F001002860E9
:10112000286820F47C5028602868616A00E071E03B
:1011300040EA01202860207D00F01F01012000FA14
:1011400001F6E869B043E861A5F50075E069C8B942
:10115000D5F80C02B043C5F80C02A08880B2A18972
:1011600040EA014105F51070626940F832102088AC
:1011700080B2218940EA014105F51070626900EBF7
:10118000C2004160E069012819D1D5F80C02304352
:10119000C5F80C02A08880B2218840EA014105F51B
:1011A0001070626940F83210A08980B2218940EA4B
:1011B000014105F51070626900EBC2004160A06951
:1011C00028B9D5F80402B043C5F8040204E0D5F804
:1011D00004023043C5F80402206928B9D5F8140286
:1011E000B043C5F8140204E0D5F814023043C5F842
:1011F0001402206A012804D1D5F81C023043C5F836
:101200001C02D5F8000220F00100C5F80002002001
:10121000BDE8F081786A40F4802078620120F7E729
:1012200070B5044694F82000012822D1022084F8E9
:1012300020002068006820F0010021680860FFF7A6
:1012400006FC05460DE0FFF702FC401B0A2808D902
:10125000606A40F400306062052084F820000120BC
:1012600070BD2068406800F001000028EBD160628A
:10127000F6E7606A40F4002060620120F0E7014672
:1012800091F82020012A01D0022A07D108680068BD
:1012900040F002000B68186000207047486A40F474
:1012A000802048620120F8E718B501460020009030
:1012B000844B91F82020012A01D0022A19D1086814
:1012C000006820F002000C68206000BF0098401CFD
:1012D00000900098984205D9486A40F4003048626E
:1012E000012018BD0868406800F002000028EDD118
:1012F000F7E7486A40F4802048620120F1E70146A0
:10130000002091F82020012A01D0022A05D10B6883
:101310005B6803F0020303B1012070472DE9F04739
:1013200005460C461746994695F820A02868D0F83F
:101330000880A06810B1A068042800D105E040F240
:10134000E941AFF2683015F010FDE06810B1E068D7
:10135000022800D105E040F2EA41AFF2803015F0FA
:1013600004FD2069082800D805E040F2EB41AFF207
:10137000943015F0FAFCA06858B92068B0F5006FF9
:1013800000D211E040F2EE41AFF2B03015F0EDFCCA
:101390000AE06068B0F1005F00D205E040F2F2417F
:1013A000AFF2C83015F0E1FC207D10B1207D01289E
:1013B00000D105E040F2F441AFF2E03015F0D5FC89
:1013C000BAF1010F02D0BAF1020F7DD108F08060AE
:1013D00030B908F0006018B908F08050002875D0C6
:1013E000C8F30166022E06D9686A40F400006862FC
:1013F0000120BDE8F0870120B040C9F80000A068D6
:1014000050B92188E06840EA4151286800F5C07071
:1014100000EB061001600BE0D4E9011040EAC100C6
:10142000E1680843296801F5C07101EB0611086005
:101430002169286800F5C07000EB06104160207D2E
:1014400001280DD1286800F5C07000EB0610406837
:1014500040F48071286800F5C07000EB0610416010
:10146000F8790006B97940EA0140797940EA01202B
:1014700039790843296801F5C07101EB0611C8608C
:10148000F8780006B97840EA0140797840EA01200E
:1014900039780843296801F5C07101EB06118860AD
:1014A000286800F5C07000EB0610006840F00101EC
:1014B000286800F5C07000EB06100160002098E776
:1014C0000064004040420F0006E0FFE7686A40F415
:1014D0000010686201208CE7686A40F4802068622E
:1014E000012086E770B504460D4694F82060072D6C
:1014F00000D805E040F25351AFF2205015F035FC12
:10150000012E01D0022E1CD105F0010028B1206867
:10151000806840F080002168886005F0020028B1F2
:101520002068806840F400402168886005F004006D
:1015300028B12068806840F400002168886000209D
:1015400070BD606A40F4802060620120F8E70146C7
:10155000002091F82020012A01D0022A11D10B6825
:101560009B6803F0806303B1401C0B689B6803F029
:10157000006303B1401C0B689B6803F0805303B108
:10158000401C70472DE9F04105460C46002795F8B0
:101590002060072C00D805E04FF4B661AFF2C450CC
:1015A00015F0E3FB012E01D0022E07D128688068D8
:1015B00000EA8460B0EB846F00D001273846BDE8B4
:1015C000F0812DE9F04105460C464FF0000895F8F2
:1015D0002070012C03D0022C01D0042C00D105E096
:1015E00040F2D151AFF20C6015F0BFFB012F01D0DA
:1015F000022F0BD194FAA4F0B0FA80F6286800F517
:10160000C07000EB061040684FEA10484046BDE845
:10161000F0812DE9F04104460D4616461F4694F828
:1016200020800DB1012D00D105E04FF4BE61AFF275
:10163000546015F09AFBB8F1010F02D0B8F1020F17
:101640007DD15DB92068C06800F0030088B9606A88
:1016500040F4001060620120BDE8F081206800695C
:1016600000F0030028B9606A40F4001060620120B5
:10167000F2E7206800F5D87000EB0510006800F074
:101680000400B060B06840B9206800F5D87000EB85
:1016900005100068400D306007E0206800F5D87044
:1016A00000EB05100068C0087060206800F5D87075
:1016B00000EB0510006800F002004008F0602068B0
:1016C00000F5D87000EB0510406800F00F003061A5
:1016D000206800F5D87000EB0510406800F47F40EA
:1016E000000AB061206800F5D87000EB0510406872
:1016F000000C7061206800F5D87000EB0510806860
:101700003870206800F5D87000EB0510806800F490
:101710007F40000A7870206800F5D87000EB051053
:10172000806800F47F00000CB870206800F5D87065
:1017300000EB05108068000EF870206800E031E0D2
:1017400000F5D87000EB0510C0683871206800F50E
:10175000D87000EB0510C06800F47F40000A787173
:10176000206800F5D87000EB0510C06800F47F0019
:10177000000CB871206800F5D87000EB0510C06847
:10178000000EF87135B92068C06840F0200021686B
:10179000C86005E02068006940F020002168086109
:1017A000002059E7606A40F480206062012053E71E
:1017B0002DE9F04104460D46002794F820600DB154
:1017C000012D00D105E040F24C61AFF2F07015F050
:1017D000CCFA012E01D0022E09D125B92068C068AB
:1017E00000F0030703E02068006900F003073846B3
:1017F000BDE8F08170B504460D4694F82060CC48F1
:10180000854200D805E04FF4D061AFF6300015F006
:10181000ACFA012E01D0022E06D12068406928437F
:1018200021684861002070BD606A40F480206062D9
:101830000120F8E770B504460D4694F82060BC48D6
:10184000854200D805E040F2A161AFF6700015F0C6
:101850008CFA012E01D0022E06D120684069A843DF
:1018600021684861002070BD606A40F48020606299
:101870000120F8E77047704770477047704770471E
:1018800070477047704770477047704770472DE941
:10189000F05F04460025206846692068D0F804906F
:1018A000206887682068D0F80CA02068D0F810B0B5
:1018B0002068D0F8188006F00100002855D007F005
:1018C0000100C0B101202168886007F0020018B152
:1018D0002046FFF7DBFF0EE007F0040010B145F4EF
:1018E000006508E007F0080010B145F4805502E0FB
:1018F0002046FFF7CAFF07F48070C8B14FF480702C
:101900002168886007F4007018B12046FFF7BCFF1B
:101910000EE007F4806010B145F4005508E007F4CC
:10192000006010B145F4804502E02046FFF7ABFFB0
:1019300007F48030C8B14FF480302168886007F424
:10194000003018B12046FFF79DFF0EE007F480201D
:1019500010B145F4004508E007F4002010B145F44B
:10196000803502E02046FFF78CFF06F0080038B112
:101970000AF0100020B145F4007510202168C860FD
:1019800006F0040040B10AF0080028B108202168E0
:10199000C8602046FFF774FF06F0020038B12068E7
:1019A000C06800F0030010B1204614F092F906F070
:1019B000400038B10BF0100020B145F480651020D4
:1019C0002168086106F0200040B10BF0080028B142
:1019D0000820216808612046FFF750FF06F010003C
:1019E00038B12068006900F0030010B12046FFF70D
:1019F00044FF06F4003040B109F0100028B1102077
:101A0000216848602046FFF737FF06F4803040B178
:101A100009F0080028B10820216848602046FFF737
:101A20002AFF06F4004088B309F0040078B306F4F6
:101A3000807020B108F0010008B145F0010506F4FE
:101A4000007020B108F0020008B145F0020506F46C
:101A5000806020B108F0040008B145F0040506F4E8
:101A60000060A0B108F0700088B108F07000402854
:101A700017D006DC10280BD020280CD0302819D124
:101A80000CE0502810D0602814D110E01DE019E0BF
:101A900045F008050FE045F010050CE045F0200585
:101AA00009E045F0400506E045F0800503E045F417
:101AB000807500E000BF00BF2068806920F07000E2
:101AC000216888610420216848602DB1606A28433C
:101AD0006062204614F041F9BDE8F09F014691F89C
:101AE0002000012801D002280CD10A68526802F0B7
:101AF00002020AB1042005E00A68126802F002023C
:101B000002B1032070470146486A70470146002031
:101B100091F82020012A01D0022A02D100234B6231
:101B200004E04B6A43F480234B62012070470000BD
:101B30007F8F030010B5002804DB0A07130EFE4A4E
:101B4000135406E00A07140EFC4A00F00F031B1F93
:101B5000D45410BD10B50446072C07D0062C05D070
:101B6000052C03D0042C01D0032C00D103E09221DA
:101B7000F3A015F0FAF800BF04F00701EF4A0C3AA1
:101B800010684FF6FF021040FD4A024342EA01206E
:101B9000EA4A0C3A106000BF10BD2DE9F05F8046A4
:101BA0000C4615460027102D00D203E0AA21E4A020
:101BB00015F0DBF8102C00D203E0AB21E0A015F00B
:101BC000D4F800F00BFB0746394622462B4601F0BD
:101BD0000700C0F1070ABAF1040F02D94FF0040A56
:101BE00001E0C0F1070AD14600F1040ABAF1070F7B
:101BF00002D24FF0000A01E0A0F1030AD4464FF0F0
:101C0000010A0AFA09FAAAF1010A0AEA020A0AFA18
:101C10000CFA4FF0010B0BFA0CFBABF1010B0BEACA
:101C2000030B4AEA0B0631464046FFF783FFBDE847
:101C3000F09F10B50446002C00DB03E0BE21C0A0DD
:101C400015F093F82046002809DB00F01F0201215F
:101C500091404209920002F1E022C2F8001100BF57
:101C600010BD10B50446002C00DB03E0CE21B4A06B
:101C700015F07BF82046002817DB00F01F02012139
:101C80009140C04A430942F8231000BF00BF00BF83
:101C9000BFF34F8F00BF00BF00BF00BF00BF00BF3A
:101CA000BFF36F8F00BF00BF00BF00BF10BD00BFFC
:101CB00000BF00BF00BF00BFBFF34F8F00BF00BF1A
:101CC00000BF9E480C38006800F4E060AC4908434F
:101CD000001D9A490C39086000BF00BF00BFBFF368
:101CE0004F8F00BF00BF00BF00BF00BFFDE770B552
:101CF00004462546681EB0F1807F01D301200FE025
:101D0000681E4FF0E02148610F214FF0FF30FFF7D0
:101D100011FF00204FF0E0218861072008610020BA
:101D200070BD00BF00BF00BFBFF35F8F00BF00BF2B
:101D300000BF82480C30006820F480307F490C31AD
:101D4000086000207D497C310860704740F0010147
:101D50007A4A7C32116079490C31096841F480314A
:101D6000764A0C32116000BF00BF00BFBFF34F8F37
:101D700000BF00BF00BF00BF00BF00BFBFF36F8F39
:101D800000BF00BF00BF704710B504466078A0B127
:101D90006078012811D0607802280ED0607803287E
:101DA0000BD06078042808D06078052805D06078CA
:101DB000062802D06078072800D104E040F22F11F5
:101DC0005FA014F0D2FF2078012801D0207800B95C
:101DD00004E04FF498715AA014F0C7FF6078574997
:101DE00080310860207800287ED0207B10B1207BD5
:101DF000012800D104E04FF49C7151A014F0B5FF0C
:101E0000E07A70B1E07A01280BD0E07A022808D09D
:101E1000E07A032805D0E07A052802D0E07A062887
:101E200000D104E040F2391145A014F09EFFA07AE1
:101E300028B1A07A012802D0A07A022800D104E0BB
:101E40004FF49D713EA014F090FF607B012801D0FB
:101E5000607B00B904E040F23B1139A014F085FF2B
:101E6000A07B012801D0A07B00B904E04FF49E7153
:101E700033A014F07AFFE07B012801D0E07B00B9A9
:101E800004E040F23D112EA014F06FFF607AFF28AD
:101E900000DA04E04FF49F7129A014F066FF207A65
:101EA00004287CD0207A052879D0207A062876D09C
:101EB000207A072873D0207A082870D0207A092841
:101EC0006DD0207A0A286AD0207A0B2867D0207A31
:101ED0000C2864D0207A0D2861D0207A0E285ED09C
:101EE000207A0F285BD000E080E0207A102856D0BE
:101EF000207A112853D0207A122850D0207A132823
:101F00004DD0207A14284AD0207A152847D0207A3C
:101F1000162844D0207A172841D0207A18283ED09D
:101F2000207A19283BD0207A1A2838D0207A1B280A
:101F300035D0207A1C2828E000E400E018ED00E00D
:101F40002E2E5C4C69627261726965735C53544DEC
:101F50003332463478785F48414C5F447269766525
:101F6000725C5372635C73746D3332663478785F7D
:101F700068616C5F636F727465782E6300000000A7
:101F80000000FA0580E100E009E008D0207A1D2871
:101F900005D0207A1E2802D0207A1F2800D105E023
:101FA00040F23F11AFF2680014F0DFFE8E49606826
:101FB0000860207B0007E17A40EA0160A17A40EAEC
:101FC000C140617B40EA8140A17B40EA4140E17B26
:101FD00040EA0140617A40EA0120217A40EA41006A
:101FE000217808438049091D086004E000207E49EB
:101FF0000860091D086010BD10B500F0EFF810BDB5
:102000002DE9F04705460C4616461F46072C07D01B
:10201000062C05D0052C03D0042C01D0032C00D1B4
:1020200005E04FF4BB71AFF2E80014F09EFE2846C5
:10203000002803DB6D4B1B5C1B0908E06A4B843BEB
:1020400000F00F0CACF1040C13F80C301B0919460E
:10205000224602F00700C0F10708B8F1040F02D9C8
:102060004FF0040801E0C0F10708C44600F104087D
:10207000B8F1070F02D24FF0000801E0A0F1030809
:10208000434621FA03F84FF0010909FA0CF9A9F1C6
:10209000010908EA0908C6F800804FF0010808FAAB
:1020A00003F8A8F1010808EA0108C7F8008000BF9A
:1020B000BDE8F08710B50446002C00DB05E040F2D7
:1020C0008511AFF2841014F050FE2046002807DB83
:1020D00000F01F0201219140454A430942F82310B4
:1020E00000BF10BD10B50446002C00DB05E040F237
:1020F0009711AFF2B41014F038FE204600280DDB23
:102100003B49420951F8221000F01F0301229A4076
:10211000114009B1012102E0002100E00021084640
:1021200010BD10B50446002C00DB05E040F2A711FD
:10213000AFF2F41014F019FE2046002808DB00F07E
:102140001F02012191402A4A8032430942F823109C
:1021500000BF10BD10B50446002C00DB05E04FF4B5
:10216000DC71AFF2242014F000FE204600280DDBC5
:102170002049420951F8221000F01F0301229A4021
:10218000114009B1012102E0002100E000210846D0
:1021900010BD10B50446042C00D004B905E040F28F
:1021A000C911AFF2642014F0E0FD042C08D14FF007
:1021B000E020006940F004004FF0E021086107E0F2
:1021C0004FF0E020006920F004004FF0E0210861AA
:1021D00010BD704710B5FFF7FCFF10BD02489038E6
:1021E0000068C0F3022070479CED00E000E400E0CE
:1021F00000E200E000E300E0014608781038182310
:10220000B0FBF3F2F848805CC865032A05D908687A
:102210006FF30900001D886503E008686FF309008B
:102220008865886D7047014600208A6A8B69CBB942
:1022300032B1012A0DD0022A03D0032A10D10EE0B8
:1022400000BFCB6A03F08073B3F1807F00D101201F
:1022500007E0CB6AB3F1C07F00D1012001E000E0CC
:1022600000BF34E08B69B3F5005F1AD132B1012AA7
:1022700007D0022A03D0032A11D10AE000BF0120AF
:102280000EE0CB6A03F08073B3F1807F00D10120B0
:1022900006E0CB6AB3F1C07F00D1012000E000BFAF
:1022A00015E032B1012A05D0022A04D0032A0CD14C
:1022B00003E000BF00BF012008E0CB6A03F0807399
:1022C000B3F1807F00D1012000E000BF00BF704764
:1022D0002DE9F04104460025FEF7B9FB074614B985
:1022E0000120BDE8F081C1492068884249D0BF493A
:1022F00018312068884244D0BC4930312068884277
:102300003FD0BA494831206888423AD0B749603155
:102310002068884235D0B54978312068884230D06D
:10232000B2499031206888422BD0B049A83120684A
:10233000884226D0AE492068884222D0AC49183164
:10234000206888421DD0AA4930312068884218D0C0
:10235000A74948312068884213D0A54960312068D8
:1023600088420ED0A24978312068884209D0A0491D
:1023700090312068884204D09D49A8312068884265
:1023800000D103E0B8219BA014F0EFFC6068D8B145
:102390006068B0F1007F17D06068B0F1806F13D033
:1023A0006068B0F1C06F0FD06068B0F1006F0BD003
:1023B0006068B0F1206F07D06068B0F1406F03D063
:1023C0006068B0F1606F00D103E0B92189A014F01A
:1023D000CCFCA06828B1A068402802D0A068802862
:1023E00000D103E0BA2183A014F0BFFCE068B0F58F
:1023F000007F01D0E06800B903E0BB217DA014F0AC
:10240000B4FC2069B0F5806F01D0206900B903E009
:10241000BC2178A014F0A9FC606938B16069B0F5FE
:10242000006F03D06069B0F5805F00D103E0BD218B
:1024300070A014F09AFCA06938B1A069B0F5005FF3
:1024400003D0A069B0F5804F00D103E0BE2169A0A0
:1024500014F08BFCE06930B1E069B0F5807F02D008
:10246000E069202800D103E0BF2162A014F07DFCC8
:10247000206A58B1206AB0F5803F07D0206AB0F5D5
:10248000003F03D0206AB0F5403F00D103E0C021F7
:1024900058A014F06AFC606A10B1606A042800D188
:1024A00003E0C12153A014F060FC606A002835D01D
:1024B000A06A40B1A06A012805D0A06A022802D013
:1024C000A06A032800D103E0C6214AA014F04DFC05
:1024D000E06A58B1E06AB0F5000F07D0E06AB0F1E9
:1024E000807F03D0E06AB0F1C07F00D103E0C72154
:1024F00040A014F03AFC206B58B1206BB0F5001FDF
:1025000007D0206BB0F5800F03D0206BB0F5C00F63
:1025100000D103E0C82137A014F027FC00BF002041
:1025200084F8340000BF022084F835002068006879
:1025300020F00100216808600AE0FEF788FAC01B5D
:10254000052805D920206065032084F83500C8E6F9
:102550002068006800F001000028EED120680568BE
:1025600033480540D4E901010843E1680843216983
:10257000084361690843A1690843E1690843216A86
:1025800008430543606A042803D1D4E90B010843DA
:102590000543206805602068456925F00705606AE5
:1025A0000543606A04280DD1A06A0543E06A48B17A
:1025B0002046FFF738FE28B140206065012084F8EE
:1025C00035008EE6206845612046FFF715FE064679
:1025D00094F85C103F208840B060002060650120C6
:1025E00084F8350000207CE654E5010810600240C4
:1025F000106402402E2E5C4C6962726172696573D0
:102600005C53544D3332463478785F48414C5F44D4
:1026100072697665725C5372635C73746D33326693
:102620003478785F68616C5F646D612E63000000D0
:102630003F8010F070B504460CB9012070BD94F8CD
:102640003500022800D1F9E7FE492068884249D0C8
:10265000FC4918312068884244D0FA49303120685A
:1026600088423FD0F7494831206888423AD0F5493E
:1026700060312068884235D0F2497831206888423C
:1026800030D0F0499031206888422BD0ED49A831F4
:102690002068884226D0EC492068884222D0EA4946
:1026A0001831206888421DD0E749303120688842BF
:1026B00018D0E54948312068884213D0E24960319A
:1026C000206888420ED0E04978312068884209D0DD
:1026D000DD4990312068884204D0DB49A831206868
:1026E000884200D105E04FF4A471AFF2F80014F075
:1026F0003CFB2068006820F0010021680860002091
:102700002168086021684860216888602168C86085
:10271000216808612120216848612046FFF76CFD8F
:1027200005460020E06320646064A064E0642065E6
:1027300094F85C103F208840A8600020606584F811
:10274000350000BF84F8340000BF00BF76E730B525
:102750000468246824F4802405682C60046863609D
:102760008468402C04D10468A2600468E16003E03E
:102770000468A1600468E26030BD2DE9F0410446C0
:102780000E4617461D464FF000081DB1B5F5803FB7
:1027900000D205E040F29D11AFF2A81014F0E5FA66
:1027A00000BF94F83400012802D10220BDE8F08176
:1027B000012084F8340000BF94F83500012811D1BD
:1027C000022084F83500002060652B463A463146E9
:1027D0002046FFF7BCFF2068006840F00100216838
:1027E000086006E000BF002084F8340000BF4FF00E
:1027F00002084046DAE72DE9F04704460E46174640
:102800001D464FF00008D4F858901DB1B5F5803F33
:1028100000D205E04FF4E671AFF2282014F0A5FADB
:1028200000BF94F83400012802D10220BDE8F087EF
:10283000012084F8340000BF94F8350001282BD122
:10284000022084F83500002060652B463A46314668
:102850002046FFF77CFF94F85C103F208840C9F8C1
:1028600008002068006840F01600216808602068B1
:10287000406940F0800021684861206C28B12068E0
:10288000006840F00800216808602068006840F097
:1028900001002168086006E000BF002084F83400D1
:1028A00000BF4FF002084046C0E770B50446A56D72
:1028B000FEF7CDF8064694F83500022808D08020AF
:1028C000606500BF002084F8340000BF012070BDA7
:1028D0002068006820F016002168086020684069C0
:1028E00020F0800021684861206C08B9A06C28B1F4
:1028F0002068006820F008002168086020680068EF
:1029000020F00100216808600FE0FEF7A0F8801BAE
:1029100005280AD92020606500BF002084F8340013
:1029200000BF032084F83500D1E72068006800F07C
:1029300001000028E9D194F85C103F208840A8608D
:1029400000BF002084F8340000BF012084F8350067
:102950000020BCE7014691F83500022803D0802012
:10296000486501207047052081F835000868006837
:1029700020F001000A6810600020F3E72DE9F05F05
:102980000446884617464FF0000AFEF760F8834673
:1029900094F83500022809D08020606500BF00202F
:1029A00084F8340000BF0120BDE8F09F2068006873
:1029B00000F4807020B14FF4807060650120F3E76F
:1029C000B8F1000F05D194F85C10202000FA01F94D
:1029D00004E094F85C10102000FA01F9A56D2E684F
:1029E00048E0781C90B12FB1FEF731F8A0EB0B0056
:1029F000B8420BD92020606500BF002084F8340065
:102A000000BF012084F835000320CDE72E6894F83C
:102A10005C1008208840304040B1606D40F00100FB
:102A2000606594F85C1008208840A86094F85C10F9
:102A300001208840304070B1606D40F00200606558
:102A400004E00000106002401064024094F85C1042
:102A500001208840A86094F85C1004208840304031
:102A600040B1606D40F00400606594F85C10042093
:102A70008840A86006EA090020B9606D00F00100F6
:102A80000028AED0606DA0B1606D00F0010080B193
:102A90002046FFF70AFF94F85C1030208840A860B9
:102AA00000BF002084F8340000BF012084F8350006
:102AB0007AE7B8F1000F0DD194F85C10302088400F
:102AC000A86000BF002084F8340000BF012084F813
:102AD000350004E094F85C1010208840A86050464F
:102AE00062E7F8B5044600200090C64800684FF43D
:102AF0001651B0FBF1F7A56D2E6894F85C10082014
:102B00008840304098B12068006800F0040070B13F
:102B10002068006820F004002168086094F85C10C8
:102B200008208840A860606D40F00100606594F85E
:102B30005C1001208840304068B12068406900F096
:102B4000800040B194F85C1001208840A860606D5E
:102B500040F00200606594F85C100420884030402A
:102B600068B12068006800F0020040B194F85C1081
:102B700004208840A860606D40F00400606594F80F
:102B80005C1010208840304078B32068006800F066
:102B9000080050B394F85C1010208840A8602068AA
:102BA000006800F4802080B12068006800F40020F4
:102BB00028B9206CC8B12046216C884715E0A06C6C
:102BC00098B12046A16C88470FE02068006800F4A7
:102BD000807028B92068006820F00800216808602B
:102BE000206C10B12046216C884794F85C1020209E
:102BF00088403040002865D02068006800F0100050
:102C000000285FD094F85C1020208840A86094F8D9
:102C10003500052828D12068006820F016002168BA
:102C200008602068406920F0800021684861206CBD
:102C300008B9A06C28B12068006820F0080021685D
:102C4000086094F85C103F208840A86000BF002016
:102C500084F8340000BF012084F83500206D10B1E5
:102C60002046216D8847F8BD2068006800F4802068
:102C700080B12068006800F4002028B9606C10B1B1
:102C80002046616C88471DE0E06BD8B12046E16BBF
:102C9000884717E02068006800F4807068B92068F1
:102CA000006820F010002168086000BF002084F850
:102CB000340000BF012084F83500E06B10B12046DD
:102CC000E16B8847606D38B3606D00F00100F0B1D2
:102CD000052084F835002068006820F00100216894
:102CE000086000BF0098401C0090B84200D905E081
:102CF0002068006800F001000028F3D100BF00BF89
:102D0000002084F8340000BF012084F83500E06C16
:102D100010B12046E16C884700BFA4E710B5034618
:102D2000002400BF93F83400012801D1022010BD17
:102D3000012083F8340000BF93F83500012814D136
:102D4000062910D2DFE801F0030507090B0DDA634D
:102D50000AE01A6408E05A6406E09A6404E0DA645F
:102D600002E01A6500E000BF00E0012400BF00207F
:102D700083F8340000BF2046D9E70246002300BF95
:102D800092F83400012801D102207047012082F816
:102D9000340000BF92F83500012824D107291FD242
:102DA000DFE801F004070A0D101316000020D063BD
:102DB00018E00020106415E00020506412E00020AC
:102DC00090640FE00020D0640CE00020106509E062
:102DD0000020D063106450649064D064106501E0FA
:102DE000012300BF00E0012300BF002082F834006F
:102DF00000BF1846C9E7014691F835007047014603
:102E0000486D704700000020FE48006800F0100088
:102E100040B1FD48C06940F01000FB49C861102076
:102E2000F8490860F748006800F0200040B1F64813
:102E3000C06940F00800F449C8612020F1490860E9
:102E4000F048006800F0400040B1EF48C06940F031
:102E50000400ED49C8614020EA490860E94800687B
:102E600000F0800040B1E848C06940F00200E64947
:102E7000C8618020E3490860E248006800F0020071
:102E800040B1E148C06940F02000DF49C86102203C
:102E9000DC490860704770B5044600250020DA4917
:102EA000C861FDF7D4FD054609E0601C38B124B1C6
:102EB000FDF7CDFD401BA04201D9032070BDD148D4
:102EC000006800F480300028EFD1CE48006800F0A0
:102ED000010010B10120CB490860CA48006800F029
:102EE000F20018B1FFF790FF0120E7E70020E5E7C7
:102EF00070B5044615461E46B4F1006F02D3B4F116
:102F0000016F05D3C148844203D3C148844200D82D
:102F100004E040F26721BFA013F027FFB948001D6D
:102F2000006820F44070B749091D08600846006831
:102F300040F4407008600846006840F001000860F6
:102F40002560666070BD70B504460D46B4F1006F33
:102F500002D3B4F1016F05D3AC48844203D3AC482B
:102F6000844200D804E040F28321AAA013F0FDFEC1
:102F7000A448001D006820F44070A249091D0860A3
:102F80000846006840F4007008600846006840F099
:102F900001000860256070BD70B504460D46B4F1AF
:102FA000006F02D3B4F1016F05D39848844203D374
:102FB0009748844200D804E04FF4277195A013F09D
:102FC000D4FE9048001D006820F440708D49091D12
:102FD00008600846006840F4807008600846006891
:102FE00040F001000860258070BD70B504460D46B4
:102FF000B4F1006F02D3B4F1016F05D3834884426A
:1030000003D38348844200D804E040F2B52181A074
:1030100013F0ABFE7B48001D006820F44070794936
:10302000091D08600846006808600846006840F00E
:1030300001000860257070BD2DE9F04104460F467F
:1030400015461E464FF0010800BF6F48007E01285C
:1030500002D10220BDE8F08101206B49087600BF53
:103060002CB1012C03D0022C01D0032C00D103E0A1
:10307000A42168A013F079FE4CF25030FFF70BFF4B
:103080008046B8F1000F25D124B9E9B23846FFF7E0
:10309000ACFF12E0012C04D1A9B23846FFF77CFF47
:1030A0000BE0022C04D129463846FFF74CFF04E020
:1030B0002A4633463846FFF71BFF4CF25030FFF7E5
:1030C000EAFE80464F48001D006820F001004D498F
:1030D000091D086000BF00204B49087600BF40462C
:1030E000B8E72DE9F04104460F4615461E464FF05D
:1030F000000800BF4448007E012802D10220BDE83C
:10310000F08101204049087600BF2CB1012C03D08A
:10311000022C01D0032C00D103E0DE213DA013F0EE
:1031200024FE3848001D006840F080703549091DB4
:1031300008600846006840F00070086003203249CB
:1031400008700846476124B9E9B23846FFF74DFFD9
:1031500012E0012C04D1A9B23846FFF71DFF0BE0A5
:10316000022C04D129463846FFF7EDFE04E02A463A
:1031700033463846FFF7BCFE4046C0E7704770470D
:1031800010B500241F48006800F0F200D8B11E48B6
:103190000078012806D11C48C4684FF0FF301A4956
:1031A000C86008E018480078022802D1164804696F
:1031B00001E015484469FFF727FE2046FFF7DFFFCF
:1031C0000020114908700F48006800F00100002835
:1031D00066D001200B4908600B48007801284DD1CA
:1031E00009484068401E084948600846406878B36E
:1031F0000846C4682046FFF7C1FF0348C068401C6A
:10320000014926E00C3C0240941500200078FF1F85
:103210000F7AFF1F2E2E5C4C6962726172696573B2
:103220005C53544D3332463478785F48414C5F44A8
:1032300072697665725C5372635C73746D33326667
:103240003478785F68616C5F666C6173682E6300C8
:1032500007E0C8600846C468017A2046FDF7D5F843
:103260001EE04FF0FF3004463D49C8600020087062
:10327000FDF792F82046FFF781FF11E0384800780B
:10328000022806D1FDF788F835490869FFF776FF6F
:1032900003E033494869FFF771FF002030490870A7
:1032A0002F480078A0B92F48006820F0FF002D4972
:1032B00008600846006820F08070086008460068D2
:1032C00020F00070086000BF00202549087600BF8C
:1032D00010BD00202349096801F0004159B122497D
:1032E000204A0C3A1160214911601E49096801F019
:1032F000004101B1012070471A48006840F00040C9
:1033000018490860002070471648001D006800F04A
:10331000010030B1164813490839086015480860A3
:1033200001E0012070470020FCE70E48001D006806
:1033300040F001000B49091D08600020704710B5DE
:103340000848001D007840F002000649091D087079
:103350004CF25030FFF79FFD10BD0148C069704727
:1033600094150020103C024023016745AB89EFCD46
:103370003B2A19087F6E5D4C2DE9F84306460C4642
:103380004FF00009C8460025FC48864217D0FC488B
:10339000864214D0FB48864211D0FB4886420ED0AC
:1033A000FA4886420BD0FA48864208D0F94886424D
:1033B00005D0F948864202D0F848864200D103E0A1
:1033C000B321F7A013F0D1FC208880B220B120688F
:1033D0006FF30F0000B903E0B421F1A013F0C5FCB6
:1033E000606830B36068012823D06068112820D05D
:1033F000606802281DD0606812281AD0F7496068FA
:10340000884216D0F6496068884212D0F549606853
:1034100088420ED0F449606888420AD0F349606857
:10342000884206D0F2496068884202D0606803286A
:1034300000D103E0B521DAA013F097FCA06828B111
:10344000A068012802D0A068022800D103E0B621BC
:10345000D3A013F08AFC002766E1012000FA07F9E7
:10346000206800EA0908C84570D16068022802D0C7
:10347000606812286BD12069002866D0206909286D
:1034800063D02069F0B32069E0B32069D0B320692C
:10349000C0B32069012858D02069012855D020697F
:1034A000022852D0206902284FD0206902284CD02F
:1034B0002069032849D02069042846D020690428BF
:1034C00043D02069042840D0206905283DD02069D8
:1034D00005283AD02069092837D02069062834D039
:1034E0002069092831D0206907282ED020690728B3
:1034F0002BD02069072828D02069082825D02069EA
:10350000082800E021E020D0206908281DD020698B
:1035100009281AD02069092817D020690A2814D050
:1035200020690A2811D020690B280ED020690C28A8
:103530000BD020690C2808D020690D2805D02069FF
:103540000C2802D020690F2802D105E0E2E017E044
:10355000C72193A013F009FCF90806F1200050F8E8
:1035600021507807C10E0F20884085437907C90E86
:10357000206988400543F90806F1200040F82150F1
:1035800035687900032088408543207900F00300E6
:1035900079008840054335606068012808D060687C
:1035A000022805D06068112802D06068122823D153
:1035B000E06840B1E068012805D0E068022802D048
:1035C000E068032800D103E0DA2175A013F0CDFBF9
:1035D000B56879000320884085437900E068884019
:1035E0000543B56075680120B84085432079C0F374
:1035F0000010B84005437560F568790003208840E5
:1036000085437900A06888400543F560606800F054
:103610008050B0F1805F7DD100BF002000907548E0
:10362000006840F48040734908600846006800F470
:103630008040009000BF00BF6F48B90850F821508B
:10364000B807010F0F20884085434C48864201D1BE
:10365000002023E04A48864201D101201EE049486B
:10366000864201D1022019E04748864201D1032059
:1036700014E04648864201D104200FE044488642C7
:1036800001D105200AE04348864201D1062005E029
:103690004148864201D1072000E00820B907090F00
:1036A000884005435448B90840F8215053480568FC
:1036B00025EA0805606800F48030B0F5803F01D14C
:1036C00045EA08054D480560001D056825EA08051E
:1036D000606800F40030B0F5003F01D145EA08050C
:1036E0004648001D0560001D056825EA080560685C
:1036F00000F48010B0F5801F01D145EA08053F486D
:1037000008300560001D056825EA0805606800F4BA
:10371000001000E007E0B0F5001F01D145EA080500
:1037200036480C3005607F1C102FFFF496AEBDE8C4
:10373000F8832DE9F047044688464FF0000900263B
:1037400000270E48844217D00D48844214D00D48FB
:10375000844211D00C4884420ED00C4884420BD0D5
:103760000B48844208D00B48844205D00A48844262
:1037700002D00A48844243D148E0000000000240E1
:103780000004024000080240000C02400010024009
:103790000014024000180240001C024000200240B9
:1037A0002E2E5C4C69627261726965735C53544D74
:1037B0003332463478785F48414C5F4472697665AD
:1037C000725C5372635C73746D3332663478785F05
:1037D00068616C5F6770696F2E63000000001110F4
:1037E0000000211000003110000012100000221013
:1037F000000032104438024008380140003C0140CB
:103800004FF49871AFF2680013F0AFFA002588E02A
:10381000012000FA05F908EA09064E457ED18448E0
:10382000A90850F82170A807010F0F208840074011
:103830008048844201D1002023E07F48844201D1A6
:1038400001201EE07D48844201D1022019E07C481D
:10385000844201D1032014E07A48844201D104203B
:103860000FE07948844201D105200AE0774884427C
:1038700001D1062005E07648844201D1072000E00E
:103880000820A907090F8840B84221D1A807010FD5
:103890000F2000FA01F76648A90850F82100B84344
:1038A0006349AA0841F822006A480068B0436949A0
:1038B0000860081D0068B043091D0860081D006805
:1038C000B043091D0860081D0068B043091D086069
:1038D00020686A000321914088432060E90804F1D0
:1038E000200050F821006907CA0E0F21914088433B
:1038F000EA0804F1200141F82200A0686A000321CF
:1039000091408843A06061680120A84081436160C4
:10391000E0686A0003219140884300E000E0E06035
:103920006D1C102DFFF474AFBDE8F08770B506462E
:103930000C46A0B218B1200C000400B905E04FF409
:10394000BF71AFF2A41013F010FA3069204008B133
:10395000012500E00025284670BD70B506460C46DE
:103960001546A0B218B1200C000400B905E040F2E1
:103970009F11AFF2D41013F0F8F90DB1012D00D161
:1039800005E04FF4D071AFF2E81013F0EEF90DB18D
:10399000B46101E02004B06170BD70B505460C460D
:1039A000A0B218B1200C000400B905E04FF4DB719F
:1039B000AFF2142013F0D9F968692040A04202D177
:1039C0002004A86100E0AC6170BD38B504460D4626
:1039D0004FF480300090A8B218B1280C000400B950
:1039E00005E04FF4E971AFF2482013F0BEF90098FA
:1039F000284300900098E061E5610098E061E0698B
:103A00000090E06900F4803008B1002038BD01204A
:103A1000FCE7704710B504460E481430006820409B
:103A200028B10C4814300460204616F0CEFC10BDBE
:103A30000838014000000240000402400008024033
:103A4000000C024000100240001402400018024026
:103A5000001C0240003C014000207047F8B50446BD
:103A60000CB90120F8BD20680F2800D803E0E82138
:103A7000FAA013F07AF9207800F00100002870D045
:103A8000606838B16068B0F5803F03D06068B0F519
:103A9000A02F00D103E0ED21F0A013F066F9FE485D
:103AA000006800F00C0004280DD0FB48006800F00E
:103AB0000C00082813D1F848001F006800F48000AB
:103AC000B0F5800F0BD1F44808380068C0F34040CF
:103AD000002859D06068002856D10120C2E700BFF5
:103AE0006068B0F5803F08D1EB480838006840F4C2
:103AF0008030E949083908601EE06068B0F5A02F01
:103B00000DD1E5480838006840F48020E2490839C2
:103B100008600846006840F4803008600CE0DE4829
:103B20000838006820F48030DB490839086008460E
:103B3000006820F48020086000BF606890B1FCF746
:103B400086FF054606E0FCF782FF401B642801D98A
:103B5000032087E7D04808380068C0F340400028B9
:103B6000F1D011E0FCF773FF054606E0FCF76FFFAC
:103B7000401B642801D9032074E7C748083800684F
:103B8000C0F340400028F1D1207800F00200022864
:103B900073D1E06810B1E068012800D104E040F280
:103BA0001F11AEA013F0E1F820691F2800D804E02F
:103BB0004FF49071A9A013F0D8F8B748006800F04E
:103BC0000C0058B1B448006800F00C0008281CD163
:103BD000B148001F006800F48000B0B9AE48083852
:103BE0000068C0F3400020B1E068012801D0012046
:103BF00038E7A9480838006820F0F800216940EA51
:103C0000C100A5490839086037E0E06800B3012029
:103C1000A2490860FCF71BFF054606E0FCF717FF0A
:103C2000401B022801D903201CE79B480838006884
:103C3000C0F340000028F1D097480838006820F011
:103C4000F800216940EAC10093490839086014E08E
:103C5000002092490860FCF7FAFE054606E0FCF7F2
:103C6000F6FE401B022801D90320FBE68A480838EB
:103C70000068C0F340000028F1D1207800F008006F
:103C8000082837D1606910B16069012800D104E0CB
:103C90004FF4B07171A013F068F86069A8B1012009
:103CA0007F490860FCF7D3FE054606E0FCF7CFFE2F
:103CB000401B022801D90320D4E677486C30006805
:103CC000C0F340000028F1D014E0002074490860DF
:103CD000FCF7BDFE054606E0FCF7B9FE401B0228D6
:103CE00001D90320BEE66C486C300068C0F3400088
:103CF0000028F1D1207800F00400042875D10026B6
:103D0000A06828B1A068012802D0A068052800D1C9
:103D100004E04FF4C67151A013F027F85E48383024
:103D2000006800F0805090B900BF002000905A4811
:103D30003830006840F080505749383108600846F4
:103D4000006800F08050009000BF00BF0126554879
:103D5000006800F48070B0B95248006840F4807088
:103D600050490860FCF773FE054606E0FCF76FFE5D
:103D7000401B022801D9032074E64A48006800F479
:103D800080700028F2D000BFA068012808D1424806
:103D90006830006840F001003F49683108601DE06C
:103DA000A06805280DD13C486830006840F0040048
:103DB0003949683108600846006840F00100086031
:103DC0000CE035486830006820F001003249683165
:103DD00008600846006820F00400086000BFA06882
:103DE000A8B1FCF734FE054609E02FE0FCF72FFEF2
:103DF000401B41F28831884201D9032032E626482F
:103E000068300068C0F340000028EFD013E0FCF7F2
:103E10001EFE054608E0FCF71AFE401B41F2883101
:103E2000884201D903201DE61B4868300068C0F3B2
:103E300040000028EFD1012E07D117483830006824
:103E400020F0805014493831086000BFA06958B391
:103E5000A06901282AD0A069022826E02E2E5C4CF9
:103E600069627261726965735C53544D33324634D2
:103E700078785F48414C5F4472697665725C537232
:103E8000635C73746D3332663478785F68616C5F3D
:103E90007263632E6300000008380240000047424E
:103EA000800E47420070004000E000D105E040F283
:103EB000CF11AFF2580012F058FFA06900287CD053
:103EC000F948006800F00C00082877D0A0690228A3
:103ED00075D1E06918B1E069B0F5800F00D105E057
:103EE0004FF4EC71AFF28C0012F03FFF206A3F28D4
:103EF00000D805E040F2D911AFF2A00012F035FF72
:103F0000606A322804D3606AB0F5D87F00D805E033
:103F10004FF4ED71AFF2BC0012F027FFA06A022847
:103F200008D0A06A042805D0A06A062802D0A06A9A
:103F3000082800D105E040F2DB11AFF2E00012F0FA
:103F400014FFE06A022803D3E06A0F2800D805E0D6
:103F50004FF4EE71AFF2FC0012F007FF0020D349DE
:103F60000866FCF774FD054606E0FCF770FD401B93
:103F7000022801D9032075E5CB4808380068C0F352
:103F800040600028F1D1D4E907010843616A40EAA2
:103F900081110122A06AC2EB500041EA00412C20AD
:103FA000005D41EA0060C049091F08600120BF4967
:103FB0000866FCF74CFD054609E028E025E00EE028
:103FC000FCF745FD401B022801D903204AE5B6480D
:103FD00008380068C0F340600028F1D017E00020E6
:103FE000B2490866FCF733FD054606E0FCF72FFDF5
:103FF000401B022801D9032034E5AB48083800688B
:10400000C0F340600028F1D101E001202AE5002042
:1040100028E52DE9F047002400250026A146A24806
:10402000006800F00C0020B1042805D008283AD11F
:1040300005E0DFF87C9239E0DFF8789236E09A48C4
:10404000001F006800F03F049748001F006800F45C
:10405000800078B197489449091F0968C1F3881115
:10406000A0FB0170014622460023384619F038F9BA
:1040700005460EE08E488C49091F0968C1F3881176
:10408000A0FB0170014622460023384619F028F9AA
:1040900005468548001F0068C0F30140401C4600EB
:1040A000B5FBF6F902E0DFF8089200BF00BF484612
:1040B000BDE8F08770B504460D460CB9012070BD0F
:1040C0002068012803D320680F2800D805E04FF4AA
:1040D0001071AFF2782012F048FE6DB1012D0BD0B7
:1040E000022D09D0032D07D0042D05D0052D03D0B6
:1040F000062D01D0072D00D105E040F24121AFF29D
:10410000A42012F032FE6C48006800F00F00A842B4
:1041100009D269490D700846006800F00F00A842F6
:1041200001D00120CBE7207800F0020002283ED128
:10413000207800F00400042805D15B48006840F4B2
:10414000E05059490860207800F00800082805D19F
:104150005548006840F4604053490860A068B8B111
:10416000A068802814D0A068902811D0A068A0284A
:104170000ED0A068B0280BD0A068C02808D0A068D6
:10418000D02805D0A068E02802D0A068F02800D18F
:1041900005E04FF41971AFF23C3012F0E6FD4248F1
:1041A000006820F0F000A16808433F4908602078CB
:1041B00000F0010000284FD0606840B1606801281D
:1041C00005D06068022802D06068032800D105E0AD
:1041D00040F26B21AFF27C3012F0C7FD606801281D
:1041E00007D1314808380068C0F34040B8B9012011
:1041F00065E76068022802D06068032807D12A4872
:1042000008380068C0F3406048B9012057E72648E5
:1042100008380068C0F3400008B901204FE7224881
:10422000006820F00300616808431F490860FCF73C
:104230000EFC064608E0FCF70AFC801B41F28831C0
:10424000884201D903203AE71748006800F00C00C3
:104250006168B0EB810FEED11748006800F00F00E5
:10426000A84209D914490D700846006800F00F00F3
:10427000A84201D0012022E7207800F004000428A1
:104280002AD1E06878B1E068B0F5805F0BD0E068D3
:10429000B0F5A05F07D0E068B0F5C05F03D0E0687C
:1042A000B0F5E05F0AD10FE0083802400000474255
:1042B0000024F40000127A00003C024040F2A921E0
:1042C000AFF2684012F051FDD148006820F4E05090
:1042D000E1680843CE490860207800F0080008280B
:1042E00021D1206978B12069B0F5805F0BD02069B9
:1042F000B0F5A05F07D02069B0F5C05F03D020699A
:10430000B0F5E05F00D105E04FF42C71AFF2B4409E
:1043100012F02BFDBE48006820F46040216940EA9D
:10432000C100BB490860FFF774FEB9490968C1F3D1
:104330000311B84A515CC840B74908600F20FCF728
:1043400022FB0020BBE670B586B006460C4615463B
:104350000EB1012E00D105E040F2F121AFF2045080
:1043600012F003FD5DB1B5F1806F08D0B5F1A06F1B
:1043700005D0B5F1C06F02D0B5F1E06F00D105E016
:1043800040F2F221AFF22C5012F0EFFC002E39D1A6
:1043900044B1B4F5001F05D0B4F5800F02D0B4F5D8
:1043A000C00F00D105E040F2F621AFF2505012F0FC
:1043B000DCFC00BF0020009095482830006840F0E9
:1043C00001009349283108600846006800F00100A8
:1043D000009000BF00BF88150190022002900320CA
:1043E000049000200390059001A98C48FEF7C4FFBB
:1043F0008748006820F0EC6044EA050108438449DE
:10440000086038E044B1B4F1804F05D0B4F1004FFA
:1044100002D0B4F1404F00D105E040F20E31AFF2CE
:10442000C45012F0A2FC00BF002000907848283051
:10443000006840F0040076492831086008460068AA
:1044400000F00400009000BF00BF4815019002205A
:1044500002900320049000200390059001A9704869
:10446000FEF78AFF6A48006820F0784044EAC501F8
:1044700008436749086006B070BD01206949C864F7
:10448000704700206749C8647047634800687047F8
:1044900000B5FFF7FAFF5E490968C1F38221624A5D
:1044A000515CC84000BD00B5FFF7EFFF58490968EF
:1044B000C1F342315C4A515CC84000BD0F2101602C
:1044C00053490839096801F48021B1F5802F03D1DF
:1044D0004FF4A02141600DE04D490839096801F40D
:1044E0008031B1F5803F03D14FF48031416001E06C
:1044F0000021416046490839096801F0010111B104
:104500000121C16001E00021C16041490839096809
:10451000C1F3C40101613E496831096801F0040139
:10452000042902D1052181600AE03949683109680E
:1045300001F0010111B10121816001E000218160E0
:1045400033496C31096801F0010111B10121416168
:1045500001E0002141612E490839096801F08071AC
:10456000B1F1807F02D10221816101E001218161ED
:104570002749091F096801F48002C2612449091F03
:10458000096801F03F0202622149091F0968C1F36D
:10459000881242621E49091F096801F4403101F581
:1045A0008031CA0B82621A49091F0968C1F303628C
:1045B000C26270470F220260154A126802F00302BD
:1045C0004260134A126802F0F0028260104A1268D8
:1045D00002F4E052C2600E4A126802F46042D2084D
:1045E0000261124A126802F00F020A6070477047B7
:1045F00010B50748001D006800F08000802805D134
:10460000FFF7F5FF80200249891D087010BD0000EA
:10461000083802403CE5010800000020000002408C
:1046200000080240000047424CE50108003C0240FF
:1046300010B50268FE4B98420ED0B0F1804F0BD0FF
:10464000FC4B984208D0FC4B984205D0FB4B98425B
:1046500002D0FB4B984203D122F070024B681A4300
:10466000F34B984220D0B0F1804F1DD0F14B9842CF
:104670001AD0F14B984217D0F04B984214D0F04B1F
:10468000984211D0EF4B98420ED0EF4B98420BD08E
:10469000EE4B984208D0EE4B984205D0ED4B984235
:1046A00002D0ED4B984203D122F44072CB681A43FA
:1046B00022F080034C6943EA040202608B68C36203
:1046C0000B688362DA4B984202D0DD4B984201D1ED
:1046D0000B6903630123436110BD704710B50446A5
:1046E0000CB9012010BDD2492068884233D020681F
:1046F000B0F1804F2FD0CF49206888422BD0CE49CF
:104700002068884227D0CD492068884223D0D349E9
:10471000206888421FD0D249206888421BD0C849EF
:104720002068884217D0C7492068884213D0C649FC
:10473000206888420FD0C549206888420BD0C44900
:104740002068884207D0C3492068884203D0C24904
:104750002068884200D104E04FF48571C1A012F0B6
:1047600004FBA06858B1A068102808D0A0682028D1
:1047700005D0A068402802D0A068602800D104E0DD
:1047800040F20B11B7A012F0F0FA206938B120699D
:10479000B0F5807F03D02069B0F5007F00D104E040
:1047A0004FF48671AFA012F0E0FAA06910B1A069D1
:1047B000802800D104E040F20D11AAA012F0D5FA31
:1047C00094F83D0028B9002084F83C00204612F0FF
:1047D00019FB022084F83D00211D2068FFF728FF07
:1047E000012084F83D0000207CE7704710B50446A6
:1047F0008F492068884233D02068B0F1804F2FD095
:104800008C49206888422BD08B492068884227D069
:104810008A492068884223D09049206888421FD066
:104820008F49206888421BD085492068884217D06C
:1048300084492068884213D08349206888420FD079
:104840008249206888420BD081492068884207D07D
:1048500080492068884203D07F492068884200D17F
:1048600004E04FF49C717FA012F07FFA022084F8DC
:104870003D0000BF2068006A41F21111084050B9A4
:104880002068006A8910084028B92068006820F074
:1048900001002168086000BF2046FFF7A6FF002046
:1048A00084F83D0000BF84F83C0000BF10BD70B527
:1048B00004465F492068884233D02068B0F1804FB9
:1048C0002FD05C49206888422BD05B492068884201
:1048D00027D05A492068884223D0604920688842FE
:1048E0001FD05F49206888421BD055492068884204
:1048F00017D054492068884213D053492068884211
:104900000FD05249206888420BD051492068884214
:1049100007D050492068884203D04F492068884218
:1049200000D104E040F27D114EA012F01EFA0220E8
:1049300084F83D002068806800F00705062D05D04A
:104940002068006840F0010021680860012084F8B8
:104950003D00002070BD10B50446354920688842EE
:1049600033D02068B0F1804F2FD032492068884280
:104970002BD031492068884227D0304920688842AE
:1049800023D03649206888421FD0354920688842A4
:104990001BD02B492068884217D02A4920688842BA
:1049A00013D02949206888420FD0284920688842BE
:1049B0000BD027492068884207D0264920688842C2
:1049C00003D025492068884200D104E04FF4CC711F
:1049D00024A012F0CAF9022084F83D0000BF20682C
:1049E000006A41F21111084050B92068006A89102C
:1049F000084028B92068006820F00100216808609C
:104A000000BF012084F83D00002010BD70B50446B1
:104A10000749206888426CD02068B0F1804F68D088
:104A200004492068884264D003492068884237E0FE
:104A3000000001400004004000080040000C00405D
:104A40000004014000400140004401400048014092
:104A500000180040001C00400020004000100040F2
:104A6000001400402E2E5C4C69627261726965739D
:104A70005C53544D3332463478785F48414C5F4440
:104A800072697665725C5372635C73746D333266FF
:104A90003478785F68616C5F74696D2E6300000024
:104AA00027D0FD492068884223D0FC4920688842ED
:104AB0001FD0FB49206888421BD0FA4920688842F1
:104AC00017D0F9492068884213D0F84920688842F5
:104AD0000FD0F749206888420BD0F64920688842F9
:104AE00007D0F5492068884203D0F44920688842FD
:104AF00000D105E040F2B111AFF2980012F035F9A3
:104B00002068C06840F001002168C86020688068A3
:104B100000F00705062D05D02068006840F0010070
:104B200021680860002070BD10B50446E449206883
:104B3000884233D02068B0F1804F2FD0E1492068FF
:104B400088422BD0E0492068884227D0D24920688B
:104B5000884223D0D149206888421FD0D04920689C
:104B600088421BD0CF492068884217D0CE492068A0
:104B7000884213D0CD49206888420FD0CC492068A4
:104B800088420BD0CB492068884207D0CA492068A8
:104B9000884203D0C9492068884200D105E040F22C
:104BA000C911AFF2401012F0E0F82068C06820F0A0
:104BB00001002168C86000BF2068006A41F211113D
:104BC000084050B92068006A8910084028B9206858
:104BD000006820F001002168086000BF002010BDBF
:104BE000704770B50446A56B012085F83D00284646
:104BF000FFF7F6FF70BD704770B50446A56B012046
:104C000085F83D002846FFF7F6FF70BD704770B588
:104C10000446A56B012085F83D00284611F07DF97A
:104C200070BD2DE9F04104460E461546A4492068A2
:104C300088421BD02068B0F1804F17D0A14920686E
:104C4000884213D0A049206888420FD0924920683A
:104C500088420BD091492068884207D0904920684B
:104C6000884203D08F492068884200D105E04FF484
:104C7000F071AFF2102012F078F894F83D0002289D
:104C800001D1BDE8F08194F83D00012805D10EB9AD
:104C900005B1F6E7022084F83D008C48216AC8631C
:104CA0008B48216A0864AFF2C500216AC864216894
:104CB00001F12C022B463146206AFDF79CFD08B11C
:104CC0000120DEE72068C06840F480702168C86079
:104CD0002068806800F00707062F05D0206800686C
:104CE00040F00100216808600020CAE710B50446C2
:104CF0007349206888421BD02068B0F1804F17D0DC
:104D000070492068884213D06F49206888420FD0CC
:104D10006149206888420BD060492068884207D0EA
:104D20005F492068884203D05E492068884200D1EC
:104D300005E040F21921AFF2D42012F016F82068F5
:104D4000C06820F480702168C860206AFDF702FE08
:104D500000BF2068006A41F21111084050B9206874
:104D6000006A8910084028B92068006820F0010016
:104D70002168086000BF012084F83D00002010BDBC
:104D8000704710B504460CB9012010BD4C4920688D
:104D9000884233D02068B0F1804F2FD04949206835
:104DA00088422BD048492068884227D03A49206859
:104DB000884223D03949206888421FD0384920686A
:104DC00088421BD037492068884217D0364920686E
:104DD000884213D03549206888420FD03449206872
:104DE00088420BD033492068884207D03249206876
:104DF000884203D031492068884200D105E040F262
:104E00005621AFF2A03011F0B0FFA06858B1A068F1
:104E1000102808D0A068202805D0A068402802D01B
:104E2000A068602800D105E040F25721AFF2CC30F5
:104E300011F09BFF206938B12069B0F5807F03D065
:104E40002069B0F5007F00D105E04FF41671AFF294
:104E5000EC3011F08AFFA06910B1A069802800D160
:104E600005E040F25921AFF2044011F07EFF94F8C2
:104E70003D0028B9002084F83C002046FFF780FF61
:104E8000022084F83D00211D2068FFF7D1FB01209E
:104E900084F83D00002078E7000C0040001000403E
:104EA0000014004000040140004001400044014063
:104EB0000048014000180040001C00400020004055
:104EC0000000014000040040000800400F4C0008B2
:104ED000F94B0008704710B50446FA49206888422B
:104EE00033D02068B0F1804F2FD0F7492068884236
:104EF0002BD0F6492068884227D0F549206888429F
:104F000023D0F449206888421FD0F34920688842A2
:104F10001BD0F2492068884217D0F14920688842A6
:104F200013D0F049206888420FD0EF4920688842AA
:104F30000BD0EE492068884207D0ED4920688842AE
:104F400003D0EC492068884200D105E04FF421717C
:104F5000AFF2F04011F009FF022084F83D0000BFDD
:104F60002068006A41F21111084050B92068006AB7
:104F70008910084028B92068006820F001002168E5
:104F8000086000BF2046FFF7A5FF002084F83D0021
:104F900000BF84F83C0000BF10BD2DE9F04104467D
:104FA0000D461646C748844220D0B4F1804F1DD02C
:104FB000C54884421AD0C548844217D0C4488442A8
:104FC00014D0C648844211D0C54884420ED0C5488A
:104FD00084420BD0C448844208D0C448844205D0DF
:104FE000C348844202D0C348844200D105E041F660
:104FF000B711AFF2905011F0B8FE3DB1042D05D0BD
:10500000082D03D00C2D01D03C2D00D105E041F638
:10501000B811AFF2B05011F0A8FE05F01F01012049
:1050200000FA01F7206AB8432062206A05F01F01E8
:1050300006FA01F108432062BDE8F08170B505462B
:105040000C46A0492868884207D1002C62D0042C65
:1050500060D0082C5ED00C2C5CD02868B0F1804F5A
:1050600007D1002C56D0042C54D0082C52D00C2C34
:1050700050D095492868884207D1002C4AD0042C8A
:1050800048D0082C46D00C2C44D09049286888423F
:1050900006D1ECB3042C3DD0082C3BD00C2C39D0DD
:1050A0008B492868884206D194B3042C32D0082C4E
:1050B00030D00C2C2ED089492868884206D13CB3C8
:1050C000042C27D0082C25D00C2C23D08449286808
:1050D000884202D1E4B1042C1CD08249286888425D
:1050E00000D1ACB180492868884200D184B17F49A1
:1050F0002868884202D15CB1042C0BD07C49286816
:10510000884200D124B17B492868884203D100E05D
:1051100000E004B905E040F2CE21AFF2B86011F032
:1051200024FE012221462868FFF737FF65492868D9
:10513000884203D069492868884201D1012000E0F3
:10514000002028B12868406C40F400402968486479
:105150002868806800F00706062E05D028680068D9
:1051600040F0010029680860002070BD70B5054658
:105170000C4654492868884207D1002C62D0042C80
:1051800060D0082C5ED00C2C5CD02868B0F1804F29
:1051900007D1002C56D0042C54D0082C52D00C2C03
:1051A00050D049492868884207D1002C4AD0042CA5
:1051B00048D0082C46D00C2C44D04449286888425A
:1051C00006D1ECB3042C3DD0082C3BD00C2C39D0AC
:1051D0003F492868884206D194B3042C32D0082C69
:1051E00030D00C2C2ED03D492868884206D13CB3E3
:1051F000042C27D0082C25D00C2C23D03849286823
:10520000884202D1E4B1042C1CD036492868884277
:1052100000D1ACB134492868884200D184B1334907
:105220002868884202D15CB1042C0BD03049286830
:10523000884200D124B12F492868884203D100E078
:1052400000E004B905E040F2F221AFF2E87011F09D
:105250008CFD002221462868FFF79FFE1949286827
:10526000884203D01D492868884201D1012000E00E
:10527000002090B100BF2868006A41F21111084077
:1052800050B92868006A8910084028B92868406C1D
:1052900020F400402968486400BF00BF2868006A05
:1052A00041F21111084050B92868006A891008407D
:1052B00028B92868006820F001002968086000BF4C
:1052C000002070BD000001400004004000080040C4
:1052D000000C004000100040001400400004014099
:1052E00000400140004401400048014000180040D7
:1052F000001C00400020004070B505460C46FE49E9
:105300002868884207D1002C62D0042C60D0082C79
:105310005ED00C2C5CD02868B0F1804F07D1002CF7
:1053200056D0042C54D0082C52D00C2C50D0F34919
:105330002868884207D1002C4AD0042C48D0082C79
:1053400046D00C2C44D0EE492868884206D1ECB3F4
:10535000042C3DD0082C3BD00C2C39D0E9492868CE
:10536000884206D194B3042C32D0082C30D00C2CB7
:105370002ED0E5492868884206D13CB3042C27D0BA
:10538000082C25D00C2C23D0E0492868884202D173
:10539000E4B1042C1CD0DE492868884200D1ACB1AD
:1053A000DC492868884200D184B1DB4928688842FA
:1053B00002D15CB1042C0BD0D8492868884200D1B6
:1053C00024B1D7492868884203D100E000E004B93D
:1053D00005E04FF44571AFF6741011F0C6FC34B11E
:1053E000042C0BD0082C10D00C2C1CD114E02868F5
:1053F000C06840F002002968C86015E02868C068ED
:1054000040F004002968C8600EE02868C06840F0D9
:1054100008002968C86007E02868C06840F01000EC
:105420002968C86000E000BF00BF0122214628684B
:10543000FFF7B3FDB0492868884203D0B249286815
:10544000884201D1012000E0002028B12868406C8A
:1054500040F40040296848642868806800F0070626
:10546000062E05D02868006840F001002968086011
:10547000002070BD70B505460C469F4928688842DB
:1054800007D1002C62D0042C60D0082C5ED00C2CEC
:105490005CD02868B0F1804F07D1002C56D0042C86
:1054A00054D0082C52D00C2C50D0944928688842F3
:1054B00007D1002C4AD0042C48D0082C46D00C2C04
:1054C00044D08F492868884206D1ECB3042C3DD0E3
:1054D000082C3BD00C2C39D08A492868884206D148
:1054E00094B3042C32D0082C30D00C2C2ED086490A
:1054F0002868884206D13CB3042C27D0082C25D03C
:105500000C2C23D081492868884202D1E4B1042CB4
:105510001CD07F492868884200D1ACB17D492868F9
:10552000884200D184B17C492868884202D15CB1AC
:10553000042C0BD079492868884200D124B17849DD
:105540002868884203D100E000E004B905E040F299
:105550005A31AFF6F02011F008FC34B1042C0BD016
:10556000082C10D00C2C1CD114E02868C06820F046
:1055700002002968C86015E02868C06820F00400AF
:105580002968C8600EE02868C06820F00800296813
:10559000C86007E02868C06820F010002968C8606B
:1055A00000E000BF00BF002221462868FFF7F5FC9D
:1055B00051492868884203D053492868884201D15C
:1055C000012000E0002090B100BF2868006A41F28D
:1055D0001111084050B92868006A8910084028B99C
:1055E0002868406C20F400402968486400BF00BF70
:1055F0002868006A41F21111084050B92868006A11
:105600008910084028B92868006820F0010029683E
:10561000086000BF002070BD704770B50546AC6BD8
:10562000012084F83D00606AA84202D10120207761
:1056300010E0A06AA84202D1022020770AE0E06AC6
:10564000A84202D10420207704E0206BA84201D1B7
:10565000082020772046FFF7DFFF0020207770BD6D
:10566000704770B50546AC6B012084F83D00606A58
:10567000A84202D10120207710E0A06AA84202D1FE
:10568000022020770AE0E06AA84202D104202077B5
:1056900004E0206BA84201D1082020772046FFF7C4
:1056A000DFFF0020207770BD2DE9F04104460D4654
:1056B00016461F4610492068884207D1002D79D030
:1056C000042D77D0082D75D00C2D73D02068B0F143
:1056D000804F07D1002D6DD0042D6BD0082D69D0DF
:1056E0000C2D67D00549206888421ED1002D61D05D
:1056F000042D5FD0082D15E000000140000400409B
:1057000000080040000C004000040140004001403F
:10571000004401400048014000180040001C0040C7
:105720000020004046D00C2D44D0FE49206888421D
:1057300006D1EDB3042D3DD0082D3BD00C2D39D032
:10574000F9492068884206D195B3042D32D0082D3E
:1057500030D00C2D2ED0F5492068884206D13DB3BB
:10576000042D27D0082D25D00C2D23D0F0492068FA
:10577000884202D1E5B1042D1CD0EE492068884250
:1057800000D1ADB1EC492068884200D185B1EB4928
:105790002068884202D15DB1042D0BD0E849206811
:1057A000884200D125B1E7492068884203D100E052
:1057B00000E005B905E04FF46871AFF6585011F0FC
:1057C000D4FA94F83D00022801D1BDE8F08194F8A4
:1057D0003D00012805D10EB907B1F6E7022084F893
:1057E0003D0035B1042D22D0082D3ED00C2D79D1AD
:1057F00059E0AFF29111606AC163AFF2E111606AE2
:105800000164AFF62141606AC164216801F134028C
:105810003B463146606AFCF7EEFF08B10120D4E751
:105820002068C06840F400702168C8605BE0AFF297
:10583000CD11A06AC163AFF21D21A06A0164AFF669
:105840005D41A06AC164216801F138023B463146DE
:10585000A06AFCF7D0FF08B10120B6E72068C06855
:1058600040F480602168C8603DE0AFF20921E06A41
:10587000C163AFF25921E06A0164AFF69941E06A71
:10588000C164216801F13C023B463146E06AFCF705
:10589000B2FF08B1012098E72068C06840F40060BA
:1058A0002168C8601FE0AFF24521206BC163AFF2F1
:1058B0009521206B0164AFF6D541206BC16421684E
:1058C00001F140023B463146206BFCF794FF10B1DA
:1058D00001207AE706E02068C06840F48050216823
:1058E000C86000E000BF00BF012229462068FFF722
:1058F00054FB95492068884203D08C49206888422F
:1059000001D1012000E0002028B12068406C40F463
:105910000040216848642068806800F00708B8F1FA
:10592000060F05D02068006840F00100216808607B
:1059300000204AE770B504460D4683492068884236
:1059400007D1002D62D0042D60D0082D5ED00C2D23
:105950005CD02068B0F1804F07D1002D56D0042DC7
:1059600054D0082D52D00C2D50D078492068884250
:1059700007D1002D4AD0042D48D0082D46D00C2D3B
:1059800044D068492068884206D1EDB3042D3DD04B
:10599000082D3BD00C2D39D063492068884206D1B0
:1059A00095B3042D32D0082D30D00C2D2ED05F4968
:1059B0002068884206D13DB3042D27D0082D25D07C
:1059C0000C2D23D05A492068884202D1E5B1042D1C
:1059D0001CD058492068884200D1ADB15649206892
:1059E000884200D185B155492068884202D15DB115
:1059F000042D0BD052492068884200D125B151496D
:105A00002068884203D100E000E005B905E040F2DB
:105A10002C41AFF6B07011F0A8F935B1042D0ED0BD
:105A2000082D16D00C2D28D11DE02068C06820F468
:105A300000702168C860606AFCF78CFF1EE0206877
:105A4000C06820F480602168C860A06AFCF782FF0B
:105A500014E02068C06820F400602168C860E06A33
:105A6000FCF778FF0AE02068C06820F480502168C5
:105A7000C860206BFCF76EFF00E000BF00BF002293
:105A800029462068FFF789FA2F492068884203D009
:105A900026492068884201D1012000E0002090B111
:105AA00000BF2068006A41F21111084050B9206817
:105AB000006A8910084028B92068406C20F4004032
:105AC0002168486400BF00BF2068006A41F21111DC
:105AD000084050B92068006A8910084028B9206839
:105AE000006820F001002168086000BF012084F8F0
:105AF0003D00002070BD704710B504460CB9012070
:105B000010BD1149206888424AD02068B0F1804F0A
:105B100046D00E492068884242D002492068884217
:105B20003ED015E000080040000C00400004014099
:105B3000004001400044014000480140001800407E
:105B4000001C004000200040000001400004004014
:105B5000FE492068884223D0FD49206888421FD032
:105B6000FC49206888421BD0FB492068884217D036
:105B7000FA492068884213D0F949206888420FD03A
:105B8000F849206888420BD0F7492068884207D03E
:105B9000F6492068884203D0F5492068884200D140
:105BA00004E040F29341F34811F0DFF8A06858B1E7
:105BB000A068102808D0A068202805D0A068402838
:105BC00002D0A068602800D104E040F29441E94886
:105BD00011F0CBF8206938B12069B0F5807F03D08F
:105BE0002069B0F5007F00D104E040F29541E14822
:105BF00011F0BBF8A06910B1A069802800D104E0C1
:105C000040F29641DB4811F0B0F894F83D0028B915
:105C1000002084F83C002046FFF76DFF022084F846
:105C20003D00211D2068FEF703FD012084F83D00A2
:105C3000002065E7704710B50446CF4920688842C8
:105C400033D02068B0F1804F2FD0CC4920688842F3
:105C50002BD0CB492068884227D0BC492068884295
:105C600023D0BB49206888421FD0BA4920688842A7
:105C70001BD0B9492068884217D0B84920688842AB
:105C800013D0B749206888420FD0B64920688842AF
:105C90000BD0B5492068884207D0B44920688842B3
:105CA00003D0B3492068884200D104E040F2C141EA
:105CB000B04811F05AF8022084F83D0000BF206877
:105CC000006A41F21111084050B92068006A891039
:105CD000084028B92068006820F0010021680860A9
:105CE00000BF2046FFF7A6FF002084F83D0000BF5C
:105CF00084F83C0000BF10BD70B505460C469E49B7
:105D00002868884207D1002C62D0042C60D0082C6F
:105D10005ED00C2C5CD02868B0F1804F07D1002CED
:105D200056D0042C54D0082C52D00C2C50D093496F
:105D30002868884207D1002C4AD0042C48D0082C6F
:105D400046D00C2C44D08E492868884206D1ECB34A
:105D5000042C3DD0082C3BD00C2C39D07B49286832
:105D6000884206D194B3042C32D0082C30D00C2CAD
:105D70002ED079492868884206D13CB3042C27D01C
:105D8000082C25D00C2C23D074492868884202D1D5
:105D9000E4B1042C1CD072492868884200D1ACB10F
:105DA00070492868884200D184B16F4928688842C8
:105DB00002D15CB1042C0BD06C492868884200D118
:105DC00024B16B492868884203D100E000E004B99F
:105DD00004E040F20B51674810F0C7FF0122214652
:105DE0002868FFF7DAF864492868884203D05A49DE
:105DF0002868884201D1012000E0002028B12868ED
:105E0000406C40F40040296848642868806800F0CD
:105E10000706062E05D02868006840F001002968B2
:105E20000860002070BD70B505460C4652492868D0
:105E3000884207D1002C60D0042C5ED0082C5CD0A6
:105E40000C2C5AD02868B0F1804F07D1002C54D0C8
:105E5000042C52D0082C50D00C2C4ED04749286826
:105E6000884207D1002C48D0042C46D0082C44D0BE
:105E70000C2C42D042492868884206D1ECB3042C4D
:105E80003BD0082C39D00C2C37D0304928688842B8
:105E900006D194B3042C30D0082C2ED00C2C2CD04E
:105EA0002D492868884206D13CB3042C25D0082C03
:105EB00023D00C2C21D029492868884202D1E4B192
:105EC000042C1AD026492868884200D1ACB1254953
:105ED0002868884200D184B123492868884202D1C9
:105EE0005CB1042C09D021492868884200D124B132
:105EF0001F492868884201D104B904E040F22F51BB
:105F00001C4810F032FF002221462868FFF745F8B0
:105F100019492868884203D00F492868884201D16E
:105F2000012000E0002068B300BF2868006A41F249
:105F30001111084038BB2868006A8910084010BB5E
:105F40002868406C20F4004029681DE0000C0040E7
:105F500000100040001400400004014000400140D7
:105F6000004401400048014000180040001C00406F
:105F700000200040644A0008000001400004004086
:105F80000008004002E000E0486400BF00BF28684D
:105F9000006A41F21111084050B92868006A89105E
:105FA000084028B92868006820F0010029680860C6
:105FB00000BF012085F83D00002070BD70B505468A
:105FC0000C46FB492868884207D1002C62D0042C7B
:105FD00060D0082C5ED00C2C5CD02868B0F1804FCB
:105FE00007D1002C56D0042C54D0082C52D00C2CA5
:105FF00050D0F0492868884207D1002C4AD0042CA0
:1060000048D0082C46D00C2C44D0EB492868884254
:1060100006D1ECB3042C3DD0082C3BD00C2C39D04D
:10602000E6492868884206D194B3042C32D0082C63
:1060300030D00C2C2ED0E2492868884206D13CB3DF
:10604000042C27D0082C25D00C2C23D0DD4928681F
:10605000884202D1E4B1042C1CD0DB492868884274
:1060600000D1ACB1D9492868884200D184B1D8495F
:106070002868884202D15CB1042C0BD0D54928682D
:10608000884200D124B1D4492868884203D100E075
:1060900000E004B904E040F25351D04810F065FE2E
:1060A00034B1042C0BD0082C10D00C2C1CD114E0D3
:1060B0002868C06840F002002968C86015E02868B8
:1060C000C06840F004002968C8600EE02868C06815
:1060D00040F008002968C86007E02868C06840F000
:1060E00010002968C86000E000BF00BF01222146FF
:1060F0002868FEF752FFAE492868884203D0B049AD
:106100002868884201D1012000E0002028B12868D9
:10611000406C40F40040296848642868806800F0BA
:106120000706062E05D02868006840F0010029689F
:106130000860002070BD70B505460C469C49286873
:10614000884207D1002C60D0042C5ED0082C5CD093
:106150000C2C5AD02868B0F1804F07D1002C54D0B5
:10616000042C52D0082C50D00C2C4ED091492868C9
:10617000884207D1002C48D0042C46D0082C44D0AB
:106180000C2C42D08C492868884206D1ECB3042CF0
:106190003BD0082C39D00C2C37D08849286888424D
:1061A00006D194B3042C30D0082C2ED00C2C2CD03B
:1061B00083492868884206D13CB3042C25D0082C9A
:1061C00023D00C2C21D07F492868884202D1E4B129
:1061D000042C1AD07C492868884200D1ACB17B4994
:1061E0002868884200D184B179492868884202D160
:1061F0005CB1042C09D077492868884200D124B1C9
:1062000075492868884201D104B904E040F29951E7
:10621000724810F0AAFD34B1042C0BD0082C10D019
:106220000C2C1CD114E02868C06820F002002968FA
:10623000C86015E02868C06820F004002968C860BC
:106240000EE02868C06820F008002968C86007E0F0
:106250002868C06820F010002968C86000E000BF0E
:1062600000BF002221462868FEF797FE50492868A3
:10627000884203D052492868884201D1012000E0B9
:10628000002090B100BF2868006A41F21111084057
:1062900050B92868006A8910084028B92868406CFD
:1062A00020F400402968486400BF00BF2868006AE5
:1062B00041F21111084050B92868006A891008405D
:1062C00028B92868006820F001002968086000BF2C
:1062D000002070BD2DE9F04104460D4616461F46CC
:1062E00033492068884207D1002D60D0042D5ED04C
:1062F000082D5CD00C2D5AD02068B0F1804F07D10A
:10630000002D54D0042D52D0082D50D00C2D4ED03D
:1063100028492068884207D1002D48D0042D46D056
:10632000082D44D00C2D42D023492068884206D144
:10633000EDB3042D3BD0082D39D00C2D37D01F499B
:106340002068884206D195B3042D30D0082D2ED078
:106350000C2D2CD01A492068884206D13DB3042D5B
:1063600025D0082D23D00C2D21D016492068884235
:1063700002D1E5B1042D1AD013492068884200D11A
:10638000ADB112492068884200D185B1104920681A
:10639000884202D15DB1042D09D00E49206888429F
:1063A00000D125B10C492068884219D1C5B91CE03B
:1063B000000001400004004000080040000C0040C4
:1063C00000040140004001400044014000480140F9
:1063D00000180040001C004000200040644A0008F3
:1063E00040F2DF51FD4810F0C0FC94F83D00022857
:1063F00001D1BDE8F08194F83D00012805D10EB926
:1064000007B1F6E7022084F83D0035B1042D21D014
:10641000082D3CD00C2D75D156E0AFF6B951606A0D
:10642000C163AFF60961606A0164ED49606AC164E5
:10643000216801F134023B463146606AFCF7DBF922
:1064400008B10120D5E72068C06840F400702168D9
:10645000C86058E0AFF6F551A06AC163AFF6456178
:10646000A06A0164DE49A06AC164216801F13802B2
:106470003B463146A06AFCF7BEF908B10120B8E7F7
:106480002068C06840F480602168C8603BE0AFF6D7
:106490002D61E06AC163AFF67D61E06A0164D049B5
:1064A000E06AC164216801F13C023B463146E06A82
:1064B000FCF7A1F908B101209BE72068C06840F40F
:1064C00000602168C8601EE0AFF66961206BC1639F
:1064D000AFF6B961206B0164C149206BC1642168CA
:1064E00001F140023B463146206BFCF784F908B1CC
:1064F00001207EE72068C06840F480502168C860B1
:1065000001E0FFE700BF00BF012229462068FEF737
:1065100044FDB4492068884203D0B34920688842CA
:1065200001D1012000E0002028B12068406C40F437
:106530000040216848642068806800F00708B8F1CE
:10654000060F05D02068006840F00100216808604F
:1065500000204EE770B504460D46A24920688842E7
:1065600007D1002D62D0042D60D0082D5ED00C2DF7
:106570005CD02068B0F1804F07D1002D56D0042D9B
:1065800054D0082D52D00C2D50D098492068884204
:1065900007D1002D4AD0042D48D0082D46D00C2D0F
:1065A00044D093492068884206D1EDB3042D3DD0F4
:1065B000082D3BD00C2D39D08E492068884206D159
:1065C00095B3042D32D0082D30D00C2D2ED0864915
:1065D0002068884206D13DB3042D27D0082D25D050
:1065E0000C2D23D084492068884202D1E5B1042DC6
:1065F0001CD082492068884200D1ADB18049206812
:10660000884200D185B17F492068884202D15DB1BE
:10661000042D0BD07C492068884200D125B17B49EC
:106620002068884203D100E000E005B904E040F2B0
:106630006A616A4810F099FB35B1042D0ED0082D1F
:1066400016D00C2D28D11DE02068C06820F4007001
:106650002168C860606AFCF77DF91EE02068C068A8
:1066600020F480602168C860A06AFCF773F914E028
:106670002068C06820F400602168C860E06AFCF708
:1066800069F90AE02068C06820F480502168C86079
:10669000206BFCF75FF900E000BF00BF0022294635
:1066A0002068FEF77AFC4F492068884203D04E49A3
:1066B0002068884201D1012000E0002090B100BF95
:1066C0002068006A41F21111084050B92068006A40
:1066D0008910084028B92068406C20F400402168E7
:1066E000486400BF00BF2068006A41F211110840F1
:1066F00050B92068006A8910084028B920680068ED
:1067000020F001002168086000BF012084F83D00EE
:10671000002070BD704710B504460CB9012010BDB3
:1067200030492068884233D02068B0F1804F2FD0A4
:106730002E49206888422BD02D492068884227D0D6
:106740002C492068884223D03149206888421FD0D4
:106750003049206888421BD023492068884217D0DE
:1067600025492068884213D02449206888420FD0E8
:106770002349206888420BD022492068884207D0EC
:1067800021492068884203D020492068884200D1EE
:1067900004E040F2D161114810F0E7FAA06858B166
:1067A000A068102808D0A068202805D0A06840283C
:1067B00002D0A068602800D104E040F2D26107480E
:1067C00010F0D3FA206938B12069B0F5807F03D08A
:1067D0002069B0F5007F1FD123E00000644A000863
:1067E000E34B0008000001400004014000040040A9
:1067F00000080040000C00400040014000440140FF
:106800000048014000180040001C004000200040EB
:10681000001000400014004040F2D361FE4810F028
:10682000A4FAA06910B1A069802800D104E040F268
:10683000D461F94810F099FA94F83D0028B9002085
:1068400084F83C002046FFF765FF022084F83D00F5
:10685000211D2068FDF7ECFE012084F83D0000209A
:106860005DE7704710B50446EC492068884233D094
:106870002068B0F1804F2FD0E949206888422BD0A2
:10688000E8492068884227D0E7492068884223D019
:10689000E649206888421FD0E549206888421BD01D
:1068A000E4492068884217D0E3492068884213D021
:1068B000E249206888420FD0E149206888420BD025
:1068C000E0492068884207D0DF492068884203D029
:1068D000DE492068884200D104E040F2FF61CE48E2
:1068E00010F043FA022084F83D0000BF2068006ADF
:1068F00041F21111084050B92068006A891008401F
:1069000028B92068006820F001002168086000BFF5
:106910002046FFF7A6FF002084F83D0000BF84F862
:106920003C0000BF10BD70B505460C46BB49286849
:10693000884207D1002C60D0042C5ED0082C5CD09B
:106940000C2C5AD02868B0F1804F07D1002C54D0BD
:10695000042C52D0082C50D00C2C4ED0B0492868B2
:10696000884207D1002C48D0042C46D0082C44D0B3
:106970000C2C42D0AB492868884206D1ECB3042CD9
:106980003BD0082C39D00C2C37D0A7492868884236
:1069900006D194B3042C30D0082C2ED00C2C2CD043
:1069A000A4492868884206D13CB3042C25D0082C81
:1069B00023D00C2C21D0A0492868884202D1E4B110
:1069C000042C1AD09D492868884200D1ACB19C495A
:1069D0002868884200D184B19A492868884202D147
:1069E0005CB1042C09D098492868884200D124B1B0
:1069F00096492868884201D104B904E040F24971FF
:106A0000854810F0B2F9012221462868FEF7C5FA40
:106A10002868806800F00706062E05D02868006800
:106A200040F0010029680860002070BD70B505467F
:106A30000C467A492868884207D1002C62D0042C81
:106A400060D0082C5ED00C2C5CD02868B0F1804F50
:106A500007D1002C56D0042C54D0082C52D00C2C2A
:106A600050D06F492868884207D1002C4AD0042CA6
:106A700048D0082C46D00C2C44D06A49286888425B
:106A800006D1ECB3042C3DD0082C3BD00C2C39D0D3
:106A900065492868884206D194B3042C32D0082C6A
:106AA00030D00C2C2ED063492868884206D13CB3E4
:106AB000042C27D0082C25D00C2C23D05E49286824
:106AC000884202D1E4B1042C1CD05C492868884279
:106AD00000D1ACB15A492868884200D184B15949E3
:106AE0002868884202D15CB1042C0BD05649286832
:106AF000884200D124B155492868884203D100E07A
:106B000000E004B904E040F26771434810F02DF949
:106B1000002221462868FEF740FA00BF2868006A74
:106B200041F21111084050B92868006A89100840E4
:106B300028B92868006820F001002968086000BFB3
:106B4000002070BD70B505460C463449286888425F
:106B500007D1002C7FD0042C7DD0082C7BD00C2CAE
:106B600079D02868B0F1804F07D1002C73D0042C65
:106B700071D0082C6FD00C2C6DD029492868884220
:106B800007D1002C67D0042C65D0082C63D00C2CC6
:106B900061D024492868884206D1DCB3042C5AD03D
:106BA000082C58D00C2C56D01F492868884206D192
:106BB00084B3042C4FD0082C4DD00C2C4BD01D4945
:106BC0002868884206D12CB3042C44D0082C42D02B
:106BD0000C2C40D018492868884202D1D4B1042C2A
:106BE00039D016492868884200D19CB114492868D8
:106BF000884200D174B113492868884202D14CB14F
:106C0000042C28D010492868884200D114B10F49BB
:106C100028681DE01FE00000644A000800000140F1
:106C20000004004000080040000C0040001000403C
:106C300000140040000401400040014000440140B5
:106C40000048014000180040001C004000200040A7
:106C5000884201D104B904E040F28371FA4810F08F
:106C600084F834B1042C0BD0082C10D00C2C1CD17F
:106C700014E02868C06840F002002968C86015E088
:106C80002868C06840F004002968C8600EE02868E1
:106C9000C06840F008002968C86007E02868C0683C
:106CA00040F010002968C86000E000BF00BF01226A
:106CB00021462868FEF771F92868806800F0070609
:106CC000062E05D02868006840F001002968086099
:106CD000002070BD70B505460C46DC492868884226
:106CE00007D1002C62D0042C60D0082C5ED00C2C74
:106CF0005CD02868B0F1804F07D1002C56D0042C0E
:106D000054D0082C52D00C2C50D0D149286888423D
:106D100007D1002C4AD0042C48D0082C46D00C2C8B
:106D200044D0CC492868884206D1ECB3042C3DD02D
:106D3000082C3BD00C2C39D0C7492868884206D192
:106D400094B3042C32D0082C30D00C2C2ED0C34954
:106D50002868884206D13CB3042C27D0082C25D0C3
:106D60000C2C23D0BE492868884202D1E4B1042CFF
:106D70001CD0BC492868884200D1ACB1BA49286807
:106D8000884200D184B1B9492868884202D15CB1F7
:106D9000042C0BD0B6492868884200D124B1B549EB
:106DA0002868884203D100E000E004B904E040F222
:106DB000C271A5480FF0D9FF34B1042C0BD0082CB8
:106DC00010D00C2C1CD114E02868C06820F0020000
:106DD0002968C86015E02868C06820F004002968A8
:106DE000C8600EE02868C06820F008002968C86004
:106DF00007E02868C06820F010002968C86000E03B
:106E000000BF00BF002221462868FEF7C6F800BF79
:106E10002868006A41F21111084050B92868006AD8
:106E20008910084028B92868006820F00100296806
:106E3000086000BF002070BD704770B50546AC6BA0
:106E4000012084F83D00606AA84202D10120207729
:106E500010E0A06AA84202D1022020770AE0E06A8E
:106E6000A84202D10420207704E0206BA84201D17F
:106E7000082020772046FFF7DFFF0020207770BD35
:106E8000704770B50546AC6B012084F83D00606A20
:106E9000A84202D10120207710E0A06AA84202D1C6
:106EA000022020770AE0E06AA84202D1042020777D
:106EB00004E0206BA84201D1082020772046FFF78C
:106EC000DFFF0020207770BD2DE9F04104460D461C
:106ED00016461F465D492068884207D1002D60D0C4
:106EE000042D5ED0082D5CD00C2D5AD02068B0F156
:106EF000804F07D1002D54D0042D52D0082D50D0F2
:106F00000C2D4ED052492068884207D1002D48D020
:106F1000042D46D0082D44D00C2D42D04D49206878
:106F2000884206D1EDB3042D3BD0082D39D00C2D6D
:106F300037D049492068884206D195B3042D30D016
:106F4000082D2ED00C2D2CD044492068884206D123
:106F50003DB3042D25D0082D23D00C2D21D0404940
:106F60002068884202D1E5B1042D1AD03D4920683D
:106F7000884200D1ADB13C492068884200D185B13A
:106F80003A492068884202D15DB1042D09D03849C0
:106F90002068884200D125B136492068884201D155
:106FA00005B904E040F6020127480FF0DEFE27494C
:106FB0002068884213D02068B0F1804F0FD0244958
:106FC000206888420BD023492068884207D0224994
:106FD0002068884203D021492068884200D104E01B
:106FE00040F6030118480FF0C0FE94F83D00022857
:106FF00001D1BDE8F08194F83D00012805D10EB91A
:1070000007B1F6E7022084F83D0035B1042D3CD0ED
:10701000082D57D00C2D72D172E0AFF29911606A31
:10702000C163AFF2E911606A01641349606AC16427
:10703000226802F134013B463246606AFBF7DBFB13
:10704000E0B10120D5E70000644A000800000140DB
:107050000004004000080040000C00400004014013
:107060000040014000440140004801400018004039
:10707000001C004000200040E34B00082068C0686E
:1070800040F400702168C86058E0AFF20921A06A9E
:10709000C163AFF25921A06A0164FE49A06AC164CC
:1070A000226802F138013B463246A06AFBF7A3FB97
:1070B00008B101209DE72068C06840F48060216825
:1070C000C8603BE0AFF24521E06AC163AFF29521B1
:1070D000E06A0164EF49E06AC164226802F13C01A0
:1070E0003B463246E06AFBF786FB08B1012080E7A9
:1070F0002068C06840F400602168C8601EE01CE0A1
:10710000AFF28121206BC163AFF2D121206B01640A
:10711000E049206BC164226802F140013B463246DF
:10712000206BFBF768FB08B1012062E72068C068AC
:1071300040F480502168C86000E000BF00BF012219
:1071400029462068FDF729FF2068806800F00708BD
:10715000B8F1060F05D02068006840F001002168F2
:107160000860002045E770B504460D46CA4920680E
:10717000884207D1002D60D0042D5ED0082D5CD050
:107180000C2D5AD02068B0F1804F07D1002D54D07B
:10719000042D52D0082D50D00C2D4ED0BF49206860
:1071A000884207D1002D48D0042D46D0082D44D068
:1071B0000C2D42D0BA492068884206D1EDB3042D87
:1071C0003BD0082D39D00C2D37D0B64920688842E5
:1071D00006D195B3042D30D0082D2ED00C2D2CD0F7
:1071E000B1492068884206D13DB3042D25D0082D31
:1071F00023D00C2D21D0AD492068884202D1E5B1C1
:10720000042D1AD0AA492068884200D1ADB1A949FD
:107210002068884200D185B1A7492068884202D100
:107220005DB1042D09D0A5492068884200D125B15F
:10723000A3492068884201D105B904E040F68701DE
:10724000A0480FF092FD94492068884213D020682E
:10725000B0F1804F0FD09149206888420BD09049FF
:107260002068884207D08F492068884203D08E4921
:107270002068884200D104E040F6880191480FF070
:1072800074FD35B1042D0ED0082D16D00C2D28D14B
:107290001DE02068C06820F400702168C860606A42
:1072A000FBF758FB1EE02068C06820F4806021686E
:1072B000C860A06AFBF74EFB14E02068C06820F4A9
:1072C00000602168C860E06AFBF744FB0AE02068C0
:1072D000C06820F480502168C860206BFBF73AFB3F
:1072E00000E000BF00BF002229462068FDF755FEE0
:1072F00000BF2068006A41F21111084050B92068AF
:10730000006A8910084028B92068006820F0010050
:107310002168086000BF012084F83D00002070BD96
:10732000704770B504460D460CB9012070BD5A492E
:107330002068884233D02068B0F1804F2FD0574961
:10734000206888422BD056492068884227D055496A
:107350002068884223D05C49206888421FD05B495E
:10736000206888421BD050492068884217D04F4976
:107370002068884213D04E49206888420FD04D497A
:10738000206888420BD04C492068884207D04B497E
:107390002068884203D04A492068884200D104E02E
:1073A00040F6EC0147480FF0E0FCA06858B1A06837
:1073B000102808D0A068202805D0A068402802D056
:1073C000A068602800D104E040F6ED013D480FF0D0
:1073D000CCFC206938B12069B0F5807F03D02069EA
:1073E000B0F5007F00D104E040F6EE0135480FF023
:1073F000BCFC082D00D005B904E040F6EF0131488F
:107400000FF0B3FCA06910B1A069802800D104E09E
:107410004FF40F612B480FF0A8FC94F83D0028B9F9
:10742000002084F83C002046FFF77AFF022084F811
:107430003D00211D2068FDF7FBF82068006820F062
:1074400008002168086020680068284321680860F7
:10745000012084F83D00002068E7704710B504461D
:107460000D492068884252D02068B0F1804F4ED03C
:107470000A49206888424AD009492068884246D093
:1074800008492068884242D00F49206888423ED08F
:107490000E491DE0E34B00080000014000040040DD
:1074A00000080040000C0040000401400040014082
:1074B000004401400048014000180040001C00400A
:1074C00000200040644A0008001000400014004002
:1074D000206888421BD0FA492068884217D0F949B1
:1074E0002068884213D0F849206888420FD0F749B5
:1074F000206888420BD0F6492068884207D0F549B9
:107500002068884203D0F4492068884200D104E012
:1075100040F62111F1480FF028FC022084F83D00CC
:1075200000BF2068006A41F21111084050B920687C
:10753000006A8910084028B92068006820F001001E
:107540002168086000BF2046FFF787FF002084F80D
:107550003D0000BF84F83C0000BF10BD70B504467C
:107560000D46012200212068FDF717FD01220421AC
:107570002068FDF712FDDA492068884203D0D0491F
:107580002068884201D1012000E0002028B1206855
:10759000406C40F4004021684864002070BD70B524
:1075A00004460D46002211462068FDF7F6FC002235
:1075B00004212068FDF7F1FCC9492068884203D006
:1075C000BF492068884201D1012000E0002090B12D
:1075D00000BF2068006A41F21111084050B92068CC
:1075E000006A8910084028B92068406C20F40040E7
:1075F0002168486400BF00BF2068006A41F2111191
:10760000084050B92068006A8910084028B92068ED
:10761000006820F001002168086000BF002070BDF4
:1076200070B504460D462068C06840F0020021682D
:10763000C8602068C06840F004002168C86001226A
:1076400000212068FDF7A9FC012204212068FDF734
:10765000A4FCA3492068884203D099492068884245
:1076600001D1012000E0002028B12068406C40F4E6
:10767000004021684864002070BD70B504460D4686
:107680002068C06820F002002168C8602068C068D7
:1076900020F004002168C860002211462068FDF730
:1076A0007CFC002204212068FDF777FC8C492068CF
:1076B000884203D082492068884201D1012000E03D
:1076C000002090B100BF2068006A41F2111108400B
:1076D00050B92068006A8910084028B92068406CB9
:1076E00020F400402168486400BF00BF2068006AA1
:1076F00041F21111084050B92068006A8910084011
:1077000028B92068006820F001002168086000BFE7
:10771000002070BD70472DE9F04105460C4615B9B3
:107720000120BDE8F081A86858B1A868102808D0E9
:10773000A868202805D0A868402802D0A86860283A
:1077400000D104E040F6292164480FF00EFB2869BF
:1077500038B12869B0F5807F03D02869B0F5007F83
:1077600000D104E040F62A215C480FF0FEFAA86937
:1077700010B1A869802800D104E040F62B215748B9
:107780000FF0F3FA5649286888421BD02868B0F1F8
:10779000804F17D053492868884213D0524928682F
:1077A00088420FD05149286888420BD04449286844
:1077B000884207D043492868884203D04449286852
:1077C000884200D104E040F62C2144480FF0CDFA65
:1077D0002068012805D02068022802D020680328EC
:1077E00000D104E040F62D213C480FF0BEFAA0681D
:1077F000012805D0A068022802D0A068032800D183
:1078000004E040F62E2135480FF0AFFAA0690128B8
:1078100005D0A069022802D0A069032800D104E0A5
:1078200040F62F212D480FF0A0FA606828B160685B
:10783000022802D060680A2800D104E04FF42361D6
:1078400026480FF092FA606928B16069022802D0D8
:1078500060690A2800D104E040F631211F480FF08A
:1078600084FAE06840B1E068042805D0E0680828A0
:1078700002D0E0680C2800D104E040F6322117481D
:107880000FF073FAE06940B1E069042805D0E069BF
:10789000082802D0E0690C2800D104E040F633212A
:1078A0000E480FF062FA20690F2800D804E040F675
:1078B00034210A480FF059FA206A0F2818D81CE022
:1078C00000040140004001400044014000480140E4
:1078D00000180040001C004000200040644A0008DE
:1078E000000001400004004000080040000C00407F
:1078F00040F63521FA480FF038FA95F83D0028B9DE
:10790000002085F83C0028460FF0AFFA022085F8E9
:107910003D002868806844F2070188432968886030
:10792000291D2868FCF784FE2868D0F8088028689C
:1079300086692868076A206840EA080840F2033030
:107940008643A169A06840EA0120064340F60C4046
:1079500086434FF2F0008643E169E06840EA012087
:10796000064320690001216A40EA0130064327F0FE
:10797000220727F088076169606840EA0110074321
:107980002868C0F808802868866128680762012096
:1079900085F83D000020C4E6704710B50446D14983
:1079A0002068884233D02068B0F1804F2FD0CE4974
:1079B000206888422BD0CD492068884227D0CC4906
:1079C0002068884223D0CB49206888421FD0CA490A
:1079D000206888421BD0C9492068884217D0C8490E
:1079E0002068884213D0C749206888420FD0C64912
:1079F000206888420BD0C5492068884207D0C44916
:107A00002068884203D0C3492068884200D104E03E
:107A100040F68821B2480FF0A8F9022084F83D0012
:107A200000BF2068006A41F21111084050B9206877
:107A3000006A8910084028B92068006820F0010019
:107A40002168086000BF2046FFF7A6FF002084F8E9
:107A50003D0000BF84F83C0000BF10BD70B5044677
:107A60000D46A049206888421BD02068B0F1804FA5
:107A700017D09D492068884213D09C4920688842CD
:107A80000FD09B49206888420BD09C4920688842CF
:107A900007D09B492068884203D09C4920688842CF
:107AA00000D104E040F6CF218D480FF05EF915B10A
:107AB000042D0CD105E0012200212068FDF76DFAAC
:107AC00010E0012204212068FDF767FA0AE0012294
:107AD00000212068FDF761FA012204212068FDF7EA
:107AE0005CFA00BF00BF2068006840F00100216818
:107AF0000860002070BD70B504460D4679492068C5
:107B000088421BD02068B0F1804F17D0764920689A
:107B1000884213D07549206888420FD07449206884
:107B200088420BD075492068884207D07449206884
:107B3000884203D075492068884200D104E040F6AD
:107B4000FB2167480FF011F915B1042D0CD105E0A8
:107B5000002211462068FDF720FA10E000220421DF
:107B60002068FDF71AFA0AE0002211462068FDF7A6
:107B700014FA002204212068FDF70FFA00BF00BFAD
:107B800000BF2068006A41F21111084050B9206816
:107B9000006A8910084028B92068006820F00100B8
:107BA0002168086000BF002070BD70B504460D4616
:107BB0004C49206888421BD02068B0F1804F17D014
:107BC00049492068884213D04849206888420FD02C
:107BD0004749206888420BD048492068884207D02E
:107BE00047492068884203D048492068884200D12C
:107BF00004E040F629313A480FF0B7F815B1042DEA
:107C000018D10BE0012200212068FDF7C6F9206899
:107C1000C06840F002002168C86022E0012204210F
:107C20002068FDF7BAF92068C06840F004002168B8
:107C3000C86016E0012200212068FDF7AEF901229C
:107C400004212068FDF7A9F92068C06840F002000F
:107C50002168C8602068C06840F004002168C860DE
:107C600000BF00BF2068006840F001002168086084
:107C7000002070BD70B504460D461A492068884240
:107C80001BD02068B0F1804F17D017492068884278
:107C900013D01649206888420FD0154920688842C1
:107CA0000BD016492068884207D0154920688842C1
:107CB00003D016492068884200D104E040F65B31C9
:107CC00007480FF052F83DBB002211462068FDF72F
:107CD00064F92068C06820F002002168C86040E0B4
:107CE000644A000800000140000400400008004011
:107CF000000C00400010004000140040000401404F
:107D0000004001400044014000480140001800408C
:107D1000001C004000200040FFE7042D0BD1002292
:107D200004212068FDF739F92068C06820F00400BC
:107D30002168C86015E0002211462068FDF72DF982
:107D4000002204212068FDF728F92068C06820F08F
:107D500002002168C8602068C06820F00400216823
:107D6000C86000BF2068006A41F21111084050B994
:107D70002068006A8910084028B92068006820F04F
:107D800001002168086000BF012084F83D00002048
:107D900070BD2DE9F04104460E4617461D46DDF83C
:107DA0001880FE492068884213D02068B0F1804FC7
:107DB0000FD0FB49206888420BD0FA4920688842DE
:107DC00007D0F9492068884203D0F84920688842E2
:107DD00000D104E040F69131F5480EF0C6FF94F86A
:107DE0003D00022801D1BDE8F08194F83D00012852
:107DF00009D107B125B9B8F1000F01D00120F2E790
:107E0000022084F83D0026B1042E2AD03C2E77D1E2
:107E10004EE0AFF69171606AC163AFF6E171606ADE
:107E20000164E449606AC164226802F13401434696
:107E30003A46606AFAF7DFFC08B10120D3E7206810
:107E4000C06840F400702168C8602068006840F095
:107E5000010021680860012200212068FDF79DF8DB
:107E60006DE0AFF6E171A06AC163D349A06A016415
:107E7000D049A06AC164226802F1380143462A460B
:107E8000A06AFAF7B8FC08B10120ACE72068C06826
:107E900040F480602168C8602068006840F00100FC
:107EA00021680860012204212068FDF776F846E089
:107EB000C249606AC163C049606A0164BD49606AC1
:107EC000C164226802F1340143463A46606AFAF717
:107ED00092FC08B1012086E7B849A06AC163B6499F
:107EE000A06A0164B349A06AC164226802F1380142
:107EF00043462A46A06AFAF77EFC10B1012072E7D9
:107F00001CE02068006840F0010021680860012240
:107F100000212068FDF741F8012204212068FDF7C7
:107F20003CF82068C06840F400702168C860206890
:107F3000C06840F480602168C86000E000BF00BFF6
:107F4000002050E770B504460D46944920688842E9
:107F500013D02068B0F1804F0FD09149206888423B
:107F60000BD090492068884207D08F49206888420A
:107F700003D08E492068884200D104E040F61741C2
:107F80008B480EF0F2FE75B9002211462068FDF70D
:107F900004F82068C06820F400702168C860606A36
:107FA000FAF7D8FC2CE0042D0ED100220421206821
:107FB000FCF7F3FF2068C06820F480602168C86087
:107FC000A06AFAF7C7FC1BE0002211462068FCF704
:107FD000E4FF002204212068FCF7DFFF2068C0686E
:107FE00020F400702168C8602068C06820F48060B8
:107FF0002168C860606AFAF7ADFCA06AFAF7AAFCCB
:1080000000BF2068006A41F21111084050B9206891
:10801000006A8910084028B92068006820F0010033
:108020002168086000BF012084F83D00002070BD79
:108030007047704710B5044620680069C0F34000DF
:10804000D8B12068C068C0F34000B0B16FF0020042
:1080500021680861012020772068806900F0030012
:1080600018B12046FEF70CFF05E02046FFF7E1FFC0
:108070002046FDF7F5FA0020207720680069C0F35C
:108080008000D8B12068C068C0F38000B0B16FF044
:10809000040021680861022020772068806900F4CC
:1080A000407018B12046FEF7EBFE05E02046FFF7D2
:1080B000C0FF2046FDF7D4FA002020772068006931
:1080C000C0F3C000D8B12068C068C0F3C000B0B130
:1080D0006FF0080021680861042020772068C069DB
:1080E00000F0030018B12046FEF7CAFE05E0204666
:1080F000FFF79FFF2046FDF7B3FA002020772068A6
:108100000069C0F30010D8B12068C068C0F3001047
:10811000B0B16FF010002168086108202077206856
:10812000C06900F4407018B12046FEF7A9FE05E0D2
:108130002046FFF77EFF2046FDF792FA00202077C9
:108140002068006900F0010058B12068C06800F0A4
:10815000010030B16FF001002168086120460DF088
:10816000DCFE20680069C0F3C01058B12068C06808
:10817000C0F3C01030B16FF0800021680861204664
:1081800004F0E1F820680069C0F38010F8B12068BD
:10819000C068C0F38010D0B112E0000000000140C0
:1081A0000004004000080040000C004000040140B2
:1081B000644A0008E34B00083B6E0008836E000829
:1081C0006FF04000216808612046FFF731FF20680A
:1081D0000069C0F3401058B12068C068C0F3401077
:1081E00030B16FF0200021680861204603F0C6FE20
:1081F00010BD2DE9F04104460D46206A20F4805060
:108200002062276AD4F80480E66926F4E04626F462
:108210004076286846EA002627F40057A86847EA0F
:108220000037F948844202D0F848844210D1686986
:10823000B0F5807F01D0686900B904E041F2CF71E8
:10824000F3480EF092FD28F48048686948EA8018E7
:10825000C4F80480E661686820642762BDE8F081A4
:108260002DE9F04104460D46206A20F4807020621A
:10827000266A6768D4F81C8028F0700828F0030884
:10828000286840EA080826F40076A86846EA00262E
:10829000DD48844200D103E0DC48844212D100BFB3
:1082A000E86810B1E868082800D104E041F2837161
:1082B000D7480EF05AFD26F40066E86846EA002624
:1082C00026F48066D048844202D0D048844221D12E
:1082D000A869B0F5007F01D0A86900B904E041F2B7
:1082E0009071CB480EF041FD6869B0F5807F01D0F8
:1082F000686900B904E041F29171C5480EF035FD9E
:1083000027F4805727F40057686947EA0017A869DF
:1083100047EA00176760C4F81C806868E06326625B
:10832000BDE8F0812DE9F04104460D46206A20F0B9
:1083300010002062266A6768D4F8188028F4E048A4
:1083400028F44078286848EA002826F02006A86823
:1083500046EA0016AC48844200D103E0AB488442B0
:1083600012D100BFE86810B1E868082800D104E025
:1083700041F23871A6480EF0F8FC26F08006E86855
:1083800046EA001626F040069F48844202D09F48E5
:10839000844221D1A869B0F5007F01D0A86900B955
:1083A00004E041F246719A480EF0DFFC6869B0F5CE
:1083B000807F01D0686900B904E041F247719448B8
:1083C0000EF0D3FC27F4806727F40067686947EA5A
:1083D0008007A86947EA80076760C4F81880686862
:1083E000A0632662BDE8F0812DE9F04104460D4608
:1083F000206A20F001002062266A6768D4F818809D
:1084000028F0700828F00308286840EA080826F0D9
:108410000206A86806437C48844200D103E07B48FA
:10842000844211D100BFE86810B1E868082800D183
:1084300004E041F2ED6176480EF097FC26F0080664
:10844000E868064326F004066F48844202D06F486D
:1084500084421FD1A869B0F5007F01D0A86900B996
:1084600004E041F2FA616A480EF07FFC6869B0F5F9
:10847000807F01D0686900B904E041F2FB61644883
:108480000EF073FC27F4807727F4007768690743C0
:10849000A86907436760C4F818806868606326624B
:1084A000BDE8F08170B504460D4616463EB1042E77
:1084B00005D0082E03D00C2E01D03C2E00D104E0B4
:1084C00040F6325152480EF050FC286870B12868CE
:1084D00010280BD02868202808D02868302805D01C
:1084E0002868502802D02868402800D104E040F6CF
:1084F000335147480EF039FCA86810B1A86802282B
:1085000000D104E040F6345141480EF02EFC00BF8B
:1085100094F83C00012801D1022070BD012084F8AC
:108520003C0000BF022084F83D0036B1042E3FD04D
:10853000082E68D00C2E7FD1A2E0334920688842F3
:108540002BD02068B0F1804F27D032492068884274
:1085500023D03149206888421FD0304920688842A2
:108560001BD02A492068884217D02D4920688842AC
:1085700013D02C49206888420FD02B4920688842AC
:108580000BD02A492068884207D0294920688842B0
:1085900003D028492068884200D104E04FF4546198
:1085A0001B480EF0E2FB29462068FFF71DFF8BE019
:1085B0001549206888421BD02068B0F1804F17D041
:1085C00014492068884213D01349206888420FD08C
:1085D0001249206888420BD00C492068884207D095
:1085E0000F492068884203D010492068884200D192
:1085F00004E040F64A5106480EF0B7FB29462068D1
:10860000FFF790FE60E018E0000001400004014028
:10861000644A00080004004000080040000C0040CC
:108620000040014000440140004801400018004063
:10863000001C00400020004045E0FE4920688842C0
:1086400013D02068B0F1804F0FD0FB4920688842DA
:108650000BD0FA492068884207D0F949206888423F
:1086600003D0F8492068884200D104E040F6545114
:10867000F5480EF07AFB29462068FFF7F1FD23E06C
:10868000EC492068884213D02068B0F1804F0FD0A9
:10869000E949206888420BD0E8492068884207D021
:1086A000E7492068884203D0E6492068884200D123
:1086B00004E040F65E51E4480EF057FB294620687E
:1086C000FFF797FD00E000BF00BF012084F83D00E8
:1086D00000BF002084F83C0000BF00BF1DE770B55C
:1086E0000C461546066A26F480560662C169026A7F
:1086F00021F4407141EA052121F470414FF47046A4
:1087000006EA0336314322F420424FF4204606EABB
:1087100004363243C161026270BD70B50C46154625
:10872000066A26F480760662C169026A21F00301B6
:10873000294321F0F001F02606EA0316314322F422
:1087400020624FF4206606EA04263243C1610262C9
:1087500070BD70B50C461546066A26F01006066216
:108760008169026A21F4407141EA052121F47041D6
:108770004FF4704606EA0336314322F0A002A026E9
:1087800006EA041632438161026270BD70B50C4680
:108790001546066A26F0010606628169026AA54E40
:1087A000B04214D0B0F1804F11D0A34EB0420ED0E1
:1087B000A24EB0420BD0A24EB04208D0A14EB04261
:1087C00005D0A24EB04202D0A14EB04201D1012646
:1087D00000E000261EB121F00301294301E041F031
:1087E000010121F0F001F02606EA0316314322F0E0
:1087F0000A0204F00A0632438161026270BD2DE96B
:10880000F04104460D4616468A49206888422BD01E
:108810002068B0F1804F27D087492068884223D054
:108820008649206888421FD08549206888421BD02D
:1088300084492068884217D084492068884213D030
:108840008449206888420FD08349206888420BD031
:108850007F492068884207D080492068884203D039
:108860007F492068884200D104E04FF4586176487F
:108870000EF07BFA286828B12868022802D0286800
:108880000A2800D104E040F681516F480EF06DFADD
:108890006868012805D06868022802D06868032843
:1088A00000D104E040F6825167480EF05EFAA868F5
:1088B00040B1A868042805D0A868082802D0A86894
:1088C0000C2800D104E040F683515F480EF04DFAC9
:1088D000E8680F2800D804E040F684515A480EF0AA
:1088E00044FA00BF94F83C00012802D10220BDE800
:1088F000F081012084F83C0000BF022084F83D0094
:1089000096B9EB68D5E900122068FFF73FFF2068B1
:10891000806920F00C002168886120688069A9685E
:10892000084321688861B8E0042E39D141492068A4
:1089300088421BD02068B0F1804F17D03E49206894
:10894000884213D03D49206888420FD03C492068B6
:1089500088420BD03B492068884207D03B492068B9
:10896000884203D03A492068884200D104E040F6AA
:108970009C5135480EF0F9F9EB68D5E900122068F2
:10898000FFF7E7FE2068806920F440602168886175
:1089900020688069A96840EA0120216888617CE03C
:1089A000082E30D123492068884213D02068B0F1C6
:1089B000804F0FD02049206888420BD01F49206883
:1089C000884207D01E492068884203D01D4920688C
:1089D000884200D104E040F6AC511B480EF0C5F9C6
:1089E000EB68D5E900122068FFF797FE2068C069A0
:1089F00020F00C002168C8612068C069A96808439C
:108A00002168C86149E00B49206888422CD0206861
:108A1000B0F1804F28D008492068884224D0074907
:108A20002068884220D00649206888421CD0054929
:108A3000206817E0000001400004004000080040EA
:108A4000000C004000040140644A0008004001405E
:108A5000001800400044014000480140001C004054
:108A600000200040884200D104E040F6BC51FE489E
:108A70000EF07BF9EB68D5E900122068FFF72FFEB6
:108A80002068C06920F440602168C8612068C0691E
:108A9000A96840EA01202168C861012084F83D00EE
:108AA00000BF002084F83C0000BF00BF1FE770B586
:108AB00004460D4616463EB1042E05D0082E03D0BE
:108AC0000C2E01D03C2E00D104E040F6E351E648E4
:108AD0000EF04BF92868602802D02868702800D171
:108AE00004E040F6E451E0480EF03FF9A86810B108
:108AF000A868022800D104E040F6E551DA480EF0FB
:108B000034F9286910B12869042800D104E040F63E
:108B1000E651D5480EF029F900BF94F83C00012831
:108B200001D1022070BD012084F83C0000BF02206A
:108B300084F83D0036B1042E51D0082E70D00C2E92
:108B40006FD1C1E0C949206888422BD02068B0F1BC
:108B5000804F27D0C6492068884223D0C549206865
:108B600088421FD0C449206888421BD0C34920686E
:108B7000884217D0C2492068884213D0C149206872
:108B800088420FD0C049206888420BD0BF49206876
:108B9000884207D0BE492068884203D0BD4920687A
:108BA000884200D104E040F6F251AF480EF0DDF803
:108BB00029462068FFF718FC2068806940F008000B
:108BC000216888612068806920F00400216888613C
:108BD000206880692969084321688861ABE0A3495E
:108BE000206888421BD02068B0F1804F17D0A04980
:108BF0002068884213D09F49206888420FD09E4940
:108C0000206888420BD09D492068884207D09C4943
:108C10002068884203D09D492068884202D106E03E
:108C20001DE087E040F603618F480EF09EF829466C
:108C30002068FFF777FB2068806940F400602168B6
:108C400088612068806920F48060216888612068DC
:108C50008069296940EA0120216888616BE08349C5
:108C60002068884213D02068B0F1804F0FD080492F
:108C7000206888420BD07F492068884207D07E490F
:108C80002068884203D07D492068884200D104E0F2
:108C900040F6146174480EF068F829462068FFF722
:108CA000DFFA2068C06940F008002168C8612068C8
:108CB000C06920F004002168C8612068C069296982
:108CC00008432168C86136E068492068884213D0AB
:108CD0002068B0F1804F0FD06549206888420BD0E2
:108CE00064492068884207D063492068884203D0DD
:108CF00062492068884200D104E040F625615A4864
:108D00000EF033F829462068FFF773FA2068C0692F
:108D100040F400602168C8612068C06920F4806068
:108D20002168C8612068C069296940EA012021687A
:108D3000C86100E000BF00BF012084F83D0000BF13
:108D4000002084F83C0000BF00BFEBE6F0B587B020
:108D500004460D4616461F460EB1042E00D104E00F
:108D600040F6526140480EF000F80FB1042F00D1D8
:108D700004E040F653613C480DF0F7FFBE4271D06D
:108D800000BF94F83C00012802D1022007B0F0BDDA
:108D9000012084F83C0000BF022084F83D002868D0
:108DA000009068680190A8680290E86803902869BC
:108DB00005906869069016B1042E54D13AE02B490B
:108DC000206888422BD02068B0F1804F27D02849F6
:108DD0002068884223D02749206888421FD026492E
:108DE000206888421BD025492068884217D0244932
:108DF0002068884213D02349206888420FD0224936
:108E0000206888420BD021492068884207D0204939
:108E10002068884203D01F492068884200D104E0BE
:108E200040F6686110480DF0A0FF69462068FFF722
:108E3000DBFA46E00D492068884236D02068B0F160
:108E4000804F32D00A49206888422ED009492068D4
:108E500088422AD008492068884226D007492068DD
:108E6000884219E0E4E02BE0644A00080000014079
:108E70000004004000080040000C004000040140D5
:108E800000400140004401400048014000180040FB
:108E9000001C00400020004007D0FE4920688842A6
:108EA00003D0FD492068884200D104E040F66F619C
:108EB000FA480DF05AFF69462068FFF733FA00E0E0
:108EC00000BF00BF17B1042F7CD15AE0F4492068DD
:108ED00088422BD02068B0F1804F27D0F14920681C
:108EE000884223D0F049206888421FD0EF4920688B
:108EF00088421BD0EE492068884217D0E549206897
:108F0000884213D0EB49206888420FD0EA49206894
:108F100088420BD0E0492068884207D0E7492068A2
:108F2000884203D0E6492068884200D104E040F638
:108F30007C61DA480DF019FFD5E90723A96920689B
:108F4000FFF724FC2068806920F00C00216888610C
:108F50002068806820F07000216888602068806840
:108F600040F05000216888602068806820F0070089
:108F7000216888602068806840F006002168886069
:108F80004CE0C749206888421BD02068B0F1804F70
:108F900017D0C4492068884213D0C349206888424A
:108FA0000FD0C249206888420BD0C149206888424E
:108FB00007D0B8492068884203D0B7492068884262
:108FC00001D105E029E040F68F61B4480DF0CDFEF7
:108FD000D5E90723A9692068FFF7BBFB20688069F2
:108FE00020F44060216888612068806820F070006B
:108FF000216888602068806840F06000216888608F
:109000002068806820F007002168886020688068F8
:1090100040F006002168886000E000BF00BF01202A
:1090200084F83D0000BF002084F83C0000BFADE69E
:109030000120ABE6704770B50446A56B012085F8AA
:109040003D002846FFF7F6FF70BD70B50446A56BDE
:10905000012085F83D002846FEF7EAFF70BD2DE9A6
:10906000F04104460E4617469846069D8C492068F6
:10907000884213D02068B0F1804F0FD08949206812
:1090800088420BD088492068884207D087492068E9
:10909000884203D086492068884200D104E040F627
:1090A000DB617E480DF061FE0EB3012E1FD0022E53
:1090B0001DD0032E1BD0042E19D0052E17D0062E3E
:1090C00015D0072E13D0082E11D0092E0FD00A2E3E
:1090D0000DD00B2E0BD00C2E09D00D2E07D00E2E3E
:1090E00005D00F2E03D0102E01D0112E00D104E098
:1090F00040F6DC6169480DF038FE27F4FE4008B9FF
:1091000007B104E040F6DD6164480DF02EFE95B332
:10911000B5F5807F2FD0B5F5007F2CD0B5F5407F19
:1091200029D0B5F5806F26D0B5F5A06F23D0B5F561
:10913000C06F20D0B5F5E06F1DD0B5F5006F1AD027
:10914000B5F5106F17D0B5F5206F14D0B5F5306FA9
:1091500011D0B5F5406F0ED0B5F5506F0BD0B5F509
:10916000606F08D0B5F5706F05D0B5F5805F02D09F
:10917000B5F5885F00D104E040F6DE6147480DF0A8
:10918000F4FD94F83D00022801D1BDE8F08194F887
:109190003D00012807D1B8F1000F01D105B1F4E776
:1091A000022084F83D00B7F5006F59D009DCB7F50F
:1091B000807F10D0B7F5007F24D0B7F5806F65D1E0
:1091C00037E0B7F5805F62D0B7F5005F60D0B7F5E4
:1091D000804FF4D1AFE03B48216AC8633A48216A26
:1091E00008643A48216AC864012101EB152321680B
:1091F00001F14C024146206AF9F7FDFA08B101205D
:10920000C3E7B0E03249606AC1633249606A016411
:109210002E49606AC164012101EB1523216801F127
:109220004C024146606AF9F7E6FA08B10120ACE762
:1092300099E02749A06AC1632649A06A01642349CD
:10924000A06AC164012101EB1523216801F14C02E0
:109250004146A06AF9F7CFFA08B1012095E782E00C
:109260001B49E06AC1631B49E06A01641749E06A6F
:10927000C164012101EB1523216801F14C02414633
:10928000E06AF9F7B8FA20B101207EE76AE024E04D
:109290003AE021E00040014000180040644A000824
:1092A000000001400004004000080040000C0040A5
:1092B000000401400044014000480140001C0040FF
:1092C000002000400F4C0008F94B0008E34B000859
:1092D000635600081B56000845E0F749206BC16340
:1092E000F649206B0164F649206BC164012101EB52
:1092F0001523216801F14C024146206BF9F77BFAF6
:1093000008B1012041E72EE0EE49606BC163EE49F0
:10931000606B0164EA49606BC164012101EB1523B4
:10932000216801F14C024146606BF9F764FA08B11B
:1093300001202AE717E0E549A06BC163E449A06B6F
:109340000164DF49A06BC164012101EB1523216891
:1093500001F14C024146A06BF9F74DFA08B101202A
:1093600013E700E000BF00BF46EA050021688864FB
:109370002068C06838432168C860012084F83D0037
:10938000002002E770B504460D46002625F4FE4095
:1093900008B905B104E040F67E71CE480DF0E5FC59
:1093A000B5F5006F23D009DCB5F5807F10D0B5F599
:1093B000007F12D0B5F5806F2DD113E0B5F5805F39
:1093C0001AD0B5F5005F1CD0B5F5804F23D11DE054
:1093D000206AF9F7BFFA06461EE0606AF9F7BAFAA2
:1093E000064619E0A06AF9F7B5FA064614E0E06A05
:1093F000F9F7B0FA06460FE0206BF9F7ABFA06462C
:109400000AE0606BF9F7A6FA064605E0A06BF9F7EB
:10941000A1FA064600E000BF00BF26B92068C06878
:10942000A8432168C860304670BD2DE9F04104466C
:109430000E4617469846069DA7492068884213D0D5
:109440002068B0F1804F0FD0A449206888420BD02B
:10945000A3492068884207D0A2492068884203D0E7
:10946000A1492068884200D104E040F6DE719948A5
:109470000DF07BFC0EB3012E1FD0022E1DD0032E4B
:109480001BD0042E19D0052E17D0062E15D0072E6E
:1094900013D0082E11D0092E0FD00A2E0DD00B2E6E
:1094A0000BD00C2E09D00D2E07D00E2E05D00F2E6E
:1094B00003D0102E01D0112E00D104E040F6DF7150
:1094C00084480DF052FC27F4FE4008B907B104E0CF
:1094D0004FF47E617F480DF048FC95B3B5F5807F71
:1094E0002FD0B5F5007F2CD0B5F5407F29D0B5F54C
:1094F000806F26D0B5F5A06F23D0B5F5C06F20D012
:10950000B5F5E06F1DD0B5F5006F1AD0B5F5106F49
:1095100017D0B5F5206F14D0B5F5306F11D0B5F573
:10952000406F0ED0B5F5506F0BD0B5F5606F08D019
:10953000B5F5706F05D0B5F5805F02D0B5F5885FE1
:1095400000D104E040F6E17162480DF00EFC94F8A1
:109550003D00022801D1BDE8F08194F83D000128CA
:1095600007D1B8F1000F01D105B1F4E7022084F86A
:109570003D00B7F5006F59D009DCB7F5807F10D0FA
:10958000B7F5007F24D0B7F5806F7CD137E0B7F511
:10959000805F62D0B7F5005F78D0B7F5804FF4D127
:1095A000ADE05248216AC8635148216A08644448C2
:1095B000216AC864012202EB1523226802F14C01E2
:1095C0004246206AF9F717F908B10120C3E7AEE077
:1095D0004849606AC1634849606A01643849606A01
:1095E000C164012202EB1523226802F14C014246BC
:1095F000606AF9F700F908B10120ACE797E03D494E
:10960000A06AC1633C49A06A01642D49A06AC16493
:10961000012202EB1523226802F14C014246A06AA6
:10962000F9F7E9F808B1012095E780E03149E06AEF
:10963000C1633149E06A01642149E06AC1640122E1
:1096400002EB1523226802F14C014246E06AF9F769
:10965000D2F808B101207EE769E02649206BC1639A
:109660002549206B01641649206BC164012202EB7D
:109670001523226802F14C014246206BF9F7BBF832
:1096800018B1012067E751E000E050E00D49606B40
:10969000C1630D49606B01640949606BC1640122BB
:1096A00002EB1523226802F14C014246606BF9F788
:1096B000A2F818B301204EE7635600081B560008B5
:1096C000E34B00087FBF000869BF00084B9000080B
:1096D00037900008644A0008000001400004004080
:1096E00000080040000C0040000401400F4C00083E
:1096F000F94B0008836E00083B6E000817E0FA493A
:10970000A06BC163F949A06B0164F949A06BC16406
:10971000012202EB1523226802F14C014246A06BA4
:10972000F9F769F808B1012015E700E000BF00BFB4
:1097300046EA0500216888642068C06838432168CB
:10974000C860012084F83D00002004E770B504469D
:109750000D46002625F4FE4008B905B104E041F2AB
:109760008201E4480DF001FBB5F5006F23D009DC60
:10977000B5F5807F10D0B5F5007F12D0B5F5806FBC
:109780002DD113E0B5F5805F1AD0B5F5005F1CD080
:10979000B5F5804F23D11DE0206AF9F7DBF80646C6
:1097A0001EE0606AF9F7D6F8064619E0A06AF9F7F4
:1097B000D1F8064614E0E06AF9F7CCF806460FE067
:1097C000206BF9F7C7F806460AE0606BF9F7C2F8B4
:1097D000064605E0A06BF9F7BDF8064600E000BFBD
:1097E00000BF26B92068C068A8432168C860304619
:1097F00070BD70B504460D46BF492068884233D01D
:109800002068B0F1804F2FD0BC49206888422BD00F
:10981000BB492068884227D0BA492068884223D0B3
:10982000B949206888421FD0B849206888421BD0B7
:10983000B7492068884217D0B6492068884213D0BB
:10984000B549206888420FD0B449206888420BD0BF
:10985000B3492068884207D0B2492068884203D0C3
:10986000B1492068884200D104E041F2CF01A1480B
:109870000DF07BFA25F0FF0008B905B104E041F2D4
:10988000D0019C480DF071FA00BF94F83C0001280B
:1098900001D1022070BD012084F83C0000BF0220ED
:1098A00084F83D0020684561012084F83D0000BF38
:1098B000002084F83C0000BF00BFEBE730B50C4649
:1098C000816821F47F4142EA0325254329438160D1
:1098D00030BD2DE9F04104460D4616468649206804
:1098E000884213D02068B0F1804F0FD083492068A0
:1098F00088420BD082492068884207D0814920687D
:10990000884203D082492068884200D104E041F2B5
:10991000F60178480DF029FA686810B168680128E6
:1099200000D104E041F2F70172480DF01EFA00BFC9
:1099300094F83C00012802D10220BDE8F08101200A
:1099400084F83C0000BF022084F83D00686810B134
:10995000012843D106E02068806820F47F40216818
:1099600088603CE0A868B0F5004F01D0A86800B955
:1099700004E041F20A115F480DF0F7F9E86858B1C8
:10998000E868B0F5805F07D0E868B0F5005F03D005
:10999000E868B0F5405F00D104E041F20B11554892
:1099A0000DF0E3F928690F2800D804E041F20C110A
:1099B00050480DF0DAF9E86848B1012084F83D001C
:1099C00000BF002084F83C0000BF0120B5E7D5E9C6
:1099D0000313AA682068FFF771FF00E000BF00BF13
:1099E00036B1042E14D0082E22D00C2E40D12FE0F8
:1099F000286830B12068806940F080002168886163
:109A000005E02068806920F080002168886130E0EE
:109A1000286830B12068806940F40040216888617E
:109A200005E02068806920F400402168886120E01A
:109A3000286830B12068C06940F080002168C861A2
:109A400005E02068C06920F080002168C86110E04E
:109A5000286830B12068C06940F400402168C861BE
:109A600005E02068C06920F400402168C86100E07A
:109A700000BF00BF012084F83D0000BF002084F833
:109A80003C0000BF00BF58E70A46816821F0700122
:109A900042F0070319438160704730B50B46144606
:109AA000026A056A25F001050562816921F0F0016D
:109AB00041EA041122F00A021A438161026230BDB8
:109AC00030B50B461446056A25F01005056281691C
:109AD000026A21F4704141EA043122F0A00242EA14
:109AE00003128161026230BD4B900008379000087C
:109AF000E34B0008644A00080000014000040040F5
:109B000000080040000C004000100040001400401D
:109B10000004014000400140004401400048014071
:109B200000180040001C0040002000402DE9F041DA
:109B300004460D4600BF94F83C00012802D10220E3
:109B4000BDE8F081012084F83C0000BF022084F8C9
:109B50003D002868B0F5805F1AD02868B0F5005F36
:109B600016D02868A0B12868102811D028682028AD
:109B70000ED0286830280BD02868402808D02868E4
:109B8000502805D02868602802D02868702800D1A5
:109B900004E041F27711FD480DF0E7F8206886688F
:109BA00026F0770626F47F462068866028685028CD
:109BB00078D00CDC202876D004DC002874D0102863
:109BC00073D118E2302871D04028F9D1A9E160287A
:109BD0006DD0702845D0B0F5805F03D0B0F5005F40
:109BE000EED1A8E0EA492068884233D02068B0F17D
:109BF000804F2FD0E749206888422BD0E649206863
:109C0000884227D0E5492068884223D0E44920686B
:109C100088421FD0E349206888421BD0E24920686F
:109C2000884217D0E1492068884213D0E049206873
:109C300088420FD0DF49206888420BD0DE49206877
:109C4000884207D0DD492068884203D0DC4920687B
:109C5000884200D104E041F28311CC480DF085F830
:109C6000F7E1CB49206888421BD02068B0F1804FD3
:109C700017D0C8492068884213D0C7492068884255
:109C80000FD0C649206888420BD0C7492068884257
:109C900007D0C6492068884203D0C7492068884257
:109CA00006D10AE0A3E0A7E1A4E1D1E1A5E1EBE060
:109CB00041F28A11B5480DF058F8A86858B1A86863
:109CC000B0F5805F07D0A868B0F5005F03D0A86842
:109CD000B0F5405F00D104E041F28D11AB480DF0CA
:109CE00044F86868B0F5004F09D0686838B1686812
:109CF00028B16868022802D068680A2800D104E008
:109D000041F28E11A1480DF030F8E8680F2800D814
:109D100004E041F28F119D480DF027F8D5E90213B8
:109D20006A682068FFF7CAFD2068866846F07706F3
:109D3000206886608DE196492068884213D02068AB
:109D4000B0F1804F0FD09349206888420BD09249E0
:109D50002068884207D091492068884203D0924900
:109D60002068884200D104E041F2A21187480CF03B
:109D7000FCFFA86858B1A868B0F5805F07D0A86854
:109D8000B0F5005F03D0A868B0F5405F00D104E0F3
:109D900041F2A5117D480CF0E8FF6868B0F5004F6E
:109DA00009D0686838B1686828B16868022802D0AC
:109DB00068680A2800D104E041F2A61173480CF04B
:109DC000D4FFE8680F2800D804E041F2A7116F48DB
:109DD0000CF0CBFFD5E902136A682068FFF76EFD2F
:109DE0002068806840F480402168886031E16849DB
:109DF000206888421BD02068B0F1804F17D0654999
:109E00002068884213D06449206888420FD0634993
:109E1000206888420BD064492068884207D0634993
:109E20002068884203D064492068884200D104E059
:109E300041F2B61155480CF098FF6868B0F5004F34
:109E400009D0686838B1686828B16868022802D00B
:109E500068680A2800D104E041F2B9114B480CF0BF
:109E600084FFE8680F2800D804E041F2BA1147489F
:109E70000CF07BFFEA6869682068FFF70EFE50214E
:109E80002068FFF701FEE4E04149206888421BD0CA
:109E90002068B0F1804F17D03E492068884213D027
:109EA0003D49206888420FD03C49206888420BD049
:109EB0003D492068884207D03C492068884203D049
:109EC0003D492068884200D104E041F2C6112F4884
:109ED0000CF04BFF6868B0F5004F09D0686838B1E6
:109EE000686828B16868022802D068680A2800D12A
:109EF00004E041F2C91125480CF037FFE8680F284B
:109F000000D804E041F2CA1120480CF02EFFEA68A4
:109F100069682068FFF7D4FD60212068FFF7B4FD71
:109F200097E01B49206888421BD02068B0F1804F21
:109F300017D018492068884213D0174920688842F2
:109F40000FD01649206888420BD0174920688842F4
:109F500007D016492068884203D0174920688842F4
:109F600000D104E041F2D61108480CF0FEFE68680A
:109F7000B0F5004F09D0686838B1686828B16868E2
:109F8000022802D068680A281CD120E0644A000830
:109F9000000001400004004000080040000C0040A8
:109FA0000010004000140040000401400040014047
:109FB000004401400048014000180040001C0040DF
:109FC0000020004041F2D911F7480CF0CEFEE868BD
:109FD0000F2800D804E041F2DA11F3480CF0C5FE76
:109FE000EA6869682068FFF758FD40212068FFF79C
:109FF0004BFD2EE000BF00BF00BFEC492068884247
:10A000001BD02068B0F1804F17D0E9492068884202
:10A0100013D0E849206888420FD0E7492068884279
:10A020000BD0E6492068884207D0E549206888427D
:10A0300003D0E4492068884200D104E041F2E911EC
:10A04000D9480CF092FE29682068FFF71DFD00E05A
:10A0500000BF00BF012084F83D0000BF002084F84D
:10A060003C0000BF00BF6BE570B504460D46CF490C
:10A070002068884213D02068B0F1804F0FD0CC49BF
:10A08000206888420BD0CB492068884207D0CA4953
:10A090002068884203D0C9492068884200D104E082
:10A0A00041F20A21C0480CF060FE0DB1802D00D1B4
:10A0B00004E041F20B21BC480CF057FE20684668D2
:10A0C00026F080062E4320684660002070BD2DE9F2
:10A0D000F04104460D462068866826F070066868E0
:10A0E000064326F0070628680643206886606868ED
:10A0F00000F00F0100297DD1001108287AD2DFE895
:10A1000000F0F4F3F2F162BFF004A849206888423D
:10A110001BD02068B0F1804F17D0A5492068884235
:10A1200013D0A449206888420FD0A34920688842F0
:10A130000BD0A2492068884207D0A14920688842F4
:10A1400003D0A0492068884200D104E041F608010C
:10A1500095480CF00AFEE86858B1E868B0F5805FF1
:10A1600007D0E868B0F5005F03D0E868B0F5405F5D
:10A1700000D104E041F609018B480CF0F6FDA86817
:10A18000B0F5004F09D0A86838B1A86828B1A86810
:10A19000022802D0A8680A2800D104E041F60A018A
:10A1A00081480CF0E2FD28690F2800D804E041F650
:10A1B0000B017D480CF0D9FDD5E90313AA6820688E
:10A1C000FFF77CFB47E17949206888422DD0206861
:10A1D000B0F1804F29D076492068884225D0754952
:10A1E0002068884221D07449206888421DD0734974
:10A1F000206800E02EE1884217D07149206888422B
:10A2000013D07149206888420FD070492068884275
:10A210000BD06C492068884207D06D49206888427D
:10A2200003D06C492068884200D104E041F6170150
:10A230005D480CF09AFD28690F2800D804E041F62B
:10A24000180159480CF091FD2868052802D1012019
:10A25000BDE8F0812068D0F820802068006A20F0F6
:10A260000100216808622068876927F0F0072869E3
:10A2700047EA0017206887612068C0F82080EAE07C
:10A280004A49206888422BD02068B0F1804F27D0FF
:10A2900047492068884223D04649206888421FD019
:10A2A0004549206888421BD044492068884217D01D
:10A2B00043492068884213D04349206888420FD020
:10A2C0004249206888420BD03E492068884207D026
:10A2D0003F492068884203D03E492068884205D122
:10A2E00009E02BE08FE08DE08BE089E041F6310161
:10A2F0002D480CF03AFDA868B0F5004F09D0A868C9
:10A3000038B1A86828B1A868022802D0A8680A282D
:10A3100000D104E041F6320123480CF026FD286903
:10A320000F2800D804E041F633011F480CF01DFD52
:10A330002A69A9682068FFF7B0FB8CE01B492068F8
:10A3400088421BD02068B0F1804F17D01849206890
:10A35000884213D01749206888420FD016492068D8
:10A3600088420BD015492068884207D014492068DC
:10A37000884203D013492068884200D104E041F6A6
:10A380003F0109480CF0F1FCA868B0F5004F09D076
:10A39000A86838B1A86828B1A868022802D0A868BF
:10A3A0000A2819D11DE00000644A0008000001409D
:10A3B0000004004000080040000C00400004014080
:10A3C00000400140001800400044014000480140A6
:10A3D000001C0040002000404FF4C251FE480CF029
:10A3E000C4FC28690F2800D804E041F64101FA486E
:10A3F0000CF0BBFC2A69A9682068FFF761FB2AE022
:10A4000000BF00BF00BFF549206888421BD020680C
:10A41000B0F1804F17D0F2492068884213D0F1493B
:10A42000206888420FD0F049206888420BD0EF495D
:10A430002068884207D0EE492068884203D0ED4961
:10A440002068884200D104E041F65001E2480CF057
:10A450008CFC00E000BF00BF0020F9E670B50446A8
:10A460000D46DE49206888421BD02068B0F1804F3D
:10A4700017D0DB492068884213D0DA492068884227
:10A480000FD0D949206888420BD0D849206888422B
:10A4900007D0D7492068884203D0D649206888422F
:10A4A00000D104E041F22821CB480CF05EFC286882
:10A4B00058B12868042808D02868052805D02868DD
:10A4C000062802D02868072800D104E041F229219B
:10A4D000C1480CF04AFC6868A0B16868102811D027
:10A4E000686820280ED0686830280BD0686840283B
:10A4F00008D06868502805D06868602802D068686D
:10A50000702800D104E041F22A21B3480CF02DFC60
:10A5100000BF94F83C00012801D1022070BD012049
:10A5200084F83C0000BF022084F83D002946204604
:10A53000FFF7CDFD48B1012084F83D0000BF0020A9
:10A5400084F83C0000BF0120E8E72068C06820F0E4
:10A5500040002168C8602068C06820F480402168FD
:10A56000C860012084F83D0000BF002084F83C0052
:10A5700000BF00BFD2E770B504460D46974920687A
:10A5800088421BD02068B0F1804F17D094492068D2
:10A59000884213D09349206888420FD0924920689E
:10A5A00088420BD091492068884207D090492068A2
:10A5B000884203D08F492068884200D104E041F2EC
:10A5C000512185480CF0D1FB286858B1286804282F
:10A5D00008D02868052805D02868062802D02868F1
:10A5E000072800D104E041F252217B480CF0BDFB6A
:10A5F0006868A0B16868102811D0686820280ED05B
:10A60000686830280BD06868402808D068685028EF
:10A6100005D06868602802D06868702800D104E01E
:10A6200041F253216C480CF0A0FB00BF94F83C00B1
:10A63000012801D1022070BD012084F83C0000BF38
:10A64000022084F83D0029462046FFF740FD48B12E
:10A65000012084F83D0000BF002084F83C0000BFCA
:10A660000120E8E72068C06840F040002168C86029
:10A670002068C06820F480402168C860012084F808
:10A680003D0000BF002084F83C0000BF00BFD2E7BF
:10A6900070B504460D46002635B1042D3DD0082D79
:10A6A00064D00C2D7BD183E04C49206888422BD0AC
:10A6B0002068B0F1804F27D049492068884223D0D4
:10A6C0004849206888421FD04749206888421BD0EB
:10A6D00046492068884217D045492068884213D0EF
:10A6E0004549206888420FD04449206888420BD0F1
:10A6F00040492068884207D041492068884203D0F9
:10A7000040492068884200D104E041F2812132486A
:10A710000CF02BFB2068466B85E0304920688842AE
:10A720001BD02068B0F1804F17D02D492068884297
:10A7300013D02C49206888420FD02B4920688842CA
:10A740000BD02A492068884207D0294920688842CE
:10A7500003D028492068884200D104E041F28B21CF
:10A760001D480CF002FB2068866B5CE01B492068EA
:10A77000884213D02068B0F1804F0FD0184920686C
:10A7800088420BD017492068884207D016492068B4
:10A79000884203D015492068884201D105E041E094
:10A7A00041F296210C480CF0E0FA2068C66B3AE0C2
:10A7B0000A49206888422CD02068B0F1804F28D008
:10A7C00007492068884224D006492068884220D062
:10A7D00005492068884217E0644A000800000140EB
:10A7E0000004004000080040000C0040000401404C
:10A7F0000040014000180040004401400048014072
:10A80000001C00400020004003D01449206888420A
:10A8100000D104E041F2A12111480CF0A6FA206811
:10A82000066C00E000BF00BF304670BD014691F8E5
:10A830003D007047014691F83D007047014691F890
:10A840003D007047014691F83D007047014691F880
:10A850003D007047014691F83D00704700040140FB
:10A86000644A000800B52DED048B81B094A010F06F
:10A8700081F8974890ED000ADFED960A20EE200A55
:10A88000BDEEC00A8DED000A694601200FF0C5FE3D
:10A89000694601200FF0D6FE009812F0A0FF41ECAF
:10A8A000190B9FED8D0B53EC102B12F029FF41EC8F
:10A8B000180B12F0FDFF864908600846006812F088
:10A8C000E4FF41EC180B53EC182B85A010F052F864
:10A8D0008D4900200FF0B6FE8B48026801688BA0FE
:10A8E00010F048F801B0BDEC048B00BD00B587B096
:10A8F0008EA010F03FF84FF4FA70069000209249B5
:10A9000006AA0623CDE90132CDE903100220002377
:10A9100041F21702102100908C48006809F0DDFA1E
:10A9200007B000BD7FB506460C4603AA21468748FE
:10A93000006809F0A1FD054602222146834800680F
:10A9400006F070F8012D23D081480078401C804922
:10A95000087021467FA0039A10F00CF87C4800781C
:10A96000032802DAFFF7C2FF2CE087A010F002F8FC
:10A9700000207749087000900190029011208DF816
:10A98000000001940020029068460EF043F819E0A0
:10A9900088A00FF0EFFF00206D49087001222146CA
:10A9A0006A48006805F000F90020009001900290CC
:10A9B00011208DF8000001940120029068460EF0ED
:10A9C00029F800BF7FBD10B5834890ED000A834889
:10A9D00080ED000A04220146814812F014FC10BDEB
:10A9E00010B504467F4890ED000AF2EE040A20EE0E
:10A9F000200ABDEEC00A10EE100A28B9B7EE000A10
:10AA0000794880ED000A18E000EE104AB8EE400ADE
:10AA1000F7EE000A20EE200A6F48D0ED000A6F48DA
:10AA200090ED001A70EEC10AB2EE041A60EE810ACF
:10AA300080EE201A6C4880ED001A6B4890ED000AF9
:10AA4000B5EEC00AF1EE10FA04DD042201466748B3
:10AA500012F0D9FB10BD10B503F069FA3221B0FB3A
:10AA6000F1F201FB120048BB6148B0F9000000019F
:10AA700025490968A0EB01145A4890ED000AF2EE4E
:10AA8000040A20EE200A5B4880ED000A90ED000ADF
:10AA9000B5EEC00AF1EE10FA0FDD03F048FAC82156
:10AAA000B0FBF1F201FB120038B9524890ED000AF8
:10AAB000BCEEC00A504880ED000A00BF10BD000087
:10AAC000506F776572506172616D496E69740A00EA
:10AAD00010000020002474490000000080842E41F2
:10AAE000496E697420735F6656616C7565546F5268
:10AAF0006F7065506F776572466163746F72203D49
:10AB00002025660A0000000014000020496E6974C8
:10AB100020735F53656E314261736556616C203DF1
:10AB20002025642C3078253034580A00506F776522
:10AB300072536C617665436F6E66696720737461EA
:10AB400072740D0A0000000025A9000840140020BE
:10AB50001800002077726974652053444F206661A5
:10AB6000696C65642120204E6F64654964203D2036
:10AB700025642C2041626F7274436F6465203D2010
:10AB80003078253038580A0053444F20636F6E6682
:10AB900069672074727920636F756E74203E20336C
:10ABA0002C20636F6E666967206661696C6564213D
:10ABB0000A000000506F77657220636F6E666967E8
:10ABC000207375632C7475726E20746F20737461BA
:10ABD0007274210A000000001815002020150020C2
:10ABE0000000060824150020281500200000040895
:10ABF0007C0900201C000020AC000020704730B50C
:10AC000087B004460D4614B9012007B030BDF8499D
:10AC10002068884213D02068B0F1804F0FD0F549EA
:10AC2000206888420BD0F4492068884207D0F34955
:10AC30002068884203D0F2492068884200D103E0AE
:10AC40008D21F0A00CF091F8A06858B1A0681028F0
:10AC500008D0A068202805D0A068402802D0A068AD
:10AC6000602800D103E08E21E6A00CF07EF8206978
:10AC700038B12069B0F5807F03D02069B0F5007F3E
:10AC800000D103E08F21DFA00CF06FF8A06910B1B4
:10AC9000A069802800D103E09021DAA00CF065F8CB
:10ACA000286828B12868022802D028680A2800D11C
:10ACB00003E09121D3A00CF058F8686840B16868AF
:10ACC000042805D06868082802D068680C2800D1DC
:10ACD00003E09221CBA00CF048F8A8680F2800D818
:10ACE00003E09321C7A00CF040F894F83D0028B988
:10ACF000002084F83C002046FFF780FF022084F803
:10AD00003D00211D2068F9F793FCAB6829680322F8
:10AD10002068FDF73BFD2068806920F00C00216869
:10AD200088612068806969680843216888612068B3
:10AD3000406840F08000216848602068806820F00A
:10AD40007000216888602068806840F040002168B9
:10AD500088602068806820F007002168886020688B
:10AD6000806840F00400216888600020049005900D
:10AD7000702000900020069003900290E8680190F7
:10AD800069462068FDF7CEFA2068406820F0700020
:10AD9000216848602068406840F0500021684860A1
:10ADA000012084F83D0000202FE7704710B50446CD
:10ADB0008F492068884233D02068B0F1804F2FD06F
:10ADC0008C49206888422BD08B492068884227D044
:10ADD0008A492068884223D09A49206888421FD037
:10ADE0009949206888421BD085492068884217D03D
:10ADF00096492068884213D09549206888420FD030
:10AE00009449206888420BD093492068884207D033
:10AE100092492068884203D091492068884200D135
:10AE200003E0E12177A00BF0A0FF022084F83D00B1
:10AE300000BF2068006A41F21111084050B9206833
:10AE4000006A8910084028B92068006820F00100D5
:10AE50002168086000BF2046FFF7A7FF002084F8A4
:10AE60003D0000BF84F83C0000BF10BD70B5044633
:10AE70005F492068884213D02068B0F1804F0FD01E
:10AE80005C49206888420BD05B492068884207D023
:10AE90005A492068884203D059492068884200D125
:10AEA00004E040F2251157A00BF05FFF01220021C2
:10AEB0002068FAF772F82068806800F00705062D10
:10AEC00005D02068006840F001002168086000207B
:10AED00070BD10B5044646492068884213D02068EA
:10AEE000B0F1804F0FD04349206888420BD04249CF
:10AEF0002068884207D041492068884203D04049F1
:10AF00002068884200D104E04FF49F713DA00BF00F
:10AF10002CFF002211462068FAF73FF800BF206896
:10AF2000006A41F21111084050B92068006A891086
:10AF3000084028B92068006820F0010021680860F6
:10AF400000BF002010BD70B5044629492068884222
:10AF500013D02068B0F1804F0FD026492068884276
:10AF60000BD025492068884207D0244920688842B0
:10AF700003D023492068884200D104E040F25511F3
:10AF800020A00BF0F2FE2068C06840F002002168AB
:10AF9000C860012200212068F9F7FFFF206880685F
:10AFA00000F00705062D05D02068006840F001007C
:10AFB00021680860002070BD10B504460C49206867
:10AFC000884213D02068B0F1804F0FD00949206823
:10AFD00088420BD008492068884207D0074920687A
:10AFE000884203D00649206888423BD140E00000F7
:10AFF000000001400004004000080040000C004038
:10B00000000401402E2E5C4C6962726172696573A6
:10B010005C53544D3332463478785F48414C5F443A
:10B0200072697665725C5372635C73746D333266F9
:10B030003478785F68616C5F74696D5F65782E63E2
:10B0400000000000001000400014004000400140DB
:10B05000004401400048014000180040001C00402E
:10B060000020004040F27111AFF268000BF07DFE4D
:10B07000002211462068F9F790FF2068C06820F090
:10B0800002002168C86000BF2068006A41F2111107
:10B09000084050B92068006A8910084028B9206823
:10B0A000006820F001002168086000BF002010BD8A
:10B0B0002DE9F04104460D461646FC4920688842B9
:10B0C00013D02068B0F1804F0FD0F9492068884232
:10B0D0000BD0F8492068884207D0F7492068884299
:10B0E00003D0F6492068884200D105E040F28D1176
:10B0F000AFF2F0000BF039FE94F83D00022801D1C8
:10B10000BDE8F08194F83D00012805D10DB906B1E4
:10B11000F6E7022084F83D00012200212068F9F7BB
:10B120003CFFE749606AC163E649606A0164E64939
:10B13000606AC164226802F1340133462A46606ABB
:10B14000F7F759FB08B10120DAE72068C06840F43E
:10B1500000702168C8602068806800F00707062F2B
:10B1600005D02068006840F00100216808600020D8
:10B17000C6E710B50446CD492068884213D0206840
:10B18000B0F1804F0FD0CA49206888420BD0C9491E
:10B190002068884207D0C8492068884203D0C74940
:10B1A0002068884200D105E040F2C711AFF2AC1030
:10B1B0000BF0DBFD002211462068F9F7EEFE206857
:10B1C000C06820F400702168C860606AF7F7C2FBAD
:10B1D00000BF2068006A41F21111084050B9206890
:10B1E000006A8910084028B92068006820F0010032
:10B1F0002168086000BF002010BD30B501F01F05B8
:10B20000042404FA05F3046A9C430462046A01F00E
:10B210001F0502FA05F52C43046230BD70B50446E3
:10B220000D46A2492068884204D165B1042D0AD098
:10B23000082D08D0A1492068884205D11DB1042DF0
:10B2400001D0082D00D105E040F20121AFF24C20E1
:10B250000BF08BFD042229462068FFF7CEFF206803
:10B26000406C40F40040216848642068806800F029
:10B270000706062E05D02068006840F0010021680E
:10B280000860002070BD70B504460D4687492068EF
:10B29000884204D165B1042D0AD0082D08D0874911
:10B2A0002068884205D11DB1042D01D0082D00D1A0
:10B2B00005E040F22221AFF2B4200BF056FD00224F
:10B2C00029462068FFF799FF00BF2068006A41F215
:10B2D0001111084050B92068006A8910084028B947
:10B2E0002068406C20F400402168486400BF00BF23
:10B2F0002068006A41F21111084050B92068006AC4
:10B300008910084028B92068006820F001002168F1
:10B31000086000BF002070BD70B504460D4663494B
:10B320002068884204D165B1042D0AD0082D08D0C8
:10B3300062492068884205D11DB1042D01D0082D35
:10B3400000D105E040F24121AFF248300BF00DFD95
:10B3500025B1042D09D0082D15D10DE02068C06855
:10B3600040F002002168C8600EE02068C06840F02C
:10B3700004002168C86007E02068C06840F0080049
:10B380002168C86000E000BF00BF2068C06840F0CE
:10B3900080002168C860042229462068FFF72DFF3D
:10B3A0002068406C40F40040216848642068806850
:10B3B00000F00706062E05D02068006840F0010066
:10B3C00021680860002070BD70B504460D463749FD
:10B3D0002068884204D165B1042D0AD0082D08D018
:10B3E00036492068884205D11DB1042D01D0082DB1
:10B3F00000D105E040F28221AFF2F8300BF0B5FC4D
:10B4000025B1042D09D0082D15D10DE02068C068A4
:10B4100020F002002168C8600EE02068C06820F0BB
:10B4200004002168C86007E02068C06820F00800B8
:10B430002168C86000E000BF00BF002229462068E4
:10B44000FFF7DBFE2068066A40F24440304028B92E
:10B450002068C06820F080002168C86000BF2068B4
:10B46000006A41F21111084050B92068006A891041
:10B47000084028B92068406C20F4004021684864E6
:10B4800000BF00BF2068006A41F21111084050B9A6
:10B490002068006A8910084028B92068006820F0F8
:10B4A00001002168086000BF002070BD000001405D
:10B4B0000004004000080040000C0040000401406F
:10B4C000836E00083B6E0008E34B00082DE9F04155
:10B4D00004460D4616461F46FC492068884204D1A2
:10B4E00065B1042D0AD0082D08D0F949206888429A
:10B4F00005D11DB1042D01D0082D00D105E040F289
:10B50000C521AFF200500BF030FC94F83D0002284A
:10B5100001D1BDE8F08194F83D00012805D10EB9B4
:10B5200007B1F6E7022084F83D0025B1042D1DD0B7
:10B53000082D51D135E0E749606AC163E649606A88
:10B540000164E649606AC164216801F134023B4646
:10B550003146606AF7F74FF908B10120D9E7206852
:10B56000C06840F400702168C86036E0D949A06A1C
:10B57000C163D949A06A0164D849A06AC16421683D
:10B5800001F138023B463146A06AF7F734F908B1B9
:10B590000120BEE72068C06840F480602168C86070
:10B5A0001BE0CC49E06AC163CB49E06A0164CB4946
:10B5B000E06AC164216801F13C023B463146E06A21
:10B5C000F7F719F908B10120A3E72068C06840F433
:10B5D00000602168C86000E000BF00BF0422294667
:10B5E0002068FFF70AFE2068406C40F400402168A4
:10B5F00048642068806800F00708B8F1060F05D09D
:10B600002068006840F0010021680860002080E7A1
:10B6100070B504460D46AD492068884204D165B135
:10B62000042D0AD0082D08D0A9492068884205D1E8
:10B630001DB1042D01D0082D00D105E040F23931B3
:10B64000AFF240600BF091FB25B1042D0CD0082D1A
:10B650001ED113E02068C06820F400702168C86023
:10B66000606AF7F777F914E02068C06820F480601A
:10B670002168C860A06AF7F76DF90AE02068C06821
:10B6800020F400602168C860E06AF7F763F900E021
:10B6900000BF00BF002229462068FFF7AEFD00BFB3
:10B6A0002068006A41F21111084050B92068006A10
:10B6B0008910084028B92068406C20F400402168B7
:10B6C000486400BF00BF2068006A41F211110840C1
:10B6D00050B92068006A8910084028B920680068BD
:10B6E00020F001002168086000BF012084F83D00BF
:10B6F000002070BD70B504460D467449206888422C
:10B7000004D165B1042D0AD0082D08D070492068F5
:10B71000884205D11DB1042D01D0082D00D105E0CE
:10B7200040F29A31AFF224700BF01FFB042229463D
:10B730002068FFF762FD2068406C40F400402168FB
:10B7400048642068806800F00706062E05D020684F
:10B75000006840F0010021680860002070BD70B5ED
:10B7600004460D4659492068884204D165B1042D2C
:10B770000AD0082D08D056492068884205D11DB14D
:10B78000042D01D0082D00D105E040F2BA31AFF20E
:10B790008C700BF0EAFA002229462068FFF72DFD95
:10B7A00000BF2068006A41F21111084050B92068BA
:10B7B000006A8910084028B92068406C20F40040D5
:10B7C0002168486400BF00BF2068006A41F211117F
:10B7D000084050B92068006A8910084028B92068DC
:10B7E000006820F001002168086000BF002070BDE3
:10B7F00070B504460D4635492068884204D165B1CC
:10B80000042D0AD0082D08D031492068884205D17E
:10B810001DB1042D01D0082D00D105E040F2D93131
:10B82000AFF620000BF0A1FA25B1042D09D0082DA8
:10B8300015D10DE02068C06840F002002168C860A2
:10B840000EE02068C06840F004002168C86007E08E
:10B850002068C06840F008002168C86000E000BFB0
:10B8600000BF2068C06840F080002168C8600422E2
:10B8700029462068FFF7C1FC2068406C40F4004076
:10B88000216848642068806800F00706062E05D00D
:10B890002068006840F0010021680860002070BD49
:10B8A00070B504460D4609492068884204D165B147
:10B8B000042D0AD0082D08D00549206888420FD1F0
:10B8C0001DB1042D01D0082D0AD10FE00000014068
:10B8D00000040140635600081B560008E34B0008B3
:10B8E00040F21A41AFF6E4000BF03FFA25B1042D07
:10B8F00009D0082D15D10DE02068C06820F00200A5
:10B900002168C8600EE02068C06820F0040021684B
:10B91000C86007E02068C06820F008002168C8609F
:10B9200000E000BF00BF002229462068FFF765FC49
:10B930002068066A40F24440304028B92068C06858
:10B9400020F080002168C86000BF2068006A41F2D2
:10B950001111084050B92068006A8910084028B9C0
:10B960002068406C20F400402168486400BF00BF9C
:10B970002068006A41F21111084050B92068006A3D
:10B980008910084028B92068006820F0010021686B
:10B99000086000BF002070BD2DE9F04104460D464F
:10B9A00016461F46FE492068884204D165B1042D21
:10B9B0000AD0082D08D0FB492068884205D11DB166
:10B9C000042D01D0082D00D105E040F25D41AFF615
:10B9D000CC100BF0CAF994F83D00022801D1BDE863
:10B9E000F08194F83D00012805D10EB907B1F6E7C2
:10B9F000022084F83D0025B1042D1DD0082D51D121
:10BA000035E0E949606AC163E849606A0164E84970
:10BA1000606AC164216801F134023B463146606AC4
:10BA2000F6F7E9FE08B10120D9E72068C06840F4C4
:10BA300000702168C86036E0DB49A06AC163DB4959
:10BA4000A06A0164DA49A06AC164216801F1380280
:10BA50003B463146A06AF6F7CEFE08B10120BEE7AC
:10BA60002068C06840F480602168C8601BE0CE494F
:10BA7000E06AC163CD49E06A0164CD49E06AC1640E
:10BA8000216801F13C023B463146E06AF6F7B3FE1D
:10BA900008B10120A3E72068C06840F40060216875
:10BAA000C86000E000BF00BF042229462068FFF7FD
:10BAB000A4FB2068406C40F4004021684864206882
:10BAC000806800F00708B8F1060F05D0206800680C
:10BAD00040F0010021680860002080E770B504464E
:10BAE0000D46AF492068884204D165B1042D0AD0C3
:10BAF000082D08D0AB492068884205D11DB1042D1E
:10BB000001D0082D00D105E04FF49A61AFF60C305A
:10BB10000BF02BF925B1042D0CD0082D1ED113E00C
:10BB20002068C06820F400702168C860606AF6F779
:10BB300011FF14E02068C06820F480602168C860AC
:10BB4000A06AF6F707FF0AE02068C06820F40060EA
:10BB50002168C860E06AF6F7FDFE00E000BF00BFA4
:10BB6000002229462068FFF748FB00BF2068006AD2
:10BB700041F21111084050B92068006A891008404C
:10BB800028B92068406C20F400402168486400BF58
:10BB900000BF2068006A41F21111084050B92068C6
:10BBA000006A8910084028B92068006820F0010068
:10BBB0002168086000BF012084F83D00002070BDAE
:10BBC00070B505460C4676492868884204D164B1B0
:10BBD000042C0AD0082C08D072492868884205D164
:10BBE0001CB1042C01D0082C00D105E040F22351F7
:10BBF000AFF6F0300BF0B9F8042221462868FFF7C1
:10BC0000FCFA2868406C40F4004029684864002031
:10BC100070BD70B504460D4661492068884204D164
:10BC200065B1042D0AD0082D08D05E4920688842ED
:10BC300005D11DB1042D01D0082D00D105E040F241
:10BC40003D51AFF640400BF090F8002229462068A5
:10BC5000FFF7D3FA00BF2068006A41F211110840D3
:10BC600050B92068006A8910084028B92068406CE3
:10BC700020F400402168486400BF00BF2068006ACB
:10BC800041F21111084050B92068006A891008403B
:10BC900028B92068006820F001002168086000BF12
:10BCA000002070BD70B504460D463D4920688842AD
:10BCB00004D165B1042D0AD0082D08D03949206877
:10BCC000884205D11DB1042D01D0082D00D105E019
:10BCD00040F25951AFF6D4400BF047F82068C068E5
:10BCE00040F002002168C8602068C06840F004008D
:10BCF0002168C860042229462068FFF77EFA206880
:10BD0000406C40F4004021684864002070BD70B56C
:10BD100004460D4622492068884204D165B1042DAD
:10BD20000AD0082D08D01F492068884205D11DB1CE
:10BD3000042D01D0082D00D105E04FF4AF61AFF61E
:10BD40003C500BF012F82068C06820F00200216817
:10BD5000C8602068C06820F004002168C860002224
:10BD600029462068FFF749FA00BF2068006A41F2BF
:10BD70001111084050B92068006A8910084028B99C
:10BD80002068406C20F400402168486400BF00BF78
:10BD90002068006A41F211110840A8B9206809E042
:10BDA0000000014000040140635600081B560008D3
:10BDB000E34B0008006A8910084028B92068006831
:10BDC00020F001002168086000BF002070BD70B540
:10BDD00004460D461646F7492068884203D0F649C6
:10BDE0002068884200D105E040F2BE51AFF6EC5029
:10BDF0000AF0BBFF4DB1102D07D0202D05D0302DFE
:10BE000003D04FF6FF70854200D105E040F2BF51EC
:10BE1000AFF610600AF0A9FF00BF94F83C000128BB
:10BE200001D1022070BD012084F83C0000BF2DB17B
:10BE3000102D03D0202D01D0302D0AD1206880682C
:10BE400020F070002168886020688068284321689D
:10BE500088602068406840F00100216848602068E0
:10BE6000406820F004002168486020684068304342
:10BE7000216848602068C06820F020002168C86000
:10BE80002068C06820F400502168C86000BF00200E
:10BE900084F83C0000BF00BFC4E770B504460D46FF
:10BEA0001646C4492068884203D0C34920688842A6
:10BEB00000D105E040F2F551AFF6B8600AF055FF49
:10BEC0004DB1102D07D0202D05D0302D03D04FF6C9
:10BED000FF70854200D105E040F2F651AFF6DC601C
:10BEE0000AF043FF00BF94F83C00012801D1022072
:10BEF00070BD012084F83C0000BF2DB1102D03D08F
:10BF0000202D01D0302D0AD12068806820F07000EB
:10BF100021688860206880682843216888602068DC
:10BF2000406840F00100216848602068406820F0C7
:10BF300004002168486020684068304321684860F8
:10BF40002068C06820F400502168C8602068C0687C
:10BF500040F020002168C86000BF002084F83C0049
:10BF600000BF00BFC4E7704770B50446A56B012051
:10BF700085F83D002846FFF7F6FF70BD704770B5A5
:10BF80000446A56B012085F83D002846FFF7F6FF23
:10BF900070BD70B504460D46164686492068884235
:10BFA00003D085492068884200D105E040F22D6128
:10BFB000AFF6B0700AF0D9FE4DB1102D07D0202D8C
:10BFC00005D0302D03D04FF6FF70854200D105E03B
:10BFD00040F22E61AFF6D4700AF0C7FE00BF94F8AD
:10BFE0003C00012801D1022070BD012084F83C00F2
:10BFF00000BF2DB1102D03D0202D01D0302D0AD13E
:10C000002068806820F0700021688860206880685F
:10C010002843216888602068406840F0010021685A
:10C0200048602068406820F004002168486020686B
:10C030004068304321684860AFF2BD01606BC16366
:10C04000AFF2DB01606B01645C49606BC164206826
:10C05000C06820F020002168C8602068C06840F4F3
:10C0600000502168C86000BF002084F83C0000BF79
:10C0700000BFB9E72DE9F04104460D464D4920685F
:10C0800088421BD02068B0F1804F17D04C492068FF
:10C09000884213D04B49206888420FD04A49206813
:10C0A00088420BD049492068884207D04849206817
:10C0B000884203D040492068884200D104E040F221
:10C0C000616144480AF051FE2868A0B12868102830
:10C0D00011D0286820280ED0286830280BD0286876
:10C0E000402808D02868502805D02868602802D049
:10C0F0002868702800D104E040F2626135480AF0F7
:10C1000034FE6868802801D0686800B904E040F215
:10C11000636130480AF029FE00BF94F83C00012812
:10C1200002D10220BDE8F081012084F83C0000BF6C
:10C13000022084F83D00206846682068876826F061
:10C1400070062868064327F0800768680743206860
:10C15000466020688760012084F83D0000BF002011
:10C1600084F83C0000BF00BFDCE770B506460C4613
:10C17000002510493068884203D00F493068884252
:10C1800000D104E04FF4D36112480AF0EEFD2068BC
:10C19000B0F5006F01D0206800B904E040F2996169
:10C1A0000C480AF0E2FD6068B0F5806F01D060686D
:10C1B00090B916E00000014000040140E34B000884
:10C1C0000004004000080040000C00400010004047
:10C1D0000014004004B0000840F29A615C480AF084
:10C1E000C4FDA06858B1A068B0F5807F07D0A068F2
:10C1F000B0F5007F03D0A068B0F5407F00D104E027
:10C2000040F29B6152480AF0B0FDE068FF2800D878
:10C2100004E040F29C614E480AF0A7FD2069B0F5A9
:10C22000805F01D0206900B904E040F29D61484878
:10C230000AF09BFD606918B16069B0F5005F00D13C
:10C2400004E040F29E6142480AF08FFDE069B0F5DB
:10C25000804F01D0E06900B904E040F29F613C48A2
:10C260000AF083FD00BF96F83C00012801D10220AE
:10C2700070BD012086F83C0000BF25F0FF00E1689A
:10C2800040EA010525F44070A16840EA010525F463
:10C290008060616840EA010525F40060216840EA99
:10C2A000010525F48050216940EA010525F400507C
:10C2B000616940EA010525F48040E16940EA010531
:10C2C0003068456400BF002086F83C0000BF00BF16
:10C2D000CEE770B505460C4600BF95F83C00012836
:10C2E00001D1022070BD012085F83C0000BF286804
:10C2F000B0F1804F06D1BCB1B4F5006F14D0B4F5E5
:10C30000406F11D013492868884206D164B1402C8F
:10C310000AD0802C08D0C02C06D00F49286888424B
:10C3200003D10CB1022C00D104E040F2E2610848D4
:10C330000AF01BFD2868046500BF002085F83C005A
:10C3400000BF00BFCEE77047014691F83D0070473F
:10C3500004B00008000C004000480140704710B5D0
:10C3600004460CB9012010BDF8492068884200D16C
:10C3700004E040F21511F6A00AF0F7FC207920B98C
:10C380000020607120460AF0CDFE022020710020BE
:10C390002061012020710020E5E7704710B50446B8
:10C3A0000CB9012010BDE9492068884200D104E0A1
:10C3B00040F25111E6A00AF0D8FC0220207120467C
:10C3C0000AF0E1FE00202061207100BF607100BF13
:10C3D00000BFE7E72DE9F04104460D46002600279F
:10C3E0000DB1102D00D104E04FF4D971D8A00AF09E
:10C3F000BCFC00BF6079012802D10220BDE8F081B9
:10C400000120607100BF02202071206800680121B6
:10C41000A94008432168086095B92068006800F0C9
:10C4200004062068006800F03807042E1CD1382F5D
:10C430001AD12068406840F001002168486013E08C
:10C440002068006800F480262068006800F4601707
:10C45000B6F5802F08D1B7F5601F05D12068406878
:10C4600040F00200216848600120207100BF0020D8
:10C47000607100BF00BFC1E770B504460D460DB145
:10C48000102D00D104E040F2EB11B1A00AF06DFCD8
:10C49000206800680121A9408843216808600120C4
:10C4A0002071002070BD704770B50546AC6B2069E7
:10C4B00040F0040020612046FFF7F5FF01202071C5
:10C4C00070BD704770B50446A56B2846FFF7F9FFAD
:10C4D00070BD704770B50446A56B2846FFF7F9FF9D
:10C4E0000120287170BD2DE9F04704460D4617461E
:10C4F0009846089E4FF000090DB1102D00D104E0C0
:10C5000040F20D2192A00AF030FC1EB1042E01D0A1
:10C51000082E00D104E040F20E218DA00AF025FC87
:10C5200000BF6079012802D10220BDE8F087012018
:10C53000607100BF0220207115BB9448A168C863D8
:10C540009348A16808649348A168C864206800689B
:10C5500040F480502168086026B1042E06D0082ED1
:10C560000CD107E0206800F1080908E0206800F11C
:10C570000C0904E0206800F1100900E000BF22E08F
:10C580008548E168C8638548E16808648448E168D3
:10C59000C8642068006840F080502168086026B1B7
:10C5A000042E06D0082E0CD107E0206800F11409F3
:10C5B00008E0206800F1180904E0206800F11C0977
:10C5C00000E000BF00BF65B92068006840F400507B
:10C5D0002168086043464A463946A068F6F70BF9D9
:10C5E0000BE02068006840F0005021680860434676
:10C5F0004A463946E068F6F7FEF8206800680121EF
:10C60000A94008432168086000BF0020607100BF96
:10C6100000BF8AE770B504460D4600260DB1102D07
:10C6200000D104E04FF4217149A00AF09EFB20687C
:10C6300000684FF48051A940884321680860206851
:10C6400001680120A84081432068016025B9A068E5
:10C65000F6F72BF9064603E0E068F6F726F90646FA
:10C6600016B10420207101E001202071304670BD18
:10C6700070B505460C460CB1102C00D104E04FF407
:10C680002D7133A00AF071FB14B92868C06A70BD1F
:10C690002868006BFBE7704710B504462068406BC4
:10C6A00000F40050B0F5005F12D104202071206921
:10C6B00040F0010020614FF4005021684863206879
:10C6C000006820F48050216808602046FFF7E3FFEF
:10C6D0002068406B00F00050B0F1005F12D10420E0
:10C6E0002071206940F0020020614FF00050216865
:10C6F00048632068006820F0805021680860204668
:10C7000000F005FA10BD2DE9F04105460C4616462D
:10C710000027B8462068B8B12068242814D02068C3
:10C720000C2811D0206814280ED020681C280BD0AB
:10C730002068042808D020682C2805D020683428D8
:10C7400002D020683C282DD132E000000074004067
:10C750002E2E5C4C69627261726965735C53544D34
:10C760003332463478785F48414C5F44726976656D
:10C77000725C5372635C73746D3332663478785FC5
:10C7800068616C5F6461632E63000000D5C40008BB
:10C79000C5C40008A9C4000811CB000823CB0008B9
:10C7A00031CB000840F25631AFF25C000AF0DDFAFE
:10C7B000606810B16068022800D105E040F257318E
:10C7C000AFF274000AF0D1FA0EB1102E00D105E0DC
:10C7D0004FF45671AFF288000AF0C7FA00BF6879CB
:10C7E000012802D10220BDE8F0810120687100BF5C
:10C7F000022028712868076840F6FE70B040874321
:10C80000D4E9000140EA010808FA06F00743286865
:10C81000076028680068C021B14088432968086023
:10C820000120287100BF0020687100BF00BFDAE757
:10C83000F8B507460D4614461E46002000900DB17F
:10C84000102D00D105E040F28E31AFF2FC000AF06D
:10C850008CFA1CB1042C01D0082C00D105E040F268
:10C860008F31AFF214100AF080FA4FF6F070864262
:10C8700000D805E04FF46471AFF22C100AF075FA9D
:10C88000386800902DB904F1080000990844009020
:10C8900004E004F114000099084400900098066038
:10C8A0000020F8BD014608797047014608697047C5
:10C8B000014600200A68D26A10430A68126B40EAF7
:10C8C0000240704770B505460E4614460EB1102E54
:10C8D00000D103E082219DA00AF047FAECB3B4F541
:10C8E000807F41D0B4F5007F3ED0B4F5407F3BD08F
:10C8F000B4F5806F38D0B4F5A06F35D0B4F5C06F03
:10C9000032D0B4F5E06F2FD0B4F5006F2CD0B4F571
:10C91000106F29D0B4F5206F26D0B4F5306F23D036
:10C92000DCB1B4F5807F1FD0B4F5007F1CD0B4F526
:10C93000407F19D0B4F5806F16D0B4F5A06F13D036
:10C94000B4F5C06F10D0B4F5E06F0DD0B4F5006F42
:10C950000AD0B4F5106F07D000E005E0B4F5206F01
:10C9600002D0B4F5306F00D103E0832177A00AF044
:10C97000FCF900BF6879012801D1022070BD0120B7
:10C98000687100BF02202871286800684FF47C613C
:10C99000B140884344F08001B140084329680860F1
:10C9A0000120287100BF0020687100BF00BFE5E7CB
:10C9B00070B505460E4614460EB1102E00D103E0A8
:10C9C000B22162A00AF0D1F9ECB3B4F5807F41D076
:10C9D000B4F5007F3ED0B4F5407F3BD0B4F5806F16
:10C9E00038D0B4F5A06F35D0B4F5C06F32D0B4F5FF
:10C9F000E06F2FD0B4F5006F2CD0B4F5106F29D0B4
:10CA0000B4F5206F26D0B4F5306F23D0DCB1B4F587
:10CA1000807F1FD0B4F5007F1CD0B4F5407F19D0C3
:10CA2000B4F5806F16D0B4F5A06F13D0B4F5C06F15
:10CA300010D0B4F5E06F0DD0B4F5006F0AD0B4F5A6
:10CA4000106F07D000E005E0B4F5206F02D0B4F518
:10CA5000306F00D103E0B3213CA00AF086F900BF9B
:10CA60006879012801D1022070BD0120687100BFE2
:10CA700002202871286800684FF47C61B140884327
:10CA800044F04001B1400843296808600120287142
:10CA900000BF0020687100BF00BFE5E72DE9F04747
:10CAA00007460C4615461E464FF00009C8461CB105
:10CAB000042C01D0082C00D103E0DC2123A00AF0D3
:10CAC00054F94FF6F070854200D803E0DD211FA035
:10CAD0000AF04BF94FF6F070864200D803E0DE21F1
:10CAE0001AA00AF042F9082C02D145EA062901E011
:10CAF00045EA0649D7F8008004F120008044C8F8D0
:10CB000000900020BDE8F08770477047704770477D
:10CB100070B50446A56B2846FFF7F6FF0120287183
:10CB200070BD70B50446A56B2846FFF7EEFF70BDDB
:10CB300070B50546AC6B206940F0040020612046CA
:10CB4000FFF7E4FF0120207170BD00002E2E5C4C29
:10CB500069627261726965735C53544D3332463455
:10CB600078785F48414C5F4472697665725C5372B5
:10CB7000635C73746D3332663478785F68616C5FC0
:10CB80006461635F65782E630000000000F10801B6
:10CB900041604FF0FF31816000F10801C160016127
:10CBA00000210160704700210161704742684A60BE
:10CBB00093688B60936859609160086103685B1C9F
:10CBC0000360704710B502460B685C1C0CB9106915
:10CBD00007E002F1080000E04068446824689C42D5
:10CBE000FAD944684C604C68A160886041600A6171
:10CBF0001468641C146010BD01460A69D1E9013053
:10CC00009860D1E9010358605068884201D1886872
:10CC10005060002008611068401E10601068704766
:10CC200070B505460E462C462CB940F21B12F6A1F3
:10CC3000FEA00DF09FFE02F094FBD4E90F122068D5
:10CC400001FB020060600020A0632068A060E06B30
:10CC5000401E226C216800FB0210E060FF2084F877
:10CC6000440084F845009EB9206908B9012000E01D
:10CC70000020A8B904F1100001F0D7FA80B14FF0FC
:10CC80008050EE490860BFF34F8FBFF36F8F07E00E
:10CC900004F11000FFF77AFF04F12400FFF776FF9C
:10CCA00002F082FB012070BD2DE9F04106460D46E1
:10CCB00017469846069C0DB9246000E02760E6639D
:10CCC000256401212046FFF7ABFF84F85080002047
:10CCD000A064BDE8F0812DE9F84305460E46904674
:10CCE0000DB1012000E0002028B94FF4C472C6A1A4
:10CCF000CEA00DF03FFE0EB9002701E005FB06F7C0
:10CD000007F1540002F071F9044644B104F15409EA
:10CD100043464A46314628460094FFF7C5FF204661
:10CD2000BDE8F8832DE9F04104460F4615464FF063
:10CD30000008A66B206C28B37DB93946226CA06828
:10CD400010F084FB216CA0680844A060D4E90110B5
:10CD5000884217D32068A06014E03946226CE0684E
:10CD600010F074FB216CE068401AE0602168E06814
:10CD7000884203D2216C6068401AE060022D01D124
:10CD800006B1761E701CA0634046BDE8F0812DE917
:10CD9000F3410D460098846C00272CB940F6CE1262
:10CDA00099A1A2A00DF0E6FDA06BE16B884201D233
:10CDB000012000E0002028B940F6CF1292A19BA0EC
:10CDC0000DF0D8FDA06BE16B88421BD294F9456051
:10CDD0002A4669462046FFF7A5FF0746701C60B942
:10CDE000606A08B9012000E0002050B904F1240075
:10CDF00001F01BFA28B1012703E0701C40B284F84F
:10CE0000450000BF3846BDE8FC8170B5044602F01D
:10CE1000A8FA94F945501AE0A06C38B100212046D8
:10CE2000FFF7B5FF88B101F0CFFA0EE0606A08B9EC
:10CE3000012000E0002038B904F1240001F0F5F9E8
:10CE400018B101F0C1FA00E003E0681E45B2002D00
:10CE5000E2DC00BFFF2084F8450002F0A5FA02F0F2
:10CE600080FA94F9445010E0206908B9012000E0EC
:10CE7000002048B904F1100001F0D7F908B101F021
:10CE8000A3FA681E45B200E001E0002DECDC00BF13
:10CE9000FF2084F8440002F087FA70BD70B50546A3
:10CEA00002F05FFAA86BE96B884201D1012400E02F
:10CEB000002402F079FA204670BD2DE9FF4383B0CB
:10CEC000064688461D464FF0000934462CB940F20C
:10CED000D9224DA155A00DF04DFDB8F1000F01D1A3
:10CEE000206C08B9012000E0002028B940F2DA22C5
:10CEF00045A14EA00DF03EFD022D02D1E06B0128B0
:10CF000001D1012000E0002028B940F2DB223EA13F
:10CF100046A00DF02FFD01F066FA08B9059808B992
:10CF2000012000E0002028B940F2DE2236A13FA017
:10CF30000DF020FD00BF02F014FAA06BE16B8842F7
:10CF400001D3022D38D12A4641462046FFF7EAFE9A
:10CF50000746A06C68B129462046FFF718FF28B3A2
:10CF60004FF0805035490860BFF34F8FBFF36F8F8C
:10CF70001CE0606A08B9012000E0002068B904F1F3
:10CF8000240001F052F988B14FF080502B4908601D
:10CF9000BFF34F8FBFF36F8F08E03FB14FF080506A
:10CFA00026490860BFF34F8FBFF36F8F02F0FCF983
:10CFB000012007B0BDE8F083059818B902F0F4F934
:10CFC0000020F6E7B9F1000F04D101A801F0B1F992
:10CFD0004FF0010902F0E8F900F074FE02F0C1F927
:10CFE00094F94400401C10B9002084F8440094F9DE
:10CFF0004500401C10B9002084F8450002F0D4F927
:10D0000005A901A81CE000002E2E5C4C696272612B
:10D01000726965735C4672656552544F535C7372F6
:10D02000635C71756575652E630000004572726FF3
:10D03000723A25732C25640D0A00000004ED00E00F
:10D0400001F089F9F8B92046FFF728FFA8B104F1EB
:10D050001000059901F08BF82046FFF7D6FE00F08E
:10D0600053FD00287FF467AF4FF08050FE49086001
:10D07000BFF34F8FBFF36F8F5DE72046FFF7C5FE0D
:10D0800000F042FD57E72046FFF7BFFE00F03CFDF1
:10D0900000208EE72DE9F05F80468A4615461E4641
:10D0A00044463CB940F29F32AFF2A401AFF2840093
:10D0B0000DF060FCBAF1000F01D1206C08B901201D
:10D0C00000E0002038B94FF46872AFF2C401AFF24B
:10D0D000A4000DF04FFC022E02D1E06B012801D11B
:10D0E000012000E0002038B940F2A132AFF2E8019F
:10D0F000AFF2C8000DF03EFC02F086F900BF30210F
:10D10000EFF3118081F31188BFF34F8FBFF36F8F5F
:10D1100000BF0746A06BE16B884201D3022E2BD1E2
:10D1200094F945B0324651462046FFF7FBFD0BF11E
:10D130000100C8B9A06C40B131462046FFF727FE78
:10D14000B8B1B5B10120286013E0606A08B90120C8
:10D1500000E0002068B904F1240001F066F840B155
:10D160003DB10120286004E00BF1010040B284F8D9
:10D1700045004FF0010901E04FF0000900BF87F3BF
:10D18000118800BF4846BDE8F09F2DE9F0470746EB
:10D190000D463C463CB940F23C42AFF29411AFF22E
:10D1A00074100DF0E7FB206C08B9012000E00020AE
:10D1B00038B94FF48862AFF2B011AFF290100DF0B1
:10D1C000D9FB206808B9606808B9012000E0002098
:10D1D00038B940F24542AFF2D011AFF2B0100DF0C5
:10D1E000C9FB02F011F900BF3021EFF3118081F388
:10D1F0001188BFF34F8FBFF36F8F00BF0646D4F87F
:10D200003890E06B484529D994F945A009F101000F
:10D21000A0630AF10100C8B9A06C40B1002120460A
:10D22000FFF7B5FDB8B1B5B10120286013E0606A21
:10D2300008B9012000E0002068B904F1240000F0E2
:10D24000F4FF40B13DB10120286004E00AF1010083
:10D2500040B284F845004FF0010801E04FF00008AB
:10D2600000BF86F3118800BF4046BDE8F08770B567
:10D27000054602F076F8A86B08B9012400E0002406
:10D2800002F092F8204670BD70B504460D46206C41
:10D2900070B1216CE0680844E0606168E068884231
:10D2A00001D32068E0602846226CE16810F0CEF8D7
:10D2B00070BD2DE9FF4782B005460E461F464FF070
:10D2C000000A2C463CB940F2DC42AFF2C421AFF276
:10D2D000A4200DF04FFB0EB9206C08B9012000E02E
:10D2E000002038B940F2DD42AFF2E421AFF2C420B1
:10D2F0000DF040FB01F077F808B9049808B9012057
:10D3000000E0002038B94FF49C62AFF20431AFF274
:10D31000E4200DF02FFB00BF02F023F8D4F8389082
:10D32000B9F1000F38D0D4F80C8031462046FFF711
:10D33000ABFFB7B9A9F10100A063206908B90120CA
:10D3400000E0002010BB04F1100000F06EFFE8B117
:10D350004FF0805044490860BFF34F8FBFF36F8F89
:10D3600014E0C4F80C80606A08B9012000E00020D5
:10D3700060B904F1240000F058FF38B14FF080503C
:10D3800039490860BFF34F8FBFF36F8F02F00CF87D
:10D39000012006B0BDE8F087049818B902F004F83F
:10D3A0000020F6E7BAF1000F04D1684600F0C1FF93
:10D3B0004FF0010A01F0F8FF00F084FC01F0D1FF0A
:10D3C00094F94400401C10B9002084F8440094F9FA
:10D3D0004500401C10B9002084F8450001F0E4FF2E
:10D3E00004A9684600F0B7FFF0B92046FFF73FFFF9
:10D3F000A0B104F12400049900F0B9FE2046FFF723
:10D4000004FD00F081FB002886D14FF080501649C2
:10D410000860BFF34F8FBFF36F8F7DE72046FFF7A4
:10D42000F4FC00F071FB77E72046FFF7EEFC00F01C
:10D430006BFB2046FFF71BFF0028EED00020A8E77B
:10D440002DE9F05F06468946174634463CB94FF44D
:10D45000B462AFF24C41AFF22C400DF08BFAB9F14F
:10D46000000F04D1206C01E004ED00E008B90120B8
:10D4700000E0002038B940F2A152AFF27441AFF29F
:10D4800054400DF077FA01F0BFFF00BF3021EFF3F9
:10D49000118081F31188BFF34F8FBFF36F8F00BFEF
:10D4A0000546D4F838A0BAF1000F22D094F944B060
:10D4B00049462046FFF7E8FEAAF10100A0630BF100
:10D4C000010070B9206908B9012000E0002068B9A6
:10D4D00004F1100000F0A9FE40B13FB10120386016
:10D4E00004E00BF1010040B284F844004FF0010861
:10D4F00001E04FF0000800BF85F3118800BF4046EF
:10D50000BDE8F09F2DE9F0470646884634463CB911
:10D5100040F2FC52AFF21051AFF2F0400DF02AFA97
:10D52000B8F1000F01D1206C08B9012000E0002003
:10D5300038B940F2FD52AFF23051AFF210500DF059
:10D5400019FA206C08B1012000E0002038B940F23F
:10D55000FE52AFF24C51AFF22C500DF00BFA01F02D
:10D5600053FF00BF3021EFF3118081F31188BFF327
:10D570004F8FBFF36F8F00BF0546A06B48B1D4F843
:10D580000C9041462046FFF77FFEC4F80C9001271F
:10D5900000E0002700BF85F3118800BF3846BDE8D2
:10D5A000F08770B504463CB940F22F62AFF2A85143
:10D5B000AFF288500DF0DEF901F0D3FEA56B01F05B
:10D5C000F3FE284670BD70B5044625463DB940F2CD
:10D5D0004162AFF2CC51AFF2AC500DF0CBF901F09B
:10D5E000C0FED5E90E10461A01F0DEFE304670BDD1
:10D5F00070B504463CB940F25162AFF2F451AFF25B
:10D60000D4500DF0B7F9A56B284670BD0146002037
:10D610000EE0764A02EBC00252688A4207D100222D
:10D62000724B43F8302003EBC0035A6002E0401C09
:10D630000A28EED300BF704770B5044625463DB9B1
:10D6400040F25D62AFF24061AFF220600DF092F9FE
:10D650002846FFF7DBFF284601F04AFD70BD014672
:10D66000C86C7047C1647047014691F8500070471C
:10D6700070B505463DB940F29372AFF27461AFF2F6
:10D6800054600DF077F9A86B08B9012400E000247C
:10D69000204670BD70B504463CB940F2BA72AFF294
:10D6A0009861AFF278600DF065F9A06BE16B88428C
:10D6B00001D1012500E00025284670BD024600206A
:10D6C0000BE04A4B53F8303033B9484B43F8301035
:10D6D00003EBC0035A6002E0401C0A28F1D300BFEC
:10D6E00070470246002000210AE0404B03EBC103D3
:10D6F0005B68934203D13D4B53F8310002E0491C73
:10D700000A29F2D300BF70472DE9F04105460E46C5
:10D7100017462C4601F025FE94F94400401C10B930
:10D72000002084F8440094F94500401C10B9002002
:10D7300084F8450001F038FEA06B28B93A4631461E
:10D7400004F1240000F056FD2046FFF75EFBBDE823
:10D75000F08170B50446002204212046FFF7BBFA91
:10D760000546284670BD70B504460E4601F0F9FD29
:10D77000A06C08B1002505E0A06B08B1002501E010
:10D78000A664012501F010FE284670BD2DE9F04188
:10D7900005460F462E46B06CB84201D000240AE080
:10D7A000B06B08B1002406E001F0DBFD0020B0649E
:10D7B00001F0FAFD01242046BDE8F08138B50546A8
:10D7C0000C46002000900023224669462846FFF7B9
:10D7D00070FD009838BD38B5044600200090002246
:10D7E00069462046FFF72CFE009838BDB41500208E
:10D7F00010B5002407E004EB8401F94A02EB810034
:10D80000FFF7C4F9641C102CF5D3F648FFF7BEF9F6
:10D81000F548FFF7BBF9F548FFF7B8F9F148F449C7
:10D820000860F148F349086010BD10B5044601F0E6
:10D8300098FDF1480068401CEF490860EF48006817
:10D8400040B9EE4804600846006801280DD1FFF792
:10D85000CFFF0AE0EA48006838B9E8480068C06AC3
:10D86000E16A884201D8E5480460E6480068401C47
:10D87000E449086008460068606594F82C100120AF
:10D880008840E14909680843DF490860E16A01EB23
:10D890008101D34A02EB8100211DFFF787F901F0D6
:10D8A00083FDD748006868B1D4480068C06AE16A5F
:10D8B000884207D24FF08050D4490860BFF34F8FA1
:10D8C000BFF36F8F10BD2DE9F05F82460E461746FD
:10D8D0009B46DDF828800C9CB900A522206B0FF038
:10D8E000C7FD781E216B01EB800929F0070909F0BB
:10D8F000070008B9012000E0002028B940F22B32CF
:10D90000C3A1CCA00DF036F8002507E0715D04F14D
:10D9100034004155705D00B902E06D1C202DF5D337
:10D9200000BF002153200155B8F1100F01D34FF073
:10D930000F08C4F82C80201DFFF735F904F11800FA
:10D94000FFF731F92461C8F11000A0616462002082
:10D95000E06584F860005A465146484601F04FFCA5
:10D9600020600B9808B10B980460BDE8F09F2DE98A
:10D97000FF4F85B0804689461746DDE912ABB800F7
:10D9800001F033FB064656B1642001F02EFB04463D
:10D990000CB1266304E0304601F0AAFB00E000244D
:10D9A0007CB10020CDE900ABCDE902403A464946C2
:10D9B0004046089BFFF787FF2046FFF736FF01250B
:10D9C00001E04FF0FF35284609B0BDE8F08F8849E7
:10D9D0000968096809B9012100E0002121B14FF06F
:10D9E000FF31984A116006E081490968C968C86832
:10D9F000944A4168116070472DE9F0414FF00008EA
:10DA000091480068002872D190480068451C8F48F2
:10DA10000560EDB976480068006808B9012000E0AB
:10DA2000002028B940F6D91279A182A00CF0A2FFFB
:10DA30006F4807686F4800686D4908606D48076067
:10DA400083480068401C82490860FFF7C0FF00BFA0
:10DA50007C48006885423CD300BF65480068006888
:10DA600008B9012000E0002020B14FF0FF307549D7
:10DA700008602DE05E480068C068C4686668B5420A
:10DA800002D27048066023E0201DFFF7B5F8A06AB7
:10DA900018B104F11800FFF7AFF894F82C1001202A
:10DAA000884059490968084357490860E16A01EB11
:10DAB00081014B4A02EB8100211DFFF777F84F49A6
:10DAC000E06A0968C96A8842C7D34FF00108C4E711
:10DAD00000BF4A480068C06A00EB8000404951F826
:10DAE0002000012801D94FF0010805E0FFE759485F
:10DAF0000068401C574908605748006808B14FF05B
:10DB000001084046BDE8F08170B5002400264E486B
:10DB1000006828B94FF4FD623DA146A00CF02AFF31
:10DB200001F01FFC48480068401E4749086008464D
:10DB3000006800284FD13048006800284BD024E00E
:10DB40002A48C068C46804F11800FFF755F8201D82
:10DB5000FFF752F894F82C10012088402A490968F0
:10DB6000084329490860E16A01EB81011C4A02EB84
:10DB70008100211DFFF71AF82049E06A0968C96A87
:10DB8000884202D30120344908601848006808B967
:10DB9000012000E000200028D2D00CB1FFF717FFD1
:10DBA0002C48056865B100BFFFF726FF10B10120C2
:10DBB000294908606D1E002DF6D100202549086016
:10DBC0002548006838B10126300710490860BFF3C6
:10DBD0004F8FBFF36F8F01F0E7FB304670BD000041
:10DBE0000416002044170020581700206C1700204E
:10DBF00024000020280000202C000020200000200D
:10DC000038000020480000203400002004ED00E02F
:10DC10002E2E5C4C69627261726965735C46726536
:10DC20006552544F535C7372635C7461736B732EF3
:10DC3000630000004572726F723A25732C25640DE3
:10DC40000A0000004C00002054000020300000209A
:10DC5000440000203C000020400000202DE9F0415D
:10DC600005460F46F9480668F9480068001DFEF7AA
:10DC7000C3FF50B9F648006890F82C100120884086
:10DC8000F44909688143F34801607419F048006859
:10DC90004460B44207D2EE480168091DEE480068AE
:10DCA000FEF790FF0CE0EA480168091DEB480068A8
:10DCB000FEF788FFEA480068844201D2E848046021
:10DCC000BDE8F081E7480068401CE64908607047FD
:10DCD0002DE9F04704460F464FF000093CB940F2E9
:10DCE0007942AFF2D401AFF2B4000CF043FE0FB1B1
:10DCF000012000E0002038B940F27A42AFF2F00192
:10DD0000AFF2D0000CF036FED648006808B901200A
:10DD100000E0002038B940F27B42AFF20C11AFF2C4
:10DD2000EC000CF027FEFFF7CDFFC848066820681E
:10DD3000C5192068B04207D92068A8420BD9B5425E
:10DD400009D94FF0010906E02068A84201D8B54280
:10DD500001D94FF001092560B9F1000F03D0A81BCC
:10DD60000021FFF77BFFFFF7CFFE8046B8F1000FE1
:10DD700007D14FF08050BC490860BFF34F8FBFF30D
:10DD80006F8FBDE8F08770B504460025BCB1B5487B
:10DD9000006808B9012000E0002038B940F2CF4205
:10DDA000AFF29411AFF274100CF0E4FDFFF78AFFAC
:10DDB00000212046FFF752FFFFF7A6FE05463DB9BA
:10DDC0004FF08050A8490860BFF34F8FBFF36F8FAB
:10DDD00070BD2DE9F04105462F463FB940F2FB42A8
:10DDE000AFF2D411AFF2B4100CF0C4FD9848006843
:10DDF000874201D100240FE001F0B3FA7E6901F0FF
:10DE0000D3FA96480068864203D093480068864259
:10DE100001D1022400E001242046BDE8F08170B564
:10DE2000044601F09EFA14B98948006800E02046D3
:10DE30000646F56A01F0B8FA284670BD2DE9F041B2
:10DE4000054601F0E1FA00BF3021EFF3118081F3C4
:10DE50001188BFF34F8FBFF36F8F00BF044615B912
:10DE60007B48006800E028460746FE6A00BF84F34E
:10DE7000118800BF3046BDE8F081704700BFFFF752
:10DE8000FCFF7A4800680128F9D94FF080507649A4
:10DE90000860BFF34F8FBFF36F8FF0E71CB5744876
:10DEA00000210B464FF48072CDE9001071A1734838
:10DEB000FFF75DFD0446012C02D100F02AFF044665
:10DEC000012C15D100BF302080F31188BFF34F8F94
:10DED000BFF36F8F00BF4FF0FF3061490860012032
:10DEE0006749086000205949086001F0A8F90DE071
:10DEF000601C08B1012000E0002038B940F28472B3
:10DF0000AFF2F421AFF2D4200CF034FD1CBD10B5FB
:10DF100000BF302080F31188BFF34F8FBFF36F8FA6
:10DF200000BF00205649086001F00AFA10BD4749B9
:10DF30000868704770B501F067FA00254348046827
:10DF4000204670BD4F480068704770B5044614B94C
:10DF50003F48006800E0204605463DB940F68C0287
:10DF6000AFF25431AFF234300CF004FD05F134005F
:10DF700070BD0246002101E0521C491C1078A52802
:10DF8000FAD0890888B270472DE9F04107460C465F
:10DF900090461E4617B92E48006800E038460546F0
:10DFA000256005F134006060E86A2061286BE0615B
:10DFB000686DA06000206061A061052E01D026730D
:10DFC00003E03846FFF705FF2073B8F1000F04D0D7
:10DFD000286BFFF7CEFF208401E000202084BDE8FD
:10DFE000F0812DE9F04707460C4690460026206850
:10DFF00048B3204641684968416000F10801426821
:10E000008A4202D14168496841604168D1F80C9068
:10E0100000BF204641684968416000F1080142683C
:10E020008A4202D14168496841604168CD6806EB87
:10E03000C60007EB8001434601222846FFF7A4FFF4
:10E04000761C4D45E5D13046BDE8F0873000002014
:10E0500020000020340000202800002024000020A0
:10E060004C0000205400002004ED00E004160020C5
:10E070005000002049444C45000000007DDE0008AF
:10E08000380000202C0000202DE9F041054688468C
:10E09000164600241027FFF715FEF8480068804553
:10E0A00027D300BF7F1E07EB8702F54B03EB8201EE
:10E0B00004EBC40205EB82000122FFF792FF044447
:10E0C000002FEFD104EBC40105EB81000222ED49E2
:10E0D0000968FFF786FF044404EBC40105EB8100E7
:10E0E0000222E9490968FFF77CFF04440EB10020D1
:10E0F0003060FFF709FD2046BDE8F08110B5E34828
:10E10000006818B10120E24908602FE00020E049D2
:10E110000860E0480068B0FA80F0C0F11F0404EB2A
:10E120008400D74951F8200008B1012000E0002008
:10E1300038B940F6F622AFF22851AFF208500CF091
:10E1400019FC04EB8401CE4A02EB81004168496866
:10E15000416000F1080142688A4202D14168496881
:10E1600041604168C968CC4A116000BF10BD70B5FC
:10E1700004460D463CB940F60632AFF26C51AFF2A0
:10E180004C500CF0F7FBC448016818312046FEF7EC
:10E1900019FD01212846FFF761FD70BD70B50446E9
:10E1A0000D4616463CB940F61732AFF29C51AFF21D
:10E1B0007C500CF0DFFBB548006808B1012000E09E
:10E1C000002038B940F61B32AFF2BC51AFF29C5080
:10E1D0000CF0D0FB45F00040AF4909688861AE48BB
:10E1E000016818312046FEF7E1FC01213046FFF7B7
:10E1F00035FD70BD70B505460E4614463DB940F676
:10E200003132AFF2F451AFF2D4500CF0B3FBA2486C
:10E21000016818312846FEF7C9FC0CB14FF0FF36F3
:10E2200021463046FFF71AFD70BD70B50646F0680E
:10E23000C4683CB940F66132AFF22C61AFF20C60B9
:10E240000CF098FB04F11800FEF7D6FC8F4800682C
:10E25000A8B9201DFEF7D0FC94F82C1001208840AE
:10E260008C49096808438B490860E16A01EB810128
:10E27000834A02EB8100211DFEF798FC04E004F1C3
:10E2800018018648FEF792FC8349E06A0968C96A6A
:10E29000884204D9012501207D49086000E000255D
:10E2A000284670BD2DE9F04105460F4677480068C5
:10E2B00008B1012000E0002038B940F69932AFF2F1
:10E2C000B061AFF290600CF055FB47F00040286061
:10E2D000EC683CB940F6A132AFF2CC61AFF2AC6071
:10E2E0000CF048FB2846FEF787FC201DFEF784FC57
:10E2F00094F82C1001208840664909680843654954
:10E300000860E16A01EB81015D4A02EB8100211D99
:10E31000FEF74CFC6049E06A0968C96A884204D982
:10E32000012601205A49086000E000263046BDE879
:10E33000F08110B504463CB940F6C132AFF23071FD
:10E34000AFF210700CF016FB55480068206055487D
:10E350000068606010BD2DE9F04104460D463CB9EF
:10E3600040F6CB32AFF25871AFF238700CF002FBCE
:10E370003DB940F6CC32AFF26871AFF248700CF0A4
:10E38000F9FA00F0EEFF4748076845492068096838
:10E39000884204D06068B84201D801260FE0606866
:10E3A000381A2968884209D228686168791A401A9F
:10E3B00028602046FFF7BDFF002600E0012600F0A0
:10E3C000F3FF3046BDE8F081012031490860704715
:10E3D000014611B10A46906D00E00020704708B177
:10E3E0000246916570473049096809B9012005E086
:10E3F0002649096809B9022000E00020704770B57D
:10E4000005460E46314628460FF058F828460FF0CC
:10E4100041F8044602E020202855641C1F2CFAD342
:10E4200000202855281970BD7FB5054600202870AA
:10E430001248006803901149096801EBC101880086
:10E4400000F0D3FD0446002C6CD000222046039936
:10E45000FFF71AFE0390002002905CE0029800EBA8
:10E46000C00004EB8000007B01281FD002281FD0D1
:10E4700003281FD0042821D11EE000002C0000201A
:10E480000416002024000020280000205400002052
:10E490004000002034000020200000206C170020E5
:10E4A000440000203000002038000020522607E001
:10E4B000422605E0532603E0442601E0002600BF83
:10E4C00000BF029800EBC00004EB800041682846C2
:10E4D000FFF795FF0546029800EBC00004EB8000B3
:10E4E0008068029901EBC10104EB8101098CCDE93F
:10E4F0000010029800EBC00004EB80003246F8A147
:10E50000036928460FF086FB28460EF0C3FF05443A
:10E510000298401C0290DDE9020188429ED3204609
:10E5200000F0E6FD7FBDF24909688869F049096895
:10E53000C96AC1F11001EE4A12689161704770B565
:10E5400006460D4600F00DFFE9480068C06D88B929
:10E550000120E749096881F860005DB10121284682
:10E56000FFF77CFB4FF08050E2490860BFF34F8F0C
:10E57000BFF36F8F00F018FF00F0F3FEDC48006877
:10E58000C46D4CB126B10020D9490968C86503E0C3
:10E59000601ED7490968C8650020D549096881F817
:10E5A000600000F001FF204670BD2DE9F0410746F4
:10E5B000884614461D4600F0D4FECD48006890F809
:10E5C0006000022818D0CA49096801F15C00C96DD1
:10E5D000B94301600120C649096881F860005DB156
:10E5E00001212846FFF73AFB4FF08050C1490860EF
:10E5F000BFF34F8FBFF36F8F00F0D6FE00F0B1FE78
:10E600001CB1BB480068C06D2060B948006890F834
:10E610006000012801D1002608E0B549096801F130
:10E620005C00C96D21EA0801016001260020B049A3
:10E63000096881F8600000F0B7FE3046BDE8F0815F
:10E640002DE9F04706460D46174698464FF0010A59
:10E650003EB941F2FD02AFF64821AFF628200CF09A
:10E6600089F9344600F07DFEB8F1000F02D0E06D6C
:10E67000C8F8000094F86090022084F86000052F2C
:10E6800017D2DFE807F01503070B0D00E06D2843F4
:10E69000E0650EE0E06D401CE0650AE0E56508E03D
:10E6A000B9F1020F01D0E56501E04FF0000A00E08A
:10E6B00000BF00BFB9F1010F30D1201DFEF79CFA59
:10E6C00094F82C10012088408B49096808438A4936
:10E6D0000860E16A01EB8101884A02EB8100211D9B
:10E6E000FEF764FAA06A08B9012000E0002038B9FA
:10E6F00041F23512AFF6E821AFF6C8200CF03AF936
:10E700007B49E06A0968C96A884207D94FF080509E
:10E7100078490860BFF34F8FBFF36F8F00F044FE5E
:10E720005046BDE8F0872DE9F84F07460E46904663
:10E730009946DDF828B0012000903FB941F26812F7
:10E74000AFF63431AFF614300CF014F900F05CFE83
:10E750003C4600BF3021EFF3118081F31188BFF3F5
:10E760004F8FBFF36F8F00BF0546B9F1000F02D086
:10E77000E06DC9F8000094F860A0022084F8600001
:10E78000B8F1050F17D2DFE808F01503070B0D00ED
:10E79000E06D3043E0650EE0E06D401CE0650AE0AE
:10E7A000E66508E0BAF1020F01D0E66501E000205D
:10E7B000009000E000BF00BFBAF1010F3BD1A06A9A
:10E7C00008B9012000E0002038B941F2AF12AFF6DD
:10E7D000C031AFF6A0300CF0CDF849480068A8B9B8
:10E7E000201DFEF709FA94F82C10012088404249B8
:10E7F0000968084340490860E16A01EB81013F4A2A
:10E8000002EB8100211DFEF7D1F904E004F11801AB
:10E810003C48FEF7CBF93649E06A0968C96A884284
:10E8200009D9BBF1000F03D00120CBF8000002E0B2
:10E8300001203549086000BF85F3118800BF0098AA
:10E84000BDE8F88F2DE9F04105460F463DB941F28C
:10E85000E312AFF64441AFF624400CF08BF800F021
:10E86000D3FD2C4600BF3021EFF3118081F31188D6
:10E87000BFF34F8FBFF36F8F00BF064694F86080E1
:10E88000022084F86000E06D401CE065B8F1010FE3
:10E890004FD1A06A08B9012000E0002038B941F248
:10E8A0000922AFF69441AFF674400CF063F81448B7
:10E8B000006858BB201DFEF79FF994F82C1001202A
:10E8C00088400D49096808430B490860E16A01EB7B
:10E8D00081010A4A02EB8100211DFEF767F91BE066
:10E8E0000925630925750925750925750D0A000097
:10E8F0002000002004ED00E0340000200416002079
:10E90000540000206C17002040000020FFE704F1B5
:10E9100018011748FEF74AF91649E06A0968C96AFA
:10E92000884206D917B10120386002E0012012495F
:10E93000086000BF86F3118800BFBDE8F08170B5A4
:10E94000054615B90B48006800E02846064600F069
:10E9500008FD96F86000022804D1002086F86000C7
:10E96000012400E0002400F01FFD204670BD0000DF
:10E970006C17002020000020400000202DE9F0410D
:10E9800004460D4616461F464FF000086560246198
:10E99000B5420CD8F01BA169884202D34FF00108A0
:10E9A00011E0211DFA480068FEF70CF90BE0BE42A9
:10E9B00004D2BD4202D34FF0010804E0211DF54806
:10E9C0000068FEF7FFF84046BDE8F0812DE9FE4300
:10E9D00004460D4616461F46DDF828804FF0000914
:10E9E0002CB94FF4D372ECA1F4A00BF0C3FFF7489D
:10E9F000006810B3009501960294062D15DAFFF712
:10EA0000F2FC022808D1002342466946EF4800681C
:10EA1000FEF753FA814610E000231A466946EB4898
:10EA20000068FEF74AFA814607E000233A46694645
:10EA3000E6480068FEF72EFB81464846BDE8FE83A7
:10EA40002DE9F8432DE0D3480068C0680568D14837
:10EA50000068C068C468201DFEF7CEF82046616AD1
:10EA60008847E06901281CD1A0694619AE4207D940
:10EA700066602461211DC7480068FEF7A3F810E016
:10EA8000002003462A46014600902046FFF79EFFDD
:10EA900007462FB940F29232BFA1C8A00BF06AFF1F
:10EAA00000BFBC480068006808B9012000E00020F1
:10EAB0000028C8D0B748D0F80080B5480068B549EC
:10EAC0000860B348C0F80080BDE8F88370B504461C
:10EAD000FFF72DFA0546BE480068854204D2FFF7CD
:10EAE000AFFF0120206001E000202060B8480560F1
:10EAF000284670BD70B586B060E0039800285DDBE5
:10EB0000059C606908B9012000E0002010B9201DB3
:10EB1000FEF772F802A8FFF7D9FF054603980A2806
:10EB20004AD2DFE800F00905072C2E4506082D2FF4
:10EB300000BF00BF00BF00BF0498A2698118034650
:10EB40002A462046FFF71AFFC0B12046616A88476F
:10EB5000E069012812D1002000900498A1694218B0
:10EB6000002319462046FFF731FF06462EB940F232
:10EB7000213289A191A00BF0FDFE00BF1DE000BF76
:10EB80001BE000BF0498A061A06908B1012000E06B
:10EB9000002028B94FF44E727FA188A00BF0EAFE46
:10EBA000A06941192B462A462046FFF7E7FE04E0FC
:10EBB000204600F09DFA00E000BF00BF00231A4687
:10EBC00003A982480068FEF774FB002895D106B0BF
:10EBD00070BDF8B505460F466E480068C068C46849
:10EBE000201DFEF709F8E069012818D1A069411934
:10EBF0002B463A462046FFF7C1FE80B1002003466F
:10EC00002A46014600902046FFF7E0FE06462EB950
:10EC10004FF4027260A169A00BF0ACFE00BF204669
:10EC2000616A8847F8BDF8B505460C46FFF74AF813
:10EC30006846FFF74BFF0646009820BB44B9B54233
:10EC400006D8FEF761FF31462846FFF7C2FF1CE0F9
:10EC50003CB14F480068006808B9012000E000207E
:10EC60000446A91B224659480068FEF74DFDFEF7F1
:10EC70004BFF50B94FF0805056490860BFF34F8F9B
:10EC8000BFF36F8F01E0FEF73FFFF8BD0146414A39
:10EC9000126812680AB9012200E000220A600A68BC
:10ECA00022B93C4A1268D268106800E00020704720
:10ECB00008B500BF6846FFF7E9FF04462046009903
:10ECC000FFF7B1FFFFF716FFF4E710B500F049FBBF
:10ECD0003E480068D0B94048FDF758FF3F48FDF76F
:10ECE00055FF3D482B4908603C48294908600022EF
:10ECF0000C210A20FDF7EFFF344908600846006840
:10ED000020B137A131480068FEF7D8FC00F04CFB79
:10ED100010BD1CB50024FFF7D8FF2C48006858B17F
:10ED200031480F2100234FF40072CDE900102FA1CC
:10ED30003048FEF71CFE04462CB940F2331216A1EF
:10ED40001EA00BF017FE20461CBD2DE9F04706461D
:10ED50000D4617469846DDE908940DB1012000E004
:10ED6000002028B94FF4C6720BA114A00BF002FECC
:10ED70005CB1FFF7AAFF2660A561E761C4F82080B7
:10ED8000C4F82490201DFDF70EFFBDE8F0870000B9
:10ED90005C000020580000202E2E5C4C69627261DD
:10EDA000726965735C4672656552544F535C737249
:10EDB000635C74696D6572732E6300004572726FD7
:10EDC000723A25732C25640D0A00000060000020B3
:10EDD0006800002004ED00E0801700209417002058
:10EDE000546D72510000000064000020546D7220C8
:10EDF00053766300B1EC00082DE9FC4705460E464A
:10EE000017469846DDF828902C2000F0EEF80446CE
:10EE10003CB143463A4631462846CDE90094FFF7D7
:10EE200094FF2046BDE8FC8710B53E48006808B155
:10EE3000012000E0002038B94FF4E872AFF2A801D9
:10EE4000AFF288000BF096FD3648006810BD70B533
:10EE5000044625463CB940F2D912AFF2C401AFF2E4
:10EE6000A4000BF087FDA86970BD70B50446254667
:10EE70003CB940F2E312AFF2E001AFF2C0000BF098
:10EE800079FD6E68304670BD70B5044625463CB9C4
:10EE900040F2ED12AFF20011AFF2E0000BF06AFDAC
:10EEA000286870BD70B5044626463CB940F2DA3297
:10EEB000AFF21C11AFF2FC000BF05CFD00F051FA58
:10EEC000706908B9012000E0002080F0010500F021
:10EED0006BFA284670BD70B5044626463CB940F230
:10EEE000EF32AFF24C11AFF22C100BF043FD00F0FB
:10EEF00038FA356A00F058FA284670BD70B50446F5
:10EF00000D4626463CB940F2FF32AFF27411AFF223
:10EF100054100BF02FFD00F024FA356200F044FA93
:10EF200070BD00006400002010B50146924800E06A
:10EF3000006803688B42FBD30246436813448B424C
:10EF400004D143684C682344436001460A464B6839
:10EF500013440468A34211D1884C03682468A34277
:10EF600008D04B680468646823444B6003681B68DE
:10EF70000B6005E0814B1B680B6001E003680B60D0
:10EF8000884200D0016010BD30B54FF4C8337C48D2
:10EF900000F007042CB1C01D20F00700784C041BC2
:10EFA0001B1B0246744C22600024734D6C60D01809
:10EFB000083820F00700714C206000246F4D2D6848
:10EFC0006C606E4D2D682C601146441A4C606B4C81
:10EFD00024680C606B4D4C682C606B4D4C682C6049
:10EFE0004FF00044694D2C6030BD2DE9F0410446DE
:10EFF0004FF00008FEF766FE6048006808B9FFF7AA
:10F00000C3FF62480068204000285FD1A4B10834E3
:10F0100004F0070080B104F00700C0F108000444C8
:10F0200004F0070008B9012000E0002020B9BF2249
:10F0300057A162A00BF09EFC002C47D052480068FC
:10F04000844243D84C4E3046056801E02E462D6878
:10F050006868A04202D228680028F7D147480068B3
:10F06000854233D0306800F108082868306068684D
:10F07000001B102813D92F1907F0070008B9012029
:10F0800000E0002020B9EC2241A14CA00BF072FC62
:10F090006868001B78606C603846FFF745FF3A49A6
:10F0A00068680968081A38490860084600683549E0
:10F0B0000968884203D234480068324908603349FD
:10F0C000686809680843686000202860FEF71CFD36
:10F0D00008F0070008B9012000E0002028B94FF42B
:10F0E00096722BA135A00BF045FC4046BDE8F0819F
:10F0F00070B506463546002E35D0083D2C462349CE
:10F1000060680968084008B1012000E0002028B9C3
:10F110004FF4A0721EA129A00BF02CFC206808B9A6
:10F12000012000E0002028B940F2411218A123A0DC
:10F130000BF020FC154960680968084098B1206808
:10F1400088B912496068096888436060FEF7BAFDB3
:10F150000D496068096808440B4908602046FFF7BC
:10F16000E3FEFEF7D1FC70BD074800687047054814
:10F1700000687047704700006C0000207400002099
:10F18000A81700207C0000207800002080000020CC
:10F190002E2E5C4C69627261726965735C467265A1
:10F1A0006552544F535C706F72745C4D656D4D6168
:10F1B0006E675C686561705F342E63004572726FC4
:10F1C000723A25732C25640D0A000000A4480068DB
:10F1D000401C08B9012000E0002028B940F20F12BD
:10F1E000A0A1ACA00BF0C6FB00BF302080F31188BB
:10F1F000BFF34F8FBFF36F8F00BF00BFFEE7001F4D
:10F200004FF080730360001F21F001030360001FB3
:10F21000A44B036014380260001F6FF00203036008
:10F2200020387047A04800684FF47A71B0FBF1F0C5
:10F23000401E4FF0E02148610720086170471CB56F
:10F240009A4800689A49884201D0012000E00020D5
:10F2500028B940F2591283A18EA00BF08BFB934882
:10F2600000689349491E884201D0012000E0002037
:10F2700028B94FF4AD727BA186A00BF07BFB8D4CBF
:10F28000204600780190FF2021460870084600784B
:10F2900000909DF8000000F0F0009DF800108842FA
:10F2A00001D1012000E0002028B940F273126DA1C5
:10F2B00078A00BF05FFB9DF8000000F030007E4965
:10F2C000087007207D49086009E07C480068401EFE
:10F2D0007A4908609DF800004006000E00909DF8F5
:10F2E000000000F080008028EFD074480068000221
:10F2F000724908600846008800F4E06008606D49C3
:10F300000198087069482030006840F4700067492F
:10F31000203108600846006840F070400860FFF740
:10F3200081FF00204E490860F0F758FF64480068EC
:10F3300040F0404062490860F0F740FF00201CBDEB
:10F3400010B547480068B0F57A7F01D1012000E090
:10F35000002028B940F2A91242A14EA00BF00AFBEE
:10F3600010BD10B500BF302080F31188BFF34F8F60
:10F37000BFF36F8F00BF3A480068401C38490860EF
:10F380000846006801280ED14848001D0068C0B238
:10F3900008B9012000E0002028B940F2B91231A1DB
:10F3A0003CA00BF0E7FA10BD10B52D48006828B955
:10F3B0004FF4E0722BA137A00BF0DCFA284800686C
:10F3C000401E274908600846006820B9002080F3E5
:10F3D000118800BF00BF10BD10B500BF302080F302
:10F3E0001188BFF34F8FBFF36F8F00BFFEF704FB91
:10F3F00020B14FF080502D49091D086000BF00204A
:10F4000080F3118800BF10BD70B5F0F71FFF0546EF
:10F41000102D11D305F1E02090F8F0432648007834
:10F42000844201DB012000E0002028B94FF4407243
:10F430000CA118A00BF09EFA1C480C30006800F4D8
:10F44000E0601E490968884201D8012000E00020E0
:10F4500028B94FF4447203A10EA00BF08BFA70BDD3
:10F46000840000202E2E5C4C6962726172696573A3
:10F470005C4672656552544F535C706F72745C5297
:10F480005644535C41524D5F434D34465C706F723D
:10F49000742E63004572726F723A25732C25640DC9
:10F4A0000A000000CDF100080000002000ED00E09F
:10F4B00071C20F4100E400E0880000208C000020B1
:10F4C00034EF00E030B503460C46D3F89C020078D8
:10F4D00060B9002106E00020D3F8A05245F82100D1
:10F4E000481CC1B293F899028842F4DC002030BD78
:10F4F00010B50446AFF23303002241F20301204667
:10F5000000F028FD0020D4F89C12087010BD704750
:10F51000FEB504460D4617461E46D4F8A8020088DC
:10F5200080B2ADF8000000208DF8020008208DF8B0
:10F530000300E8B28DF80400290A8DF805108DF853
:10F5400006702EB90021CDF807108DF80B1005E0DC
:10F550003168CDF8071031798DF80B10D4F87402AA
:10F56000694609F0B0FBFEBD2DE9F04704460E46A2
:10F5700090469946002517E004F52B7030F82500D9
:10F58000B0420FD104F52B7000EB8500C07810B1AC
:10F590000020BDE8F087012104F52B7000EB850009
:10F5A000C17003E0681CC5B2082DE5DB00BF082D63
:10F5B0000DD1002508E004F52B7000EB8500C07824
:10F5C00000B903E0681CC5B2082DF4DB00BF082DAC
:10F5D00008D100236BA243F253016EA00BF0CAF9CD
:10F5E0000120D6E704F52B7020F8256000EB85009C
:10F5F00080F80280012104F52B7000EB8500C170BA
:10F60000012084F89802002500270EE004F52B70F5
:10F6100000EB8500C078012805D104F52B7000EBC4
:10F62000850080780743681CC5B2082DEEDBD4F84E
:10F63000A402077094F89902401EC5B20BE0D4F8FA
:10F64000A00200EB850050F8040CD4F8A01241F899
:10F650002500681EC5B2002DF1DC46EA0940D4F849
:10F66000A0120860D4F89C02007894F8991288429D
:10F6700004DAD4F89C020178491C017040F2CF10E2
:10F68000005D40B1D4F8A402027800233146204640
:10F69000FFF73EFF7DE701207BE72DE9F0410546BE
:10F6A0000F464FF00008002408E005F52B7030F8F5
:10F6B0002400B84200D103E0601CC4B2082CF4DB83
:10F6C00000BF082C34D005F52B7000EB8400C07807
:10F6D00001282DD1002105F52B7000EB8400C170AD
:10F6E000002400260FE005F52B7000EB8400C078A5
:10F6F000012806D1804605F52B7000EB8400807848
:10F700000643601CC4B2082CEDDBB8F1000F0CD12D
:10F71000002085F8980240F2CF10405D28B1002308
:10F720001A4619462846FFF7F3FED5F8A4020670DC
:10F73000BDE8F0812DE9F84305460C46E07808283D
:10F7400008D0238816A241F2560112A00BF012F93C
:10F75000BDE8F883207800F07F062179607941EADE
:10F76000002794F80680E01D0090D5F8CCC24346EF
:10F770003A4631462846E04700BFE9E710B5029C0B
:10F7800010BD00006572726F725F64617461206603
:10F79000756C6C00307825782025732025640A006C
:10F7A0004572726F722073697A6520454D43592EF8
:10F7B00020436F62496420203A20000002460F2057
:10F7C0001F2902DA02F50173585C704770B50446D0
:10F7D0000D46D4F8F00150F82500C0F307464FF06D
:10F7E000FF30D4F8F41121F81500012104F501705F
:10F7F0008155D4F8002231462046904770BD2DE94E
:10F80000FE4F04460F46387800F07F05B87801288F
:10F8100029D120680078A84279D12068007800F5C5
:10F82000E066ADF8006001208DF8030000208DF83F
:10F83000020094F8CC018DF8040094F8700248B1ED
:10F840009DF8040040F080008DF80400002084F84A
:10F85000700202E0012084F87002D4F87402694654
:10F8600009F031FA53E0387900F07F08D4F830021B
:10F87000017804F50D7041553038405D404509D0A0
:10F88000D4F86C32424629462046984704F5017068
:10F8900000F8058004F50170405D20B9D4F86822B5
:10F8A00029462046904704F50170405D0F282DD071
:10F8B000002625E0D4F8F00150F82600C0F30749EF
:10F8C0004D451BD1D4F8F00130F826001FFA80FA1C
:10F8D000D4F8F41131F9160005F09FFF00200090D4
:10F8E00064200AFB00F3AFF21B123146204605F0FC
:10F8F0003FFFD4F8F41121F8160000BF701CC6B207
:10F90000D4F8EC010078B042D4DC00BF00BFBDE801
:10F91000FE8FFEB504460E46D4F8F8010088A8B163
:10F920002068007800F5E065ADF8005001208DF802
:10F93000030000208DF8020094F8CC018DF804003B
:10F94000D4F87402694609F0BEF905E0B4F9FC0187
:10F9500005F063FFA4F8FC01FEBD70B504460E4639
:10F96000D4F82C02008860B3002527E004F501706C
:10F97000405D0F2820D020680078A8421CD004F5F4
:10F980000D70405D00280BDCD4F8280220B1D4F8BB
:10F990002822294620469047012104F5017041554F
:10F9A00004F50D70405D401EC1B204F50D70415567
:10F9B0002946204600F00EF9681CC5B21F2DD5DB84
:10F9C00005E0B4F9240205F028FFA4F8240270BD74
:10F9D000F8B50446734B002241F20C01204600F0BA
:10F9E000B9FA704B002241F20D01204600F0B2FA44
:10F9F000D4F82C02008850B3D4F83002007830B329
:10FA0000D4F82C020688642106FB01F006FB01F302
:10FA1000AFF2B90200210090204605F0A9FEA4F83B
:10FA20002402002510E004F50170405D0F2809D084
:10FA300020680078A84205D0D4F83002017804F597
:10FA40000D704155681CC5B21F2DECDB00BFF8BD21
:10FA500010B50446B4F9240205F0DFFEA4F8240230
:10FA600010BD70B504460D4616462046FFF7F0FF60
:10FA70002046FFF7ADFF002070BDF8B504460E46E6
:10FA80001746B4F9FC0105F0C8FEA4F8FC01D4F84F
:10FA9000F801008880B1D4F8F8010588642105FBDD
:10FAA00001F00023AFF2951219460090204605F0B0
:10FAB0005FFEA4F8FC0100BF0020F8BDF8B50446C5
:10FAC000AFF24903002241F21701204600F042FA4A
:10FAD000002084F87002002516E0D4F8F00130F818
:10FAE000250086B276B100200090642006FB00F36A
:10FAF000AFF227322946204605F03AFED4F8F41139
:10FB000021F81500681CC5B2D4F8EC010078A842B1
:10FB1000E3DCD4F8F801008888B1D4F8F80106884D
:10FB2000642106FB01F006FB01F3AFF2192200216C
:10FB30000090204605F01CFEA4F8FC0100BFF8BDB3
:10FB400070B5044600250BE0D4F8F41131F9150026
:10FB500005F063FED4F8F41121F81500681CC5B255
:10FB6000D4F8EC010078A842EEDCB4F9FC0105F011
:10FB700054FEA4F8FC0170BD10B504462046FFF702
:10FB80009DFF2046FFF724FF10BD10B50446204618
:10FB9000FFF7D6FF2046FFF75BFF10BD70477047A9
:10FBA0007047704763FA0008FEB504460D461646D6
:10FBB0000020ADF800008DF8020002208DF803004F
:10FBC0008DF804608DF80550D4F87402694609F088
:10FBD0007AF8FEBDFEB504460D4645F4E066ADF884
:10FBE000006001208DF8020000208DF80300D4F899
:10FBF0007402694609F067F8FEBD70B504460D460B
:10FC00000F2104F5017041555DB9002000BF05E0EA
:10FC10000F2204F501710A54411CC8B21F28F7DBFA
:10FC200000BF29462046FFF7D5FF70BD70B50446DA
:10FC30000D4694F8CC017F2807D094F8CC01052814
:10FC400003D094F8CC0104285FD1687920B1687999
:10FC500021680978884258D12879802824D004DC8A
:10FC6000012807D002284FD111E0812829D082280D
:10FC70004AD132E094F8CC017F2803D094F8CC012B
:10FC8000042803D10521204604F05EFD3CE094F8F1
:10FC9000CC017F2803D094F8CC01052803D104219E
:10FCA000204604F051FD2FE094F8CC01052803D044
:10FCB00094F8CC01042803D17F21204604F044FDB0
:10FCC00022E0D4F8E40118B1D4F8E41120468847C2
:10FCD0000021204604F038FD16E0204604F098FD8F
:10FCE0000646D4F8E80118B1D4F8E8112046884750
:10FCF000FF20216808703146204604F08DFD002168
:10FD0000204604F021FD00BF00BF70BD3EB5044693
:10FD10002168097841F4E060ADF8000000208DF81A
:10FD2000020001208DF8030000208DF80400D4F8B3
:10FD30007402694608F0C7FF3EBD000030B50546B5
:10FD4000039C002030BD2DE9FC5F81468A461446A5
:10FD50009846DDE90C6BD9F8783201AA514648463D
:10FD600098470546019810B10198BDE8FC9F287995
:10FD7000A04209DC854800231A46214600905046DF
:10FD8000FFF7DCFF8148F0E70E9880B1286800EBB0
:10FD90000410007800F0010048B17D4800231A46A5
:10FDA000214600905046FFF7C9FF7948DDE7B8F1DA
:10FDB000000F02D14FF00060D7E7286800EB041075
:10FDC00040683168884206D9286800EB0410406812
:10FDD00030607048C9E7286800EB041040788BF861
:10FDE0000000286800EB04104768286800EB041046
:10FDF0003A46816840460DF029FB9BF8000009282F
:10FE000001D037600DE0286800EB041040683168CD
:10FE1000884205D2002008F80700781C306000E016
:10FE200037600020A1E72DE9FF4F83B080468B4665
:10FE30001546109CD8F8783202AA59464046984791
:10FE40000646029818B1029807B0BDE8F08F3079E5
:10FE5000A84209DC4D4800900022294658462368F4
:10FE6000FFF76CFF4948EFE7119888B1306800EB65
:10FE70000510007802280BD14548401C0090002254
:10FE8000294658462368FFF759FF4148401CDBE7E5
:10FE9000306800EB051090F80190306800EB051019
:10FEA0004768306800EB0510D0F80CA0206810B14E
:10FEB0002068B84243D8D8F824204846069990478D
:10FEC0000290029848B1029800903A462946584656
:10FED0002368FFF733FF0298B6E7316801EB05119D
:10FEE0008868226806990DF0B1FAB9F1090F09D1B5
:10FEF0002068B84206D20020316801EB05118968FC
:10FF0000226888542760BAF1000F08D02A4631468B
:10FF10004046D0470290029808B1029894E73068B2
:10FF200000EB0510007800F0040030B1D8F87C3206
:10FF30002A4659464046984786E7002084E72760CE
:10FF4000154800903A46294658462368FFF7F6FEC2
:10FF5000114879E72DE9F8430546884614461E46C0
:10FF6000D5F878326A4641462846984707460098B1
:10FF700030B93879A04203DD386800EB0410C66060
:10FF80000098BDE8F8830346002070471100090679
:10FF90000100010605000405100007062DE9F843DD
:10FFA00004460D4617469846DDE90896022E05D010
:10FFB000032E03D0042E01D0052E13D1002041F2D0
:10FFC0008833FE4A29460090204605F0D1FBC5EB58
:10FFD000C50101EB410204F1280101EB8201A1F806
:10FFE0004C0015E0C5EBC50101EB410204F128010D
:10FFF00001EB8201B1F94C0005F00FFCC5EBC50126
:020000040801F1
:1000000001EB410204F1280101EB8201A1F84C004F
:10001000C5EBC50000EB400104F1280000F8217099
:10002000C5EBC50000EB400104F1280000EB8100A6
:10003000A0F80880C5EBC50000EB400104F12800E2
:1000400000EB810080F80A90C5EBC50000EB400191
:1000500004F1280000EB810086700021C5EBC5008B
:1000600000EB400204F1280000EB8200C170C5EBF8
:10007000C50000EB400204F1280000EB8200C160E3
:10008000C5EBC50000EB400204F1280000EB820044
:100090000161C5EBC50000EB400204F1280000EB54
:1000A000820080F83410C5EBC50000EB400204F17B
:1000B000280000EB820080F83510C5EBC50000EB8E
:1000C000400204F1280000EB820080F83610C5EBF6
:1000D000C50000EB400204F1280000EB82008163C0
:1000E000C5EBC50000EB400204F1280000EB8200E4
:1000F000C163C5EBC50000EB400204F1280000EB32
:10010000820080F84010C5EBC50000EB400204F10E
:10011000280000EB820080F84110C5EBC50000EB21
:10012000400204F1280000EB820080F84210C5EB89
:10013000C50000EB400204F1280000EB820080F8CB
:100140004B10C5EBC50000EB400204F1280000EBAA
:10015000820001650020BDE8F8837CB504460D46A9
:100160000020009003460246294601902046FFF7F2
:1001700015FF00260BE00021C5EBC50000EB400297
:1001800004F1280000EB820014308155761C202EEB
:10019000F1D30021C5EBC50000EB400204F12800BB
:1001A00000EB82004170C5EBC50000EB400204F19A
:1001B000280000EB820041607CBD2DE9FE4304462F
:1001C00088461646994694F8CC01052806D094F83E
:1001D000CC017F2802D0FF20BDE8FE83B8F1010FDB
:1001E0001AD16069058825B1A819A16909888842D2
:1001F00008DD002372A241F6422179A00AF0BAFB81
:10020000FF20E9E76068A91950F83100806A00888A
:1002100080B2ADF8000019E06069458825B1A819E1
:10022000A1694988884208DD002370A241F6422175
:100230006BA00AF09FFBFF20CEE76068A91950F879
:1002400031008069008880B2ADF8000000208DF890
:10025000020008208DF80300002705E019F80710B8
:1002600001A8C155781CC7B2082FF7DBD4F8740277
:10027000694608F028FDAFE72DE9FC4706460F4622
:1002800090461D46DDE90A9480208DF80000E8B212
:100290008DF80100280A8DF802008DF80390E0B275
:1002A0008DF80400200A8DF80500200C8DF806005A
:1002B000200E8DF807006B46424639463046FFF760
:1002C0007CFF82465046BDE8FC872DE9FC41044690
:1002D0000D466069468866B1C5EBC50000EB40017C
:1002E00004F1280010F821003044A16949888842AF
:1002F00001DDBDE8FC816168C5EBC50000EB400293
:1003000004F1280010F82200304451F83000806BCE
:10031000077800233DA241F6012131A00AF02AFB13
:100320004FF0FF31C5EBC50000EB400204F128009F
:1003300000EB8200A0F84C108521C5EBC50000EB56
:10034000400204F1280000EB820081703949C5EBBE
:10035000C50000EB400204F1280000EB8200807A27
:10036000CDE90001C5EBC50000EB400C04F128000D
:1003700000EB8C000389C5EBC50000EB400C04F1D9
:10038000280010F82C20C5EBC50000EB400C04F150
:10039000280000EB8C0041782046FFF76DFF2549CF
:1003A000C5EBC50000EB400204F1280000EB820021
:1003B0004160C5EBC50000EB40013DE0CB02010808
:1003C00053656E6453444F203A2053444F20736565
:1003D00072766572206E6F7420666F756E640000B1
:1003E000307825782025732025640A0053656E64D3
:1003F00053444F203A2053444F20636C69656E7418
:10040000206E6F7420666F756E64000053444F2039
:1004100074696D656F75742E2053444F2072657337
:10042000706F6E7365206E6F742072656365697698
:1004300065642E000000040504F1280000EB810033
:10044000006D58B1C5EBC50000EB400104F1280078
:1004500000EB8100026D394620469047C5EBC50090
:1004600000EB400104F1280000EB81004068FE49E8
:10047000884203D1E9B22046FFF76FFE00BF38E79C
:1004800070B50546002405E021462846FFF765FEC5
:10049000601CC4B2052CF7DB70BD2DE9FF4104469A
:1004A0000D46C5EBC50000EB400104F1280000EB50
:1004B0008100C06888B9C5EBC50000EB400104F1BC
:1004C000280000EB81000169C5EBC50000EB40028C
:1004D00004F1280000EB8200C160C5EBC50000EB11
:1004E000400104F1280000EB8100C0680390012066
:1004F00003AACDE900200290C5EBC50000EB400740
:1005000004F1280000EB870000F11403C5EBC500DF
:1005100000EB400704F1280000EB8700827AC5EB6E
:10052000C50000EB400704F1280000EB87000189BB
:100530002046FFF778FC06461EB1304604B0BDE801
:10054000F0810020FAE7F0B587B004460D46202080
:100550000690012005AA06ABCDE901200093039087
:10056000C5EBC50000EB400704F1280000EB870055
:1005700000F11403C5EBC50000EB400704F12800AF
:1005800000EB8700827AC5EBC50000EB400704F161
:10059000280000EB870001892046FFF7D4FB0646C0
:1005A00016B1304607B0F0BDC5EBC50000EB400208
:1005B00004F1280000EB82000699C1600021C5EB20
:1005C000C50000EB400204F1280000EB820001614D
:1005D0000020E7E72DE9F04704460D461646984609
:1005E000C5EBC50000EB400104F1280000EB8100E1
:1005F0000069304420280AD933469CA241F61021D4
:10060000AFF224200AF0B6F9FF20BDE8F087C5EB71
:10061000C50000EB400104F1280000EB81000069F7
:100620008119C5EBC50000EB400204F1280000EB86
:100630008200C068814209D933469BA241F611214C
:10064000AFF264200AF096F9FF20DEE7C5EBC500A3
:1006500000EB400104F1280000EB8100D0F810907D
:1006600000270FE0C5EBC50000EB400104F12800B6
:1006700000EB8100143009EB0701405C08F807002B
:10068000781CC7B2B742EDD3C5EBC50000EB400103
:1006900004F1280000EB810000698119C5EBC50059
:1006A00000EB400204F1280000EB82000161002011
:1006B000ABE72DE9F04704460D4616469846C5EBD4
:1006C000C50000EB400104F1280000EB8100006947
:1006D000304420280AD9334664A241F61521AFF2EE
:1006E00000300AF047F9FF20BDE8F087C5EBC500F0
:1006F00000EB400104F1280000EB8100D0F81090DD
:1007000000270FE018F80710C5EBC50000EB40020A
:1007100004F1280000EB8200143009EB0702815439
:10072000781CC7B2B742EDD3C5EBC50000EB400162
:1007300004F1280000EB810000698119C5EBC500B8
:1007400000EB400204F1280000EB82000161002070
:10075000CAE770B504460D4600212FE0C1EBC10089
:1007600000EB400604F1280000EB8600807818B307
:10077000C1EBC10000EB400604F1280000EB86004D
:100780008078852818D0C1EBC10000EB400604F149
:10079000280010F82600A8420ED1C1EBC10000EBE2
:1007A000400604F1280000EB86004078904203D117
:1007B00003B11970002070BD481CC1B20529CDDB02
:1007C000FF20F8E72DE9FE4F04460F4615469946EF
:1007D000DDE90CA802AB2A4639462046FFF7B9FFEF
:1007E000064636B9012D04D19DF808102046FFF7C2
:1007F000B4FC9EBB022D31D19DF80810C1EBC101A4
:1008000001EB410204F1280101EB8201B1F94C0036
:1008100005F003F89DF80810C1EBC10101EB41029E
:1008200004F1280101EB8201A1F84C0085219DF81B
:100830000800C0EBC00000EB400204F1280000EB10
:10084000820081709DF80800C0EBC00000EB400101
:1008500004F1280000EB8100C0F804804B463A46C2
:100860002946204636E000000000040553444F208E
:1008700053697A65206F66206461746120746F6FBC
:10088000206C617267652E2045786365656420532E
:10089000444F5F4D41585F4C454E4754485F54525A
:1008A000414E53464552000053444F2053697A65E8
:1008B000206F66206461746120746F6F206C6172B8
:1008C00067652E2045786365656420636F756E7477
:1008D00000000000CDE900A8FFF7CEFC064616B1E7
:1008E000FF20BDE8FE8F0020FBE72DE9F041054623
:1008F0000E461746002418E0C4EBC40000EB40018C
:1009000005F1280000EB8100807860B93C70C4EBF1
:10091000C40000EB400105F1280000EB81004670A7
:100920000020BDE8F081601CC4B2052CE4DB234646
:10093000F9A241F62521AFF258500AF01BF8FF202A
:10094000EFE770B504460D46002124E0C1EBC1007D
:1009500000EB400604F1280000EB86008078C0B16F
:10096000C1EBC10000EB400604F1280010F826009E
:10097000A8420ED1C1EBC10000EB400604F12800F3
:1009800000EB86004078904203D103B1197000203B
:1009900070BD481CC1B20529D8DBFF20F8E72DE95E
:1009A000F04704460F464FF0000960694588A0698A
:1009B000B0F802A055B93B46E0A241F6C621AFF21D
:1009C000E05009F0D7FFFF20BDE8F08700261FE0C8
:1009D000606800EBC500007903280ADC06F5945333
:1009E000E0A241F6C821AFF2086009F0C3FFFF2082
:1009F000EAE7606850F83500806B90F80080B845F1
:100A000002D14FF0010905E0681C85B2701CC6B226
:100A10005545DDDD00BFB9F1000F01D1FE20D3E760
:100A20003046D1E72DE9F84306460F469046394651
:100A30003046FFF7B4FF0546FE2D02DB8520BDE8FA
:100A4000F8836B46424629463046FFF77AFF044654
:100A50000CB1FF20F3E79DF800103046FFF77DFB57
:100A60000020ECE730B50346C1EBC10000EB4004C9
:100A700003F1280000EB8400C06810B9002010606A
:100A800013E0C1EBC10000EB400403F1280000EBD0
:100A90008400C468C1EBC10000EB400503F12800ED
:100AA00000EB85000069201A1060002030BD70B591
:100AB00006460D461446202C0AD92346AFF254228E
:100AC00041F63521AFF2E86009F054FFFF2070BD18
:100AD000C5EBC50000EB400106F1280000EB8100EA
:100AE000C4600020F3E703B599B00020169014907D
:100AF0000320129000200990032012901998406959
:100B000000880890199880690088079000200A9052
:100B10000898002836D030E019984168089801EB11
:100B2000C000007901280EDC0A9800F590500346B9
:100B300094A241F661210290AFF25C7009F01AFFB5
:100B4000FF201BB000BD19984168089851F830008B
:100B500080690990099801681A980088814204D137
:100B6000012012900A9813900BE00A98401CC0B222
:100B70000A900898401C80B20890DDE9071088426E
:100B8000CADD00BF129803284AD1199840694088ED
:100B90000890199880694088079000200A9008986A
:100BA00000283DD037E019984168089801EBC00053
:100BB000007903280DDC0A9800F59450034669A2D9
:100BC00041F663210290AFF2E87009F0D3FEFF20F6
:100BD000B7E719984168089851F83000806A099081
:100BE000099801681A98008881420CD1022012905D
:100BF0000A98139019984168089851F83000806B52
:100C0000007814900BE00A98401CC0B20A90089833
:100C1000401C80B20890DDE907108842C3DD00BFA8
:100C20001298032801D1FF208BE71A98C078082872
:100C300014D000235BA241F66721AFF65C0009F0F7
:100C400099FE4FF0006100200346CDE90001DDE987
:100C500012211998FFF7B6FDFF2072E716ABDDE908
:100C600012211998FFF775FD1890FF20179018981A
:100C700028BB129801280CD19DF85800C0EBC00089
:100C800000EB40011998283000EB8100807804289F
:100C90000FD01298022815D19DF85800C0EBC00063
:100CA00000EB40011998283000EB8100807805287E
:100CB00008D11A980079802802D10420179001E009
:100CC000062017901798FF2803D11A980079401131
:100CD00017901798072882F02687DFE810F00700A2
:100CE0003B0301063908CE0A3C0BB81012980128C4
:100CF00011D1189870B99DF85800C0EBC00000EBF6
:100D000040011998283000EB81008078022851D0EA
:100D1000012050E050E070E1546F6F206D616E79FA
:100D20002053444F20696E2070726F677265737331
:100D30002E2041626F727465642E00004E6F205346
:100D4000444F20636C69656E7420696E6465782019
:100D5000666F756E6420666F72206E6F646549649D
:100D600020000000537562696E646578203320208E
:100D70006E6F7420666F756E6420617420696E6496
:100D800065782000537562696E6465782031202093
:100D90006E6F7420666F756E6420617420696E6476
:100DA000657820004572726F722073697A652053EE
:100DB000444F000000201890189898B1FA4A41F664
:100DC0007021AFF6E410139B09F0D4FDF749002021
:100DD0000346CDE90001DDE912211998FFF7F2FC85
:100DE000FF20AEE69DF85800C0EBC00000EB4001CC
:100DF0001998283000EB8100B0F94C00401C98B3E2
:100E00009DF85800C0EBC00000EB40011998283055
:100E100000EB8100B0F94C00029004F0FEFC0146AA
:100E20009DF85800C0EBC00000EB40021998283034
:100E300000EB8200A0F84C10002041F28833AFF69E
:100E4000753200909DF85810199804F091FC0146F5
:100E50009DF85800C0EBC00000EB40021998283004
:100E600000EB8200A0F84C109DF85800C0EBC000C9
:100E700000EB40011998283000EB810000890E90AA
:100E80009DF85800C0EBC00000EB400119982830D5
:100E900000EB8100807A0D909DF85800C0EBC000F7
:100EA00000EB40011998283000EB8100C1781A98B6
:100EB0000079C0F30010814218D01A980079C0F36D
:100EC00000100346BAA241F672210290AFF6F0205C
:100ED00009F050FDBD490D98CDE900010E9BDDE9FB
:100EE00012211998FFF76EFCFF202AE61A98007964
:100EF000C0F34200C0F1070015901A98431D9DF8F9
:100F00005810159A1998FFF7D4FB1890189860B1EB
:100F10004FF000610D98CDE900010E9BDDE9122133
:100F20001998FFF74FFCFF200BE69DF85800C0EB27
:100F3000C00000EB40011998283000EB8100C17817
:100F4000202040EA0110C0B28DF83C0001200B9037
:100F500006E000210FAA0B9811540B98401C0B902F
:100F60000B980828F5D30FABDDE912121998FFF79B
:100F700024F99DF85800C0EBC00000EB400119981F
:100F8000283000EB8100C07808B9012000E0002083
:100F900000F001019DF85800C0EBC00000EB4002DA
:100FA0001998283000EB8200C1701A98007900F07F
:100FB0000100002820D09DF858101998FFF76DFA0D
:100FC0001190119898B1002381A241F65421AFF6F7
:100FD000F03009F0CFFC11990D98CDE900010E9B7E
:100FE000DDE912211998FFF7EDFBFF20A9E59DF837
:100FF00058101998FFF7B1F8AAE1189880B99DF830
:101000005800C0EBC00000EB40011998283000EBFD
:1010100081008078032801D0012000E00020189092
:10102000189898B17A4A41F67521AFF64C40149B56
:1010300009F0A0FC5D4800210B46CDE90010DDE978
:1010400012211998FFF7BEFBFF207AE59DF85800A2
:10105000C0EBC00000EB40011998283000EB810084
:10106000B0F94C00401C98B39DF85800C0EBC0008C
:1010700000EB40011998283000EB8100B0F94C00DA
:10108000029004F0CAFB01469DF85800C0EBC00076
:1010900000EB40021998283000EB8200A0F84C10B9
:1010A000002041F28833AFF6DD5200909DF85810D1
:1010B000199804F05DFB01469DF85800C0EBC00094
:1010C00000EB40021998283000EB8200A0F84C1089
:1010D0009DF85800C0EBC00000EB40011998283083
:1010E00000EB810000890E909DF85800C0EBC00015
:1010F00000EB40011998283000EB8100807A0D90B8
:101100009DF85800C0EBC00000EB40011998283052
:1011100000EB8100C1781A980079C0F30010814279
:1011200013D03CA241F67621AFF64C50149B09F047
:1011300021FC26490D98CDE900010E9BDDE9122125
:101140001998FFF73FFBFF20FBE41A980079C0F3E2
:101150004200C0F1070015901A98431D9DF85810E1
:10116000159A1998FFF7A5FA1890189860B14FF0E2
:1011700000610D98CDE900010E9BDDE9122119985F
:10118000FFF720FBFF20DCE49DF85800C0EBC00017
:1011900000EB40011998283000EB8100C07808B9B5
:1011A000012058E056E00000ACE8010821000008EA
:1011B00053444F206572726F72203A20546F6767F4
:1011C0006C65206572726F72203A20000000030582
:1011D00053444F206572726F72203A20556E6162DF
:1011E0006C6520746F20636F70792074686520646B
:1011F00061746120696E20746865206F626A65633E
:10120000742064696374696F6E6172790000000014
:101210004CEB010853444F206572726F72203A20E4
:101220005265636569766564207365676D656E7484
:1012300020726573706F6E736520546F67676C659D
:10124000206572726F722E2066726F6D206E6F64F1
:1012500065496400002000F001019DF85800C0EBD2
:10126000C00000EB40021998283000EB8200C170EA
:101270001A98007900F00100F0B39DF85800C0EB17
:10128000C00000EB40011998283000EB8100B0F954
:101290004C00029004F0C1FA01469DF85800C0EBE2
:1012A000C00000EB40021998283000EB8200A0F843
:1012B0004C1001219DF85800C0EBC00000EB40022B
:1012C0001998283000EB820081709DF85800C0EB1F
:1012D000C00000EB40011998283000EB8100006D40
:1012E000B0B39DF85800C0EBC00000EB4001199866
:1012F000283000EB810000E006E0006D0290029AC9
:1013000014991998904723E09DF85800C0EBC0004D
:1013100000EB40011998283000EB8100C178602073
:1013200040EA0110C0B28DF83C0001200B9006E0AD
:1013300000210FAA0B9811540B98401C0B900B988E
:101340000828F5D30FABDDE912121998FEF735FF27
:1013500002F01FBC1298012876D11A984179807941
:1013600041EA00200E901A98C0790D90189898B90B
:101370000023F0A241F68121AFF69C7009F0FAFA41
:10138000F6490D98CDE900010E9BDDE9122119986F
:10139000FFF718FAFF201BE416AA12991998FFF715
:1013A000A4FA1890189898B10023EDA241F6822172
:1013B000AFF6D47009F0DEFAE8490D98CDE90001E6
:1013C0000E9BDDE912211998FFF7FCF9FF202BE4B1
:1013D00002210D98CDE900019DF858100E9B139A3B
:1013E0001998FEF7DBFD1A980079C0F3400060B34E
:1013F0001A980079C0F38100C0F1040015909DF89F
:101400005800C0EBC00000EB40021998283000EBF8
:1014100082001599C1601A9800F108039DF85810D0
:10142000159A1998FFF745F91890189870B14FF070
:1014300000610D98CDE900010E9BDDE9122119989C
:10144000FFF7C0F9FF2008E46DE021E09DF8581097
:101450001998FFF722F81190119898B10023AFF274
:10146000902241F68421CE4809F084FA11990D9812
:10147000CDE900010E9BDDE912211998FFF7A2F9D1
:10148000FF20AEE49DF858101998FEF766FE28E09C
:101490001A98007900F0010018B31A98017A407A7E
:1014A00001EB00211A98807A01EB00411A98C07A6A
:1014B00001EB006015909DF85810159A1998FFF7E8
:1014C000F6FA1890189860B14FF000610D98CDE9C8
:1014D00000010E9BDDE912211998FFF773F9FF2037
:1014E0007FE460208DF83C000E98C0B28DF83D007E
:1014F0000E98000A8DF83E000D988DF83F000420EC
:101500000B9006E000210FAA0B9811540B98401C79
:101510000B900B980828F5D30FABDDE91212199840
:10152000FEF74BFEDBE1189880B99DF85800C0EB40
:10153000C00000EB40011998283000EB8100807852
:10154000022801D0012000E000201890189890B1E6
:10155000944A41F685219248149B09F00BFA7F4882
:1015600000210B46CDE90010DDE912211998FFF7A3
:1015700029F9FF2035E49DF85800C0EBC00000EBCE
:1015800040011998283000EB8100B0F94C00401C54
:1015900090B39DF85800C0EBC00000EB40011998D3
:1015A000283000EB8100B0F94C00029004F035F9CE
:1015B00001469DF85800C0EBC00000EB40021998AE
:1015C000283000EB8200A0F84C10002041F2883354
:1015D000754A00909DF85810199804F0C9F8014612
:1015E0009DF85800C0EBC00000EB4002199828306D
:1015F00000EB8200A0F84C109DF85800C0EBC00032
:1016000000EB40011998283000EB810000890E9012
:101610009DF85800C0EBC00000EB4001199828303D
:1016200000EB8100807A0D909DF85800C0EBC0005F
:1016300000EB40011998283000EB8100C1781A981E
:101640000079C0F30010814213D0AFF2384241F666
:1016500086215348149B09F08DF954490D98CDE922
:1016600000010E9BDDE912211998FFF7ABF8FF206E
:101670003BE415AA9DF858101998FFF7F3F915984F
:10168000F0BB9DF85800C0EBC00000EB400119987A
:10169000283000EB8100B0F94C00029004F0BDF856
:1016A00001469DF85800C0EBC00000EB40021998BD
:1016B000283000EB8200A0F84C1001219DF8580062
:1016C000C0EBC00000EB40021998283000EB82000C
:1016D00081709DF85800C0EBC00000EB40011998E4
:1016E000283000EB8100006D88B19DF85800C0EBF8
:1016F000C00000EB40011998283000EB810000E0A9
:1017000007E0006D0290029A149919989047002002
:101710000AE4159807287DD99DF85800C0EBC00051
:1017200000EB40011998283000EB8100C078F8BB2D
:1017300001203FE053444F206572726F72203A20BF
:101740005472616E736D697373696F6E207965741D
:1017500020737461727465642E000000210000081B
:1017600053444F206572726F72203A204E6F206C86
:10177000696E6520667265652C20746F6F206D61DF
:101780006E792053444F20696E2070726F677265C6
:1017900073732E2041626F727465642E0000000026
:1017A000E00301084CEB0108CB020108000003052F
:1017B000FFE7002000F001019DF85800C0EBC000D9
:1017C00000EB40021998283000EB8200C1709DF8B0
:1017D0005800C0EBC00000EB40011998283000EB26
:1017E0008100C0780007000E8DF83C000DF13D032C
:1017F00007229DF858101998FEF7ECFE18901898DB
:10180000F0B34FF000610D98CDE900010E9BDDE9CA
:10181000122100E004E01998FEF7D4FFFF2014E441
:101820009DF85800C0EBC00000EB4001199828302B
:1018300000EB8100C07808B9012000E0002000F032
:1018400001019DF85800C0EBC00000EB4002199860
:10185000283000EB8200C1709DF85800C0EBC0003A
:1018600000EB40011998283000EB8100C07801019D
:101870001598C0F1070041EA4000401CC0B200E0EA
:1018800027E08DF83C000DF13D039DF85810159AA6
:101890001998FEF79FFE1890189860B14FF00061FC
:1018A0000D98CDE900010E9BDDE912211998FEF794
:1018B00089FFFF2048E41598401C0B9006E00021AA
:1018C0000FAA0B9811540B98401C0B900B980828EA
:1018D000F5D30FABDDE912121998FEF76EFC37E570
:1018E000129801287ED11A984179807941EA002026
:1018F0000E901A98C0790D90189898B99DF85830A4
:10190000F2A241F69221FD4809F034F8FC490D9805
:10191000CDE900010E9BDDE912211998FEF752FF77
:10192000FF2011E416AA12991998FEF7DEFF18900D
:10193000189898B10023AFF2D81241F67121EF4800
:1019400009F018F8EE490D98CDE900010E9BDDE98C
:1019500012211998FEF736FFFF2014E403220D9898
:10196000CDE900029DF858100E9B139A1998FEF7C6
:1019700015FB9DF858101998FEF7E5FD1190119888
:1019800090B1E04A41F69421DC48119B08F0F2FF47
:1019900011990D98CDE900010E9BDDE912211998EE
:1019A000FEF710FFFF20F6E415AA9DF858101998CD
:1019B000FFF758F81598042826D941208DF83C00E7
:1019C0000E98C0B28DF83D000E98000A8DF83E00CA
:1019D0000D988DF83F001598C0B28DF8400015980D
:1019E000000A00E056E08DF841001598000C8DF8D3
:1019F00042001598000E8DF843000FABDDE912127E
:101A00001998FEF7DAFBA2E11598C0F10400402115
:101A100041EA8000C01CC0B28DF83C000E98C0B2F4
:101A20008DF83D000E98000A8DF83E000D988DF857
:101A30003F0010AB9DF85810159A1998FEF7CAFD93
:101A40001890189860B14FF000610D98CDE9000131
:101A50000E9BDDE912211998FEF7B4FEFF209AE4EF
:101A60001598001D0B9006E000210FAA0B98115449
:101A70000B98401C0B900B980828F5D30FABDDE9B1
:101A800012121998FEF799FB9DF858101998FEF755
:101A900064FB5CE1189880B99DF85800C0EBC00069
:101AA00000EB40011998283000EB81008078032872
:101AB00001D0012000E000201890189890B1924ABF
:101AC00041F697218D48149B08F054FF8C48002163
:101AD0000B46CDE90010DDE912211998FEF772FEE0
:101AE000FF2058E49DF85800C0EBC00000EB400117
:101AF0001998283000EB8100B0F94C00401C90B3DD
:101B00009DF85800C0EBC00000EB40011998283048
:101B100000EB8100B0F94C00029003F07EFE01461C
:101B20009DF85800C0EBC00000EB40021998283027
:101B300000EB8200A0F84C10002041F28833734A79
:101B400000909DF85810199803F012FE01469DF878
:101B50005800C0EBC00000EB40021998283000EBA1
:101B60008200A0F84C109DF85800C0EBC00000EBBC
:101B700040011998283000EB810000890E909DF8F3
:101B80005800C0EBC00000EB40011998283000EB72
:101B90008100807A0D901A980079C0F34000E0B37C
:101BA0001A980079C0F38100C0F1040015901A98CA
:101BB00000F108039DF85810159A1998FEF779FD61
:101BC0001890189860B14FF000610D98CDE90001B0
:101BD0000E9BDDE912211998FEF7F4FDFF2032E497
:101BE0009DF85800C0EBC00000EB40011998283068
:101BF00000EB8100B0F94C00029003F00EFE0146AC
