Component: ARM Compiler 5.06 update 6 (build 750) Tool: armlink [4d35ed]

==============================================================================

Section Cross References

    system_stm32f4xx.o(.text) refers to system_stm32f4xx.o(.data) for SystemCoreClock
    system_stm32f4xx.o(.text) refers to system_stm32f4xx.o(.constdata) for AHBPrescTable
    startup_stm32f407xx.o(RESET) refers to startup_stm32f407xx.o(STACK) for __initial_sp
    startup_stm32f407xx.o(RESET) refers to startup_stm32f407xx.o(.text) for Reset_Handler
    startup_stm32f407xx.o(RESET) refers to stm32f4xx_it.o(.text) for NMI_Handler
    startup_stm32f407xx.o(RESET) refers to port.o(.emb_text) for SVC_Handler
    startup_stm32f407xx.o(.text) refers to system_stm32f4xx.o(.text) for SystemInit
    startup_stm32f407xx.o(.text) refers to entry.o(.ARM.Collect$$$$00000000) for __main
    stm32f4xx_hal_flash_ex.o(.text) refers to main.o(.text) for assert_failed
    stm32f4xx_hal_flash_ex.o(.text) refers to stm32f4xx_hal_flash.o(.text) for FLASH_WaitForLastOperation
    stm32f4xx_hal_flash_ex.o(.text) refers to stm32f4xx_hal_flash.o(.bss) for pFlash
    stm32f4xx_hal.o(.text) refers to stm32f4xx_hal_cortex.o(.text) for HAL_SYSTICK_Config
    stm32f4xx_hal.o(.text) refers to stm32f4xx_hal_msp.o(.text) for HAL_MspInit
    stm32f4xx_hal.o(.text) refers to main.o(.text) for assert_failed
    stm32f4xx_hal.o(.text) refers to stm32f4xx_hal.o(.data) for uwTickFreq
    stm32f4xx_hal.o(.text) refers to system_stm32f4xx.o(.data) for SystemCoreClock
    stm32f4xx_hal_can.o(.text) refers to main.o(.text) for assert_failed
    stm32f4xx_hal_can.o(.text) refers to stm32f4xx_hal_msp.o(.text) for HAL_CAN_MspInit
==============================================================================

Removing Unused input sections from the image.

    Removing system_stm32f4xx.o(.rev16_text), (4 bytes).
    Removing system_stm32f4xx.o(.revsh_text), (4 bytes).
    Removing system_stm32f4xx.o(.rrx_text), (6 bytes).
    Removing startup_stm32f407xx.o(HEAP), (0 bytes).
    Removing stm32f4xx_hal_flash_ex.o(.rev16_text), (4 bytes).
    Removing stm32f4xx_hal_flash_ex.o(.revsh_text), (4 bytes).
    Removing stm32f4xx_hal_flash_ex.o(.rrx_text), (6 bytes).
    Removing stm32f4xx_hal.o(.rev16_text), (4 bytes).
    Removing stm32f4xx_hal.o(.revsh_text), (4 bytes).
    Removing stm32f4xx_hal.o(.rrx_text), (6 bytes).
    Removing stm32f4xx_hal_can.o(.rev16_text), (4 bytes).
    Removing stm32f4xx_hal_can.o(.revsh_text), (4 bytes).
    Removing stm32f4xx_hal_can.o(.rrx_text), (6 bytes).
    Removing stm32f4xx_hal_cortex.o(.rev16_text), (4 bytes).
    Removing stm32f4xx_hal_cortex.o(.revsh_text), (4 bytes).
    Removing stm32f4xx_hal_cortex.o(.rrx_text), (6 bytes).
    Removing stm32f4xx_hal_dma.o(.rev16_text), (4 bytes).
    Removing stm32f4xx_hal_dma.o(.revsh_text), (4 bytes).
==============================================================================

Image Symbol Table

    Local Symbols

    Symbol Name                              Value     Ov Type        Size  Object(Section)

    ../clib/../cmprslib/zerorunl2.c          0x00000000   Number         0  __dczerorl2.o ABSOLUTE
    ../clib/microlib/division.c              0x00000000   Number         0  ldiv.o ABSOLUTE
    ../clib/microlib/division.c              0x00000000   Number         0  uldiv.o ABSOLUTE
    ../clib/microlib/division.c              0x00000000   Number         0  uidiv.o ABSOLUTE
    ../clib/microlib/init/entry.s            0x00000000   Number         0  entry9b.o ABSOLUTE
    ../clib/microlib/init/entry.s            0x00000000   Number         0  entry.o ABSOLUTE
    ../clib/microlib/init/entry.s            0x00000000   Number         0  entry2.o ABSOLUTE
    ../clib/microlib/init/entry.s            0x00000000   Number         0  entry5.o ABSOLUTE
    ../clib/microlib/init/entry.s            0x00000000   Number         0  entry7a.o ABSOLUTE
    ../clib/microlib/init/entry.s            0x00000000   Number         0  entry7b.o ABSOLUTE
    ../clib/microlib/init/entry.s            0x00000000   Number         0  entry8a.o ABSOLUTE
    ../clib/microlib/init/entry.s            0x00000000   Number         0  entry10b.o ABSOLUTE
    ../clib/microlib/init/entry.s            0x00000000   Number         0  entry9a.o ABSOLUTE
    ../clib/microlib/init/entry.s            0x00000000   Number         0  entry11a.o ABSOLUTE
    ../clib/microlib/init/entry.s            0x00000000   Number         0  entry8b.o ABSOLUTE
    ../clib/microlib/init/entry.s            0x00000000   Number         0  entry10a.o ABSOLUTE
    ../clib/microlib/init/entry.s            0x00000000   Number         0  entry11b.o ABSOLUTE
    ../clib/microlib/longlong.c              0x00000000   Number         0  llsshr.o ABSOLUTE
    ../clib/microlib/longlong.c              0x00000000   Number         0  llshl.o ABSOLUTE
    ../clib/microlib/longlong.c              0x00000000   Number         0  llushr.o ABSOLUTE
    ../clib/microlib/printf/printf.c         0x00000000   Number         0  printfa.o ABSOLUTE
    ../clib/microlib/printf/printf.c         0x00000000   Number         0  printfb.o ABSOLUTE
    ../clib/microlib/printf/printf.c         0x00000000   Number         0  printf3.o ABSOLUTE
    ../clib/microlib/printf/printf.c         0x00000000   Number         0  printf0.o ABSOLUTE
    ../clib/microlib/printf/printf.c         0x00000000   Number         0  printf1.o ABSOLUTE
    ../clib/microlib/printf/printf.c         0x00000000   Number         0  printf2.o ABSOLUTE
    ../clib/microlib/printf/printf.c         0x00000000   Number         0  printf4.o ABSOLUTE
    ../clib/microlib/printf/printf.c         0x00000000   Number         0  printf5.o ABSOLUTE
    ../clib/microlib/printf/printf.c         0x00000000   Number         0  printf6.o ABSOLUTE
    ../clib/microlib/printf/printf.c         0x00000000   Number         0  printf7.o ABSOLUTE
    ../clib/microlib/printf/printf.c         0x00000000   Number         0  printf8.o ABSOLUTE
    ../clib/microlib/printf/stubs.s          0x00000000   Number         0  stubs.o ABSOLUTE
    ../clib/microlib/stdio/fputc.c           0x00000000   Number         0  fputc.o ABSOLUTE
    ../clib/microlib/stdio/semi.s            0x00000000   Number         0  semi.o ABSOLUTE
    ../clib/microlib/stdio/streams.c         0x00000000   Number         0  stdout.o ABSOLUTE
    ../clib/microlib/string/memcmp.c         0x00000000   Number         0  memcmp.o ABSOLUTE
    ../clib/microlib/string/memcpy.c         0x00000000   Number         0  memcpyb.o ABSOLUTE
    ../clib/microlib/string/memcpy.c         0x00000000   Number         0  memcpya.o ABSOLUTE
    ../clib/microlib/string/memset.c         0x00000000   Number         0  memseta.o ABSOLUTE
    ../clib/microlib/string/strcpy.c         0x00000000   Number         0  strcpy.o ABSOLUTE
    ../clib/microlib/string/strlen.c         0x00000000   Number         0  strlen.o ABSOLUTE
    ../clib/microlib/stubs.s                 0x00000000   Number         0  iusesemip.o ABSOLUTE
    ../clib/microlib/stubs.s                 0x00000000   Number         0  iusefp.o ABSOLUTE
    ../clib/microlib/time/localtime.c        0x00000000   Number         0  localtime_w.o ABSOLUTE
    ../clib/microlib/time/localtime.c        0x00000000   Number         0  localtime.o ABSOLUTE
    ../clib/microlib/time/localtime.c        0x00000000   Number         0  localtime_i.o ABSOLUTE
    ../clib/microlib/time/mktime.c           0x00000000   Number         0  mktime.o ABSOLUTE
    ../fplib/microlib/d2f.c                  0x00000000   Number         0  d2f.o ABSOLUTE
    ../fplib/microlib/f2d.c                  0x00000000   Number         0  f2d.o ABSOLUTE
    ../fplib/microlib/fpadd.c                0x00000000   Number         0  dadd.o ABSOLUTE
    ../fplib/microlib/fpdiv.c                0x00000000   Number         0  ddiv.o ABSOLUTE
    ../fplib/microlib/fpepilogue.c           0x00000000   Number         0  fepilogue.o ABSOLUTE
    ../fplib/microlib/fpepilogue.c           0x00000000   Number         0  depilogue.o ABSOLUTE
    ../fplib/microlib/fpfix.c                0x00000000   Number         0  dfixul.o ABSOLUTE
    ../fplib/microlib/fpfix.c                0x00000000   Number         0  dfixi.o ABSOLUTE
    ../fplib/microlib/fpfix.c                0x00000000   Number         0  dfixui.o ABSOLUTE
    ../fplib/microlib/fpflt.c                0x00000000   Number         0  dflti.o ABSOLUTE
    ../fplib/microlib/fpflt.c                0x00000000   Number         0  dfltui.o ABSOLUTE
    ../fplib/microlib/fpmul.c                0x00000000   Number         0  dmul.o ABSOLUTE
    ..\Ads1230\Src\ads1230_api.c             0x00000000   Number         0  ads1230_api.o ABSOLUTE
    ..\Ads1230\Src\ads1230_app.c             0x00000000   Number         0  ads1230_app.o ABSOLUTE
    ..\Ads1230\Src\ads1230_drv.c             0x00000000   Number         0  ads1230_drv.o ABSOLUTE
    ..\Ads1230\Src\cmsis_os.c                0x00000000   Number         0  cmsis_os.o ABSOLUTE
    ..\Ads1230\Src\delay.c                   0x00000000   Number         0  delay.o ABSOLUTE
    ..\Ads1230\Src\public_var.c              0x00000000   Number         0  public_var.o ABSOLUTE
    ..\BSP\bsp_dac.c                         0x00000000   Number         0  bsp_dac.o ABSOLUTE
    ..\BSP\bsp_encoder.c                     0x00000000   Number         0  bsp_encoder.o ABSOLUTE
    ..\BSP\bsp_flash.c                       0x00000000   Number         0  bsp_flash.o ABSOLUTE
    ..\BSP\bsp_gpio.c                        0x00000000   Number         0  bsp_gpio.o ABSOLUTE
    ..\BSP\bsp_timer.c                       0x00000000   Number         0  bsp_timer.o ABSOLUTE
    ..\Canopen\master_callback.c             0x00000000   Number         0  master_callback.o ABSOLUTE
    ..\Canopen\master_function.c             0x00000000   Number         0  master_function.o ABSOLUTE
    ..\Canopen\slave_callback.c              0x00000000   Number         0  slave_callback.o ABSOLUTE
    ..\Canopen\slave_function.c              0x00000000   Number         0  slave_function.o ABSOLUTE
    ..\Devices\flash_rw.c                    0x00000000   Number         0  flash_rw.o ABSOLUTE
    ..\Devices\key.c                         0x00000000   Number         0  key.o ABSOLUTE
    ..\Devices\led.c                         0x00000000   Number         0  led.o ABSOLUTE
    ..\Devices\motor.c                       0x00000000   Number         0  motor.o ABSOLUTE
    ..\Devices\power.c                       0x00000000   Number         0  power.o ABSOLUTE
    ..\Devices\servo.c                       0x00000000   Number         0  servo.o ABSOLUTE
    ..\Libraries\CanFestival\drivers\STM32\can_stm32.c 0x00000000   Number         0  can_stm32.o ABSOLUTE
    ..\Libraries\CanFestival\drivers\STM32\timer_stm32.c 0x00000000   Number         0  timer_stm32.o ABSOLUTE
    ..\Libraries\CanFestival\objdict\master_od.c 0x00000000   Number         0  master_od.o ABSOLUTE
    ..\Libraries\CanFestival\objdict\slave_od.c 0x00000000   Number         0  slave_od.o ABSOLUTE
    ..\Libraries\CanFestival\src\dcf.c       0x00000000   Number         0  dcf.o ABSOLUTE
    ..\Libraries\CanFestival\src\emcy.c      0x00000000   Number         0  emcy.o ABSOLUTE
    ..\Libraries\CanFestival\src\lifegrd.c   0x00000000   Number         0  lifegrd.o ABSOLUTE
    ..\Libraries\CanFestival\src\lss.c       0x00000000   Number         0  lss.o ABSOLUTE
    ..\Libraries\CanFestival\src\nmtMaster.c 0x00000000   Number         0  nmtmaster.o ABSOLUTE
    ..\Libraries\CanFestival\src\nmtSlave.c  0x00000000   Number         0  nmtslave.o ABSOLUTE
    ..\Libraries\CanFestival\src\objacces.c  0x00000000   Number         0  objacces.o ABSOLUTE
    ..\Libraries\CanFestival\src\pdo.c       0x00000000   Number         0  pdo.o ABSOLUTE
    ..\Libraries\CanFestival\src\sdo.c       0x00000000   Number         0  sdo.o ABSOLUTE
    ..\Libraries\CanFestival\src\states.c    0x00000000   Number         0  states.o ABSOLUTE
    ..\Libraries\CanFestival\src\sync.c      0x00000000   Number         0  sync.o ABSOLUTE
    ..\Libraries\CanFestival\src\timer.c     0x00000000   Number         0  timer.o ABSOLUTE
    ..\Libraries\FreeRTOS\port\MemMang\heap_4.c 0x00000000   Number         0  heap_4.o ABSOLUTE
    ..\Libraries\FreeRTOS\port\RVDS\ARM_CM4F\port.c 0x00000000   Number         0  port.o ABSOLUTE
    ..\Libraries\FreeRTOS\src\croutine.c     0x00000000   Number         0  croutine.o ABSOLUTE
    ..\Libraries\FreeRTOS\src\event_groups.c 0x00000000   Number         0  event_groups.o ABSOLUTE
    ..\Libraries\FreeRTOS\src\list.c         0x00000000   Number         0  list.o ABSOLUTE
    ..\Libraries\FreeRTOS\src\queue.c        0x00000000   Number         0  queue.o ABSOLUTE
    ..\Libraries\FreeRTOS\src\tasks.c        0x00000000   Number         0  tasks.o ABSOLUTE
    ..\Libraries\FreeRTOS\src\timers.c       0x00000000   Number         0  timers.o ABSOLUTE
    ..\Libraries\RTT\SEGGER_RTT.c            0x00000000   Number         0  segger_rtt.o ABSOLUTE
    ..\Libraries\STM32F4xx_HAL_Driver\Src\stm32f4xx_hal.c 0x00000000   Number         0  stm32f4xx_hal.o ABSOLUTE
    ..\Libraries\STM32F4xx_HAL_Driver\Src\stm32f4xx_hal_can.c 0x00000000   Number         0  stm32f4xx_hal_can.o ABSOLUTE
    ..\Libraries\STM32F4xx_HAL_Driver\Src\stm32f4xx_hal_cortex.c 0x00000000   Number         0  stm32f4xx_hal_cortex.o ABSOLUTE
    ..\Libraries\STM32F4xx_HAL_Driver\Src\stm32f4xx_hal_dac.c 0x00000000   Number         0  stm32f4xx_hal_dac.o ABSOLUTE
    ..\Libraries\STM32F4xx_HAL_Driver\Src\stm32f4xx_hal_dac_ex.c 0x00000000   Number         0  stm32f4xx_hal_dac_ex.o ABSOLUTE
    ..\Libraries\STM32F4xx_HAL_Driver\Src\stm32f4xx_hal_dma.c 0x00000000   Number         0  stm32f4xx_hal_dma.o ABSOLUTE
    ..\Libraries\STM32F4xx_HAL_Driver\Src\stm32f4xx_hal_dma2d.c 0x00000000   Number         0  stm32f4xx_hal_dma2d.o ABSOLUTE
    ..\Libraries\STM32F4xx_HAL_Driver\Src\stm32f4xx_hal_dma_ex.c 0x00000000   Number         0  stm32f4xx_hal_dma_ex.o ABSOLUTE
    ..\Libraries\STM32F4xx_HAL_Driver\Src\stm32f4xx_hal_flash.c 0x00000000   Number         0  stm32f4xx_hal_flash.o ABSOLUTE
    ..\Libraries\STM32F4xx_HAL_Driver\Src\stm32f4xx_hal_flash_ex.c 0x00000000   Number         0  stm32f4xx_hal_flash_ex.o ABSOLUTE
    ..\Libraries\STM32F4xx_HAL_Driver\Src\stm32f4xx_hal_gpio.c 0x00000000   Number         0  stm32f4xx_hal_gpio.o ABSOLUTE
    ..\Libraries\STM32F4xx_HAL_Driver\Src\stm32f4xx_hal_pwr.c 0x00000000   Number         0  stm32f4xx_hal_pwr.o ABSOLUTE
    ..\Libraries\STM32F4xx_HAL_Driver\Src\stm32f4xx_hal_pwr_ex.c 0x00000000   Number         0  stm32f4xx_hal_pwr_ex.o ABSOLUTE
    ..\Libraries\STM32F4xx_HAL_Driver\Src\stm32f4xx_hal_rcc.c 0x00000000   Number         0  stm32f4xx_hal_rcc.o ABSOLUTE
    ..\Libraries\STM32F4xx_HAL_Driver\Src\stm32f4xx_hal_rcc_ex.c 0x00000000   Number         0  stm32f4xx_hal_rcc_ex.o ABSOLUTE
    ..\Libraries\STM32F4xx_HAL_Driver\Src\stm32f4xx_hal_tim.c 0x00000000   Number         0  stm32f4xx_hal_tim.o ABSOLUTE
    ..\Libraries\STM32F4xx_HAL_Driver\Src\stm32f4xx_hal_tim_ex.c 0x00000000   Number         0  stm32f4xx_hal_tim_ex.o ABSOLUTE
    ..\Libraries\STM32F4xx_HAL_Driver\Src\stm32f4xx_hal_uart.c 0x00000000   Number         0  stm32f4xx_hal_uart.o ABSOLUTE
    ..\Libraries\STM32F4xx_HAL_Driver\Src\stm32f4xx_hal_usart.c 0x00000000   Number         0  stm32f4xx_hal_usart.o ABSOLUTE
    ..\Libraries\Utilities\blink.c           0x00000000   Number         0  blink.o ABSOLUTE
    ..\Libraries\Utilities\date_time.c       0x00000000   Number         0  date_time.o ABSOLUTE
    ..\Libraries\Utilities\debug.c           0x00000000   Number         0  debug.o ABSOLUTE
    ..\Libraries\Utilities\press.c           0x00000000   Number         0  press.o ABSOLUTE
    ..\Lift\lift_ctrl.c                      0x00000000   Number         0  lift_ctrl.o ABSOLUTE
    ..\Task\task_canopen_com.c               0x00000000   Number         0  task_canopen_com.o ABSOLUTE
    ..\Task\task_lift_mgr.c                  0x00000000   Number         0  task_lift_mgr.o ABSOLUTE
    ..\Task\task_master_msg.c                0x00000000   Number         0  task_master_msg.o ABSOLUTE
    ..\Task\task_slave_msg.c                 0x00000000   Number         0  task_slave_msg.o ABSOLUTE
    ..\Task\task_start_up.c                  0x00000000   Number         0  task_start_up.o ABSOLUTE
    ..\User\Src\main.c                       0x00000000   Number         0  main.o ABSOLUTE
    ..\User\Src\stm32f4xx_hal_msp.c          0x00000000   Number         0  stm32f4xx_hal_msp.o ABSOLUTE
    ..\User\Src\stm32f4xx_it.c               0x00000000   Number         0  stm32f4xx_it.o ABSOLUTE
    ..\User\Src\system_stm32f4xx.c           0x00000000   Number         0  system_stm32f4xx.o ABSOLUTE
    ..\Version\verson.c                      0x00000000   Number         0  verson.o ABSOLUTE
    ..\\Ads1230\\Src\\ads1230_api.c          0x00000000   Number         0  ads1230_api.o ABSOLUTE
    ..\\Ads1230\\Src\\ads1230_app.c          0x00000000   Number         0  ads1230_app.o ABSOLUTE
    ..\\Ads1230\\Src\\ads1230_drv.c          0x00000000   Number         0  ads1230_drv.o ABSOLUTE
    ..\\Ads1230\\Src\\cmsis_os.c             0x00000000   Number         0  cmsis_os.o ABSOLUTE
    ..\\Ads1230\\Src\\delay.c                0x00000000   Number         0  delay.o ABSOLUTE
    ..\\Ads1230\\Src\\public_var.c           0x00000000   Number         0  public_var.o ABSOLUTE
    ..\\BSP\\bsp_dac.c                       0x00000000   Number         0  bsp_dac.o ABSOLUTE
    ..\\BSP\\bsp_encoder.c                   0x00000000   Number         0  bsp_encoder.o ABSOLUTE
    ..\\BSP\\bsp_flash.c                     0x00000000   Number         0  bsp_flash.o ABSOLUTE
    ..\\BSP\\bsp_gpio.c                      0x00000000   Number         0  bsp_gpio.o ABSOLUTE
    ..\\BSP\\bsp_timer.c                     0x00000000   Number         0  bsp_timer.o ABSOLUTE
    ..\\Canopen\\master_callback.c           0x00000000   Number         0  master_callback.o ABSOLUTE
    ..\\Canopen\\master_function.c           0x00000000   Number         0  master_function.o ABSOLUTE
    ..\\Canopen\\slave_callback.c            0x00000000   Number         0  slave_callback.o ABSOLUTE
    ..\\Canopen\\slave_function.c            0x00000000   Number         0  slave_function.o ABSOLUTE
    ..\\Devices\\flash_rw.c                  0x00000000   Number         0  flash_rw.o ABSOLUTE
    ..\\Devices\\key.c                       0x00000000   Number         0  key.o ABSOLUTE
    ..\\Devices\\led.c                       0x00000000   Number         0  led.o ABSOLUTE
    ..\\Devices\\motor.c                     0x00000000   Number         0  motor.o ABSOLUTE
    ..\\Devices\\power.c                     0x00000000   Number         0  power.o ABSOLUTE
    ..\\Devices\\servo.c                     0x00000000   Number         0  servo.o ABSOLUTE
    ..\\Libraries\\CanFestival\\drivers\\STM32\\can_stm32.c 0x00000000   Number         0  can_stm32.o ABSOLUTE
    ..\\Libraries\\CanFestival\\drivers\\STM32\\timer_stm32.c 0x00000000   Number         0  timer_stm32.o ABSOLUTE
    ..\\Libraries\\CanFestival\\objdict\\master_od.c 0x00000000   Number         0  master_od.o ABSOLUTE
    ..\\Libraries\\CanFestival\\objdict\\slave_od.c 0x00000000   Number         0  slave_od.o ABSOLUTE
    ..\\Libraries\\CanFestival\\src\\dcf.c   0x00000000   Number         0  dcf.o ABSOLUTE
    ..\\Libraries\\CanFestival\\src\\emcy.c  0x00000000   Number         0  emcy.o ABSOLUTE
    ..\\Libraries\\CanFestival\\src\\lifegrd.c 0x00000000   Number         0  lifegrd.o ABSOLUTE
    ..\\Libraries\\CanFestival\\src\\lss.c   0x00000000   Number         0  lss.o ABSOLUTE
    ..\\Libraries\\CanFestival\\src\\nmtMaster.c 0x00000000   Number         0  nmtmaster.o ABSOLUTE
    ..\\Libraries\\CanFestival\\src\\nmtSlave.c 0x00000000   Number         0  nmtslave.o ABSOLUTE
    ..\\Libraries\\CanFestival\\src\\objacces.c 0x00000000   Number         0  objacces.o ABSOLUTE
    ..\\Libraries\\CanFestival\\src\\pdo.c   0x00000000   Number         0  pdo.o ABSOLUTE
    ..\\Libraries\\CanFestival\\src\\sdo.c   0x00000000   Number         0  sdo.o ABSOLUTE
    ..\\Libraries\\CanFestival\\src\\states.c 0x00000000   Number         0  states.o ABSOLUTE
    ..\\Libraries\\CanFestival\\src\\sync.c  0x00000000   Number         0  sync.o ABSOLUTE
    ..\\Libraries\\CanFestival\\src\\timer.c 0x00000000   Number         0  timer.o ABSOLUTE
    ..\\Libraries\\FreeRTOS\\port\\MemMang\\heap_4.c 0x00000000   Number         0  heap_4.o ABSOLUTE
    ..\\Libraries\\FreeRTOS\\port\\RVDS\\ARM_CM4F\\port.c 0x00000000   Number         0  port.o ABSOLUTE
    ..\\Libraries\\FreeRTOS\\src\\croutine.c 0x00000000   Number         0  croutine.o ABSOLUTE
    ..\\Libraries\\FreeRTOS\\src\\event_groups.c 0x00000000   Number         0  event_groups.o ABSOLUTE
    ..\\Libraries\\FreeRTOS\\src\\list.c     0x00000000   Number         0  list.o ABSOLUTE
    ..\\Libraries\\FreeRTOS\\src\\queue.c    0x00000000   Number         0  queue.o ABSOLUTE
    ..\\Libraries\\FreeRTOS\\src\\tasks.c    0x00000000   Number         0  tasks.o ABSOLUTE
    ..\\Libraries\\FreeRTOS\\src\\timers.c   0x00000000   Number         0  timers.o ABSOLUTE
    ..\\Libraries\\STM32F4xx_HAL_Driver\\Src\\stm32f4xx_hal.c 0x00000000   Number         0  stm32f4xx_hal.o ABSOLUTE
    ..\\Libraries\\STM32F4xx_HAL_Driver\\Src\\stm32f4xx_hal_can.c 0x00000000   Number         0  stm32f4xx_hal_can.o ABSOLUTE
    ..\\Libraries\\STM32F4xx_HAL_Driver\\Src\\stm32f4xx_hal_cortex.c 0x00000000   Number         0  stm32f4xx_hal_cortex.o ABSOLUTE
    ..\\Libraries\\STM32F4xx_HAL_Driver\\Src\\stm32f4xx_hal_dac.c 0x00000000   Number         0  stm32f4xx_hal_dac.o ABSOLUTE
    ..\\Libraries\\STM32F4xx_HAL_Driver\\Src\\stm32f4xx_hal_dac_ex.c 0x00000000   Number         0  stm32f4xx_hal_dac_ex.o ABSOLUTE
    ..\\Libraries\\STM32F4xx_HAL_Driver\\Src\\stm32f4xx_hal_dma.c 0x00000000   Number         0  stm32f4xx_hal_dma.o ABSOLUTE
    ..\\Libraries\\STM32F4xx_HAL_Driver\\Src\\stm32f4xx_hal_dma2d.c 0x00000000   Number         0  stm32f4xx_hal_dma2d.o ABSOLUTE
    ..\\Libraries\\STM32F4xx_HAL_Driver\\Src\\stm32f4xx_hal_dma_ex.c 0x00000000   Number         0  stm32f4xx_hal_dma_ex.o ABSOLUTE
    ..\\Libraries\\STM32F4xx_HAL_Driver\\Src\\stm32f4xx_hal_flash.c 0x00000000   Number         0  stm32f4xx_hal_flash.o ABSOLUTE
    ..\\Libraries\\STM32F4xx_HAL_Driver\\Src\\stm32f4xx_hal_flash_ex.c 0x00000000   Number         0  stm32f4xx_hal_flash_ex.o ABSOLUTE
    ..\\Libraries\\STM32F4xx_HAL_Driver\\Src\\stm32f4xx_hal_gpio.c 0x00000000   Number         0  stm32f4xx_hal_gpio.o ABSOLUTE
    ..\\Libraries\\STM32F4xx_HAL_Driver\\Src\\stm32f4xx_hal_pwr.c 0x00000000   Number         0  stm32f4xx_hal_pwr.o ABSOLUTE
    ..\\Libraries\\STM32F4xx_HAL_Driver\\Src\\stm32f4xx_hal_pwr_ex.c 0x00000000   Number         0  stm32f4xx_hal_pwr_ex.o ABSOLUTE
    ..\\Libraries\\STM32F4xx_HAL_Driver\\Src\\stm32f4xx_hal_rcc.c 0x00000000   Number         0  stm32f4xx_hal_rcc.o ABSOLUTE
    ..\\Libraries\\STM32F4xx_HAL_Driver\\Src\\stm32f4xx_hal_rcc_ex.c 0x00000000   Number         0  stm32f4xx_hal_rcc_ex.o ABSOLUTE
    ..\\Libraries\\STM32F4xx_HAL_Driver\\Src\\stm32f4xx_hal_tim.c 0x00000000   Number         0  stm32f4xx_hal_tim.o ABSOLUTE
    ..\\Libraries\\STM32F4xx_HAL_Driver\\Src\\stm32f4xx_hal_tim_ex.c 0x00000000   Number         0  stm32f4xx_hal_tim_ex.o ABSOLUTE
    ..\\Libraries\\STM32F4xx_HAL_Driver\\Src\\stm32f4xx_hal_uart.c 0x00000000   Number         0  stm32f4xx_hal_uart.o ABSOLUTE
    ..\\Libraries\\STM32F4xx_HAL_Driver\\Src\\stm32f4xx_hal_usart.c 0x00000000   Number         0  stm32f4xx_hal_usart.o ABSOLUTE
    ..\\Lift\\lift_ctrl.c                    0x00000000   Number         0  lift_ctrl.o ABSOLUTE
    ..\\Task\\task_canopen_com.c             0x00000000   Number         0  task_canopen_com.o ABSOLUTE
    ..\\Task\\task_lift_mgr.c                0x00000000   Number         0  task_lift_mgr.o ABSOLUTE
    ..\\Task\\task_master_msg.c              0x00000000   Number         0  task_master_msg.o ABSOLUTE
    ..\\Task\\task_slave_msg.c               0x00000000   Number         0  task_slave_msg.o ABSOLUTE
    ..\\Task\\task_start_up.c                0x00000000   Number         0  task_start_up.o ABSOLUTE
    ..\\User\\Src\\main.c                    0x00000000   Number         0  main.o ABSOLUTE
    ..\\User\\Src\\stm32f4xx_hal_msp.c       0x00000000   Number         0  stm32f4xx_hal_msp.o ABSOLUTE
    ..\\User\\Src\\stm32f4xx_it.c            0x00000000   Number         0  stm32f4xx_it.o ABSOLUTE
    ..\\User\\Src\\system_stm32f4xx.c        0x00000000   Number         0  system_stm32f4xx.o ABSOLUTE
    cdrcmple.s                               0x00000000   Number         0  cdrcmple.o ABSOLUTE
    dc.s                                     0x00000000   Number         0  dc.o ABSOLUTE
    handlers.s                               0x00000000   Number         0  handlers.o ABSOLUTE
    init.s                                   0x00000000   Number         0  init.o ABSOLUTE
    startup_stm32f407xx.s                    0x00000000   Number         0  startup_stm32f407xx.o ABSOLUTE
    RESET                                    0x08000000   Section      392  startup_stm32f407xx.o(RESET)
    .ARM.Collect$$$$00000000                 0x08000188   Section        0  entry.o(.ARM.Collect$$$$00000000)
    .ARM.Collect$$$$00000001                 0x08000188   Section        4  entry2.o(.ARM.Collect$$$$00000001)
    .ARM.Collect$$$$00000004                 0x0800018c   Section        4  entry5.o(.ARM.Collect$$$$00000004)
    .ARM.Collect$$$$00000008                 0x08000190   Section        0  entry7b.o(.ARM.Collect$$$$00000008)
    .ARM.Collect$$$$0000000A                 0x08000190   Section        0  entry8b.o(.ARM.Collect$$$$0000000A)
    .ARM.Collect$$$$0000000B                 0x08000190   Section        8  entry9a.o(.ARM.Collect$$$$0000000B)
    .ARM.Collect$$$$0000000D                 0x08000198   Section        0  entry10a.o(.ARM.Collect$$$$0000000D)
    .ARM.Collect$$$$0000000F                 0x08000198   Section        0  entry11a.o(.ARM.Collect$$$$0000000F)
    .ARM.Collect$$$$00002712                 0x08000198   Section        4  entry2.o(.ARM.Collect$$$$00002712)
    __lit__00000000                          0x08000198   Data           4  entry2.o(.ARM.Collect$$$$00002712)
    .emb_text                                0x0800019c   Section      182  port.o(.emb_text)
    $v0                                      0x0800019c   Number         0  port.o(.emb_text)
    .text                                    0x08000254   Section        0  system_stm32f4xx.o(.text)
    .text                                    0x08000374   Section       36  startup_stm32f407xx.o(.text)
    $v0                                      0x08000374   Number         0  startup_stm32f407xx.o(.text)
    .text                                    0x08000398   Section        0  stm32f4xx_hal_flash_ex.o(.text)
    FLASH_MassErase                          0x080004c1   Thumb Code    96  stm32f4xx_hal_flash_ex.o(.text)
    FLASH_OB_BOR_LevelConfig                 0x080006a3   Thumb Code    58  stm32f4xx_hal_flash_ex.o(.text)
    FLASH_OB_UserConfig                      0x080006dd   Thumb Code   112  stm32f4xx_hal_flash_ex.o(.text)
    FLASH_OB_RDP_LevelConfig                 0x0800074d   Thumb Code   124  stm32f4xx_hal_flash_ex.o(.text)
    FLASH_OB_DisableWRP                      0x080007c9   Thumb Code    76  stm32f4xx_hal_flash_ex.o(.text)
    FLASH_OB_EnableWRP                       0x08000815   Thumb Code    74  stm32f4xx_hal_flash_ex.o(.text)
    FLASH_OB_GetBOR                          0x0800091b   Thumb Code    12  stm32f4xx_hal_flash_ex.o(.text)
    FLASH_OB_GetUser                         0x08000927   Thumb Code    12  stm32f4xx_hal_flash_ex.o(.text)
    FLASH_OB_GetRDP                          0x08000933   Thumb Code    34  stm32f4xx_hal_flash_ex.o(.text)
    FLASH_OB_GetWRP                          0x08000955   Thumb Code     6  stm32f4xx_hal_flash_ex.o(.text)
    .text                                    0x08000984   Section        0  stm32f4xx_hal.o(.text)
    .text                                    0x08000bd0   Section        0  stm32f4xx_hal_can.o(.text)
    .text                                    0x08001b34   Section        0  stm32f4xx_hal_cortex.o(.text)
    __NVIC_SetPriority                       0x08001b35   Thumb Code    32  stm32f4xx_hal_cortex.o(.text)
    __NVIC_GetPriorityGrouping               0x080021dd   Thumb Code    12  stm32f4xx_hal_cortex.o(.text)
    .text                                    0x080021f8   Section        0  stm32f4xx_hal_dma.o(.text)
    DMA_CalcBaseAndBitshift                  0x080021f9   Thumb Code    46  stm32f4xx_hal_dma.o(.text)
    DMA_CheckFifoParam                       0x08002227   Thumb Code   170  stm32f4xx_hal_dma.o(.text)
    DMA_SetConfig                            0x0800274f   Thumb Code    44  stm32f4xx_hal_dma.o(.text)
    .text                                    0x08002e08   Section        0  stm32f4xx_hal_flash.o(.text)
    FLASH_SetErrorCode                       0x08002e09   Thumb Code   142  stm32f4xx_hal_flash.o(.text)
    FLASH_Program_DoubleWord                 0x08002ef1   Thumb Code    86  stm32f4xx_hal_flash.o(.text)
    FLASH_Program_Word                       0x08002f47   Thumb Code    82  stm32f4xx_hal_flash.o(.text)
    FLASH_Program_HalfWord                   0x08002f99   Thumb Code    82  stm32f4xx_hal_flash.o(.text)
    FLASH_Program_Byte                       0x08002feb   Thumb Code    78  stm32f4xx_hal_flash.o(.text)
    .text                                    0x08003378   Section        0  stm32f4xx_hal_gpio.o(.text)
    .text                                    0x08003a58   Section        0  stm32f4xx_hal_rcc.o(.text)
    .text                                    0x08004630   Section        0  stm32f4xx_hal_tim.o(.text)
    TIM_DMAPeriodElapsedHalfCplt             0x08004bf9   Thumb Code    20  stm32f4xx_hal_tim.o(.text)
    TIM_DMAPeriodElapsedCplt                 0x08004c0f   Thumb Code    20  stm32f4xx_hal_tim.o(.text)
    TIM_OC4_SetConfig                        0x080081f3   Thumb Code   110  stm32f4xx_hal_tim.o(.text)
    TIM_OC3_SetConfig                        0x08008261   Thumb Code   196  stm32f4xx_hal_tim.o(.text)
    TIM_OC1_SetConfig                        0x080083e9   Thumb Code   188  stm32f4xx_hal_tim.o(.text)
    TIM_TI4_SetConfig                        0x080086df   Thumb Code    60  stm32f4xx_hal_tim.o(.text)
    TIM_TI3_SetConfig                        0x0800871b   Thumb Code    56  stm32f4xx_hal_tim.o(.text)
    TIM_TI2_SetConfig                        0x08008753   Thumb Code    58  stm32f4xx_hal_tim.o(.text)
    TIM_DMATriggerHalfCplt                   0x08009037   Thumb Code    20  stm32f4xx_hal_tim.o(.text)
    TIM_DMATriggerCplt                       0x0800904b   Thumb Code    20  stm32f4xx_hal_tim.o(.text)
    TIM_ITRx_SetConfig                       0x08009a89   Thumb Code    18  stm32f4xx_hal_tim.o(.text)
    TIM_TI1_ConfigInputStage                 0x08009a9b   Thumb Code    38  stm32f4xx_hal_tim.o(.text)
    TIM_TI2_ConfigInputStage                 0x08009ac1   Thumb Code   108  stm32f4xx_hal_tim.o(.text)
    TIM_SlaveTimer_SetConfig                 0x0800a0cf   Thumb Code   910  stm32f4xx_hal_tim.o(.text)
    .text                                    0x0800a864   Section        0  power.o(.text)
    ConfigPowerParamCb                       0x0800a925   Thumb Code   162  power.o(.text)
    .text                                    0x0800ac08   Section        0  stm32f4xx_hal_tim_ex.o(.text)
    TIM_CCxNChannelCmd                       0x0800b207   Thumb Code    34  stm32f4xx_hal_tim_ex.o(.text)
    .text                                    0x0800c368   Section        0  stm32f4xx_hal_dac.o(.text)
    DAC_DMAErrorCh1                          0x0800c4b5   Thumb Code    26  stm32f4xx_hal_dac.o(.text)
    DAC_DMAHalfConvCpltCh1                   0x0800c4d1   Thumb Code    14  stm32f4xx_hal_dac.o(.text)
    DAC_DMAConvCpltCh1                       0x0800c4e1   Thumb Code    18  stm32f4xx_hal_dac.o(.text)
    .text                                    0x0800c8bc   Section        0  stm32f4xx_hal_dac_ex.o(.text)
    .text                                    0x0800cb98   Section        0  list.o(.text)
    .text                                    0x0800cc2c   Section        0  queue.o(.text)
    prvInitialiseNewQueue                    0x0800ccb5   Thumb Code    46  queue.o(.text)
    prvCopyDataToQueue                       0x0800cd31   Thumb Code   106  queue.o(.text)
    prvNotifyQueueSetContainer               0x0800cd9b   Thumb Code   124  queue.o(.text)
    prvUnlockQueue                           0x0800ce17   Thumb Code   146  queue.o(.text)
    prvIsQueueFull                           0x0800cea9   Thumb Code    30  queue.o(.text)
    prvIsQueueEmpty                          0x0800d27b   Thumb Code    26  queue.o(.text)
    prvCopyDataFromQueue                     0x0800d295   Thumb Code    42  queue.o(.text)
    .text                                    0x0800d7fc   Section        0  tasks.o(.text)
    prvInitialiseTaskLists                   0x0800d7fd   Thumb Code    58  tasks.o(.text)
    prvAddNewTaskToReadyList                 0x0800d837   Thumb Code   156  tasks.o(.text)
    prvInitialiseNewTask                     0x0800d8d3   Thumb Code   168  tasks.o(.text)
    prvResetNextTaskUnblockTime              0x0800d9db   Thumb Code    42  tasks.o(.text)
    prvAddCurrentTaskToDelayedList           0x0800dc69   Thumb Code   104  tasks.o(.text)
    prvCheckTasksWaitingTermination          0x0800de87   Thumb Code     2  tasks.o(.text)
    prvIdleTask                              0x0800de89   Thumb Code    32  tasks.o(.text)
    prvTaskCheckFreeStackSpace               0x0800df7f   Thumb Code    22  tasks.o(.text)
    prvListTasksWithinSingleList             0x0800dfef   Thumb Code   166  tasks.o(.text)
    prvWriteNameToBuffer                     0x0800e40b   Thumb Code    42  tasks.o(.text)
    .text                                    0x0800e988   Section        0  timers.o(.text)
    prvInsertTimerInActiveList               0x0800e989   Thumb Code    80  timers.o(.text)
    prvSwitchTimerLists                      0x0800ea4d   Thumb Code   140  timers.o(.text)
    prvSampleTimeNow                         0x0800ead9   Thumb Code    40  timers.o(.text)
    prvProcessReceivedCommands               0x0800eb01   Thumb Code   222  timers.o(.text)
    prvProcessExpiredTimer                   0x0800ebdf   Thumb Code    84  timers.o(.text)
    prvProcessTimerOrBlockTask               0x0800ec33   Thumb Code   102  timers.o(.text)
    prvGetNextExpireTime                     0x0800ec99   Thumb Code    36  timers.o(.text)
    prvTimerTask                             0x0800ecbd   Thumb Code    26  timers.o(.text)
    prvCheckForValidListAndQueue             0x0800ecd7   Thumb Code    72  timers.o(.text)
    prvInitialiseNewTimer                    0x0800ed57   Thumb Code   174  timers.o(.text)
    .text                                    0x0800ef34   Section        0  heap_4.o(.text)
    prvInsertBlockIntoFreeList               0x0800ef35   Thumb Code    96  heap_4.o(.text)
    prvHeapInit                              0x0800ef95   Thumb Code    98  heap_4.o(.text)
    .text                                    0x0800f1d8   Section        0  port.o(.text)
    prvTaskExitError                         0x0800f1d9   Thumb Code    50  port.o(.text)
    .text                                    0x0800f4d0   Section        0  emcy.o(.text)
    .text                                    0x0800f7c8   Section        0  lifegrd.o(.text)
    .text                                    0x0800fbb4   Section        0  nmtmaster.o(.text)
    .text                                    0x0800fc38   Section        0  nmtslave.o(.text)
    .text                                    0x0800fd48   Section        0  objacces.o(.text)
    .text                                    0x0800ffa8   Section        0  sdo.o(.text)
    .text                                    0x08014564   Section        0  states.o(.text)
    .text                                    0x08014a34   Section        0  pdo.o(.text)
    sendPdo                                  0x08014c91   Thumb Code    44  pdo.o(.text)
    .text                                    0x0801564c   Section        0  sync.o(.text)
    .text                                    0x0801577c   Section        0  timer.o(.text)
    .text                                    0x08015914   Section        0  slave_od.o(.text)
    .text                                    0x08015a38   Section        0  master_od.o(.text)
    .text                                    0x08015be4   Section        0  can_stm32.o(.text)
    .text                                    0x08015e58   Section        0  timer_stm32.o(.text)
    .text                                    0x08015f60   Section        0  master_callback.o(.text)
    .text                                    0x080161dc   Section        0  master_function.o(.text)
    ConfigSlaveDict_cb                       0x080162a3   Thumb Code    92  master_function.o(.text)
    .text                                    0x0801658c   Section        0  slave_function.o(.text)
    OnSetSlaveCallBack                       0x080165e5   Thumb Code    48  slave_function.o(.text)
    OnSetLiftControlWord                     0x08016615   Thumb Code   216  slave_function.o(.text)
    OnSetLiftCallBack                        0x080166ed   Thumb Code   178  slave_function.o(.text)
    OnSetShiftCallBack                       0x0801679f   Thumb Code   114  slave_function.o(.text)
    .text                                    0x08016a78   Section        0  slave_callback.o(.text)
    .text                                    0x08016c6c   Section        0  main.o(.text)
    SystemClock_Config                       0x08016c77   Thumb Code   156  main.o(.text)
    BspInit                                  0x08016d13   Thumb Code    38  main.o(.text)
    .text                                    0x08016e0c   Section        0  stm32f4xx_hal_msp.o(.text)
    .text                                    0x080171d8   Section        0  stm32f4xx_it.o(.text)
    .text                                    0x0801725c   Section        0  lift_ctrl.o(.text)
    LiftMomentCal                            0x0801725d   Thumb Code    38  lift_ctrl.o(.text)
    LiftMaxSpeedLimitSwitch                  0x08017283   Thumb Code    82  lift_ctrl.o(.text)
    GetProtectTopPos                         0x080172d5   Thumb Code    44  lift_ctrl.o(.text)
    LiftPosCheck                             0x08017301   Thumb Code   506  lift_ctrl.o(.text)
    AutoLiftProc                             0x080174fb   Thumb Code  1076  lift_ctrl.o(.text)
    LiftErrDetProc                           0x0801792f   Thumb Code    48  lift_ctrl.o(.text)
    .text                                    0x08018570   Section        0  task_start_up.o(.text)
    .text                                    0x08018598   Section        0  task_master_msg.o(.text)
    MasterMsgRecvTask                        0x08018599   Thumb Code    50  task_master_msg.o(.text)
    MasterMsgSendTask                        0x080185cb   Thumb Code    78  task_master_msg.o(.text)
    .text                                    0x08018834   Section        0  task_slave_msg.o(.text)
    SlaveMsgRecvTask                         0x08018835   Thumb Code    42  task_slave_msg.o(.text)
    SlaveMsgSendTask                         0x0801885f   Thumb Code    78  task_slave_msg.o(.text)
    .text                                    0x08018ac4   Section        0  task_lift_mgr.o(.text)
    LiftCtrlAccordMsg                        0x08018b29   Thumb Code   164  task_lift_mgr.o(.text)
    LiftMgrTask                              0x08018bcd   Thumb Code    48  task_lift_mgr.o(.text)
    .text                                    0x08018cc8   Section        0  task_canopen_com.o(.text)
    CanopenComTask                           0x08018cc9   Thumb Code    96  task_canopen_com.o(.text)
    .text                                    0x08018dcc   Section        0  key.o(.text)
    KeyUpLongPressRespond                    0x08018e0f   Thumb Code    42  key.o(.text)
    KeyUpLongReleaseRespond                  0x08018e39   Thumb Code    34  key.o(.text)
    KeyDownLongPressRespond                  0x08018e5b   Thumb Code    44  key.o(.text)
    KeyDownLongReleaseRespond                0x08018e87   Thumb Code    32  key.o(.text)
    KeyIncLongPressRespond                   0x08018ea7   Thumb Code    44  key.o(.text)
    KeyDecLongPressRespond                   0x08018ed3   Thumb Code    34  key.o(.text)
    KeyFrontLongPressRespond                 0x08018ef5   Thumb Code    38  key.o(.text)
    KeyFrontLongReleaseRespond               0x08018f1b   Thumb Code    26  key.o(.text)
    KeyBackLongPressRespond                  0x08018f35   Thumb Code    38  key.o(.text)
    KeyBackLongReleaseRespond                0x08018f5b   Thumb Code    26  key.o(.text)
    .text                                    0x080190b4   Section        0  led.o(.text)
    .text                                    0x08019120   Section        0  motor.o(.text)
    MotorOutPutCtrl                          0x08019131   Thumb Code    22  motor.o(.text)
    MotorDirCtrl                             0x08019147   Thumb Code    24  motor.o(.text)
    .text                                    0x08019220   Section        0  servo.o(.text)
    ConfigServoPdoParamCallBack              0x08019221   Thumb Code   214  servo.o(.text)
    ConfigServoPdoParam                      0x080192f7   Thumb Code  1818  servo.o(.text)
    .text                                    0x08019f90   Section        0  bsp_gpio.o(.text)
    .text                                    0x0801a41c   Section        0  bsp_encoder.o(.text)
    .text                                    0x0801a4b0   Section        0  bsp_dac.o(.text)
    .text                                    0x0801a524   Section        0  bsp_flash.o(.text)
    CalcCheckSum                             0x0801a525   Thumb Code    24  bsp_flash.o(.text)
    FlashEaserPage                           0x0801a59f   Thumb Code    56  bsp_flash.o(.text)
    CreateRecord                             0x0801a5d7   Thumb Code   244  bsp_flash.o(.text)
    .text                                    0x0801a8c0   Section        0  blink.o(.text)
    .text                                    0x0801aa0c   Section        0  debug.o(.text)
    CharToHex                                0x0801aaed   Thumb Code    56  debug.o(.text)
    Str2HexData                              0x0801ab25   Thumb Code   120  debug.o(.text)
    .text                                    0x0801ace4   Section        0  press.o(.text)
    PreStateGetByLevel                       0x0801ad67   Thumb Code    32  press.o(.text)
    PressEventUpade                          0x0801ad9f   Thumb Code   148  press.o(.text)
    PressEventProc                           0x0801ae33   Thumb Code   130  press.o(.text)
    .text                                    0x0801aed0   Section        0  date_time.o(.text)
    .text                                    0x0801b038   Section        0  segger_rtt.o(.text)
    _DoInit                                  0x0801b039   Thumb Code    76  segger_rtt.o(.text)
    _WriteBlocking                           0x0801b085   Thumb Code   114  segger_rtt.o(.text)
    _WriteNoCheck                            0x0801b0f7   Thumb Code    76  segger_rtt.o(.text)
    _PostTerminalSwitch                      0x0801b143   Thumb Code    32  segger_rtt.o(.text)
    _GetAvailWriteSpace                      0x0801b163   Thumb Code    28  segger_rtt.o(.text)
    .text                                    0x0801bbb0   Section        0  verson.o(.text)
    .text                                    0x0801bd5c   Section        0  ads1230_api.o(.text)
    ADS123xOffsetCalibration                 0x0801bdbd   Thumb Code   204  ads1230_api.o(.text)
    .text                                    0x0801bf40   Section        0  ads1230_app.o(.text)
    ResultFilter                             0x0801bf41   Thumb Code   182  ads1230_app.o(.text)
    ADS123xReadData                          0x0801bff7   Thumb Code    92  ads1230_app.o(.text)
    SensorSample                             0x0801c097   Thumb Code    52  ads1230_app.o(.text)
    SensorCallBack                           0x0801c0cb   Thumb Code   248  ads1230_app.o(.text)
    SensorCfgInit                            0x0801c1c3   Thumb Code    54  ads1230_app.o(.text)
    PressureSensorStaTimerCallback           0x0801c36b   Thumb Code    60  ads1230_app.o(.text)
    PressureSensorRealValueStaTimerCallback  0x0801c3a7   Thumb Code   204  ads1230_app.o(.text)
    .text                                    0x0801c584   Section        0  ads1230_drv.o(.text)
    Ads123xOutGpioInit                       0x0801c585   Thumb Code   116  ads1230_drv.o(.text)
    Ads123xInGpioInit                        0x0801c5f9   Thumb Code   114  ads1230_drv.o(.text)
    .text                                    0x0801c6f8   Section        0  delay.o(.text)
    .text                                    0x0801c768   Section        0  public_var.o(.text)
    .text                                    0x0801c828   Section        0  cmsis_os.o(.text)
    makeFreeRtosPriority                     0x0801c829   Thumb Code    14  cmsis_os.o(.text)
    makeCmsisPriority                        0x0801c837   Thumb Code    18  cmsis_os.o(.text)
    inHandlerMode                            0x0801c849   Thumb Code    16  cmsis_os.o(.text)
    .text                                    0x0801d23c   Section        0  flash_rw.o(.text)
    STMFLASH_ReadWord                        0x0801d23d   Thumb Code     6  flash_rw.o(.text)
    .text                                    0x0801d390   Section        0  uldiv.o(.text)
    .text                                    0x0801d3f2   Section        0  ldiv.o(.text)
    .text                                    0x0801d454   Section        0  mktime.o(.text)
    .text                                    0x0801d4fc   Section        0  memcpya.o(.text)
    .text                                    0x0801d520   Section        0  memseta.o(.text)
    .text                                    0x0801d544   Section        0  strlen.o(.text)
    .text                                    0x0801d552   Section        0  memcmp.o(.text)
    .text                                    0x0801d56c   Section        0  strcpy.o(.text)
    .text                                    0x0801d57e   Section        0  dadd.o(.text)
    .text                                    0x0801d6cc   Section        0  dmul.o(.text)
    .text                                    0x0801d7b0   Section        0  ddiv.o(.text)
    .text                                    0x0801d88e   Section        0  dflti.o(.text)
    .text                                    0x0801d8b0   Section        0  dfltui.o(.text)
    .text                                    0x0801d8ca   Section        0  dfixi.o(.text)
    .text                                    0x0801d908   Section        0  dfixui.o(.text)
    .text                                    0x0801d93a   Section        0  f2d.o(.text)
    .text                                    0x0801d960   Section        0  d2f.o(.text)
    .text                                    0x0801d998   Section        0  uidiv.o(.text)
    .text                                    0x0801d9c4   Section        0  llshl.o(.text)
    .text                                    0x0801d9e2   Section        0  llushr.o(.text)
    .text                                    0x0801da02   Section        0  llsshr.o(.text)
    .text                                    0x0801da28   Section        0  localtime_w.o(.text)
    .text                                    0x0801da34   Section        0  localtime_i.o(.text)
    .text                                    0x0801dac0   Section        0  iusefp.o(.text)
    .text                                    0x0801dac0   Section        0  fepilogue.o(.text)
    .text                                    0x0801db2e   Section        0  depilogue.o(.text)
    .text                                    0x0801dbe8   Section        0  dfixul.o(.text)
    .text                                    0x0801dc18   Section       48  cdrcmple.o(.text)
    .text                                    0x0801dc48   Section       36  init.o(.text)
    .text                                    0x0801dc6c   Section        0  __dczerorl2.o(.text)
    i.__0sprintf                             0x0801dcc4   Section        0  printfa.o(i.__0sprintf)
    i.__0vsprintf                            0x0801dcec   Section        0  printfa.o(i.__0vsprintf)
    i.__scatterload_copy                     0x0801dd10   Section       14  handlers.o(i.__scatterload_copy)
    i.__scatterload_null                     0x0801dd1e   Section        2  handlers.o(i.__scatterload_null)
    i.__scatterload_zeroinit                 0x0801dd20   Section       14  handlers.o(i.__scatterload_zeroinit)
    i._fp_digits                             0x0801dd30   Section        0  printfa.o(i._fp_digits)
    _fp_digits                               0x0801dd31   Thumb Code   366  printfa.o(i._fp_digits)
    i._printf_core                           0x0801deb4   Section        0  printfa.o(i._printf_core)
    _printf_core                             0x0801deb5   Thumb Code  1744  printfa.o(i._printf_core)
    i._printf_post_padding                   0x0801e590   Section        0  printfa.o(i._printf_post_padding)
    _printf_post_padding                     0x0801e591   Thumb Code    36  printfa.o(i._printf_post_padding)
    i._printf_pre_padding                    0x0801e5b4   Section        0  printfa.o(i._printf_pre_padding)
    _printf_pre_padding                      0x0801e5b5   Thumb Code    46  printfa.o(i._printf_pre_padding)
    i._sputc                                 0x0801e5e2   Section        0  printfa.o(i._sputc)
    _sputc                                   0x0801e5e3   Thumb Code    10  printfa.o(i._sputc)
    .constdata                               0x0801e5ec   Section       24  system_stm32f4xx.o(.constdata)
    .constdata                               0x0801e604   Section        8  stm32f4xx_hal_dma.o(.constdata)
    flagBitshiftOffset                       0x0801e604   Data           8  stm32f4xx_hal_dma.o(.constdata)
    .constdata                               0x0801e60c   Section       64  states.o(.constdata)
    .constdata                               0x0801e64c   Section      190  slave_od.o(.constdata)
    .constdata                               0x0801e70c   Section      302  master_od.o(.constdata)
    .constdata                               0x0801e83c   Section       16  led.o(.constdata)
    .constdata                               0x0801e84c   Section       46  bsp_gpio.o(.constdata)
    s_aLedPin                                0x0801e84c   Data           2  bsp_gpio.o(.constdata)
    s_aKeyPin                                0x0801e84e   Data          12  bsp_gpio.o(.constdata)
    s_aSensorPin                             0x0801e85a   Data          24  bsp_gpio.o(.constdata)
    s_aCtrlPin                               0x0801e872   Data           8  bsp_gpio.o(.constdata)
    .constdata                               0x0801e87c   Section       28  ads1230_app.o(.constdata)
    .constdata                               0x0801e898   Section       20  public_var.o(.constdata)
    .constdata                               0x0801e8ac   Section       12  mktime.o(.constdata)
    monlen                                   0x0801e8ac   Data          12  mktime.o(.constdata)
    .constdata                               0x0801e8b8   Section       12  localtime_i.o(.constdata)
    monlen                                   0x0801e8b8   Data          12  localtime_i.o(.constdata)
    .conststring                             0x0801e8c4   Section     1254  sdo.o(.conststring)
    .conststring                             0x0801edac   Section       83  master_callback.o(.conststring)
    .conststring                             0x0801ee00   Section       82  slave_callback.o(.conststring)
    .conststring                             0x0801ee54   Section       68  lift_ctrl.o(.conststring)
    .conststring                             0x0801ee98   Section       15  ads1230_app.o(.conststring)
    .conststring                             0x0801eea8   Section       21  public_var.o(.conststring)
    .ARM.__AT_0x08021000                     0x08021000   Section        8  verson.o(.ARM.__AT_0x08021000)
    .data                                    0x20000000   Section        4  system_stm32f4xx.o(.data)
    .data                                    0x20000004   Section        9  stm32f4xx_hal.o(.data)
    .data                                    0x20000010   Section       16  power.o(.data)
    s_fValueToRopePowerFactor                0x20000010   Data           4  power.o(.data)
    s_Sen1BaseVal                            0x20000014   Data           4  power.o(.data)
    TryCnt                                   0x20000018   Data           1  power.o(.data)
    .data                                    0x20000020   Section       56  tasks.o(.data)
    pxDelayedTaskList                        0x20000024   Data           4  tasks.o(.data)
    pxOverflowDelayedTaskList                0x20000028   Data           4  tasks.o(.data)
    uxCurrentNumberOfTasks                   0x2000002c   Data           4  tasks.o(.data)
    xTickCount                               0x20000030   Data           4  tasks.o(.data)
    uxTopReadyPriority                       0x20000034   Data           4  tasks.o(.data)
    xSchedulerRunning                        0x20000038   Data           4  tasks.o(.data)
    uxPendedTicks                            0x2000003c   Data           4  tasks.o(.data)
    xYieldPending                            0x20000040   Data           4  tasks.o(.data)
    xNumOfOverflows                          0x20000044   Data           4  tasks.o(.data)
    uxTaskNumber                             0x20000048   Data           4  tasks.o(.data)
    xNextTaskUnblockTime                     0x2000004c   Data           4  tasks.o(.data)
    xIdleTaskHandle                          0x20000050   Data           4  tasks.o(.data)
    uxSchedulerSuspended                     0x20000054   Data           4  tasks.o(.data)
    .data                                    0x20000058   Section       20  timers.o(.data)
    pxCurrentTimerList                       0x20000058   Data           4  timers.o(.data)
    pxOverflowTimerList                      0x2000005c   Data           4  timers.o(.data)
    xTimerQueue                              0x20000060   Data           4  timers.o(.data)
    xTimerTaskHandle                         0x20000064   Data           4  timers.o(.data)
    xLastTime                                0x20000068   Data           4  timers.o(.data)
    .data                                    0x2000006c   Section       24  heap_4.o(.data)
    xStart                                   0x2000006c   Data           8  heap_4.o(.data)
    pxEnd                                    0x20000074   Data           4  heap_4.o(.data)
    xFreeBytesRemaining                      0x20000078   Data           4  heap_4.o(.data)
    xMinimumEverFreeBytesRemaining           0x2000007c   Data           4  heap_4.o(.data)
    xBlockAllocatedBit                       0x20000080   Data           4  heap_4.o(.data)
    .data                                    0x20000084   Section       12  port.o(.data)
    uxCriticalNesting                        0x20000084   Data           4  port.o(.data)
    ucMaxSysCallPriority                     0x20000088   Data           1  port.o(.data)
    ulMaxPRIGROUPValue                       0x2000008c   Data           4  port.o(.data)
    .data                                    0x20000090   Section       12  timer.o(.data)
    .data                                    0x2000009c   Section     2240  slave_od.o(.data)
    .data                                    0x2000095c   Section     2780  master_od.o(.data)
    .data                                    0x20001438   Section        8  timer_stm32.o(.data)
    last_counter_val                         0x20001438   Data           4  timer_stm32.o(.data)
    elapsed_time                             0x2000143c   Data           4  timer_stm32.o(.data)
    .data                                    0x20001440   Section        4  master_function.o(.data)
    .data                                    0x20001444   Section       44  lift_ctrl.o(.data)
    C_SELF_FORCE_POWER                       0x20001444   Data           4  lift_ctrl.o(.data)
    s_TopInitPos                             0x20001448   Data           4  lift_ctrl.o(.data)
    s_LiftSetPower                           0x2000144c   Data           4  lift_ctrl.o(.data)
    s_SetMaxPower                            0x20001450   Data           4  lift_ctrl.o(.data)
    s_fServoMoment                           0x20001454   Data           4  lift_ctrl.o(.data)
    s_AutoDecFlag                            0x20001458   Data           1  lift_ctrl.o(.data)
    s_AutoLiftTopPos                         0x2000145c   Data           4  lift_ctrl.o(.data)
    s_AutoLiftBackPos                        0x20001460   Data           4  lift_ctrl.o(.data)
    s_IsLiftEmeyStop                         0x20001464   Data           1  lift_ctrl.o(.data)
    s_IsMaxSpeedLimit                        0x20001465   Data           1  lift_ctrl.o(.data)
    s_eLastSensorState                       0x2000146c   Data           1  lift_ctrl.o(.data)
    s_IsServoSuc                             0x2000146d   Data           1  lift_ctrl.o(.data)
    s_IsPowerSuc                             0x2000146e   Data           1  lift_ctrl.o(.data)
    s_IsSyncStart                            0x2000146f   Data           1  lift_ctrl.o(.data)
    .data                                    0x20001470   Section        8  task_master_msg.o(.data)
    s_CANSendQueue                           0x20001470   Data           4  task_master_msg.o(.data)
    s_CANRcvQueue                            0x20001474   Data           4  task_master_msg.o(.data)
    .data                                    0x20001478   Section        8  task_slave_msg.o(.data)
    s_CANSendQueue                           0x20001478   Data           4  task_slave_msg.o(.data)
    s_CANRcvQueue                            0x2000147c   Data           4  task_slave_msg.o(.data)
    .data                                    0x20001480   Section        8  task_lift_mgr.o(.data)
    s_LiftMgrQueue                           0x20001480   Data           4  task_lift_mgr.o(.data)
    .data                                    0x20001488   Section        4  task_canopen_com.o(.data)
    s_CanopenComTaskHandle                   0x20001488   Data           4  task_canopen_com.o(.data)
    .data                                    0x2000148c   Section        2  servo.o(.data)
    s_stServoConf                            0x2000148c   Data           2  servo.o(.data)
    .data                                    0x20001490   Section       92  bsp_gpio.o(.data)
    s_aLedPort                               0x20001490   Data           4  bsp_gpio.o(.data)
    s_aKeyPort                               0x20001494   Data          24  bsp_gpio.o(.data)
    s_aSensor                                0x200014ac   Data          48  bsp_gpio.o(.data)
    s_aCtrlPort                              0x200014dc   Data          16  bsp_gpio.o(.data)
    .data                                    0x200014ec   Section        8  bsp_dac.o(.data)
    s_stConfig                               0x200014ec   Data           8  bsp_dac.o(.data)
    .data                                    0x200014f4   Section        2  bsp_flash.o(.data)
    s_NewWriteIdx                            0x200014f4   Data           2  bsp_flash.o(.data)
    .data                                    0x200014f6   Section       17  segger_rtt.o(.data)
    _aTerminalId                             0x200014f6   Data          16  segger_rtt.o(.data)
    _ActiveTerminal                          0x20001506   Data           1  segger_rtt.o(.data)
    .data                                    0x20001508   Section       40  ads1230_app.o(.data)
    s_astSensorCfgInfo                       0x20001508   Data           3  ads1230_app.o(.data)
    s_PressureSensorTimerHandle              0x2000150c   Data           4  ads1230_app.o(.data)
    s_SensorRealValueTimerHandle             0x20001510   Data           4  ads1230_app.o(.data)
    s_SensorInitTaskHandle                   0x20001514   Data           4  ads1230_app.o(.data)
    i                                        0x2000152c   Data           4  ads1230_app.o(.data)
    .data                                    0x20001530   Section       48  ads1230_drv.o(.data)
    s_stSelClk                               0x20001530   Data           8  ads1230_drv.o(.data)
    .data                                    0x20001560   Section        4  delay.o(.data)
    s_FactorUs                               0x20001560   Data           1  delay.o(.data)
    s_FactorMs                               0x20001562   Data           2  delay.o(.data)
    .data                                    0x20001564   Section       46  public_var.o(.data)
    s_SendToVirtualComTaskHandle             0x20001564   Data           4  public_var.o(.data)
    .bss                                     0x20001594   Section       32  stm32f4xx_hal_flash.o(.bss)
    .bss                                     0x200015b4   Section       80  queue.o(.bss)
    .bss                                     0x20001604   Section      380  tasks.o(.bss)
    pxReadyTasksLists                        0x20001604   Data         320  tasks.o(.bss)
    xDelayedTaskList1                        0x20001744   Data          20  tasks.o(.bss)
    xDelayedTaskList2                        0x20001758   Data          20  tasks.o(.bss)
    xPendingReadyList                        0x2000176c   Data          20  tasks.o(.bss)
    .bss                                     0x20001780   Section       40  timers.o(.bss)
    xActiveTimerList1                        0x20001780   Data          20  timers.o(.bss)
    xActiveTimerList2                        0x20001794   Data          20  timers.o(.bss)
    .bss                                     0x200017a8   Section    102400  heap_4.o(.bss)
    ucHeap                                   0x200017a8   Data       102400  heap_4.o(.bss)
    .bss                                     0x2001a7a8   Section      744  timer.o(.bss)
    .bss                                     0x2001aa90   Section       80  can_stm32.o(.bss)
    .bss                                     0x2001aae0   Section       64  timer_stm32.o(.bss)
    .bss                                     0x2001ab20   Section      216  key.o(.bss)
    s_stUpKeyInfo                            0x2001ab20   Data          36  key.o(.bss)
    s_stDownKeyInfo                          0x2001ab44   Data          36  key.o(.bss)
    s_stFrontKeyInfo                         0x2001ab68   Data          36  key.o(.bss)
    s_stBackKeyInfo                          0x2001ab8c   Data          36  key.o(.bss)
    s_stIncKeyInfo                           0x2001abb0   Data          36  key.o(.bss)
    s_stDecKeyInfo                           0x2001abd4   Data          36  key.o(.bss)
    .bss                                     0x2001abf8   Section       36  led.o(.bss)
    s_stLedBlinkInfo                         0x2001abf8   Data          36  led.o(.bss)
    .bss                                     0x2001ac1c   Section      100  bsp_encoder.o(.bss)
    s_stEncoderConfig                        0x2001ac1c   Data          36  bsp_encoder.o(.bss)
    .bss                                     0x2001ac80   Section       20  bsp_dac.o(.bss)
    s_stDacHandle                            0x2001ac80   Data          20  bsp_dac.o(.bss)
    .bss                                     0x2001ac94   Section       32  bsp_flash.o(.bss)
    s_aParaTbl                               0x2001ac94   Data          32  bsp_flash.o(.bss)
    .bss                                     0x2001acb4   Section     1480  debug.o(.bss)
    s_aPrintStrBuf                           0x2001acb4   Data        1024  debug.o(.bss)
    s_aPrintHexBuf                           0x2001b0b4   Data         200  debug.o(.bss)
    aStrBuf                                  0x2001b17c   Data         256  debug.o(.bss)
    .bss                                     0x2001b27c   Section     2424  segger_rtt.o(.bss)
    _acUpBuffer                              0x2001b2f4   Data        2048  segger_rtt.o(.bss)
    _acDownBuffer                            0x2001baf4   Data         256  segger_rtt.o(.bss)
    .bss                                     0x2001bbf4   Section       48  ads1230_app.o(.bss)
    s_astSensorData                          0x2001bbf4   Data          12  ads1230_app.o(.bss)
    .bss                                     0x2001bc24   Section      348  public_var.o(.bss)
    .bss                                     0x2001bd80   Section       44  localtime_w.o(.bss)
    _tms                                     0x2001bd80   Data          44  localtime_w.o(.bss)
    STACK                                    0x2001bdb0   Section     4096  startup_stm32f407xx.o(STACK)

    Global Symbols

    Symbol Name                              Value     Ov Type        Size  Object(Section)

    BuildAttributes$$THM_ISAv4$E$P$D$K$B$S$7EM$VFPi3$EXTD16$VFPS$VFMA$PE$A:L22UL41UL21$X:L11$S22US41US21$IEEE1$IW$USESV6$~STKCKD$USESV7$~SHL$OTIME$ROPI$EBA8$MICROLIB$REQ8$PRES8$EABIv2 0x00000000   Number         0  anon$$obj.o ABSOLUTE
    __ARM_use_no_argv                        0x00000000   Number         0  main.o ABSOLUTE
    _printf_a                                0x00000000   Number         0  stubs.o ABSOLUTE
    _printf_c                                0x00000000   Number         0  stubs.o ABSOLUTE
    _printf_charcount                        0x00000000   Number         0  stubs.o ABSOLUTE
    _printf_d                                0x00000000   Number         0  stubs.o ABSOLUTE
    _printf_e                                0x00000000   Number         0  stubs.o ABSOLUTE
    _printf_f                                0x00000000   Number         0  stubs.o ABSOLUTE
    _printf_flags                            0x00000000   Number         0  stubs.o ABSOLUTE
    _printf_fp_dec                           0x00000000   Number         0  stubs.o ABSOLUTE
    _printf_fp_hex                           0x00000000   Number         0  stubs.o ABSOLUTE
    _printf_g                                0x00000000   Number         0  stubs.o ABSOLUTE
    _printf_i                                0x00000000   Number         0  stubs.o ABSOLUTE
    _printf_int_dec                          0x00000000   Number         0  stubs.o ABSOLUTE
    _printf_l                                0x00000000   Number         0  stubs.o ABSOLUTE
    _printf_lc                               0x00000000   Number         0  stubs.o ABSOLUTE
    _printf_ll                               0x00000000   Number         0  stubs.o ABSOLUTE
    _printf_lld                              0x00000000   Number         0  stubs.o ABSOLUTE
    _printf_lli                              0x00000000   Number         0  stubs.o ABSOLUTE
    _printf_llo                              0x00000000   Number         0  stubs.o ABSOLUTE
    _printf_llu                              0x00000000   Number         0  stubs.o ABSOLUTE
    _printf_llx                              0x00000000   Number         0  stubs.o ABSOLUTE
    _printf_longlong_dec                     0x00000000   Number         0  stubs.o ABSOLUTE
    _printf_longlong_hex                     0x00000000   Number         0  stubs.o ABSOLUTE
    _printf_longlong_oct                     0x00000000   Number         0  stubs.o ABSOLUTE
    _printf_ls                               0x00000000   Number         0  stubs.o ABSOLUTE
    _printf_mbtowc                           0x00000000   Number         0  stubs.o ABSOLUTE
    _printf_n                                0x00000000   Number         0  stubs.o ABSOLUTE
    _printf_o                                0x00000000   Number         0  stubs.o ABSOLUTE
    _printf_p                                0x00000000   Number         0  stubs.o ABSOLUTE
    _printf_percent                          0x00000000   Number         0  stubs.o ABSOLUTE
    _printf_pre_padding                      0x00000000   Number         0  stubs.o ABSOLUTE
    _printf_return_value                     0x00000000   Number         0  stubs.o ABSOLUTE
    _printf_s                                0x00000000   Number         0  stubs.o ABSOLUTE
    _printf_sizespec                         0x00000000   Number         0  stubs.o ABSOLUTE
    _printf_str                              0x00000000   Number         0  stubs.o ABSOLUTE
    _printf_truncate_signed                  0x00000000   Number         0  stubs.o ABSOLUTE
    _printf_truncate_unsigned                0x00000000   Number         0  stubs.o ABSOLUTE
    _printf_u                                0x00000000   Number         0  stubs.o ABSOLUTE
    _printf_wc                               0x00000000   Number         0  stubs.o ABSOLUTE
    _printf_wctomb                           0x00000000   Number         0  stubs.o ABSOLUTE
    _printf_widthprec                        0x00000000   Number         0  stubs.o ABSOLUTE
    _printf_x                                0x00000000   Number         0  stubs.o ABSOLUTE
    __cpp_initialize__aeabi_                  - Undefined Weak Reference
    __cxa_finalize                            - Undefined Weak Reference
    _clock_init                               - Undefined Weak Reference
    _microlib_exit                            - Undefined Weak Reference
    __Vectors_Size                           0x00000188   Number         0  startup_stm32f407xx.o ABSOLUTE
    __Vectors                                0x08000000   Data           4  startup_stm32f407xx.o(RESET)
    __Vectors_End                            0x08000188   Data           0  startup_stm32f407xx.o(RESET)
    __main                                   0x08000189   Thumb Code     0  entry.o(.ARM.Collect$$$$00000000)
    _main_stk                                0x08000189   Thumb Code     0  entry2.o(.ARM.Collect$$$$00000001)
    _main_scatterload                        0x0800018d   Thumb Code     0  entry5.o(.ARM.Collect$$$$00000004)
    __main_after_scatterload                 0x08000191   Thumb Code     0  entry5.o(.ARM.Collect$$$$00000004)
    _main_clock                              0x08000191   Thumb Code     0  entry7b.o(.ARM.Collect$$$$00000008)
    _main_cpp_init                           0x08000191   Thumb Code     0  entry8b.o(.ARM.Collect$$$$0000000A)
    _main_init                               0x08000191   Thumb Code     0  entry9a.o(.ARM.Collect$$$$0000000B)
    __rt_final_cpp                           0x08000199   Thumb Code     0  entry10a.o(.ARM.Collect$$$$0000000D)
    __rt_final_exit                          0x08000199   Thumb Code     0  entry11a.o(.ARM.Collect$$$$0000000F)
    SVC_Handler                              0x0800019d   Thumb Code    28  port.o(.emb_text)
    __asm___6_port_c_39a90d8d__prvStartFirstTask 0x080001bd   Thumb Code    28  port.o(.emb_text)
    __asm___6_port_c_39a90d8d__prvEnableVFP  0x080001dd   Thumb Code    16  port.o(.emb_text)
    PendSV_Handler                           0x080001f1   Thumb Code    88  port.o(.emb_text)
    vPortGetIPSR                             0x0800024d   Thumb Code     6  port.o(.emb_text)
    SystemInit                               0x08000255   Thumb Code    82  system_stm32f4xx.o(.text)
    SystemCoreClockUpdate                    0x080002a7   Thumb Code   174  system_stm32f4xx.o(.text)
    Reset_Handler                            0x08000375   Thumb Code     8  startup_stm32f407xx.o(.text)
    ADC_IRQHandler                           0x0800038f   Thumb Code     0  startup_stm32f407xx.o(.text)
    CAN1_RX1_IRQHandler                      0x0800038f   Thumb Code     0  startup_stm32f407xx.o(.text)
    CAN1_TX_IRQHandler                       0x0800038f   Thumb Code     0  startup_stm32f407xx.o(.text)
    CAN2_RX1_IRQHandler                      0x0800038f   Thumb Code     0  startup_stm32f407xx.o(.text)
    CAN2_TX_IRQHandler                       0x0800038f   Thumb Code     0  startup_stm32f407xx.o(.text)
    DCMI_IRQHandler                          0x0800038f   Thumb Code     0  startup_stm32f407xx.o(.text)
    DMA1_Stream0_IRQHandler                  0x0800038f   Thumb Code     0  startup_stm32f407xx.o(.text)
    DMA1_Stream1_IRQHandler                  0x0800038f   Thumb Code     0  startup_stm32f407xx.o(.text)
    DMA1_Stream2_IRQHandler                  0x0800038f   Thumb Code     0  startup_stm32f407xx.o(.text)
    DMA1_Stream3_IRQHandler                  0x0800038f   Thumb Code     0  startup_stm32f407xx.o(.text)
    DMA1_Stream4_IRQHandler                  0x0800038f   Thumb Code     0  startup_stm32f407xx.o(.text)
    DMA1_Stream5_IRQHandler                  0x0800038f   Thumb Code     0  startup_stm32f407xx.o(.text)
    DMA1_Stream6_IRQHandler                  0x0800038f   Thumb Code     0  startup_stm32f407xx.o(.text)
    DMA1_Stream7_IRQHandler                  0x0800038f   Thumb Code     0  startup_stm32f407xx.o(.text)
    DMA2_Stream0_IRQHandler                  0x0800038f   Thumb Code     0  startup_stm32f407xx.o(.text)
    DMA2_Stream1_IRQHandler                  0x0800038f   Thumb Code     0  startup_stm32f407xx.o(.text)
    DMA2_Stream2_IRQHandler                  0x0800038f   Thumb Code     0  startup_stm32f407xx.o(.text)
    DMA2_Stream3_IRQHandler                  0x0800038f   Thumb Code     0  startup_stm32f407xx.o(.text)
    DMA2_Stream4_IRQHandler                  0x0800038f   Thumb Code     0  startup_stm32f407xx.o(.text)
    DMA2_Stream5_IRQHandler                  0x0800038f   Thumb Code     0  startup_stm32f407xx.o(.text)
    DMA2_Stream6_IRQHandler                  0x0800038f   Thumb Code     0  startup_stm32f407xx.o(.text)
    DMA2_Stream7_IRQHandler                  0x0800038f   Thumb Code     0  startup_stm32f407xx.o(.text)
    ETH_IRQHandler                           0x0800038f   Thumb Code     0  startup_stm32f407xx.o(.text)
    ETH_WKUP_IRQHandler                      0x0800038f   Thumb Code     0  startup_stm32f407xx.o(.text)
    EXTI0_IRQHandler                         0x0800038f   Thumb Code     0  startup_stm32f407xx.o(.text)
    EXTI15_10_IRQHandler                     0x0800038f   Thumb Code     0  startup_stm32f407xx.o(.text)
    EXTI1_IRQHandler                         0x0800038f   Thumb Code     0  startup_stm32f407xx.o(.text)
    EXTI2_IRQHandler                         0x0800038f   Thumb Code     0  startup_stm32f407xx.o(.text)
    EXTI3_IRQHandler                         0x0800038f   Thumb Code     0  startup_stm32f407xx.o(.text)
    EXTI4_IRQHandler                         0x0800038f   Thumb Code     0  startup_stm32f407xx.o(.text)
    FLASH_IRQHandler                         0x0800038f   Thumb Code     0  startup_stm32f407xx.o(.text)
    FMC_IRQHandler                           0x0800038f   Thumb Code     0  startup_stm32f407xx.o(.text)
    FPU_IRQHandler                           0x0800038f   Thumb Code     0  startup_stm32f407xx.o(.text)
    HASH_RNG_IRQHandler                      0x0800038f   Thumb Code     0  startup_stm32f407xx.o(.text)
    I2C1_ER_IRQHandler                       0x0800038f   Thumb Code     0  startup_stm32f407xx.o(.text)
    I2C1_EV_IRQHandler                       0x0800038f   Thumb Code     0  startup_stm32f407xx.o(.text)
    I2C2_ER_IRQHandler                       0x0800038f   Thumb Code     0  startup_stm32f407xx.o(.text)
    I2C2_EV_IRQHandler                       0x0800038f   Thumb Code     0  startup_stm32f407xx.o(.text)
    I2C3_ER_IRQHandler                       0x0800038f   Thumb Code     0  startup_stm32f407xx.o(.text)
    I2C3_EV_IRQHandler                       0x0800038f   Thumb Code     0  startup_stm32f407xx.o(.text)
    OTG_FS_IRQHandler                        0x0800038f   Thumb Code     0  startup_stm32f407xx.o(.text)
    OTG_FS_WKUP_IRQHandler                   0x0800038f   Thumb Code     0  startup_stm32f407xx.o(.text)
    OTG_HS_EP1_IN_IRQHandler                 0x0800038f   Thumb Code     0  startup_stm32f407xx.o(.text)
    OTG_HS_EP1_OUT_IRQHandler                0x0800038f   Thumb Code     0  startup_stm32f407xx.o(.text)
    OTG_HS_IRQHandler                        0x0800038f   Thumb Code     0  startup_stm32f407xx.o(.text)
    OTG_HS_WKUP_IRQHandler                   0x0800038f   Thumb Code     0  startup_stm32f407xx.o(.text)
    PVD_IRQHandler                           0x0800038f   Thumb Code     0  startup_stm32f407xx.o(.text)
    RCC_IRQHandler                           0x0800038f   Thumb Code     0  startup_stm32f407xx.o(.text)
    RTC_Alarm_IRQHandler                     0x0800038f   Thumb Code     0  startup_stm32f407xx.o(.text)
    RTC_WKUP_IRQHandler                      0x0800038f   Thumb Code     0  startup_stm32f407xx.o(.text)
    SDIO_IRQHandler                          0x0800038f   Thumb Code     0  startup_stm32f407xx.o(.text)
    SPI1_IRQHandler                          0x0800038f   Thumb Code     0  startup_stm32f407xx.o(.text)
    SPI2_IRQHandler                          0x0800038f   Thumb Code     0  startup_stm32f407xx.o(.text)
    SPI3_IRQHandler                          0x0800038f   Thumb Code     0  startup_stm32f407xx.o(.text)
    TAMP_STAMP_IRQHandler                    0x0800038f   Thumb Code     0  startup_stm32f407xx.o(.text)
    TIM1_BRK_TIM9_IRQHandler                 0x0800038f   Thumb Code     0  startup_stm32f407xx.o(.text)
    TIM1_CC_IRQHandler                       0x0800038f   Thumb Code     0  startup_stm32f407xx.o(.text)
    TIM1_TRG_COM_TIM11_IRQHandler            0x0800038f   Thumb Code     0  startup_stm32f407xx.o(.text)
    TIM1_UP_TIM10_IRQHandler                 0x0800038f   Thumb Code     0  startup_stm32f407xx.o(.text)
    TIM2_IRQHandler                          0x0800038f   Thumb Code     0  startup_stm32f407xx.o(.text)
    TIM5_IRQHandler                          0x0800038f   Thumb Code     0  startup_stm32f407xx.o(.text)
    TIM6_DAC_IRQHandler                      0x0800038f   Thumb Code     0  startup_stm32f407xx.o(.text)
    TIM7_IRQHandler                          0x0800038f   Thumb Code     0  startup_stm32f407xx.o(.text)
    TIM8_BRK_TIM12_IRQHandler                0x0800038f   Thumb Code     0  startup_stm32f407xx.o(.text)
    TIM8_CC_IRQHandler                       0x0800038f   Thumb Code     0  startup_stm32f407xx.o(.text)
    TIM8_TRG_COM_TIM14_IRQHandler            0x0800038f   Thumb Code     0  startup_stm32f407xx.o(.text)
    TIM8_UP_TIM13_IRQHandler                 0x0800038f   Thumb Code     0  startup_stm32f407xx.o(.text)
    UART4_IRQHandler                         0x0800038f   Thumb Code     0  startup_stm32f407xx.o(.text)
    UART5_IRQHandler                         0x0800038f   Thumb Code     0  startup_stm32f407xx.o(.text)
    USART1_IRQHandler                        0x0800038f   Thumb Code     0  startup_stm32f407xx.o(.text)
    USART2_IRQHandler                        0x0800038f   Thumb Code     0  startup_stm32f407xx.o(.text)
    USART3_IRQHandler                        0x0800038f   Thumb Code     0  startup_stm32f407xx.o(.text)
    USART6_IRQHandler                        0x0800038f   Thumb Code     0  startup_stm32f407xx.o(.text)
    WWDG_IRQHandler                          0x0800038f   Thumb Code     0  startup_stm32f407xx.o(.text)
    FLASH_FlushCaches                        0x08000399   Thumb Code   114  stm32f4xx_hal_flash_ex.o(.text)
    FLASH_Erase_Sector                       0x0800040b   Thumb Code   182  stm32f4xx_hal_flash_ex.o(.text)
    HAL_FLASHEx_Erase                        0x08000521   Thumb Code   220  stm32f4xx_hal_flash_ex.o(.text)
    HAL_FLASHEx_Erase_IT                     0x080005fd   Thumb Code   166  stm32f4xx_hal_flash_ex.o(.text)
    HAL_FLASHEx_OBProgram                    0x0800085f   Thumb Code   188  stm32f4xx_hal_flash_ex.o(.text)
    HAL_FLASHEx_OBGetConfig                  0x0800095b   Thumb Code    34  stm32f4xx_hal_flash_ex.o(.text)
    HAL_InitTick                             0x08000987   Thumb Code    64  stm32f4xx_hal.o(.text)
    HAL_Init                                 0x080009c7   Thumb Code    54  stm32f4xx_hal.o(.text)
    HAL_DeInit                               0x080009ff   Thumb Code    64  stm32f4xx_hal.o(.text)
    HAL_IncTick                              0x08000a3f   Thumb Code    16  stm32f4xx_hal.o(.text)
    HAL_GetTick                              0x08000a4f   Thumb Code     6  stm32f4xx_hal.o(.text)
    HAL_GetTickPrio                          0x08000a55   Thumb Code     6  stm32f4xx_hal.o(.text)
    HAL_SetTickFreq                          0x08000a5b   Thumb Code    56  stm32f4xx_hal.o(.text)
    HAL_GetTickFreq                          0x08000a93   Thumb Code     6  stm32f4xx_hal.o(.text)
    HAL_Delay                                0x08000a99   Thumb Code    36  stm32f4xx_hal.o(.text)
    HAL_SuspendTick                          0x08000abd   Thumb Code    18  stm32f4xx_hal.o(.text)
    HAL_ResumeTick                           0x08000acf   Thumb Code    18  stm32f4xx_hal.o(.text)
    HAL_GetHalVersion                        0x08000ae1   Thumb Code     4  stm32f4xx_hal.o(.text)
    HAL_GetREVID                             0x08000ae5   Thumb Code     8  stm32f4xx_hal.o(.text)
    HAL_GetDEVID                             0x08000aed   Thumb Code    10  stm32f4xx_hal.o(.text)
    HAL_DBGMCU_EnableDBGSleepMode            0x08000af7   Thumb Code    14  stm32f4xx_hal.o(.text)
    HAL_DBGMCU_DisableDBGSleepMode           0x08000b05   Thumb Code    14  stm32f4xx_hal.o(.text)
    HAL_DBGMCU_EnableDBGStopMode             0x08000b13   Thumb Code    14  stm32f4xx_hal.o(.text)
    HAL_DBGMCU_DisableDBGStopMode            0x08000b21   Thumb Code    14  stm32f4xx_hal.o(.text)
    HAL_DBGMCU_EnableDBGStandbyMode          0x08000b2f   Thumb Code    14  stm32f4xx_hal.o(.text)
    HAL_DBGMCU_DisableDBGStandbyMode         0x08000b3d   Thumb Code    14  stm32f4xx_hal.o(.text)
    HAL_EnableCompensationCell               0x08000b4b   Thumb Code     8  stm32f4xx_hal.o(.text)
    HAL_DisableCompensationCell              0x08000b53   Thumb Code     8  stm32f4xx_hal.o(.text)
    HAL_GetUIDw0                             0x08000b5b   Thumb Code     6  stm32f4xx_hal.o(.text)
    HAL_GetUIDw1                             0x08000b61   Thumb Code     8  stm32f4xx_hal.o(.text)
    HAL_GetUIDw2                             0x08000b69   Thumb Code     8  stm32f4xx_hal.o(.text)
    HAL_CAN_Init                             0x08000bd3   Thumb Code   844  stm32f4xx_hal_can.o(.text)
    HAL_CAN_Stop                             0x08000f21   Thumb Code   106  stm32f4xx_hal_can.o(.text)
    HAL_CAN_DeInit                           0x08000f8b   Thumb Code   142  stm32f4xx_hal_can.o(.text)
    HAL_CAN_ConfigFilter                     0x08001019   Thumb Code   520  stm32f4xx_hal_can.o(.text)
    HAL_CAN_Start                            0x08001221   Thumb Code    94  stm32f4xx_hal_can.o(.text)
    HAL_CAN_RequestSleep                     0x0800127f   Thumb Code    42  stm32f4xx_hal_can.o(.text)
    HAL_CAN_WakeUp                           0x080012a9   Thumb Code    86  stm32f4xx_hal_can.o(.text)
    HAL_CAN_IsSleepActive                    0x080012ff   Thumb Code    30  stm32f4xx_hal_can.o(.text)
    HAL_CAN_AddTxMessage                     0x0800131d   Thumb Code   456  stm32f4xx_hal_can.o(.text)
    HAL_CAN_AbortTxRequest                   0x080014e5   Thumb Code   106  stm32f4xx_hal_can.o(.text)
    HAL_CAN_GetTxMailboxesFreeLevel          0x0800154f   Thumb Code    54  stm32f4xx_hal_can.o(.text)
    HAL_CAN_IsTxMessagePending               0x08001585   Thumb Code    62  stm32f4xx_hal_can.o(.text)
    HAL_CAN_GetTxTimestamp                   0x080015c3   Thumb Code    80  stm32f4xx_hal_can.o(.text)
    HAL_CAN_GetRxMessage                     0x08001613   Thumb Code   414  stm32f4xx_hal_can.o(.text)
    HAL_CAN_GetRxFifoFillLevel               0x080017b1   Thumb Code    68  stm32f4xx_hal_can.o(.text)
    HAL_CAN_ActivateNotification             0x080017f5   Thumb Code    64  stm32f4xx_hal_can.o(.text)
    HAL_CAN_DeactivateNotification           0x08001835   Thumb Code    64  stm32f4xx_hal_can.o(.text)
    HAL_CAN_WakeUpFromRxMsgCallback          0x08001877   Thumb Code     2  stm32f4xx_hal_can.o(.text)
    HAL_CAN_SleepCallback                    0x08001879   Thumb Code     2  stm32f4xx_hal_can.o(.text)
    HAL_CAN_RxFifo1MsgPendingCallback        0x0800187b   Thumb Code     2  stm32f4xx_hal_can.o(.text)
    HAL_CAN_RxFifo1FullCallback              0x0800187d   Thumb Code     2  stm32f4xx_hal_can.o(.text)
    HAL_CAN_RxFifo0FullCallback              0x08001881   Thumb Code     2  stm32f4xx_hal_can.o(.text)
    HAL_CAN_TxMailbox2AbortCallback          0x08001883   Thumb Code     2  stm32f4xx_hal_can.o(.text)
    HAL_CAN_TxMailbox2CompleteCallback       0x08001885   Thumb Code     2  stm32f4xx_hal_can.o(.text)
    HAL_CAN_TxMailbox1AbortCallback          0x08001887   Thumb Code     2  stm32f4xx_hal_can.o(.text)
    HAL_CAN_TxMailbox1CompleteCallback       0x08001889   Thumb Code     2  stm32f4xx_hal_can.o(.text)
    HAL_CAN_TxMailbox0AbortCallback          0x0800188b   Thumb Code     2  stm32f4xx_hal_can.o(.text)
    HAL_CAN_TxMailbox0CompleteCallback       0x0800188d   Thumb Code     2  stm32f4xx_hal_can.o(.text)
    HAL_CAN_IRQHandler                       0x0800188f   Thumb Code   590  stm32f4xx_hal_can.o(.text)
    HAL_CAN_GetState                         0x08001add   Thumb Code    42  stm32f4xx_hal_can.o(.text)
    HAL_CAN_GetError                         0x08001b07   Thumb Code     6  stm32f4xx_hal_can.o(.text)
    HAL_CAN_ResetError                       0x08001b0d   Thumb Code    34  stm32f4xx_hal_can.o(.text)
    HAL_NVIC_SetPriorityGrouping             0x08001b55   Thumb Code    70  stm32f4xx_hal_cortex.o(.text)
    HAL_NVIC_SetPriority                     0x08001b9b   Thumb Code   152  stm32f4xx_hal_cortex.o(.text)
    HAL_NVIC_EnableIRQ                       0x08001c33   Thumb Code    48  stm32f4xx_hal_cortex.o(.text)
    HAL_NVIC_DisableIRQ                      0x08001c63   Thumb Code    76  stm32f4xx_hal_cortex.o(.text)
    HAL_NVIC_SystemReset                     0x08001caf   Thumb Code    64  stm32f4xx_hal_cortex.o(.text)
    HAL_SYSTICK_Config                       0x08001cef   Thumb Code    52  stm32f4xx_hal_cortex.o(.text)
    HAL_MPU_Disable                          0x08001d23   Thumb Code    42  stm32f4xx_hal_cortex.o(.text)
    HAL_MPU_Enable                           0x08001d4d   Thumb Code    60  stm32f4xx_hal_cortex.o(.text)
    HAL_MPU_ConfigRegion                     0x08001d89   Thumb Code   624  stm32f4xx_hal_cortex.o(.text)
    HAL_NVIC_GetPriorityGrouping             0x08001ff9   Thumb Code     8  stm32f4xx_hal_cortex.o(.text)
    HAL_NVIC_GetPriority                     0x08002001   Thumb Code   180  stm32f4xx_hal_cortex.o(.text)
    HAL_NVIC_SetPendingIRQ                   0x080020b5   Thumb Code    48  stm32f4xx_hal_cortex.o(.text)
    HAL_NVIC_GetPendingIRQ                   0x080020e5   Thumb Code    62  stm32f4xx_hal_cortex.o(.text)
    HAL_NVIC_ClearPendingIRQ                 0x08002123   Thumb Code    50  stm32f4xx_hal_cortex.o(.text)
    HAL_NVIC_GetActive                       0x08002155   Thumb Code    62  stm32f4xx_hal_cortex.o(.text)
    HAL_SYSTICK_CLKSourceConfig              0x08002193   Thumb Code    64  stm32f4xx_hal_cortex.o(.text)
    HAL_SYSTICK_Callback                     0x080021d3   Thumb Code     2  stm32f4xx_hal_cortex.o(.text)
    HAL_SYSTICK_IRQHandler                   0x080021d5   Thumb Code     8  stm32f4xx_hal_cortex.o(.text)
    HAL_DMA_Init                             0x080022d1   Thumb Code   868  stm32f4xx_hal_dma.o(.text)
    HAL_DMA_DeInit                           0x08002635   Thumb Code   282  stm32f4xx_hal_dma.o(.text)
    HAL_DMA_Start                            0x0800277b   Thumb Code   124  stm32f4xx_hal_dma.o(.text)
    HAL_DMA_Start_IT                         0x080027f7   Thumb Code   180  stm32f4xx_hal_dma.o(.text)
    HAL_DMA_Abort                            0x080028ab   Thumb Code   170  stm32f4xx_hal_dma.o(.text)
    HAL_DMA_Abort_IT                         0x08002955   Thumb Code    40  stm32f4xx_hal_dma.o(.text)
    HAL_DMA_PollForTransfer                  0x0800297d   Thumb Code   358  stm32f4xx_hal_dma.o(.text)
    HAL_DMA_IRQHandler                       0x08002ae3   Thumb Code   570  stm32f4xx_hal_dma.o(.text)
    HAL_DMA_RegisterCallback                 0x08002d1d   Thumb Code    94  stm32f4xx_hal_dma.o(.text)
    HAL_DMA_UnRegisterCallback               0x08002d7b   Thumb Code   124  stm32f4xx_hal_dma.o(.text)
    HAL_DMA_GetState                         0x08002df7   Thumb Code     8  stm32f4xx_hal_dma.o(.text)
    HAL_DMA_GetError                         0x08002dff   Thumb Code     6  stm32f4xx_hal_dma.o(.text)
    FLASH_WaitForLastOperation               0x08002e97   Thumb Code    90  stm32f4xx_hal_flash.o(.text)
    HAL_FLASH_Program                        0x08003039   Thumb Code   170  stm32f4xx_hal_flash.o(.text)
    HAL_FLASH_Program_IT                     0x080030e3   Thumb Code   154  stm32f4xx_hal_flash.o(.text)
    HAL_FLASH_EndOfOperationCallback         0x0800317d   Thumb Code     2  stm32f4xx_hal_flash.o(.text)
    HAL_FLASH_OperationErrorCallback         0x0800317f   Thumb Code     2  stm32f4xx_hal_flash.o(.text)
    HAL_FLASH_IRQHandler                     0x08003181   Thumb Code   338  stm32f4xx_hal_flash.o(.text)
    HAL_FLASH_Unlock                         0x080032d3   Thumb Code    38  stm32f4xx_hal_flash.o(.text)
    HAL_FLASH_Lock                           0x080032f9   Thumb Code    16  stm32f4xx_hal_flash.o(.text)
    HAL_FLASH_OB_Unlock                      0x08003309   Thumb Code    34  stm32f4xx_hal_flash.o(.text)
    HAL_FLASH_OB_Lock                        0x0800332b   Thumb Code    20  stm32f4xx_hal_flash.o(.text)
    HAL_FLASH_OB_Launch                      0x0800333f   Thumb Code    28  stm32f4xx_hal_flash.o(.text)
    HAL_FLASH_GetError                       0x0800335b   Thumb Code     6  stm32f4xx_hal_flash.o(.text)
    HAL_GPIO_Init                            0x08003379   Thumb Code   954  stm32f4xx_hal_gpio.o(.text)
    HAL_GPIO_DeInit                          0x08003733   Thumb Code   506  stm32f4xx_hal_gpio.o(.text)
    HAL_GPIO_ReadPin                         0x0800392d   Thumb Code    46  stm32f4xx_hal_gpio.o(.text)
    HAL_GPIO_WritePin                        0x0800395b   Thumb Code    64  stm32f4xx_hal_gpio.o(.text)
    HAL_GPIO_TogglePin                       0x0800399b   Thumb Code    48  stm32f4xx_hal_gpio.o(.text)
    HAL_GPIO_LockPin                         0x080039cb   Thumb Code    72  stm32f4xx_hal_gpio.o(.text)
    HAL_GPIO_EXTI_IRQHandler                 0x08003a15   Thumb Code    28  stm32f4xx_hal_gpio.o(.text)
    HAL_RCC_OscConfig                        0x08003a5d   Thumb Code  1462  stm32f4xx_hal_rcc.o(.text)
    HAL_RCC_GetSysClockFreq                  0x08004013   Thumb Code   162  stm32f4xx_hal_rcc.o(.text)
    HAL_RCC_ClockConfig                      0x080040b5   Thumb Code   658  stm32f4xx_hal_rcc.o(.text)
    HAL_RCC_MCOConfig                        0x08004347   Thumb Code   308  stm32f4xx_hal_rcc.o(.text)
    HAL_RCC_EnableCSS                        0x0800447b   Thumb Code     8  stm32f4xx_hal_rcc.o(.text)
    HAL_RCC_DisableCSS                       0x08004483   Thumb Code     8  stm32f4xx_hal_rcc.o(.text)
    HAL_RCC_GetHCLKFreq                      0x0800448b   Thumb Code     6  stm32f4xx_hal_rcc.o(.text)
    HAL_RCC_GetPCLK1Freq                     0x08004491   Thumb Code    22  stm32f4xx_hal_rcc.o(.text)
    HAL_RCC_GetPCLK2Freq                     0x080044a7   Thumb Code    22  stm32f4xx_hal_rcc.o(.text)
    HAL_RCC_GetOscConfig                     0x080044bd   Thumb Code   248  stm32f4xx_hal_rcc.o(.text)
    HAL_RCC_GetClockConfig                   0x080045b5   Thumb Code    58  stm32f4xx_hal_rcc.o(.text)
    HAL_RCC_CSSCallback                      0x080045ef   Thumb Code     2  stm32f4xx_hal_rcc.o(.text)
    HAL_RCC_NMI_IRQHandler                   0x080045f1   Thumb Code    30  stm32f4xx_hal_rcc.o(.text)
    TIM_Base_SetConfig                       0x08004631   Thumb Code   170  stm32f4xx_hal_tim.o(.text)
    HAL_TIM_Base_Init                        0x080046dd   Thumb Code   270  stm32f4xx_hal_tim.o(.text)
    HAL_TIM_Base_MspDeInit                   0x080047eb   Thumb Code     2  stm32f4xx_hal_tim.o(.text)
    HAL_TIM_Base_DeInit                      0x080047ed   Thumb Code   194  stm32f4xx_hal_tim.o(.text)
    HAL_TIM_Base_Start                       0x080048af   Thumb Code   168  stm32f4xx_hal_tim.o(.text)
    HAL_TIM_Base_Stop                        0x08004957   Thumb Code   182  stm32f4xx_hal_tim.o(.text)
    HAL_TIM_Base_Start_IT                    0x08004a0d   Thumb Code   284  stm32f4xx_hal_tim.o(.text)
    HAL_TIM_Base_Stop_IT                     0x08004b29   Thumb Code   184  stm32f4xx_hal_tim.o(.text)
    HAL_TIM_ErrorCallback                    0x08004be1   Thumb Code     2  stm32f4xx_hal_tim.o(.text)
    TIM_DMAError                             0x08004be3   Thumb Code    20  stm32f4xx_hal_tim.o(.text)
    HAL_TIM_PeriodElapsedHalfCpltCallback    0x08004bf7   Thumb Code     2  stm32f4xx_hal_tim.o(.text)
    HAL_TIM_Base_Start_DMA                   0x08004c23   Thumb Code   202  stm32f4xx_hal_tim.o(.text)
    HAL_TIM_Base_Stop_DMA                    0x08004ced   Thumb Code   148  stm32f4xx_hal_tim.o(.text)
    HAL_TIM_OC_MspInit                       0x08004d81   Thumb Code     2  stm32f4xx_hal_tim.o(.text)
    HAL_TIM_OC_Init                          0x08004d83   Thumb Code   338  stm32f4xx_hal_tim.o(.text)
    HAL_TIM_OC_MspDeInit                     0x08004ed5   Thumb Code     2  stm32f4xx_hal_tim.o(.text)
    HAL_TIM_OC_DeInit                        0x08004ed7   Thumb Code   196  stm32f4xx_hal_tim.o(.text)
    TIM_CCxChannelCmd                        0x08004f9b   Thumb Code   162  stm32f4xx_hal_tim.o(.text)
    HAL_TIM_OC_Start                         0x0800503d   Thumb Code   304  stm32f4xx_hal_tim.o(.text)
    HAL_TIM_OC_Stop                          0x0800516d   Thumb Code   396  stm32f4xx_hal_tim.o(.text)
    HAL_TIM_OC_Start_IT                      0x080052f9   Thumb Code   380  stm32f4xx_hal_tim.o(.text)
    HAL_TIM_OC_Stop_IT                       0x08005475   Thumb Code   420  stm32f4xx_hal_tim.o(.text)
    HAL_TIM_PWM_PulseFinishedHalfCpltCallback 0x08005619   Thumb Code     2  stm32f4xx_hal_tim.o(.text)
    TIM_DMADelayPulseHalfCplt                0x0800561b   Thumb Code    70  stm32f4xx_hal_tim.o(.text)
    HAL_TIM_PWM_PulseFinishedCallback        0x08005661   Thumb Code     2  stm32f4xx_hal_tim.o(.text)
    TIM_DMADelayPulseCplt                    0x08005663   Thumb Code    70  stm32f4xx_hal_tim.o(.text)
    HAL_TIM_OC_Start_DMA                     0x080056a9   Thumb Code   652  stm32f4xx_hal_tim.o(.text)
    HAL_TIM_OC_Stop_DMA                      0x08005935   Thumb Code   450  stm32f4xx_hal_tim.o(.text)
    HAL_TIM_PWM_MspInit                      0x08005af7   Thumb Code     2  stm32f4xx_hal_tim.o(.text)
    HAL_TIM_PWM_Init                         0x08005af9   Thumb Code   316  stm32f4xx_hal_tim.o(.text)
    HAL_TIM_PWM_MspDeInit                    0x08005c35   Thumb Code     2  stm32f4xx_hal_tim.o(.text)
    HAL_TIM_PWM_DeInit                       0x08005c37   Thumb Code   194  stm32f4xx_hal_tim.o(.text)
    HAL_TIM_PWM_Start                        0x08005cf9   Thumb Code   302  stm32f4xx_hal_tim.o(.text)
    HAL_TIM_PWM_Stop                         0x08005e27   Thumb Code   406  stm32f4xx_hal_tim.o(.text)
    HAL_TIM_PWM_Start_IT                     0x08005fbd   Thumb Code   378  stm32f4xx_hal_tim.o(.text)
    HAL_TIM_PWM_Stop_IT                      0x08006137   Thumb Code   414  stm32f4xx_hal_tim.o(.text)
    HAL_TIM_PWM_Start_DMA                    0x080062d5   Thumb Code   640  stm32f4xx_hal_tim.o(.text)
    HAL_TIM_PWM_Stop_DMA                     0x08006555   Thumb Code   448  stm32f4xx_hal_tim.o(.text)
    HAL_TIM_IC_MspInit                       0x08006715   Thumb Code     2  stm32f4xx_hal_tim.o(.text)
    HAL_TIM_IC_Init                          0x08006717   Thumb Code   332  stm32f4xx_hal_tim.o(.text)
    HAL_TIM_IC_MspDeInit                     0x08006863   Thumb Code     2  stm32f4xx_hal_tim.o(.text)
    HAL_TIM_IC_DeInit                        0x08006865   Thumb Code   194  stm32f4xx_hal_tim.o(.text)
    HAL_TIM_IC_Start                         0x08006927   Thumb Code   262  stm32f4xx_hal_tim.o(.text)
    HAL_TIM_IC_Stop                          0x08006a2d   Thumb Code   280  stm32f4xx_hal_tim.o(.text)
    HAL_TIM_IC_Start_IT                      0x08006b45   Thumb Code   400  stm32f4xx_hal_tim.o(.text)
    HAL_TIM_IC_Stop_IT                       0x08006cd5   Thumb Code   356  stm32f4xx_hal_tim.o(.text)
    HAL_TIM_IC_CaptureHalfCpltCallback       0x08006e39   Thumb Code     2  stm32f4xx_hal_tim.o(.text)
    TIM_DMACaptureHalfCplt                   0x08006e3b   Thumb Code    70  stm32f4xx_hal_tim.o(.text)
    HAL_TIM_IC_CaptureCallback               0x08006e81   Thumb Code     2  stm32f4xx_hal_tim.o(.text)
    TIM_DMACaptureCplt                       0x08006e83   Thumb Code    70  stm32f4xx_hal_tim.o(.text)
    HAL_TIM_IC_Start_DMA                     0x08006ec9   Thumb Code   670  stm32f4xx_hal_tim.o(.text)
    HAL_TIM_IC_Stop_DMA                      0x08007167   Thumb Code   442  stm32f4xx_hal_tim.o(.text)
    HAL_TIM_OnePulse_MspInit                 0x08007321   Thumb Code     2  stm32f4xx_hal_tim.o(.text)
    HAL_TIM_OnePulse_Init                    0x08007323   Thumb Code   312  stm32f4xx_hal_tim.o(.text)
    HAL_TIM_OnePulse_MspDeInit               0x0800745b   Thumb Code     2  stm32f4xx_hal_tim.o(.text)
    HAL_TIM_OnePulse_DeInit                  0x0800745d   Thumb Code   256  stm32f4xx_hal_tim.o(.text)
    HAL_TIM_OnePulse_Start                   0x0800755d   Thumb Code    66  stm32f4xx_hal_tim.o(.text)
    HAL_TIM_OnePulse_Stop                    0x0800759f   Thumb Code   130  stm32f4xx_hal_tim.o(.text)
    HAL_TIM_OnePulse_Start_IT                0x08007621   Thumb Code    90  stm32f4xx_hal_tim.o(.text)
    HAL_TIM_OnePulse_Stop_IT                 0x0800767b   Thumb Code   154  stm32f4xx_hal_tim.o(.text)
    HAL_TIM_Encoder_Init                     0x08007717   Thumb Code   642  stm32f4xx_hal_tim.o(.text)
    HAL_TIM_Encoder_MspDeInit                0x08007999   Thumb Code     2  stm32f4xx_hal_tim.o(.text)
    HAL_TIM_Encoder_DeInit                   0x0800799b   Thumb Code   194  stm32f4xx_hal_tim.o(.text)
    HAL_TIM_Encoder_Start                    0x08007a5d   Thumb Code   154  stm32f4xx_hal_tim.o(.text)
    HAL_TIM_Encoder_Stop                     0x08007af7   Thumb Code   180  stm32f4xx_hal_tim.o(.text)
    HAL_TIM_Encoder_Start_IT                 0x08007bab   Thumb Code   202  stm32f4xx_hal_tim.o(.text)
    HAL_TIM_Encoder_Stop_IT                  0x08007c75   Thumb Code   286  stm32f4xx_hal_tim.o(.text)
    HAL_TIM_Encoder_Start_DMA                0x08007d93   Thumb Code   434  stm32f4xx_hal_tim.o(.text)
    HAL_TIM_Encoder_Stop_DMA                 0x08007f45   Thumb Code   236  stm32f4xx_hal_tim.o(.text)
    HAL_TIM_TriggerCallback                  0x08008031   Thumb Code     2  stm32f4xx_hal_tim.o(.text)
    HAL_TIM_OC_DelayElapsedCallback          0x08008033   Thumb Code     2  stm32f4xx_hal_tim.o(.text)
    HAL_TIM_IRQHandler                       0x08008035   Thumb Code   446  stm32f4xx_hal_tim.o(.text)
    TIM_OC2_SetConfig                        0x08008325   Thumb Code   196  stm32f4xx_hal_tim.o(.text)
    HAL_TIM_OC_ConfigChannel                 0x080084a5   Thumb Code   570  stm32f4xx_hal_tim.o(.text)
    TIM_TI1_SetConfig                        0x0800878d   Thumb Code   114  stm32f4xx_hal_tim.o(.text)
    HAL_TIM_IC_ConfigChannel                 0x080087ff   Thumb Code   688  stm32f4xx_hal_tim.o(.text)
    HAL_TIM_PWM_ConfigChannel                0x08008aaf   Thumb Code   670  stm32f4xx_hal_tim.o(.text)
    HAL_TIM_OnePulse_ConfigChannel           0x08008d4d   Thumb Code   744  stm32f4xx_hal_tim.o(.text)
    HAL_TIM_TriggerHalfCpltCallback          0x08009035   Thumb Code     2  stm32f4xx_hal_tim.o(.text)
    HAL_TIM_DMABurst_WriteStart              0x0800905f   Thumb Code   806  stm32f4xx_hal_tim.o(.text)
    HAL_TIM_DMABurst_WriteStop               0x08009385   Thumb Code   166  stm32f4xx_hal_tim.o(.text)
    HAL_TIM_DMABurst_ReadStart               0x0800942b   Thumb Code   802  stm32f4xx_hal_tim.o(.text)
    HAL_TIM_DMABurst_ReadStop                0x0800974d   Thumb Code   166  stm32f4xx_hal_tim.o(.text)
    HAL_TIM_GenerateEvent                    0x080097f3   Thumb Code   202  stm32f4xx_hal_tim.o(.text)
    TIM_ETR_SetConfig                        0x080098bd   Thumb Code    22  stm32f4xx_hal_tim.o(.text)
    HAL_TIM_ConfigOCrefClear                 0x080098d3   Thumb Code   438  stm32f4xx_hal_tim.o(.text)
    HAL_TIM_ConfigClockSource                0x08009b2d   Thumb Code  1340  stm32f4xx_hal_tim.o(.text)
    HAL_TIM_ConfigTI1Input                   0x0800a069   Thumb Code   102  stm32f4xx_hal_tim.o(.text)
    HAL_TIM_SlaveConfigSynchro               0x0800a45d   Thumb Code   282  stm32f4xx_hal_tim.o(.text)
    HAL_TIM_SlaveConfigSynchro_IT            0x0800a577   Thumb Code   282  stm32f4xx_hal_tim.o(.text)
    HAL_TIM_ReadCapturedValue                0x0800a691   Thumb Code   412  stm32f4xx_hal_tim.o(.text)
    HAL_TIM_Base_GetState                    0x0800a82d   Thumb Code     8  stm32f4xx_hal_tim.o(.text)
    HAL_TIM_OC_GetState                      0x0800a835   Thumb Code     8  stm32f4xx_hal_tim.o(.text)
    HAL_TIM_PWM_GetState                     0x0800a83d   Thumb Code     8  stm32f4xx_hal_tim.o(.text)
    HAL_TIM_IC_GetState                      0x0800a845   Thumb Code     8  stm32f4xx_hal_tim.o(.text)
    HAL_TIM_OnePulse_GetState                0x0800a84d   Thumb Code     8  stm32f4xx_hal_tim.o(.text)
    HAL_TIM_Encoder_GetState                 0x0800a855   Thumb Code     8  stm32f4xx_hal_tim.o(.text)
    PowerParamInit                           0x0800a865   Thumb Code   136  power.o(.text)
    PowerSlaveConfig                         0x0800a8ed   Thumb Code    56  power.o(.text)
    RopePowerReset                           0x0800a9c7   Thumb Code    26  power.o(.text)
    RopePowerVerify                          0x0800a9e1   Thumb Code   118  power.o(.text)
    RopePowerUpdate                          0x0800aa57   Thumb Code   112  power.o(.text)
    HAL_TIMEx_HallSensor_MspInit             0x0800ac09   Thumb Code     2  stm32f4xx_hal_tim_ex.o(.text)
    HAL_TIMEx_HallSensor_Init                0x0800ac0b   Thumb Code   428  stm32f4xx_hal_tim_ex.o(.text)
    HAL_TIMEx_HallSensor_MspDeInit           0x0800adb7   Thumb Code     2  stm32f4xx_hal_tim_ex.o(.text)
    HAL_TIMEx_HallSensor_DeInit              0x0800adb9   Thumb Code   192  stm32f4xx_hal_tim_ex.o(.text)
    HAL_TIMEx_HallSensor_Start               0x0800ae79   Thumb Code   102  stm32f4xx_hal_tim_ex.o(.text)
    HAL_TIMEx_HallSensor_Stop                0x0800aedf   Thumb Code   116  stm32f4xx_hal_tim_ex.o(.text)
    HAL_TIMEx_HallSensor_Start_IT            0x0800af53   Thumb Code   114  stm32f4xx_hal_tim_ex.o(.text)
    HAL_TIMEx_HallSensor_Stop_IT             0x0800afc5   Thumb Code   248  stm32f4xx_hal_tim_ex.o(.text)
    HAL_TIMEx_HallSensor_Start_DMA           0x0800b0bd   Thumb Code   194  stm32f4xx_hal_tim_ex.o(.text)
    HAL_TIMEx_HallSensor_Stop_DMA            0x0800b17f   Thumb Code   136  stm32f4xx_hal_tim_ex.o(.text)
    HAL_TIMEx_OCN_Start                      0x0800b229   Thumb Code   106  stm32f4xx_hal_tim_ex.o(.text)
    HAL_TIMEx_OCN_Stop                       0x0800b293   Thumb Code   146  stm32f4xx_hal_tim_ex.o(.text)
    HAL_TIMEx_OCN_Start_IT                   0x0800b325   Thumb Code   176  stm32f4xx_hal_tim_ex.o(.text)
    HAL_TIMEx_OCN_Stop_IT                    0x0800b3d5   Thumb Code   260  stm32f4xx_hal_tim_ex.o(.text)
    HAL_TIMEx_OCN_Start_DMA                  0x0800b4d9   Thumb Code   324  stm32f4xx_hal_tim_ex.o(.text)
    HAL_TIMEx_OCN_Stop_DMA                   0x0800b61d   Thumb Code   228  stm32f4xx_hal_tim_ex.o(.text)
    HAL_TIMEx_PWMN_Start                     0x0800b701   Thumb Code   106  stm32f4xx_hal_tim_ex.o(.text)
    HAL_TIMEx_PWMN_Stop                      0x0800b76b   Thumb Code   146  stm32f4xx_hal_tim_ex.o(.text)
    HAL_TIMEx_PWMN_Start_IT                  0x0800b7fd   Thumb Code   176  stm32f4xx_hal_tim_ex.o(.text)
    HAL_TIMEx_PWMN_Stop_IT                   0x0800b8ad   Thumb Code   248  stm32f4xx_hal_tim_ex.o(.text)
    HAL_TIMEx_PWMN_Start_DMA                 0x0800b9a5   Thumb Code   324  stm32f4xx_hal_tim_ex.o(.text)
    HAL_TIMEx_PWMN_Stop_DMA                  0x0800bae9   Thumb Code   228  stm32f4xx_hal_tim_ex.o(.text)
    HAL_TIMEx_OnePulseN_Start                0x0800bbcd   Thumb Code    82  stm32f4xx_hal_tim_ex.o(.text)
    HAL_TIMEx_OnePulseN_Stop                 0x0800bc1f   Thumb Code   146  stm32f4xx_hal_tim_ex.o(.text)
    HAL_TIMEx_OnePulseN_Start_IT             0x0800bcb1   Thumb Code   106  stm32f4xx_hal_tim_ex.o(.text)
    HAL_TIMEx_OnePulseN_Stop_IT              0x0800bd1b   Thumb Code   192  stm32f4xx_hal_tim_ex.o(.text)
    HAL_TIMEx_ConfigCommutEvent              0x0800bddb   Thumb Code   204  stm32f4xx_hal_tim_ex.o(.text)
    HAL_TIMEx_ConfigCommutEvent_IT           0x0800bea7   Thumb Code   204  stm32f4xx_hal_tim_ex.o(.text)
    HAL_TIMEx_CommutHalfCpltCallback         0x0800bf73   Thumb Code     2  stm32f4xx_hal_tim_ex.o(.text)
    TIMEx_DMACommutationHalfCplt             0x0800bf75   Thumb Code    20  stm32f4xx_hal_tim_ex.o(.text)
    HAL_TIMEx_CommutCallback                 0x0800bf89   Thumb Code     2  stm32f4xx_hal_tim_ex.o(.text)
    TIMEx_DMACommutationCplt                 0x0800bf8b   Thumb Code    20  stm32f4xx_hal_tim_ex.o(.text)
    HAL_TIMEx_ConfigCommutEvent_DMA          0x0800bf9f   Thumb Code   226  stm32f4xx_hal_tim_ex.o(.text)
    HAL_TIMEx_MasterConfigSynchronization    0x0800c081   Thumb Code   246  stm32f4xx_hal_tim_ex.o(.text)
    HAL_TIMEx_ConfigBreakDeadTime            0x0800c177   Thumb Code   360  stm32f4xx_hal_tim_ex.o(.text)
    HAL_TIMEx_RemapConfig                    0x0800c2df   Thumb Code   116  stm32f4xx_hal_tim_ex.o(.text)
    HAL_TIMEx_BreakCallback                  0x0800c353   Thumb Code     2  stm32f4xx_hal_tim_ex.o(.text)
    HAL_TIMEx_HallSensor_GetState            0x0800c355   Thumb Code     8  stm32f4xx_hal_tim_ex.o(.text)
    HAL_DAC_Init                             0x0800c36b   Thumb Code    60  stm32f4xx_hal_dac.o(.text)
    HAL_DAC_DeInit                           0x0800c3a9   Thumb Code    56  stm32f4xx_hal_dac.o(.text)
    HAL_DAC_Start                            0x0800c3e1   Thumb Code   164  stm32f4xx_hal_dac.o(.text)
    HAL_DAC_Stop                             0x0800c485   Thumb Code    46  stm32f4xx_hal_dac.o(.text)
    HAL_DAC_ErrorCallbackCh1                 0x0800c4b3   Thumb Code     2  stm32f4xx_hal_dac.o(.text)
    HAL_DAC_ConvHalfCpltCallbackCh1          0x0800c4cf   Thumb Code     2  stm32f4xx_hal_dac.o(.text)
    HAL_DAC_ConvCpltCallbackCh1              0x0800c4df   Thumb Code     2  stm32f4xx_hal_dac.o(.text)
    HAL_DAC_Start_DMA                        0x0800c4f3   Thumb Code   302  stm32f4xx_hal_dac.o(.text)
    HAL_DAC_Stop_DMA                         0x0800c621   Thumb Code    92  stm32f4xx_hal_dac.o(.text)
    HAL_DAC_GetValue                         0x0800c67d   Thumb Code    38  stm32f4xx_hal_dac.o(.text)
    HAL_DAC_DMAUnderrunCallbackCh1           0x0800c6a3   Thumb Code     2  stm32f4xx_hal_dac.o(.text)
    HAL_DAC_IRQHandler                       0x0800c6a5   Thumb Code   110  stm32f4xx_hal_dac.o(.text)
    HAL_DAC_ConfigChannel                    0x0800c713   Thumb Code   298  stm32f4xx_hal_dac.o(.text)
    HAL_DAC_SetValue                         0x0800c83d   Thumb Code   116  stm32f4xx_hal_dac.o(.text)
    HAL_DAC_GetState                         0x0800c8b1   Thumb Code     6  stm32f4xx_hal_dac.o(.text)
    HAL_DAC_GetError                         0x0800c8b7   Thumb Code     6  stm32f4xx_hal_dac.o(.text)
    HAL_DACEx_DualGetValue                   0x0800c8bd   Thumb Code    20  stm32f4xx_hal_dac_ex.o(.text)
    HAL_DACEx_TriangleWaveGenerate           0x0800c8d1   Thumb Code   236  stm32f4xx_hal_dac_ex.o(.text)
    HAL_DACEx_NoiseWaveGenerate              0x0800c9bd   Thumb Code   236  stm32f4xx_hal_dac_ex.o(.text)
    HAL_DACEx_DualSetValue                   0x0800caa9   Thumb Code   108  stm32f4xx_hal_dac_ex.o(.text)
    HAL_DACEx_ConvCpltCallbackCh2            0x0800cb15   Thumb Code     2  stm32f4xx_hal_dac_ex.o(.text)
    HAL_DACEx_ConvHalfCpltCallbackCh2        0x0800cb17   Thumb Code     2  stm32f4xx_hal_dac_ex.o(.text)
    HAL_DACEx_ErrorCallbackCh2               0x0800cb19   Thumb Code     2  stm32f4xx_hal_dac_ex.o(.text)
    HAL_DACEx_DMAUnderrunCallbackCh2         0x0800cb1b   Thumb Code     2  stm32f4xx_hal_dac_ex.o(.text)
    DAC_DMAConvCpltCh2                       0x0800cb1d   Thumb Code    18  stm32f4xx_hal_dac_ex.o(.text)
    DAC_DMAHalfConvCpltCh2                   0x0800cb2f   Thumb Code    14  stm32f4xx_hal_dac_ex.o(.text)
    DAC_DMAErrorCh2                          0x0800cb3d   Thumb Code    26  stm32f4xx_hal_dac_ex.o(.text)
    vListInitialise                          0x0800cb99   Thumb Code    26  list.o(.text)
    vListInitialiseItem                      0x0800cbb3   Thumb Code     6  list.o(.text)
    vListInsertEnd                           0x0800cbb9   Thumb Code    24  list.o(.text)
    vListInsert                              0x0800cbd1   Thumb Code    52  list.o(.text)
    uxListRemove                             0x0800cc05   Thumb Code    40  list.o(.text)
    xQueueGenericReset                       0x0800cc2d   Thumb Code   136  queue.o(.text)
    xQueueGenericCreate                      0x0800cce3   Thumb Code    78  queue.o(.text)
    xQueueGenericSend                        0x0800cec7   Thumb Code   474  queue.o(.text)
    xQueueGenericSendFromISR                 0x0800d0a1   Thumb Code   246  queue.o(.text)
    xQueueGiveFromISR                        0x0800d197   Thumb Code   228  queue.o(.text)
    xQueueGenericReceive                     0x0800d2bf   Thumb Code   398  queue.o(.text)
    xQueueReceiveFromISR                     0x0800d44d   Thumb Code   196  queue.o(.text)
    xQueuePeekFromISR                        0x0800d511   Thumb Code   158  queue.o(.text)
    uxQueueMessagesWaiting                   0x0800d5af   Thumb Code    36  queue.o(.text)
    uxQueueSpacesAvailable                   0x0800d5d3   Thumb Code    42  queue.o(.text)
    uxQueueMessagesWaitingFromISR            0x0800d5fd   Thumb Code    28  queue.o(.text)
    vQueueUnregisterQueue                    0x0800d619   Thumb Code    44  queue.o(.text)
    vQueueDelete                             0x0800d645   Thumb Code    38  queue.o(.text)
    uxQueueGetQueueNumber                    0x0800d66b   Thumb Code     6  queue.o(.text)
    vQueueSetQueueNumber                     0x0800d671   Thumb Code     4  queue.o(.text)
    ucQueueGetQueueType                      0x0800d675   Thumb Code     8  queue.o(.text)
    xQueueIsQueueEmptyFromISR                0x0800d67d   Thumb Code    36  queue.o(.text)
    xQueueIsQueueFullFromISR                 0x0800d6a1   Thumb Code    40  queue.o(.text)
    vQueueAddToRegistry                      0x0800d6c9   Thumb Code    38  queue.o(.text)
    pcQueueGetName                           0x0800d6ef   Thumb Code    38  queue.o(.text)
    vQueueWaitForMessageRestricted           0x0800d715   Thumb Code    74  queue.o(.text)
    xQueueCreateSet                          0x0800d75f   Thumb Code    20  queue.o(.text)
    xQueueAddToSet                           0x0800d773   Thumb Code    38  queue.o(.text)
    xQueueRemoveFromSet                      0x0800d799   Thumb Code    48  queue.o(.text)
    xQueueSelectFromSet                      0x0800d7c9   Thumb Code    26  queue.o(.text)
    xQueueSelectFromSetFromISR               0x0800d7e3   Thumb Code    22  queue.o(.text)
    xTaskCreate                              0x0800d97b   Thumb Code    96  tasks.o(.text)
    xTaskIncrementTick                       0x0800da05   Thumb Code   272  tasks.o(.text)
    xTaskResumeAll                           0x0800db15   Thumb Code   340  tasks.o(.text)
    vTaskSuspendAll                          0x0800dcd1   Thumb Code    12  tasks.o(.text)
    vTaskDelayUntil                          0x0800dcdd   Thumb Code   182  tasks.o(.text)
    vTaskDelay                               0x0800dd93   Thumb Code    76  tasks.o(.text)
    eTaskGetState                            0x0800dddf   Thumb Code    76  tasks.o(.text)
    uxTaskPriorityGet                        0x0800de2b   Thumb Code    30  tasks.o(.text)
    uxTaskPriorityGetFromISR                 0x0800de49   Thumb Code    62  tasks.o(.text)
    vTaskStartScheduler                      0x0800dea9   Thumb Code   114  tasks.o(.text)
    vTaskEndScheduler                        0x0800df1b   Thumb Code    32  tasks.o(.text)
    xTaskGetTickCount                        0x0800df3b   Thumb Code     6  tasks.o(.text)
    xTaskGetTickCountFromISR                 0x0800df41   Thumb Code    16  tasks.o(.text)
    uxTaskGetNumberOfTasks                   0x0800df51   Thumb Code     6  tasks.o(.text)
    pcTaskGetName                            0x0800df57   Thumb Code    40  tasks.o(.text)
    vTaskGetInfo                             0x0800df95   Thumb Code    90  tasks.o(.text)
    uxTaskGetSystemState                     0x0800e095   Thumb Code   116  tasks.o(.text)
    vTaskSwitchContext                       0x0800e109   Thumb Code   114  tasks.o(.text)
    vTaskPlaceOnEventList                    0x0800e17b   Thumb Code    46  tasks.o(.text)
    vTaskPlaceOnUnorderedEventList           0x0800e1a9   Thumb Code    88  tasks.o(.text)
    vTaskPlaceOnEventListRestricted          0x0800e201   Thumb Code    54  tasks.o(.text)
    xTaskRemoveFromEventList                 0x0800e237   Thumb Code   122  tasks.o(.text)
    xTaskRemoveFromUnorderedEventList        0x0800e2b1   Thumb Code   142  tasks.o(.text)
    vTaskSetTimeOutState                     0x0800e33f   Thumb Code    36  tasks.o(.text)
    xTaskCheckForTimeOut                     0x0800e363   Thumb Code   114  tasks.o(.text)
    vTaskMissedYield                         0x0800e3d5   Thumb Code     8  tasks.o(.text)
    uxTaskGetTaskNumber                      0x0800e3dd   Thumb Code    14  tasks.o(.text)
    vTaskSetTaskNumber                       0x0800e3eb   Thumb Code     8  tasks.o(.text)
    xTaskGetSchedulerState                   0x0800e3f3   Thumb Code    24  tasks.o(.text)
    vTaskList                                0x0800e435   Thumb Code   254  tasks.o(.text)
    uxTaskResetEventItemValue                0x0800e533   Thumb Code    24  tasks.o(.text)
    ulTaskNotifyTake                         0x0800e54b   Thumb Code   108  tasks.o(.text)
    xTaskNotifyWait                          0x0800e5b7   Thumb Code   150  tasks.o(.text)
    xTaskGenericNotify                       0x0800e64d   Thumb Code   230  tasks.o(.text)
    xTaskGenericNotifyFromISR                0x0800e733   Thumb Code   286  tasks.o(.text)
    vTaskNotifyGiveFromISR                   0x0800e851   Thumb Code   250  tasks.o(.text)
    xTaskNotifyStateClear                    0x0800e94b   Thumb Code    48  tasks.o(.text)
    xTimerGenericCommand                     0x0800e9d9   Thumb Code   116  timers.o(.text)
    xTimerCreateTimerTask                    0x0800ed1f   Thumb Code    56  timers.o(.text)
    xTimerCreate                             0x0800ee05   Thumb Code    48  timers.o(.text)
    xTimerGetTimerDaemonTaskHandle           0x0800ee35   Thumb Code    38  timers.o(.text)
    xTimerGetPeriod                          0x0800ee5b   Thumb Code    28  timers.o(.text)
    xTimerGetExpiryTime                      0x0800ee77   Thumb Code    30  timers.o(.text)
    pcTimerGetName                           0x0800ee95   Thumb Code    28  timers.o(.text)
    xTimerIsTimerActive                      0x0800eeb1   Thumb Code    50  timers.o(.text)
    pvTimerGetTimerID                        0x0800eee3   Thumb Code    38  timers.o(.text)
    vTimerSetTimerID                         0x0800ef09   Thumb Code    38  timers.o(.text)
    pvPortMalloc                             0x0800eff7   Thumb Code   262  heap_4.o(.text)
    vPortFree                                0x0800f0fd   Thumb Code   120  heap_4.o(.text)
    xPortGetFreeHeapSize                     0x0800f175   Thumb Code     6  heap_4.o(.text)
    xPortGetMinimumEverFreeHeapSize          0x0800f17b   Thumb Code     6  heap_4.o(.text)
    vPortInitialiseBlocks                    0x0800f181   Thumb Code     2  heap_4.o(.text)
    pxPortInitialiseStack                    0x0800f20b   Thumb Code    38  port.o(.text)
    vPortSetupTimerInterrupt                 0x0800f231   Thumb Code    26  port.o(.text)
    xPortStartScheduler                      0x0800f24b   Thumb Code   258  port.o(.text)
    vPortEndScheduler                        0x0800f34d   Thumb Code    34  port.o(.text)
    vPortEnterCritical                       0x0800f36f   Thumb Code    70  port.o(.text)
    vPortExitCritical                        0x0800f3b5   Thumb Code    48  port.o(.text)
    xPortSysTickHandler                      0x0800f3e5   Thumb Code    48  port.o(.text)
    vPortValidateInterruptPriority           0x0800f415   Thumb Code    88  port.o(.text)
    OnNumberOfErrorsUpdate                   0x0800f4d1   Thumb Code    44  emcy.o(.text)
    emergencyInit                            0x0800f4fd   Thumb Code    30  emcy.o(.text)
    emergencyStop                            0x0800f51b   Thumb Code     2  emcy.o(.text)
    sendEMCY                                 0x0800f51d   Thumb Code    88  emcy.o(.text)
    EMCY_setError                            0x0800f575   Thumb Code   306  emcy.o(.text)
    EMCY_errorRecovered                      0x0800f6a7   Thumb Code   154  emcy.o(.text)
    proceedEMCY                              0x0800f741   Thumb Code    72  emcy.o(.text)
    _post_emcy                               0x0800f789   Thumb Code     6  emcy.o(.text)
    getNodeState                             0x0800f7c9   Thumb Code    16  lifegrd.o(.text)
    ConsumerHeartbeatAlarm                   0x0800f7d9   Thumb Code    50  lifegrd.o(.text)
    proceedNODE_GUARD                        0x0800f80b   Thumb Code   276  lifegrd.o(.text)
    ProducerHeartbeatAlarm                   0x0800f91f   Thumb Code    72  lifegrd.o(.text)
    GuardTimeAlarm                           0x0800f967   Thumb Code   118  lifegrd.o(.text)
    nodeguardInit                            0x0800f9dd   Thumb Code   128  lifegrd.o(.text)
    nodeguardStop                            0x0800fa5d   Thumb Code    18  lifegrd.o(.text)
    OnNodeGuardUpdate                        0x0800fa6f   Thumb Code    24  lifegrd.o(.text)
    OnHeartbeatProducerUpdate                0x0800fa87   Thumb Code    66  lifegrd.o(.text)
    heartbeatInit                            0x0800fac9   Thumb Code   132  lifegrd.o(.text)
    heartbeatStop                            0x0800fb4d   Thumb Code    56  lifegrd.o(.text)
    lifeGuardInit                            0x0800fb85   Thumb Code    18  lifegrd.o(.text)
    lifeGuardStop                            0x0800fb97   Thumb Code    18  lifegrd.o(.text)
    _heartbeatError                          0x0800fba9   Thumb Code     2  lifegrd.o(.text)
    _post_SlaveBootup                        0x0800fbab   Thumb Code     2  lifegrd.o(.text)
    _post_SlaveStateChange                   0x0800fbad   Thumb Code     2  lifegrd.o(.text)
    _nodeguardError                          0x0800fbaf   Thumb Code     2  lifegrd.o(.text)
    masterSendNMTstateChange                 0x0800fbb5   Thumb Code    44  nmtmaster.o(.text)
    masterSendNMTnodeguard                   0x0800fbe1   Thumb Code    38  nmtmaster.o(.text)
    masterRequestNodeState                   0x0800fc07   Thumb Code    50  nmtmaster.o(.text)
    proceedNMTstateChange                    0x0800fc39   Thumb Code   224  nmtslave.o(.text)
    slaveSendBootUp                          0x0800fd19   Thumb Code    46  nmtslave.o(.text)
    accessDictionaryError                    0x0800fd49   Thumb Code    10  objacces.o(.text)
    _getODentry                              0x0800fd53   Thumb Code   224  objacces.o(.text)
    _setODentry                              0x0800fe33   Thumb Code   302  objacces.o(.text)
    RegisterSetODentryCallBack               0x0800ff61   Thumb Code    50  objacces.o(.text)
    _storeODSubIndex                         0x0800ff93   Thumb Code     6  objacces.o(.text)
    initSDOline                              0x0800ffa9   Thumb Code   446  sdo.o(.text)
    resetSDOline                             0x08010167   Thumb Code    96  sdo.o(.text)
    sendSDO                                  0x080101c7   Thumb Code   190  sdo.o(.text)
    sendSDOabort                             0x08010285   Thumb Code    82  sdo.o(.text)
    SDOTimeoutAlarm                          0x080102d7   Thumb Code   438  sdo.o(.text)
    resetSDO                                 0x0801048d   Thumb Code    26  sdo.o(.text)
    SDOlineToObjdict                         0x080104a7   Thumb Code   172  sdo.o(.text)
    objdictToSDOline                         0x08010553   Thumb Code   142  sdo.o(.text)
    lineToSDO                                0x080105e1   Thumb Code   222  sdo.o(.text)
    SDOtoLine                                0x080106bf   Thumb Code   160  sdo.o(.text)
    getSDOlineOnUse                          0x0801075f   Thumb Code   114  sdo.o(.text)
    failedSDO                                0x080107d1   Thumb Code   294  sdo.o(.text)
    getSDOfreeLine                           0x080108f7   Thumb Code    88  sdo.o(.text)
    getSDOlineToClose                        0x0801094f   Thumb Code    92  sdo.o(.text)
    GetSDOClientFromNodeId                   0x080109ab   Thumb Code   134  sdo.o(.text)
    closeSDOtransfer                         0x08010a31   Thumb Code    64  sdo.o(.text)
    getSDOlineRestBytes                      0x08010a71   Thumb Code    74  sdo.o(.text)
    setSDOlineRestBytes                      0x08010abb   Thumb Code    56  sdo.o(.text)
    proceedSDO                               0x08010af3   Thumb Code 12466  sdo.o(.text)
    resetClientSDOLineFromNodeId             0x08013ba5   Thumb Code    52  sdo.o(.text)
    _writeNetworkDict                        0x08013bd9   Thumb Code   728  sdo.o(.text)
    writeNetworkDict                         0x08013eb1   Thumb Code    54  sdo.o(.text)
    writeNetworkDictCallBack                 0x08013ee7   Thumb Code    46  sdo.o(.text)
    writeNetworkDictCallBackAI               0x08013f15   Thumb Code   228  sdo.o(.text)
    _readNetworkDict                         0x08013ff9   Thumb Code   362  sdo.o(.text)
    readNetworkDict                          0x08014163   Thumb Code    42  sdo.o(.text)
    readNetworkDictCallback                  0x0801418d   Thumb Code    40  sdo.o(.text)
    readNetworkDictCallbackAI                0x080141b5   Thumb Code   320  sdo.o(.text)
    getReadResultNetworkDict                 0x080142f5   Thumb Code   400  sdo.o(.text)
    getWriteResultNetworkDict                0x08014485   Thumb Code   160  sdo.o(.text)
    getState                                 0x08014565   Thumb Code     8  states.o(.text)
    canDispatch                              0x0801456d   Thumb Code   164  states.o(.text)
    switchCommunicationState                 0x08014611   Thumb Code   324  states.o(.text)
    setState                                 0x08014755   Thumb Code   200  states.o(.text)
    getNodeId                                0x0801481d   Thumb Code     8  states.o(.text)
    setNodeId                                0x08014825   Thumb Code   494  states.o(.text)
    _initialisation                          0x08014a13   Thumb Code     2  states.o(.text)
    _preOperational                          0x08014a15   Thumb Code    22  states.o(.text)
    _operational                             0x08014a2b   Thumb Code     2  states.o(.text)
    _stopped                                 0x08014a2d   Thumb Code     2  states.o(.text)
    CopyBits                                 0x08014a35   Thumb Code   236  pdo.o(.text)
    buildPDO                                 0x08014b21   Thumb Code   256  pdo.o(.text)
    sendPDOrequest                           0x08014c21   Thumb Code   112  pdo.o(.text)
    PDOInhibitTimerAlarm                     0x08014cbd   Thumb Code    50  pdo.o(.text)
    sendOnePDOevent                          0x08014cef   Thumb Code   348  pdo.o(.text)
    PDOEventTimerAlarm                       0x08014e4b   Thumb Code    46  pdo.o(.text)
    proceedPDO                               0x08014e79   Thumb Code   982  pdo.o(.text)
    _sendPDOevent                            0x0801524f   Thumb Code   446  pdo.o(.text)
    sendPDOevent                             0x0801540d   Thumb Code    14  pdo.o(.text)
    _RxPDO_EventTimers_Handler               0x0801541b   Thumb Code     2  pdo.o(.text)
    TPDO_Communication_Parameter_Callback    0x0801541d   Thumb Code   280  pdo.o(.text)
    PDOInit                                  0x08015535   Thumb Code    84  pdo.o(.text)
    PDOStop                                  0x08015589   Thumb Code   120  pdo.o(.text)
    PDOEnable                                0x08015601   Thumb Code    38  pdo.o(.text)
    PDODisable                               0x08015627   Thumb Code    38  pdo.o(.text)
    proceedSYNC                              0x0801564d   Thumb Code    46  sync.o(.text)
    sendSYNCMessage                          0x0801567b   Thumb Code    38  sync.o(.text)
    sendSYNC                                 0x080156a1   Thumb Code    22  sync.o(.text)
    SyncAlarm                                0x080156b7   Thumb Code    14  sync.o(.text)
    stopSYNC                                 0x080156c5   Thumb Code    46  sync.o(.text)
    startSYNC                                0x080156f3   Thumb Code   110  sync.o(.text)
    OnCOB_ID_SyncUpdate                      0x08015761   Thumb Code    18  sync.o(.text)
    _post_sync                               0x08015773   Thumb Code     2  sync.o(.text)
    _post_TPDO                               0x08015775   Thumb Code     2  sync.o(.text)
    SetAlarm                                 0x0801577d   Thumb Code   170  timer.o(.text)
    DelAlarm                                 0x08015827   Thumb Code    46  timer.o(.text)
    TimeDispatch                             0x08015855   Thumb Code   178  timer.o(.text)
    slave_valueRangeTest                     0x08015915   Thumb Code    22  slave_od.o(.text)
    slave_scanIndexOD                        0x0801592b   Thumb Code   258  slave_od.o(.text)
    master_valueRangeTest                    0x08015a39   Thumb Code    22  master_od.o(.text)
    master_scanIndexOD                       0x08015a4f   Thumb Code   394  master_od.o(.text)
    CanInit                                  0x08015be5   Thumb Code   250  can_stm32.o(.text)
    HAL_CAN_RxFifo0MsgPendingCallback        0x08015cdf   Thumb Code   136  can_stm32.o(.text)
    HAL_CAN_ErrorCallback                    0x08015d67   Thumb Code    12  can_stm32.o(.text)
    CanLowLevelSend                          0x08015d73   Thumb Code   126  can_stm32.o(.text)
    IsLowLevelCanSendIdle                    0x08015df1   Thumb Code    40  can_stm32.o(.text)
    clearTimer                               0x08015e59   Thumb Code    28  timer_stm32.o(.text)
    start_callback                           0x08015e75   Thumb Code     2  timer_stm32.o(.text)
    initTimer                                0x08015e77   Thumb Code    80  timer_stm32.o(.text)
    setTimer                                 0x08015ec7   Thumb Code    62  timer_stm32.o(.text)
    getElapsedTime                           0x08015f05   Thumb Code    34  timer_stm32.o(.text)
    HAL_TIM_PeriodElapsedCallback            0x08015f27   Thumb Code    28  timer_stm32.o(.text)
    MasterHeartbeatError                     0x08015f61   Thumb Code    42  master_callback.o(.text)
    MasterInitialisation                     0x08015f8b   Thumb Code    12  master_callback.o(.text)
    MasterPreOperational                     0x08015f97   Thumb Code    12  master_callback.o(.text)
    MasterOperational                        0x08015fa3   Thumb Code    12  master_callback.o(.text)
    MasterStopped                            0x08015faf   Thumb Code    12  master_callback.o(.text)
    MasterPostSync                           0x08015fbb   Thumb Code     2  master_callback.o(.text)
    MasterPostTPDO                           0x08015fbd   Thumb Code     2  master_callback.o(.text)
    MasterPostSlaveBootup                    0x08015fbf   Thumb Code    42  master_callback.o(.text)
    MasterPostSlaveStateChange               0x08015fe9   Thumb Code    52  master_callback.o(.text)
    MasterStoreODSubIndex                    0x0801601d   Thumb Code    20  master_callback.o(.text)
    MasterPostEmcy                           0x08016031   Thumb Code    52  master_callback.o(.text)
    MasterSyncSignalEnable                   0x080161dd   Thumb Code    86  master_function.o(.text)
    MasterHeartbeatCheckEnable               0x08016233   Thumb Code   112  master_function.o(.text)
    ConfigSlaveDict                          0x080162ff   Thumb Code   148  master_function.o(.text)
    SlaveHeartBeatConfig                     0x08016393   Thumb Code    62  master_function.o(.text)
    MasterObjdicInit                         0x080163d1   Thumb Code    62  master_function.o(.text)
    SlaveStatusBitSet                        0x0801658d   Thumb Code    18  slave_function.o(.text)
    SlaveStatusBitReset                      0x0801659f   Thumb Code    18  slave_function.o(.text)
    IsSlaveStatusBitSet                      0x080165b1   Thumb Code    26  slave_function.o(.text)
    SlaveLiftErrCodeSet                      0x080165cb   Thumb Code    10  slave_function.o(.text)
    SlaveLiftErrCodeGet                      0x080165d5   Thumb Code     6  slave_function.o(.text)
    SlaveShiftErrCodeSet                     0x080165db   Thumb Code    10  slave_function.o(.text)
    SlaveDictSetRegist                       0x08016811   Thumb Code   130  slave_function.o(.text)
    SlaveTimeStampModify                     0x08016893   Thumb Code    44  slave_function.o(.text)
    SlaveObjDictInit                         0x080168bf   Thumb Code    78  slave_function.o(.text)
    SlaveHeartbeatError                      0x08016a79   Thumb Code    16  slave_callback.o(.text)
    SlaveInitialisation                      0x08016a89   Thumb Code    12  slave_callback.o(.text)
    SlavePreOperational                      0x08016a95   Thumb Code    12  slave_callback.o(.text)
    SlaveOperational                         0x08016aa1   Thumb Code    22  slave_callback.o(.text)
    SlaveStopped                             0x08016ab7   Thumb Code    12  slave_callback.o(.text)
    SlavePostSync                            0x08016ac3   Thumb Code     2  slave_callback.o(.text)
    SlavePostTPDO                            0x08016ac5   Thumb Code     2  slave_callback.o(.text)
    SlavePostSlaveBootup                     0x08016ac7   Thumb Code    16  slave_callback.o(.text)
    SlavePostSlaveStateChange                0x08016ad7   Thumb Code    20  slave_callback.o(.text)
    SlaveStoreODSubIndex                     0x08016aeb   Thumb Code    20  slave_callback.o(.text)
    SlavePostEmcy                            0x08016aff   Thumb Code    30  slave_callback.o(.text)
    Error_Handler                            0x08016c6d   Thumb Code    10  main.o(.text)
    main                                     0x08016d39   Thumb Code    62  main.o(.text)
    assert_failed                            0x08016d77   Thumb Code    18  main.o(.text)
    HAL_MspInit                              0x08016e0d   Thumb Code     2  stm32f4xx_hal_msp.o(.text)
    HAL_MspDeInit                            0x08016e0f   Thumb Code     2  stm32f4xx_hal_msp.o(.text)
    HAL_TIM_Base_MspInit                     0x08016e11   Thumb Code   102  stm32f4xx_hal_msp.o(.text)
    HAL_TIM_Encoder_MspInit                  0x08016e77   Thumb Code   196  stm32f4xx_hal_msp.o(.text)
    HAL_CAN_MspInit                          0x08016f3b   Thumb Code   376  stm32f4xx_hal_msp.o(.text)
    HAL_CAN_MspDeInit                        0x080170b3   Thumb Code   126  stm32f4xx_hal_msp.o(.text)
    HAL_DAC_MspInit                          0x08017131   Thumb Code    98  stm32f4xx_hal_msp.o(.text)
    HAL_DAC_MspDeInit                        0x08017193   Thumb Code    28  stm32f4xx_hal_msp.o(.text)
    NMI_Handler                              0x080171d9   Thumb Code     2  stm32f4xx_it.o(.text)
    HardFault_Handler                        0x080171db   Thumb Code     4  stm32f4xx_it.o(.text)
    MemManage_Handler                        0x080171df   Thumb Code     4  stm32f4xx_it.o(.text)
    BusFault_Handler                         0x080171e3   Thumb Code     4  stm32f4xx_it.o(.text)
    UsageFault_Handler                       0x080171e7   Thumb Code     4  stm32f4xx_it.o(.text)
    DebugMon_Handler                         0x080171eb   Thumb Code     2  stm32f4xx_it.o(.text)
    SysTick_Handler                          0x080171ed   Thumb Code    24  stm32f4xx_it.o(.text)
    TIM3_IRQHandler                          0x08017205   Thumb Code    10  stm32f4xx_it.o(.text)
    CAN1_RX0_IRQHandler                      0x0801720f   Thumb Code    10  stm32f4xx_it.o(.text)
    CAN1_SCE_IRQHandler                      0x08017219   Thumb Code    10  stm32f4xx_it.o(.text)
    CAN2_RX0_IRQHandler                      0x08017223   Thumb Code    10  stm32f4xx_it.o(.text)
    CAN2_SCE_IRQHandler                      0x0801722d   Thumb Code    10  stm32f4xx_it.o(.text)
    TIM4_IRQHandler                          0x08017237   Thumb Code    10  stm32f4xx_it.o(.text)
    EXTI9_5_IRQHandler                       0x08017241   Thumb Code    12  stm32f4xx_it.o(.text)
    LiftCtrlProc                             0x0801795f   Thumb Code    20  lift_ctrl.o(.text)
    LiftKeyStateMsgProc                      0x08017973   Thumb Code   598  lift_ctrl.o(.text)
    LiftResetPosMsgProc                      0x08017bc9   Thumb Code   562  lift_ctrl.o(.text)
    LiftStartSpeedMsgProc                    0x08017dfb   Thumb Code    76  lift_ctrl.o(.text)
    LiftStartPosMsgProc                      0x08017e47   Thumb Code   376  lift_ctrl.o(.text)
    LiftSetAutoPowerMsgProc                  0x08017fbf   Thumb Code   146  lift_ctrl.o(.text)
    LiftSetMaxPowerMsgProc                   0x08018051   Thumb Code   118  lift_ctrl.o(.text)
    LiftRunStopMsgProc                       0x080180c7   Thumb Code    30  lift_ctrl.o(.text)
    LiftAutoSitchMsgProc                     0x080180e5   Thumb Code   168  lift_ctrl.o(.text)
    LiftExitProtectMsgProc                   0x0801818d   Thumb Code   412  lift_ctrl.o(.text)
    LiftEmerStopMsgProc                      0x08018329   Thumb Code    62  lift_ctrl.o(.text)
    LiftErrResetMsgProc                      0x08018367   Thumb Code    24  lift_ctrl.o(.text)
    LiftResetPowerMsgProc                    0x0801837f   Thumb Code    16  lift_ctrl.o(.text)
    LiftVarifyPowerMsgProc                   0x0801838f   Thumb Code    20  lift_ctrl.o(.text)
    SlaveConnectMsgProc                      0x080183a3   Thumb Code   164  lift_ctrl.o(.text)
    SlaveConfigMsgProc                       0x08018447   Thumb Code   142  lift_ctrl.o(.text)
    StarupTask                               0x08018571   Thumb Code    40  task_start_up.o(.text)
    MasterMsgTaskInit                        0x08018619   Thumb Code   162  task_master_msg.o(.text)
    MasterMsgSend                            0x080186bb   Thumb Code   106  task_master_msg.o(.text)
    MasterCanRecvFromISR                     0x08018725   Thumb Code    50  task_master_msg.o(.text)
    SlaveMsgTaskInit                         0x080188ad   Thumb Code   160  task_slave_msg.o(.text)
    SlaveMsgSend                             0x0801894d   Thumb Code   106  task_slave_msg.o(.text)
    SlaveCanRecvFromISR                      0x080189b7   Thumb Code    50  task_slave_msg.o(.text)
    SendMsgToLiftTask                        0x08018ac5   Thumb Code   100  task_lift_mgr.o(.text)
    LiftMgrTaskInit                          0x08018bfd   Thumb Code    80  task_lift_mgr.o(.text)
    CanopenComTaskInit                       0x08018d29   Thumb Code    40  task_canopen_com.o(.text)
    NotifyCanopenFromISR                     0x08018d51   Thumb Code    38  task_canopen_com.o(.text)
    canSend                                  0x08018d77   Thumb Code    42  task_canopen_com.o(.text)
    KeyCtrlProc                              0x08018dcd   Thumb Code    66  key.o(.text)
    KeyCtrlInit                              0x08018f75   Thumb Code   248  key.o(.text)
    LedBlinkInit                             0x080190b5   Thumb Code    40  led.o(.text)
    LedBlinkCtrl                             0x080190dd   Thumb Code    14  led.o(.text)
    LedBlinkSet                              0x080190eb   Thumb Code    46  led.o(.text)
    MotorInit                                0x08019121   Thumb Code    16  motor.o(.text)
    MotorDriveStart                          0x0801915f   Thumb Code    88  motor.o(.text)
    MotorDriveUpdateSpeed                    0x080191b7   Thumb Code    78  motor.o(.text)
    MotorDriveStop                           0x08019205   Thumb Code    10  motor.o(.text)
    ServoSalveConfig                         0x08019a11   Thumb Code    34  servo.o(.text)
    SetMaxSpeedLimit                         0x08019a33   Thumb Code    48  servo.o(.text)
    ServoStartAccordSpeed                    0x08019a63   Thumb Code   194  servo.o(.text)
    ServoMomentCal                           0x08019b25   Thumb Code   112  servo.o(.text)
    ServoStartAccordMoment                   0x08019b95   Thumb Code   212  servo.o(.text)
    ServoStartAccordPosition                 0x08019c69   Thumb Code    96  servo.o(.text)
    ServoStopAndPowerOff                     0x08019cc9   Thumb Code    30  servo.o(.text)
    ServoClearErr                            0x08019ce7   Thumb Code    34  servo.o(.text)
    IsServoHasErr                            0x08019d09   Thumb Code    20  servo.o(.text)
    IsServoPowerOn                           0x08019d1d   Thumb Code    20  servo.o(.text)
    IsServoPosArrive                         0x08019d31   Thumb Code    40  servo.o(.text)
    IsServoModeMoment                        0x08019d59   Thumb Code    16  servo.o(.text)
    ServoStateShow                           0x08019d69   Thumb Code   114  servo.o(.text)
    BSP_LED_Init                             0x08019f91   Thumb Code    96  bsp_gpio.o(.text)
    BSP_LED_On                               0x08019ff1   Thumb Code    24  bsp_gpio.o(.text)
    BSP_LED_Off                              0x0801a009   Thumb Code    24  bsp_gpio.o(.text)
    BSP_LED_Toggle                           0x0801a021   Thumb Code    22  bsp_gpio.o(.text)
    BSP_KeyInit                              0x0801a037   Thumb Code   262  bsp_gpio.o(.text)
    BSP_KeyGetState                          0x0801a13d   Thumb Code    22  bsp_gpio.o(.text)
    BSP_SensorInit                           0x0801a153   Thumb Code   332  bsp_gpio.o(.text)
    BSP_SensorGetState                       0x0801a29f   Thumb Code    34  bsp_gpio.o(.text)
    BSP_CtrlInit                             0x0801a2c1   Thumb Code   244  bsp_gpio.o(.text)
    BSP_CtrlDeInit                           0x0801a3b5   Thumb Code    48  bsp_gpio.o(.text)
    BSP_CtrlHigh                             0x0801a3e5   Thumb Code    24  bsp_gpio.o(.text)
    BSP_CtrlLow                              0x0801a3fd   Thumb Code    24  bsp_gpio.o(.text)
    EncoderInit                              0x0801a41d   Thumb Code    94  bsp_encoder.o(.text)
    HAL_GPIO_EXTI_Callback                   0x0801a47b   Thumb Code     2  bsp_encoder.o(.text)
    EncoderGetCounter                        0x0801a47d   Thumb Code    10  bsp_encoder.o(.text)
    EncoderSetCounter                        0x0801a487   Thumb Code     8  bsp_encoder.o(.text)
    IsEncoderCountUp                         0x0801a48f   Thumb Code    22  bsp_encoder.o(.text)
    DacInit                                  0x0801a4b1   Thumb Code    78  bsp_dac.o(.text)
    DacSetVal                                0x0801a4ff   Thumb Code    24  bsp_dac.o(.text)
    FlashInit                                0x0801a53d   Thumb Code    98  bsp_flash.o(.text)
    FlashInitPara                            0x0801a6cb   Thumb Code    42  bsp_flash.o(.text)
    FlashReadPara                            0x0801a6f5   Thumb Code    32  bsp_flash.o(.text)
    FlashWritePara                           0x0801a715   Thumb Code    36  bsp_flash.o(.text)
    FlashTest                                0x0801a739   Thumb Code    96  bsp_flash.o(.text)
    FlashDebug                               0x0801a799   Thumb Code   184  bsp_flash.o(.text)
    BlinkDeviceInit                          0x0801a8c1   Thumb Code    74  blink.o(.text)
    BlinkDeviceOn                            0x0801a90b   Thumb Code    28  blink.o(.text)
    BlinkDeviceOff                           0x0801a927   Thumb Code    26  blink.o(.text)
    BlinkDeviceTogger                        0x0801a941   Thumb Code    54  blink.o(.text)
    BlinkDeviceSet                           0x0801a977   Thumb Code    50  blink.o(.text)
    BlinkDeviceMgr                           0x0801a9a9   Thumb Code   100  blink.o(.text)
    DebugInit                                0x0801aa0d   Thumb Code    24  debug.o(.text)
    RTT_Printf                               0x0801aa25   Thumb Code    94  debug.o(.text)
    DebugHexPrint                            0x0801aa83   Thumb Code    92  debug.o(.text)
    JscopeDataUpLoad                         0x0801aadf   Thumb Code    14  debug.o(.text)
    DebugHexRecv                             0x0801ab9d   Thumb Code   122  debug.o(.text)
    DebugStrRecv                             0x0801ac17   Thumb Code    94  debug.o(.text)
    PressDeviceInit                          0x0801ace5   Thumb Code    72  press.o(.text)
    PressDeviceActSet                        0x0801ad2d   Thumb Code    48  press.o(.text)
    PressDeviceRepeatSet                     0x0801ad5d   Thumb Code    10  press.o(.text)
    PreDeviceStateGet                        0x0801ad87   Thumb Code    24  press.o(.text)
    PressDeviceMgr                           0x0801aeb5   Thumb Code    28  press.o(.text)
    DateTime2Stamp                           0x0801aed1   Thumb Code    50  date_time.o(.text)
    TimeStamp2DateTime                       0x0801af03   Thumb Code    84  date_time.o(.text)
    DateTimeTest                             0x0801af57   Thumb Code   136  date_time.o(.text)
    SEGGER_RTT_ReadNoLock                    0x0801b17f   Thumb Code   148  segger_rtt.o(.text)
    SEGGER_RTT_Read                          0x0801b213   Thumb Code    56  segger_rtt.o(.text)
    SEGGER_RTT_WriteWithOverwriteNoLock      0x0801b24b   Thumb Code   168  segger_rtt.o(.text)
    SEGGER_RTT_WriteSkipNoLock               0x0801b2f3   Thumb Code   136  segger_rtt.o(.text)
    SEGGER_RTT_WriteNoLock                   0x0801b37b   Thumb Code   128  segger_rtt.o(.text)
    SEGGER_RTT_Write                         0x0801b3fb   Thumb Code   110  segger_rtt.o(.text)
    SEGGER_RTT_WriteString                   0x0801b469   Thumb Code    26  segger_rtt.o(.text)
    SEGGER_RTT_PutCharSkipNoLock             0x0801b483   Thumb Code    50  segger_rtt.o(.text)
    SEGGER_RTT_PutCharSkip                   0x0801b4b5   Thumb Code   100  segger_rtt.o(.text)
    SEGGER_RTT_PutChar                       0x0801b519   Thumb Code   114  segger_rtt.o(.text)
    SEGGER_RTT_GetKey                        0x0801b58b   Thumb Code    32  segger_rtt.o(.text)
    SEGGER_RTT_WaitKey                       0x0801b5ab   Thumb Code    14  segger_rtt.o(.text)
    SEGGER_RTT_HasKey                        0x0801b5b9   Thumb Code    40  segger_rtt.o(.text)
    SEGGER_RTT_HasData                       0x0801b5e1   Thumb Code    24  segger_rtt.o(.text)
    SEGGER_RTT_HasDataUp                     0x0801b5f9   Thumb Code    22  segger_rtt.o(.text)
    SEGGER_RTT_AllocDownBuffer               0x0801b60f   Thumb Code   194  segger_rtt.o(.text)
    SEGGER_RTT_AllocUpBuffer                 0x0801b6d1   Thumb Code   182  segger_rtt.o(.text)
    SEGGER_RTT_ConfigUpBuffer                0x0801b787   Thumb Code   158  segger_rtt.o(.text)
    SEGGER_RTT_ConfigDownBuffer              0x0801b825   Thumb Code   168  segger_rtt.o(.text)
    SEGGER_RTT_SetNameUpBuffer               0x0801b8cd   Thumb Code    82  segger_rtt.o(.text)
    SEGGER_RTT_SetNameDownBuffer             0x0801b91f   Thumb Code    80  segger_rtt.o(.text)
    SEGGER_RTT_SetFlagsUpBuffer              0x0801b96f   Thumb Code    84  segger_rtt.o(.text)
    SEGGER_RTT_SetFlagsDownBuffer            0x0801b9c3   Thumb Code    82  segger_rtt.o(.text)
    SEGGER_RTT_Init                          0x0801ba15   Thumb Code     8  segger_rtt.o(.text)
    SEGGER_RTT_SetTerminal                   0x0801ba1d   Thumb Code   144  segger_rtt.o(.text)
    SEGGER_RTT_TerminalOut                   0x0801baad   Thumb Code   248  segger_rtt.o(.text)
    VerInfoPrint                             0x0801bbb1   Thumb Code    52  verson.o(.text)
    VerInfoGet                               0x0801bbe5   Thumb Code     4  verson.o(.text)
    VerTimeStampGet                          0x0801bbe9   Thumb Code   294  verson.o(.text)
    ADS123xChlCfg                            0x0801bd5d   Thumb Code    96  ads1230_api.o(.text)
    ADS123xChlCalibration                    0x0801be89   Thumb Code    62  ads1230_api.o(.text)
    ADS123xChlSample                         0x0801c053   Thumb Code    68  ads1230_app.o(.text)
    PressureSensor_Process                   0x0801c1f9   Thumb Code   370  ads1230_app.o(.text)
    SensorInitTask                           0x0801c473   Thumb Code   150  ads1230_app.o(.text)
    StartSensorInitTask                      0x0801c509   Thumb Code    84  ads1230_app.o(.text)
    ADS123xClockSelectInit                   0x0801c66b   Thumb Code    24  ads1230_drv.o(.text)
    ADS123xChlGpioInit                       0x0801c683   Thumb Code    96  ads1230_drv.o(.text)
    DelayInit                                0x0801c6f9   Thumb Code    48  delay.o(.text)
    DelayUs                                  0x0801c729   Thumb Code    18  delay.o(.text)
    DelayMs                                  0x0801c73b   Thumb Code    28  delay.o(.text)
    ReturntoUpperMachine                     0x0801c769   Thumb Code    98  public_var.o(.text)
    SendtoVirtualComTask                     0x0801c7cb   Thumb Code    48  public_var.o(.text)
    InitSendTask                             0x0801c7fb   Thumb Code    30  public_var.o(.text)
    osKernelStart                            0x0801c859   Thumb Code    10  cmsis_os.o(.text)
    osKernelRunning                          0x0801c863   Thumb Code    18  cmsis_os.o(.text)
    osKernelSysTick                          0x0801c875   Thumb Code    20  cmsis_os.o(.text)
    osThreadCreate                           0x0801c889   Thumb Code    48  cmsis_os.o(.text)
    osThreadGetId                            0x0801c8b9   Thumb Code     4  cmsis_os.o(.text)
    osThreadTerminate                        0x0801c8bd   Thumb Code     6  cmsis_os.o(.text)
    osThreadYield                            0x0801c8c3   Thumb Code    20  cmsis_os.o(.text)
    osThreadSetPriority                      0x0801c8d7   Thumb Code     6  cmsis_os.o(.text)
    osThreadGetPriority                      0x0801c8dd   Thumb Code    38  cmsis_os.o(.text)
    osDelay                                  0x0801c903   Thumb Code    24  cmsis_os.o(.text)
    osTimerCreate                            0x0801c91b   Thumb Code    36  cmsis_os.o(.text)
    osTimerStart                             0x0801c93f   Thumb Code   100  cmsis_os.o(.text)
    osTimerStop                              0x0801c9a3   Thumb Code    88  cmsis_os.o(.text)
    osTimerDelete                            0x0801c9fb   Thumb Code    44  cmsis_os.o(.text)
    osSignalSet                              0x0801ca27   Thumb Code    92  cmsis_os.o(.text)
    osSignalWait                             0x0801ca83   Thumb Code    98  cmsis_os.o(.text)
    osMutexCreate                            0x0801cae5   Thumb Code     6  cmsis_os.o(.text)
    osMutexWait                              0x0801caeb   Thumb Code   104  cmsis_os.o(.text)
    osMutexRelease                           0x0801cb53   Thumb Code    76  cmsis_os.o(.text)
    osMutexDelete                            0x0801cb9f   Thumb Code    24  cmsis_os.o(.text)
    osSemaphoreCreate                        0x0801cbb7   Thumb Code    44  cmsis_os.o(.text)
    osSemaphoreWait                          0x0801cbe3   Thumb Code   104  cmsis_os.o(.text)
    osSemaphoreRelease                       0x0801cc4b   Thumb Code    76  cmsis_os.o(.text)
    osSemaphoreDelete                        0x0801cc97   Thumb Code    32  cmsis_os.o(.text)
    osPoolCreate                             0x0801ccb7   Thumb Code   112  cmsis_os.o(.text)
    osPoolAlloc                              0x0801cd27   Thumb Code   124  cmsis_os.o(.text)
    osPoolCAlloc                             0x0801cda3   Thumb Code    22  cmsis_os.o(.text)
    osPoolFree                               0x0801cdb9   Thumb Code    74  cmsis_os.o(.text)
    osMessageCreate                          0x0801ce03   Thumb Code    18  cmsis_os.o(.text)
    osMessagePut                             0x0801ce15   Thumb Code    92  cmsis_os.o(.text)
    osMessageGet                             0x0801ce71   Thumb Code   152  cmsis_os.o(.text)
    osMailCreate                             0x0801cf09   Thumb Code   122  cmsis_os.o(.text)
    osMailAlloc                              0x0801cf83   Thumb Code    24  cmsis_os.o(.text)
    osMailCAlloc                             0x0801cf9b   Thumb Code    44  cmsis_os.o(.text)
    osMailPut                                0x0801cfc7   Thumb Code    90  cmsis_os.o(.text)
    osMailGet                                0x0801d021   Thumb Code   148  cmsis_os.o(.text)
    osMailFree                               0x0801d0b5   Thumb Code    22  cmsis_os.o(.text)
    osSystickHandler                         0x0801d0cb   Thumb Code    16  cmsis_os.o(.text)
    osThreadGetState                         0x0801d0db   Thumb Code    58  cmsis_os.o(.text)
    osThreadIsSuspended                      0x0801d115   Thumb Code    22  cmsis_os.o(.text)
    osThreadSuspend                          0x0801d12b   Thumb Code     6  cmsis_os.o(.text)
    osThreadResume                           0x0801d131   Thumb Code     6  cmsis_os.o(.text)
    osThreadSuspendAll                       0x0801d137   Thumb Code    10  cmsis_os.o(.text)
    osThreadResumeAll                        0x0801d141   Thumb Code    18  cmsis_os.o(.text)
    osDelayUntil                             0x0801d153   Thumb Code    28  cmsis_os.o(.text)
    osAbortDelay                             0x0801d16f   Thumb Code     6  cmsis_os.o(.text)
    osThreadList                             0x0801d175   Thumb Code    14  cmsis_os.o(.text)
    osMessagePeek                            0x0801d183   Thumb Code    88  cmsis_os.o(.text)
    osMessageWaiting                         0x0801d1db   Thumb Code    26  cmsis_os.o(.text)
    osMessageAvailableSpace                  0x0801d1f5   Thumb Code    12  cmsis_os.o(.text)
    osMessageDelete                          0x0801d201   Thumb Code    24  cmsis_os.o(.text)
    osRecursiveMutexCreate                   0x0801d219   Thumb Code     6  cmsis_os.o(.text)
    osRecursiveMutexRelease                  0x0801d21f   Thumb Code    10  cmsis_os.o(.text)
    osRecursiveMutexWait                     0x0801d229   Thumb Code     6  cmsis_os.o(.text)
    osSemaphoreGetCount                      0x0801d22f   Thumb Code    12  cmsis_os.o(.text)
    STMFLASH_GetFlashSector                  0x0801d243   Thumb Code   116  flash_rw.o(.text)
    WriteFlashData                           0x0801d2b7   Thumb Code   172  flash_rw.o(.text)
    __aeabi_uldivmod                         0x0801d391   Thumb Code    98  uldiv.o(.text)
    __aeabi_ldivmod                          0x0801d3f3   Thumb Code    98  ldiv.o(.text)
    mktime                                   0x0801d455   Thumb Code   150  mktime.o(.text)
    __aeabi_memcpy                           0x0801d4fd   Thumb Code    36  memcpya.o(.text)
    __aeabi_memcpy4                          0x0801d4fd   Thumb Code     0  memcpya.o(.text)
    __aeabi_memcpy8                          0x0801d4fd   Thumb Code     0  memcpya.o(.text)
    __aeabi_memset                           0x0801d521   Thumb Code    14  memseta.o(.text)
    __aeabi_memset4                          0x0801d521   Thumb Code     0  memseta.o(.text)
    __aeabi_memset8                          0x0801d521   Thumb Code     0  memseta.o(.text)
    __aeabi_memclr                           0x0801d52f   Thumb Code     4  memseta.o(.text)
    __aeabi_memclr4                          0x0801d52f   Thumb Code     0  memseta.o(.text)
    __aeabi_memclr8                          0x0801d52f   Thumb Code     0  memseta.o(.text)
    _memset$wrapper                          0x0801d533   Thumb Code    18  memseta.o(.text)
    strlen                                   0x0801d545   Thumb Code    14  strlen.o(.text)
    memcmp                                   0x0801d553   Thumb Code    26  memcmp.o(.text)
    strcpy                                   0x0801d56d   Thumb Code    18  strcpy.o(.text)
    __aeabi_dadd                             0x0801d57f   Thumb Code   322  dadd.o(.text)
    __aeabi_dsub                             0x0801d6c1   Thumb Code     6  dadd.o(.text)
    __aeabi_drsub                            0x0801d6c7   Thumb Code     6  dadd.o(.text)
    __aeabi_dmul                             0x0801d6cd   Thumb Code   228  dmul.o(.text)
    __aeabi_ddiv                             0x0801d7b1   Thumb Code   222  ddiv.o(.text)
    __aeabi_i2d                              0x0801d88f   Thumb Code    34  dflti.o(.text)
    __aeabi_ui2d                             0x0801d8b1   Thumb Code    26  dfltui.o(.text)
    __aeabi_d2iz                             0x0801d8cb   Thumb Code    62  dfixi.o(.text)
    __aeabi_d2uiz                            0x0801d909   Thumb Code    50  dfixui.o(.text)
    __aeabi_f2d                              0x0801d93b   Thumb Code    38  f2d.o(.text)
    __aeabi_d2f                              0x0801d961   Thumb Code    56  d2f.o(.text)
    __aeabi_uidiv                            0x0801d999   Thumb Code     0  uidiv.o(.text)
    __aeabi_uidivmod                         0x0801d999   Thumb Code    44  uidiv.o(.text)
    __aeabi_llsl                             0x0801d9c5   Thumb Code    30  llshl.o(.text)
    _ll_shift_l                              0x0801d9c5   Thumb Code     0  llshl.o(.text)
    __aeabi_llsr                             0x0801d9e3   Thumb Code    32  llushr.o(.text)
    _ll_ushift_r                             0x0801d9e3   Thumb Code     0  llushr.o(.text)
    __aeabi_lasr                             0x0801da03   Thumb Code    36  llsshr.o(.text)
    _ll_sshift_r                             0x0801da03   Thumb Code     0  llsshr.o(.text)
    localtime                                0x0801da29   Thumb Code     6  localtime_w.o(.text)
    _localtime                               0x0801da35   Thumb Code   134  localtime_i.o(.text)
    __I$use$fp                               0x0801dac1   Thumb Code     0  iusefp.o(.text)
    _float_round                             0x0801dac1   Thumb Code    18  fepilogue.o(.text)
    _float_epilogue                          0x0801dad3   Thumb Code    92  fepilogue.o(.text)
    _double_round                            0x0801db2f   Thumb Code    30  depilogue.o(.text)
    _double_epilogue                         0x0801db4d   Thumb Code   156  depilogue.o(.text)
    __aeabi_d2ulz                            0x0801dbe9   Thumb Code    48  dfixul.o(.text)
    __aeabi_cdrcmple                         0x0801dc19   Thumb Code    48  cdrcmple.o(.text)
    __scatterload                            0x0801dc49   Thumb Code    28  init.o(.text)
    __scatterload_rt2                        0x0801dc49   Thumb Code     0  init.o(.text)
    __decompress                             0x0801dc6d   Thumb Code     0  __dczerorl2.o(.text)
    __decompress1                            0x0801dc6d   Thumb Code    86  __dczerorl2.o(.text)
    __0sprintf                               0x0801dcc5   Thumb Code    34  printfa.o(i.__0sprintf)
    __1sprintf                               0x0801dcc5   Thumb Code     0  printfa.o(i.__0sprintf)
    __2sprintf                               0x0801dcc5   Thumb Code     0  printfa.o(i.__0sprintf)
    __c89sprintf                             0x0801dcc5   Thumb Code     0  printfa.o(i.__0sprintf)
    sprintf                                  0x0801dcc5   Thumb Code     0  printfa.o(i.__0sprintf)
    __0vsprintf                              0x0801dced   Thumb Code    30  printfa.o(i.__0vsprintf)
    __1vsprintf                              0x0801dced   Thumb Code     0  printfa.o(i.__0vsprintf)
    __2vsprintf                              0x0801dced   Thumb Code     0  printfa.o(i.__0vsprintf)
    __c89vsprintf                            0x0801dced   Thumb Code     0  printfa.o(i.__0vsprintf)
    vsprintf                                 0x0801dced   Thumb Code     0  printfa.o(i.__0vsprintf)
    __scatterload_copy                       0x0801dd11   Thumb Code    14  handlers.o(i.__scatterload_copy)
    __scatterload_null                       0x0801dd1f   Thumb Code     2  handlers.o(i.__scatterload_null)
    __scatterload_zeroinit                   0x0801dd21   Thumb Code    14  handlers.o(i.__scatterload_zeroinit)
    AHBPrescTable                            0x0801e5ec   Data          16  system_stm32f4xx.o(.constdata)
    APBPrescTable                            0x0801e5fc   Data           8  system_stm32f4xx.o(.constdata)
    slave_iam_a_slave                        0x0801e64c   Data           1  slave_od.o(.constdata)
    slave_objdict                            0x0801e650   Data         160  slave_od.o(.constdata)
    slave_firstIndex                         0x0801e6f0   Data          12  slave_od.o(.constdata)
    slave_lastIndex                          0x0801e6fc   Data          12  slave_od.o(.constdata)
    slave_ObjdictSize                        0x0801e708   Data           2  slave_od.o(.constdata)
    master_iam_a_slave                       0x0801e70c   Data           1  master_od.o(.constdata)
    master_objdict                           0x0801e710   Data         272  master_od.o(.constdata)
    master_firstIndex                        0x0801e820   Data          12  master_od.o(.constdata)
    master_lastIndex                         0x0801e82c   Data          12  master_od.o(.constdata)
    master_ObjdictSize                       0x0801e838   Data           2  master_od.o(.constdata)
    Region$$Table$$Base                      0x0801eec0   Number         0  anon$$obj.o(Region$$Table)
    Region$$Table$$Limit                     0x0801eee0   Number         0  anon$$obj.o(Region$$Table)
    C_SW_VER_NUM                             0x08021000   Data           8  verson.o(.ARM.__AT_0x08021000)
    SystemCoreClock                          0x20000000   Data           4  system_stm32f4xx.o(.data)
    uwTick                                   0x20000004   Data           4  stm32f4xx_hal.o(.data)
    uwTickPrio                               0x20000008   Data           4  stm32f4xx_hal.o(.data)
    uwTickFreq                               0x2000000c   Data           1  stm32f4xx_hal.o(.data)
    g_fCurRopePower                          0x2000001c   Data           4  power.o(.data)
    pxCurrentTCB                             0x20000020   Data           4  tasks.o(.data)
    total_sleep_time                         0x20000090   Data           4  timer.o(.data)
    last_timer_raw                           0x20000094   Data           2  timer.o(.data)
    tdcount                                  0x20000098   Data           4  timer.o(.data)
    g_SlaveStatusWord                        0x2000009c   Data           2  slave_od.o(.data)
    g_SlaveControlWord                       0x2000009e   Data           1  slave_od.o(.data)
    g_LiftControlWord                        0x2000009f   Data           1  slave_od.o(.data)
    g_VerifyPower                            0x200000a0   Data           4  slave_od.o(.data)
    g_AutoLiftPower                          0x200000a4   Data           4  slave_od.o(.data)
    g_MaxLiftPower                           0x200000a8   Data           4  slave_od.o(.data)
    g_ActualLiftPower                        0x200000ac   Data           4  slave_od.o(.data)
    g_ActualLiftPos                          0x200000b0   Data           4  slave_od.o(.data)
    g_SetLiftPos                             0x200000b4   Data           4  slave_od.o(.data)
    g_ShitControlWord                        0x200000b8   Data           1  slave_od.o(.data)
    g_ActualShiftPos                         0x200000bc   Data           4  slave_od.o(.data)
    g_SetShiftPos                            0x200000c0   Data           4  slave_od.o(.data)
    g_LiftErrCode                            0x200000c4   Data           1  slave_od.o(.data)
    g_ShiftErrCode                           0x200000c5   Data           1  slave_od.o(.data)
    g_ShiftSpeed                             0x200000c6   Data           1  slave_od.o(.data)
    g_TimeStamp                              0x200000c8   Data           4  slave_od.o(.data)
    slave_bDeviceNodeId                      0x200000cc   Data           1  slave_od.o(.data)
    slave_heartBeatTimers                    0x200000ce   Data           2  slave_od.o(.data)
    slave_obj1000                            0x200000d0   Data           4  slave_od.o(.data)
    slave_Index1000                          0x200000d4   Data          16  slave_od.o(.data)
    slave_obj1001                            0x200000e4   Data           1  slave_od.o(.data)
    slave_Index1001                          0x200000e8   Data          16  slave_od.o(.data)
    slave_highestSubIndex_obj1003            0x200000f8   Data           1  slave_od.o(.data)
    slave_obj1003                            0x200000fc   Data           4  slave_od.o(.data)
    slave_Index1003                          0x20000100   Data          32  slave_od.o(.data)
    slave_obj1005                            0x20000120   Data           4  slave_od.o(.data)
    slave_obj1006                            0x20000124   Data           4  slave_od.o(.data)
    slave_obj1008                            0x20000128   Data          16  slave_od.o(.data)
    slave_Index1008                          0x20000138   Data          16  slave_od.o(.data)
    slave_obj100C                            0x20000148   Data           2  slave_od.o(.data)
    slave_obj100D                            0x2000014a   Data           1  slave_od.o(.data)
    slave_obj1014                            0x2000014c   Data           4  slave_od.o(.data)
    slave_highestSubIndex_obj1016            0x20000150   Data           1  slave_od.o(.data)
    slave_obj1016                            0x20000154   Data           4  slave_od.o(.data)
    slave_Index1016                          0x20000158   Data          32  slave_od.o(.data)
    slave_obj1017                            0x20000178   Data           2  slave_od.o(.data)
    slave_Index1017                          0x2000017c   Data          16  slave_od.o(.data)
    slave_highestSubIndex_obj1018            0x2000018c   Data           1  slave_od.o(.data)
    slave_obj1018_Vendor_ID                  0x20000190   Data           4  slave_od.o(.data)
    slave_obj1018_Product_Code               0x20000194   Data           4  slave_od.o(.data)
    slave_obj1018_Revision_Number            0x20000198   Data           4  slave_od.o(.data)
    slave_obj1018_Serial_Number              0x2000019c   Data           4  slave_od.o(.data)
    slave_Index1018                          0x200001a0   Data          80  slave_od.o(.data)
    slave_highestSubIndex_obj1200            0x200001f0   Data           1  slave_od.o(.data)
    slave_obj1200_COB_ID_Client_to_Server_Receive_SDO 0x200001f4   Data           4  slave_od.o(.data)
    slave_obj1200_COB_ID_Server_to_Client_Transmit_SDO 0x200001f8   Data           4  slave_od.o(.data)
    slave_Index1200                          0x200001fc   Data          48  slave_od.o(.data)
    slave_highestSubIndex_obj1280            0x2000022c   Data           1  slave_od.o(.data)
    slave_obj1280_COB_ID_Client_to_Server_Transmit_SDO 0x20000230   Data           4  slave_od.o(.data)
    slave_obj1280_COB_ID_Server_to_Client_Receive_SDO 0x20000234   Data           4  slave_od.o(.data)
    slave_obj1280_Node_ID_of_the_SDO_Server  0x20000238   Data           1  slave_od.o(.data)
    slave_Index1280                          0x2000023c   Data          64  slave_od.o(.data)
    slave_highestSubIndex_obj1400            0x2000027c   Data           1  slave_od.o(.data)
    slave_obj1400_COB_ID_used_by_PDO         0x20000280   Data           4  slave_od.o(.data)
    slave_obj1400_Transmission_Type          0x20000284   Data           1  slave_od.o(.data)
    slave_obj1400_Inhibit_Time               0x20000286   Data           2  slave_od.o(.data)
    slave_obj1400_Compatibility_Entry        0x20000288   Data           1  slave_od.o(.data)
    slave_obj1400_Event_Timer                0x2000028a   Data           2  slave_od.o(.data)
    slave_Index1400                          0x2000028c   Data          96  slave_od.o(.data)
    slave_highestSubIndex_obj1401            0x200002ec   Data           1  slave_od.o(.data)
    slave_obj1401_COB_ID_used_by_PDO         0x200002f0   Data           4  slave_od.o(.data)
    slave_obj1401_Transmission_Type          0x200002f4   Data           1  slave_od.o(.data)
    slave_obj1401_Inhibit_Time               0x200002f6   Data           2  slave_od.o(.data)
    slave_obj1401_Compatibility_Entry        0x200002f8   Data           1  slave_od.o(.data)
    slave_obj1401_Event_Timer                0x200002fa   Data           2  slave_od.o(.data)
    slave_Index1401                          0x200002fc   Data          96  slave_od.o(.data)
    slave_highestSubIndex_obj1600            0x2000035c   Data           1  slave_od.o(.data)
    slave_obj1600                            0x20000360   Data           4  slave_od.o(.data)
    slave_Index1600                          0x20000364   Data          32  slave_od.o(.data)
    slave_highestSubIndex_obj1601            0x20000384   Data           1  slave_od.o(.data)
    slave_obj1601                            0x20000388   Data           4  slave_od.o(.data)
    slave_Index1601                          0x2000038c   Data          32  slave_od.o(.data)
    slave_highestSubIndex_obj1800            0x200003ac   Data           1  slave_od.o(.data)
    slave_obj1800_COB_ID_used_by_PDO         0x200003b0   Data           4  slave_od.o(.data)
    slave_obj1800_Transmission_Type          0x200003b4   Data           1  slave_od.o(.data)
    slave_obj1800_Inhibit_Time               0x200003b6   Data           2  slave_od.o(.data)
    slave_obj1800_Compatibility_Entry        0x200003b8   Data           1  slave_od.o(.data)
    slave_obj1800_Event_Timer                0x200003ba   Data           2  slave_od.o(.data)
    slave_Index1800                          0x200003bc   Data          96  slave_od.o(.data)
    slave_highestSubIndex_obj1801            0x2000041c   Data           1  slave_od.o(.data)
    slave_obj1801_COB_ID_used_by_PDO         0x20000420   Data           4  slave_od.o(.data)
    slave_obj1801_Transmission_Type          0x20000424   Data           1  slave_od.o(.data)
    slave_obj1801_Inhibit_Time               0x20000426   Data           2  slave_od.o(.data)
    slave_obj1801_Compatibility_Entry        0x20000428   Data           1  slave_od.o(.data)
    slave_obj1801_Event_Timer                0x2000042a   Data           2  slave_od.o(.data)
    slave_Index1801                          0x2000042c   Data          96  slave_od.o(.data)
    slave_highestSubIndex_obj1A00            0x2000048c   Data           1  slave_od.o(.data)
    slave_obj1A00                            0x20000490   Data          16  slave_od.o(.data)
    slave_Index1A00                          0x200004a0   Data          80  slave_od.o(.data)
    slave_highestSubIndex_obj1A01            0x200004f0   Data           1  slave_od.o(.data)
    slave_obj1A01                            0x200004f4   Data           8  slave_od.o(.data)
    slave_Index1A01                          0x200004fc   Data          48  slave_od.o(.data)
    slave_highestSubIndex_obj2000            0x2000052c   Data           1  slave_od.o(.data)
    slave_Index2000                          0x20000530   Data          48  slave_od.o(.data)
    slave_highestSubIndex_obj2001            0x20000560   Data           1  slave_od.o(.data)
    slave_Index2001                          0x20000564   Data         128  slave_od.o(.data)
    slave_highestSubIndex_obj2002            0x200005e4   Data           1  slave_od.o(.data)
    slave_Index2002                          0x200005e8   Data         112  slave_od.o(.data)
    slave_Index2003                          0x20000658   Data          16  slave_od.o(.data)
    slave_PDO_status                         0x20000668   Data          36  slave_od.o(.data)
    g_stSlaveData                            0x2000068c   Data         720  slave_od.o(.data)
    g_ControlWord6040                        0x2000095c   Data           2  master_od.o(.data)
    g_ModesOfOperation6060                   0x2000095e   Data           1  master_od.o(.data)
    g_TargetPosition607a                     0x20000960   Data           4  master_od.o(.data)
    g_ProfileVelocity6081                    0x20000964   Data           4  master_od.o(.data)
    g_StatusWord6041                         0x20000968   Data           2  master_od.o(.data)
    g_PositionActualValue6063                0x2000096c   Data           4  master_od.o(.data)
    g_VelocityActualValue606c                0x20000970   Data           4  master_od.o(.data)
    g_TargetSpeedValue60ff                   0x20000974   Data           4  master_od.o(.data)
    g_CurrentActualValue6078                 0x20000978   Data           2  master_od.o(.data)
    g_PowerSensor1State                      0x2000097a   Data           1  master_od.o(.data)
    g_PowerSensor1Value                      0x2000097c   Data           2  master_od.o(.data)
    g_PowerSensor2State                      0x2000097e   Data           1  master_od.o(.data)
    g_PowerSensor2Value                      0x20000980   Data           2  master_od.o(.data)
    master_bDeviceNodeId                     0x20000982   Data           1  master_od.o(.data)
    master_heartBeatTimers                   0x20000984   Data           2  master_od.o(.data)
    master_obj1000                           0x20000988   Data           4  master_od.o(.data)
    master_Index1000                         0x2000098c   Data          16  master_od.o(.data)
    master_obj1001                           0x2000099c   Data           1  master_od.o(.data)
    master_Index1001                         0x200009a0   Data          16  master_od.o(.data)
    master_highestSubIndex_obj1003           0x200009b0   Data           1  master_od.o(.data)
    master_obj1003                           0x200009b4   Data           4  master_od.o(.data)
    master_Index1003                         0x200009b8   Data          32  master_od.o(.data)
    master_obj1005                           0x200009d8   Data           4  master_od.o(.data)
    master_Index1005                         0x200009dc   Data          16  master_od.o(.data)
    master_obj1006                           0x200009ec   Data           4  master_od.o(.data)
    master_Index1006                         0x200009f0   Data          16  master_od.o(.data)
    master_obj100C                           0x20000a00   Data           2  master_od.o(.data)
    master_obj100D                           0x20000a02   Data           1  master_od.o(.data)
    master_obj1014                           0x20000a04   Data           4  master_od.o(.data)
    master_Index1014                         0x20000a08   Data          16  master_od.o(.data)
    master_highestSubIndex_obj1016           0x20000a18   Data           1  master_od.o(.data)
    master_obj1016                           0x20000a1c   Data           8  master_od.o(.data)
    master_Index1016                         0x20000a24   Data          48  master_od.o(.data)
    master_obj1017                           0x20000a54   Data           2  master_od.o(.data)
    master_Index1017                         0x20000a58   Data          16  master_od.o(.data)
    master_highestSubIndex_obj1018           0x20000a68   Data           1  master_od.o(.data)
    master_obj1018_Vendor_ID                 0x20000a6c   Data           4  master_od.o(.data)
    master_obj1018_Product_Code              0x20000a70   Data           4  master_od.o(.data)
    master_obj1018_Revision_Number           0x20000a74   Data           4  master_od.o(.data)
    master_obj1018_Serial_Number             0x20000a78   Data           4  master_od.o(.data)
    master_Index1018                         0x20000a7c   Data          80  master_od.o(.data)
    master_highestSubIndex_obj1200           0x20000acc   Data           1  master_od.o(.data)
    master_obj1200_COB_ID_Client_to_Server_Receive_SDO 0x20000ad0   Data           4  master_od.o(.data)
    master_obj1200_COB_ID_Server_to_Client_Transmit_SDO 0x20000ad4   Data           4  master_od.o(.data)
    master_Index1200                         0x20000ad8   Data          48  master_od.o(.data)
    master_highestSubIndex_obj1280           0x20000b08   Data           1  master_od.o(.data)
    master_obj1280_COB_ID_Client_to_Server_Transmit_SDO 0x20000b0c   Data           4  master_od.o(.data)
    master_obj1280_COB_ID_Server_to_Client_Receive_SDO 0x20000b10   Data           4  master_od.o(.data)
    master_obj1280_Node_ID_of_the_SDO_Server 0x20000b14   Data           1  master_od.o(.data)
    master_Index1280                         0x20000b18   Data          64  master_od.o(.data)
    master_highestSubIndex_obj1281           0x20000b58   Data           1  master_od.o(.data)
    master_obj1281_COB_ID_Client_to_Server_Transmit_SDO 0x20000b5c   Data           4  master_od.o(.data)
    master_obj1281_COB_ID_Server_to_Client_Receive_SDO 0x20000b60   Data           4  master_od.o(.data)
    master_obj1281_Node_ID_of_the_SDO_Server 0x20000b64   Data           1  master_od.o(.data)
    master_Index1281                         0x20000b68   Data          64  master_od.o(.data)
    master_highestSubIndex_obj1400           0x20000ba8   Data           1  master_od.o(.data)
    master_obj1400_COB_ID_used_by_PDO        0x20000bac   Data           4  master_od.o(.data)
    master_obj1400_Transmission_Type         0x20000bb0   Data           1  master_od.o(.data)
    master_obj1400_Inhibit_Time              0x20000bb2   Data           2  master_od.o(.data)
    master_obj1400_Compatibility_Entry       0x20000bb4   Data           1  master_od.o(.data)
    master_obj1400_Event_Timer               0x20000bb6   Data           2  master_od.o(.data)
    master_obj1400_SYNC_start_value          0x20000bb8   Data           1  master_od.o(.data)
    master_Index1400                         0x20000bbc   Data         112  master_od.o(.data)
    master_highestSubIndex_obj1401           0x20000c2c   Data           1  master_od.o(.data)
    master_obj1401_COB_ID_used_by_PDO        0x20000c30   Data           4  master_od.o(.data)
    master_obj1401_Transmission_Type         0x20000c34   Data           1  master_od.o(.data)
    master_obj1401_Inhibit_Time              0x20000c36   Data           2  master_od.o(.data)
    master_obj1401_Compatibility_Entry       0x20000c38   Data           1  master_od.o(.data)
    master_obj1401_Event_Timer               0x20000c3a   Data           2  master_od.o(.data)
    master_obj1401_SYNC_start_value          0x20000c3c   Data           1  master_od.o(.data)
    master_Index1401                         0x20000c40   Data         112  master_od.o(.data)
    master_highestSubIndex_obj1402           0x20000cb0   Data           1  master_od.o(.data)
    master_obj1402_COB_ID_used_by_PDO        0x20000cb4   Data           4  master_od.o(.data)
    master_obj1402_Transmission_Type         0x20000cb8   Data           1  master_od.o(.data)
    master_obj1402_Inhibit_Time              0x20000cba   Data           2  master_od.o(.data)
    master_obj1402_Compatibility_Entry       0x20000cbc   Data           1  master_od.o(.data)
    master_obj1402_Event_Timer               0x20000cbe   Data           2  master_od.o(.data)
    master_obj1402_SYNC_start_value          0x20000cc0   Data           1  master_od.o(.data)
    master_Index1402                         0x20000cc4   Data         112  master_od.o(.data)
    master_highestSubIndex_obj1600           0x20000d34   Data           1  master_od.o(.data)
    master_obj1600                           0x20000d38   Data          12  master_od.o(.data)
    master_Index1600                         0x20000d44   Data          64  master_od.o(.data)
    master_highestSubIndex_obj1601           0x20000d84   Data           1  master_od.o(.data)
    master_obj1601                           0x20000d88   Data           4  master_od.o(.data)
    master_Index1601                         0x20000d8c   Data          32  master_od.o(.data)
    master_highestSubIndex_obj1602           0x20000dac   Data           1  master_od.o(.data)
    master_obj1602                           0x20000db0   Data          16  master_od.o(.data)
    master_Index1602                         0x20000dc0   Data          80  master_od.o(.data)
    master_highestSubIndex_obj1800           0x20000e10   Data           1  master_od.o(.data)
    master_obj1800_COB_ID_used_by_PDO        0x20000e14   Data           4  master_od.o(.data)
    master_obj1800_Transmission_Type         0x20000e18   Data           1  master_od.o(.data)
    master_obj1800_Inhibit_Time              0x20000e1a   Data           2  master_od.o(.data)
    master_obj1800_Compatibility_Entry       0x20000e1c   Data           1  master_od.o(.data)
    master_obj1800_Event_Timer               0x20000e1e   Data           2  master_od.o(.data)
    master_obj1800_SYNC_start_value          0x20000e20   Data           1  master_od.o(.data)
    master_Index1800                         0x20000e24   Data         112  master_od.o(.data)
    master_highestSubIndex_obj1801           0x20000e94   Data           1  master_od.o(.data)
    master_obj1801_COB_ID_used_by_PDO        0x20000e98   Data           4  master_od.o(.data)
    master_obj1801_Transmission_Type         0x20000e9c   Data           1  master_od.o(.data)
    master_obj1801_Inhibit_Time              0x20000e9e   Data           2  master_od.o(.data)
    master_obj1801_Compatibility_Entry       0x20000ea0   Data           1  master_od.o(.data)
    master_obj1801_Event_Timer               0x20000ea2   Data           2  master_od.o(.data)
    master_obj1801_SYNC_start_value          0x20000ea4   Data           1  master_od.o(.data)
    master_Index1801                         0x20000ea8   Data         112  master_od.o(.data)
    master_highestSubIndex_obj1802           0x20000f18   Data           1  master_od.o(.data)
    master_obj1802_COB_ID_used_by_PDO        0x20000f1c   Data           4  master_od.o(.data)
    master_obj1802_Transmission_Type         0x20000f20   Data           1  master_od.o(.data)
    master_obj1802_Inhibit_Time              0x20000f22   Data           2  master_od.o(.data)
    master_obj1802_Compatibility_Entry       0x20000f24   Data           1  master_od.o(.data)
    master_obj1802_Event_Timer               0x20000f26   Data           2  master_od.o(.data)
    master_obj1802_SYNC_start_value          0x20000f28   Data           1  master_od.o(.data)
    master_Index1802                         0x20000f2c   Data         112  master_od.o(.data)
    master_highestSubIndex_obj1A00           0x20000f9c   Data           1  master_od.o(.data)
    master_obj1A00                           0x20000fa0   Data           8  master_od.o(.data)
    master_Index1A00                         0x20000fa8   Data          48  master_od.o(.data)
    master_highestSubIndex_obj1A01           0x20000fd8   Data           1  master_od.o(.data)
    master_obj1A01                           0x20000fdc   Data           8  master_od.o(.data)
    master_Index1A01                         0x20000fe4   Data          48  master_od.o(.data)
    master_highestSubIndex_obj1A02           0x20001014   Data           1  master_od.o(.data)
    master_obj1A02                           0x20001018   Data           4  master_od.o(.data)
    master_Index1A02                         0x2000101c   Data          32  master_od.o(.data)
    master_Index2000                         0x2000103c   Data          16  master_od.o(.data)
    master_Index2001                         0x2000104c   Data          16  master_od.o(.data)
    master_Index2002                         0x2000105c   Data          16  master_od.o(.data)
    master_Index2003                         0x2000106c   Data          16  master_od.o(.data)
    master_Index2004                         0x2000107c   Data          16  master_od.o(.data)
    master_Index2005                         0x2000108c   Data          16  master_od.o(.data)
    master_Index2006                         0x2000109c   Data          16  master_od.o(.data)
    master_Index2007                         0x200010ac   Data          16  master_od.o(.data)
    master_Index2008                         0x200010bc   Data          16  master_od.o(.data)
    master_Index2009                         0x200010cc   Data          16  master_od.o(.data)
    master_highestSubIndex_obj200A           0x200010dc   Data           1  master_od.o(.data)
    master_Index200A                         0x200010e0   Data          80  master_od.o(.data)
    master_PDO_status                        0x20001130   Data          54  master_od.o(.data)
    g_stMasterData                           0x20001168   Data         720  master_od.o(.data)
    g_pstMasterDict                          0x20001440   Data           4  master_function.o(.data)
    Flag_DOWN                                0x20001466   Data           1  lift_ctrl.o(.data)
    PowerTmp                                 0x20001468   Data           4  lift_ctrl.o(.data)
    g_LiftMgrTaskHandle                      0x20001484   Data           4  task_lift_mgr.o(.data)
    Weight_AD0                               0x20001518   Data           4  ads1230_app.o(.data)
    AD0_Value                                0x2000151c   Data           2  ads1230_app.o(.data)
    AD1_Value                                0x2000151e   Data           2  ads1230_app.o(.data)
    Weight_OffSet                            0x20001520   Data           4  ads1230_app.o(.data)
    RealWeight                               0x20001524   Data           4  ads1230_app.o(.data)
    CalibrateCoe                             0x20001528   Data           4  ads1230_app.o(.data)
    s_astChlInfo                             0x20001538   Data          40  ads1230_drv.o(.data)
    g_RxByte                                 0x20001568   Data           1  public_var.o(.data)
    g_RxByte4                                0x20001569   Data           1  public_var.o(.data)
    g_EmergInputEventHandle                  0x2000156c   Data           4  public_var.o(.data)
    g_FindZeroEventHandle                    0x20001570   Data           4  public_var.o(.data)
    g_PushRodBackToZeroEventHandle           0x20001574   Data           4  public_var.o(.data)
    g_MySendxQueue                           0x20001578   Data           4  public_var.o(.data)
    g_ServeonlineCheckcnt                    0x2000157c   Data           4  public_var.o(.data)
    g_PressSenOnlineCheckcnt                 0x20001580   Data           4  public_var.o(.data)
    g_GrySenOnlineCheckcnt                   0x20001584   Data           4  public_var.o(.data)
    g_stMasterStat                           0x20001588   Data           3  public_var.o(.data)
    g_stRunningSpeedPram                     0x2000158b   Data           2  public_var.o(.data)
    s_stServeMotorStaTmp                     0x2000158d   Data           5  public_var.o(.data)
    pFlash                                   0x20001594   Data          32  stm32f4xx_hal_flash.o(.bss)
    xQueueRegistry                           0x200015b4   Data          80  queue.o(.bss)
    timers                                   0x2001a7a8   Data         744  timer.o(.bss)
    g_stCan1Handle                           0x2001aa90   Data          40  can_stm32.o(.bss)
    g_stCan2Handle                           0x2001aab8   Data          40  can_stm32.o(.bss)
    g_stTim3Handle                           0x2001aae0   Data          64  timer_stm32.o(.bss)
    g_stEncoderHandle                        0x2001ac40   Data          64  bsp_encoder.o(.bss)
    _SEGGER_RTT                              0x2001b27c   Data         120  segger_rtt.o(.bss)
    s_stSensorData                           0x2001bc00   Data          24  ads1230_app.o(.bss)
    stPressureSensorParam                    0x2001bc18   Data          12  ads1230_app.o(.bss)
    g_stRunningPram                          0x2001bc24   Data          24  public_var.o(.bss)
    g_stStoreDatTmp                          0x2001bc3c   Data          12  public_var.o(.bss)
    g_stUartSendBuff                         0x2001bc48   Data         133  public_var.o(.bss)
    g_stRodsta                               0x2001bccd   Data          16  public_var.o(.bss)
    s_stSendtmp                              0x2001bcdd   Data         133  public_var.o(.bss)
    stMasterPrame                            0x2001bd62   Data          30  public_var.o(.bss)
    __initial_sp                             0x2001cdb0   Data           0  startup_stm32f407xx.o(STACK)



==============================================================================

Memory Map of the image

  Image Entry point : 0x08000189

  Load Region LR_IROM1 (Base: 0x08000000, Size: 0x0002259c, Max: 0x00080000, ABSOLUTE, COMPRESSED[0x00021570])

    Execution Region ER_IROM1 (Exec base: 0x08000000, Load base: 0x08000000, Size: 0x00021008, Max: 0x00080000, ABSOLUTE)

    Exec Addr    Load Addr    Size         Type   Attr      Idx    E Section Name        Object

    0x08000000   0x08000000   0x00000188   Data   RO          131    RESET               startup_stm32f407xx.o
    0x08000188   0x08000188   0x00000000   Code   RO         2556  * .ARM.Collect$$$$00000000  mc_w.l(entry.o)
    0x08000188   0x08000188   0x00000004   Code   RO         2861    .ARM.Collect$$$$00000001  mc_w.l(entry2.o)
    0x0800018c   0x0800018c   0x00000004   Code   RO         2864    .ARM.Collect$$$$00000004  mc_w.l(entry5.o)
    0x08000190   0x08000190   0x00000000   Code   RO         2866    .ARM.Collect$$$$00000008  mc_w.l(entry7b.o)
    0x08000190   0x08000190   0x00000000   Code   RO         2868    .ARM.Collect$$$$0000000A  mc_w.l(entry8b.o)
    0x08000190   0x08000190   0x00000008   Code   RO         2869    .ARM.Collect$$$$0000000B  mc_w.l(entry9a.o)
    0x08000198   0x08000198   0x00000000   Code   RO         2871    .ARM.Collect$$$$0000000D  mc_w.l(entry10a.o)
    0x08000198   0x08000198   0x00000000   Code   RO         2873    .ARM.Collect$$$$0000000F  mc_w.l(entry11a.o)
    0x08000198   0x08000198   0x00000004   Code   RO         2862    .ARM.Collect$$$$00002712  mc_w.l(entry2.o)
    0x0800019c   0x0800019c   0x000000b6   Code   RO          989    .emb_text           port.o
    0x08000252   0x08000252   0x00000002   PAD
    0x08000254   0x08000254   0x00000120   Code   RO            4    .text               system_stm32f4xx.o
    0x08000374   0x08000374   0x00000024   Code   RO          132    .text               startup_stm32f407xx.o
    0x08000398   0x08000398   0x000005ec   Code   RO          139    .text               stm32f4xx_hal_flash_ex.o
    0x08000984   0x08000984   0x0000024c   Code   RO          168    .text               stm32f4xx_hal.o
    0x08000bd0   0x08000bd0   0x00000f64   Code   RO          195    .text               stm32f4xx_hal_can.o
    0x08001b34   0x08001b34   0x000006c4   Code   RO          219    .text               stm32f4xx_hal_cortex.o
    0x080021f8   0x080021f8   0x00000c10   Code   RO          247    .text               stm32f4xx_hal_dma.o
    0x08002e08   0x08002e08   0x00000570   Code   RO          272    .text               stm32f4xx_hal_flash.o
    0x08003378   0x08003378   0x000006e0   Code   RO          299    .text               stm32f4xx_hal_gpio.o
    0x08003a58   0x08003a58   0x00000bd8   Code   RO          341    .text               stm32f4xx_hal_rcc.o
    0x08004630   0x08004630   0x00006234   Code   RO          365    .text               stm32f4xx_hal_tim.o
    0x0800a864   0x0800a864   0x000003a4   Code   RO          389    .text               power.o
    0x0800ac08   0x0800ac08   0x00001760   Code   RO          600    .text               stm32f4xx_hal_tim_ex.o
    0x0800c368   0x0800c368   0x00000554   Code   RO          648    .text               stm32f4xx_hal_dac.o
    0x0800c8bc   0x0800c8bc   0x000002dc   Code   RO          672    .text               stm32f4xx_hal_dac_ex.o
    0x0800cb98   0x0800cb98   0x00000094   Code   RO          834    .text               list.o
    0x0800cc2c   0x0800cc2c   0x00000bd0   Code   RO          858    .text               queue.o
    0x0800d7fc   0x0800d7fc   0x0000118c   Code   RO          888    .text               tasks.o
    0x0800e988   0x0800e988   0x000005ac   Code   RO          935    .text               timers.o
    0x0800ef34   0x0800ef34   0x000002a4   Code   RO          962    .text               heap_4.o
    0x0800f1d8   0x0800f1d8   0x000002f8   Code   RO          990    .text               port.o
    0x0800f4d0   0x0800f4d0   0x000002f8   Code   RO         1110    .text               emcy.o
    0x0800f7c8   0x0800f7c8   0x000003ec   Code   RO         1138    .text               lifegrd.o
    0x0800fbb4   0x0800fbb4   0x00000084   Code   RO         1183    .text               nmtmaster.o
    0x0800fc38   0x0800fc38   0x0000010e   Code   RO         1207    .text               nmtslave.o
    0x0800fd46   0x0800fd46   0x00000002   PAD
    0x0800fd48   0x0800fd48   0x00000260   Code   RO         1231    .text               objacces.o
    0x0800ffa8   0x0800ffa8   0x000045bc   Code   RO         1255    .text               sdo.o
    0x08014564   0x08014564   0x000004d0   Code   RO         1280    .text               states.o
    0x08014a34   0x08014a34   0x00000c18   Code   RO         1305    .text               pdo.o
    0x0801564c   0x0801564c   0x00000130   Code   RO         1329    .text               sync.o
    0x0801577c   0x0801577c   0x00000198   Code   RO         1353    .text               timer.o
    0x08015914   0x08015914   0x00000124   Code   RO         1384    .text               slave_od.o
    0x08015a38   0x08015a38   0x000001ac   Code   RO         1415    .text               master_od.o
    0x08015be4   0x08015be4   0x00000274   Code   RO         1446    .text               can_stm32.o
    0x08015e58   0x08015e58   0x00000108   Code   RO         1516    .text               timer_stm32.o
    0x08015f60   0x08015f60   0x0000027c   Code   RO         1547    .text               master_callback.o
    0x080161dc   0x080161dc   0x000003b0   Code   RO         1592    .text               master_function.o
    0x0801658c   0x0801658c   0x000004ec   Code   RO         1625    .text               slave_function.o
    0x08016a78   0x08016a78   0x000001f4   Code   RO         1655    .text               slave_callback.o
    0x08016c6c   0x08016c6c   0x000001a0   Code   RO         1680    .text               main.o
    0x08016e0c   0x08016e0c   0x000003cc   Code   RO         1730    .text               stm32f4xx_hal_msp.o
    0x080171d8   0x080171d8   0x00000084   Code   RO         1760    .text               stm32f4xx_it.o
    0x0801725c   0x0801725c   0x00001314   Code   RO         1792    .text               lift_ctrl.o
    0x08018570   0x08018570   0x00000028   Code   RO         1823    .text               task_start_up.o
    0x08018598   0x08018598   0x0000029c   Code   RO         1859    .text               task_master_msg.o
    0x08018834   0x08018834   0x00000290   Code   RO         1892    .text               task_slave_msg.o
    0x08018ac4   0x08018ac4   0x00000204   Code   RO         1925    .text               task_lift_mgr.o
    0x08018cc8   0x08018cc8   0x00000104   Code   RO         1955    .text               task_canopen_com.o
    0x08018dcc   0x08018dcc   0x000002e8   Code   RO         1981    .text               key.o
    0x080190b4   0x080190b4   0x0000006c   Code   RO         2007    .text               led.o
    0x08019120   0x08019120   0x00000100   Code   RO         2037    .text               motor.o
    0x08019220   0x08019220   0x00000d70   Code   RO         2061    .text               servo.o
    0x08019f90   0x08019f90   0x0000048c   Code   RO         2087    .text               bsp_gpio.o
    0x0801a41c   0x0801a41c   0x00000094   Code   RO         2132    .text               bsp_encoder.o
    0x0801a4b0   0x0801a4b0   0x00000074   Code   RO         2162    .text               bsp_dac.o
    0x0801a524   0x0801a524   0x0000039c   Code   RO         2189    .text               bsp_flash.o
    0x0801a8c0   0x0801a8c0   0x0000014c   Code   RO         2213    .text               blink.o
    0x0801aa0c   0x0801aa0c   0x000002d8   Code   RO         2225    .text               debug.o
    0x0801ace4   0x0801ace4   0x000001ec   Code   RO         2239    .text               press.o
    0x0801aed0   0x0801aed0   0x00000168   Code   RO         2251    .text               date_time.o
    0x0801b038   0x0801b038   0x00000b78   Code   RO         2272    .text               segger_rtt.o
    0x0801bbb0   0x0801bbb0   0x000001ac   Code   RO         2291    .text               verson.o
    0x0801bd5c   0x0801bd5c   0x000001e4   Code   RO         2309    .text               ads1230_api.o
    0x0801bf40   0x0801bf40   0x00000644   Code   RO         2343    .text               ads1230_app.o
    0x0801c584   0x0801c584   0x00000174   Code   RO         2406    .text               ads1230_drv.o
    0x0801c6f8   0x0801c6f8   0x00000070   Code   RO         2436    .text               delay.o
    0x0801c768   0x0801c768   0x000000c0   Code   RO         2462    .text               public_var.o
    0x0801c828   0x0801c828   0x00000a12   Code   RO         2496    .text               cmsis_os.o
    0x0801d23a   0x0801d23a   0x00000002   PAD
    0x0801d23c   0x0801d23c   0x00000154   Code   RO         2532    .text               flash_rw.o
    0x0801d390   0x0801d390   0x00000062   Code   RO         2559    .text               mc_w.l(uldiv.o)
    0x0801d3f2   0x0801d3f2   0x00000062   Code   RO         2561    .text               mc_w.l(ldiv.o)
    0x0801d454   0x0801d454   0x000000a8   Code   RO         2567    .text               mc_w.l(mktime.o)
    0x0801d4fc   0x0801d4fc   0x00000024   Code   RO         2570    .text               mc_w.l(memcpya.o)
    0x0801d520   0x0801d520   0x00000024   Code   RO         2572    .text               mc_w.l(memseta.o)
    0x0801d544   0x0801d544   0x0000000e   Code   RO         2574    .text               mc_w.l(strlen.o)
    0x0801d552   0x0801d552   0x0000001a   Code   RO         2576    .text               mc_w.l(memcmp.o)
    0x0801d56c   0x0801d56c   0x00000012   Code   RO         2578    .text               mc_w.l(strcpy.o)
    0x0801d57e   0x0801d57e   0x0000014e   Code   RO         2843    .text               mf_w.l(dadd.o)
    0x0801d6cc   0x0801d6cc   0x000000e4   Code   RO         2845    .text               mf_w.l(dmul.o)
    0x0801d7b0   0x0801d7b0   0x000000de   Code   RO         2847    .text               mf_w.l(ddiv.o)
    0x0801d88e   0x0801d88e   0x00000022   Code   RO         2849    .text               mf_w.l(dflti.o)
    0x0801d8b0   0x0801d8b0   0x0000001a   Code   RO         2851    .text               mf_w.l(dfltui.o)
    0x0801d8ca   0x0801d8ca   0x0000003e   Code   RO         2853    .text               mf_w.l(dfixi.o)
    0x0801d908   0x0801d908   0x00000032   Code   RO         2855    .text               mf_w.l(dfixui.o)
    0x0801d93a   0x0801d93a   0x00000026   Code   RO         2857    .text               mf_w.l(f2d.o)
    0x0801d960   0x0801d960   0x00000038   Code   RO         2859    .text               mf_w.l(d2f.o)
    0x0801d998   0x0801d998   0x0000002c   Code   RO         2878    .text               mc_w.l(uidiv.o)
    0x0801d9c4   0x0801d9c4   0x0000001e   Code   RO         2880    .text               mc_w.l(llshl.o)
    0x0801d9e2   0x0801d9e2   0x00000020   Code   RO         2882    .text               mc_w.l(llushr.o)
    0x0801da02   0x0801da02   0x00000024   Code   RO         2884    .text               mc_w.l(llsshr.o)
    0x0801da26   0x0801da26   0x00000002   PAD
    0x0801da28   0x0801da28   0x0000000c   Code   RO         2886    .text               mc_w.l(localtime_w.o)
    0x0801da34   0x0801da34   0x0000008c   Code   RO         2889    .text               mc_w.l(localtime_i.o)
    0x0801dac0   0x0801dac0   0x00000000   Code   RO         2892    .text               mc_w.l(iusefp.o)
    0x0801dac0   0x0801dac0   0x0000006e   Code   RO         2893    .text               mf_w.l(fepilogue.o)
